:020000040000FA
:020000000DD021
:0400080004EF04F00D
:080018000CEF04F0700ED36E32
:10002000400E9B6E550E5E6FAA0E5F6F989298847D
:10003000800E6B6E260E6C6E000E7D6E100E6F6E57
:10004000070ED56ED1D86B98C5D8C4D8F2B404D0F9
:100050006B886E506E5007D0F2946B6A6C6A5E6B60
:100060005F6B00EF04F0A6D80F0AEDE100EE08F098
:10007000006B016B9FD80F0AF6E00451040A0AE0F6
:100080000451050A01E196D804510027EE6E014F94
:10009000DAD7F0D70053D7E10A51F66EA96E0B51AB
:1000A000F76EAA6E0CC0F8FF00EE0DF00951016F5B
:1000B000D8B4FF00D59E08510808C5E3FA6AFB6A68
:1000C0000845F92608D00DD014D023D02DD037D034
:1000D00008D041D04AD0000E0A6F010E0B6F040EFB
:1000E00046D00900F5CFEEFF012FFBD70951050FD0
:1000F0003ED0F80EF616080EEECFF5FF0D00E82EF6
:10010000FBD70A00840EA66E5DD80900012FF1D737
:100110002DD0940EA66E56D8400EF626E86AF72229
:10012000F822012FF6D722D0A66AA680A8CFEEFF2C
:10013000A94AAA2A012FF8D70951050F18D0EECFE6
:10014000A8FF040EA66E3ED8A6B2FED7A94AAA2AD8
:10015000012FF5D70BD0C40EA66EEECFF5FF0C0025
:1001600031D80900012FF7D701D0FF00010E016F30
:100170000F0E1BD81AD8006B00EE08F0EE500027C7
:1001800008D8012FFBD7006D005103D8040E0DD8FD
:100190005AD7056F0F0A06E00551040A03E005511E
:1001A000050A02E1050E01D805510400A4A8FED7F6
:1001B0006D6E120004006BB2FF00A4AAFED76E5051
:1001C000046F120004005E51A76E5F51A76EA682F5
:1001D00000001200F2B4120086B4FCD70400F2B49E
:1001E000120086A4FCD71200D59EC20ED76EF60E62
:0601F000D66AD58E120054
:06080000B0EF59F01200F8
:0608080007EF3DF01200B5
:06081800D1EF59F01200BF
:06082A001D00A0B5000056
:10083000250500000300000094B50000F001000051
:100840000C00000090B500001E0500000400000030
:100850007DB50000990400001300000079B5000088
:100860001A0500000400000074B50000FB0300003E
:100870000500000072B50000340500000200000011
:1008800070B50000320500000200000068B50000ED
:10089000ED0400000800000060B50000E504000061
:1008A000080000005CB50000160500000400000010
:1008B00056B500000C0500000600000054B500000D
:1008C000300500000200000037B500004E040000B3
:1008D0001D0000002CB50000BE0400000B0000004D
:1008E000CCB400008402000060000000CBB4000023
:1008F000390500000100000047B4000000020000BC
:100900008400000041B4000006050000060000005D
:100910003FB400002E050000020000003DB40000BE
:100920002C050000020000003BB400002A05000076
:100930000200000038B4000022050000030000009F
:10094000C5B30000380500000100000036B4000007
:1009500028050000020000002EB40000DD040000A5
:1009600008000000E6B3000050030000480000004B
:10097000E2B300001205000004000000DCB3000038
:08098000000500000600000064
:08098800D9CFE6FFE1CFD9FF52
:1009900081E974E80A0EE66E51EC58F041E9F35033
:1009A000016EF450026E120EE66E51EC58F041E901
:1009B000F350036EF450046E0D0EE66E6FEC58F0BB
:1009C00041E9F350056EF450066E030EE66E6FECCF
:1009D00058F041E9F350076EF450086E2A0EE66EA7
:1009E00033EC58F041E9F350096EF4500A6E2E0EC4
:1009F000E66E33EC58F041E9F3500B6EF4500C6E98
:100A00000D6A0E6A0F6A106A116A126A136A146A12
:100A1000156A166A176A186A196A1A6A1B6A1C6AC2
:100A20001D6A1E6A1F6A206A236A246A256A266A6A
:100A3000276A286A296A2A6A2B6A2C6A2D6A2E6A12
:100A40002F6A306A316A326A336A346A02340DE3DB
:100A5000E668E66801EBE6FF02EBE6FF1FEC20F03C
:100A6000E552E550026EE750016E010E051801E1F6
:100A7000065001E00AD10401010E831901E18451FD
:100A800001E003D1050EE66E73EC57F041E9FCC1BD
:100A900030F4FDC131F4FEC132F4FFC133F404017E
:100AA000305131113211331101E0EFD0010E031832
:100AB00001E1045001E0E9D00401836B846B256AF5
:100AC000266A030E255C000E265801E3C2D00401FD
:100AD000B60E306FAC0E316F000E326F020EE66E46
:100AE000E66AE66A25EBE6FF26EBE6FFE66A53ECEC
:100AF00020F0E552E5CF35F4E5CF34F4E7CF33F419
:100B0000040130513325F36E31513421F46E3251EA
:100B10003521F86EF4CFF7FFF3CFF6FF0900F5505B
:100B2000276E0A00F550286E27EBE6FF28EBE6FF5C
:100B3000000EE66EE66A0BEBE6FF0CEBE6FF41EC1F
:100B400012F046E9F3CF30F4F4CF31F40401305120
:100B5000116E3151126E136A146A27EBE6FF28EB0F
:100B6000E6FFE66AE66A11EBE6FF12EBE6FF13EB3F
:100B7000E6FF14EBE6FFB3EC20F0E552E5CF33F4EB
:100B8000E5CF32F4E5CF31F4E7CF30F40401305152
:100B9000116E3151126E3251136E3351146E6BC49B
:100BA000E6FF6CC4E6FFE66AE66A11EBE6FF12EBCD
:100BB000E6FF13EBE6FF14EBE6FFB3EC20F0E552A3
:100BC000E5CF33F4E5CF32F4E5CF31F4E7CF30F4BD
:100BD00004013051116E3151126E3251136E335186
:100BE000146E100EE66E270EE66EE66AE66A11EBEC
:100BF000E6FF12EBE6FF13EBE6FF14EBE6FFABECD0
:100C00001FF0E552E5CF33F4E5CF32F4E5CF31F410
:100C1000E7CF30F404013051116E3151126E325170
:100C2000136E3351146E25EBE9FF26EBEAFF010E3C
:100C3000D890E936EA36E806FBE1840EE926030E91
:100C4000EA2211EBEEFF12EBEDFF252A000E262221
:100C500038D70BEB75F40CEB76F404016F6B706B0B
:100C6000716B726B04016D6B6E6B0401776B786B4B
:100C70000501010E386F036A046A000EE66EE66A2B
:100C8000120EE66ED6EC57F043E90B505A080A0EE6
:100C90000C5402E315EF0DF0040175510B5C765115
:100CA0000C580AE20B50755D04016D6F0C50040185
:100CB000765904016E6F03D004016D6B6E6B010EEB
:100CC000031801E1045001E083D03C0EE66EE66AB1
:100CD000E66AE66A720EE66EE66AE66AE66A01EBC4
:100CE00034F402EB35F40401366B376B35AF02D0C8
:100CF0003669376934C4E6FF35C4E6FF36C4E6FF1B
:100D000037C4E6FFB3EC20F0ABEC1FF0E552E5CFC3
:100D100033F4E5CF32F4E5CF31F4E7CF30F46F0EA2
:100D2000E96E040EEA6EEE5004013027EE503123D6
:100D3000EE503223EE50332330C46FF431C470F4DC
:100D400032C471F433C472F4E80EE66E030EE66E3C
:100D5000E66AE66A6BC4E6FF6CC4E6FFE66AE66A2A
:100D6000B3EC20F0E552E5CF33F4E5CF32F4E5CF34
:100D700031F4E7CF30F46F0EE96E040EEA6EEE50F8
:100D80000401305DEE503159EE503259EE50335976
:100D900017E2E80EE66E030EE66EE66AE66A6BC4DC
:100DA000E6FF6CC4E6FFE66AE66AB3EC20F0E552C3
:100DB000E5CF72F4E5CF71F4E5CF70F4E7CF6FF4CF
:100DC000000EE66EE66A120EE66ED6EC57F043E9C8
:100DD00004016D516408000E6E5502E315EF0DF02D
:100DE000010E031801E1045002E015EF0DF0256A31
:100DF000266A030E255C000E265801E3C2D00401CA
:100E0000B60E306FAC0E316F000E326F020EE66E12
:100E1000E66AE66A25EBE6FF26EBE6FFE66A53ECB8
:100E200020F0E552E5CF35F4E5CF34F4E7CF33F4E5
:100E3000040130513325F36E31513421F46E3251B7
:100E40003521F86EF4CFF7FFF3CFF6FF0900F55028
:100E5000276E0A00F550286E27EBE6FF28EBE6FF29
:100E6000000EE66EE66A0BEBE6FF0CEBE6FF41ECEC
:100E700012F046E9F3CF30F4F4CF31F404013051ED
:100E8000116E3151126E136A146A27EBE6FF28EBDC
:100E9000E6FFE66AE66A11EBE6FF12EBE6FF13EB0C
:100EA000E6FF14EBE6FFB3EC20F0E552E5CF33F4B8
:100EB000E5CF32F4E5CF31F4E7CF30F4040130511F
:100EC000116E3151126E3251136E3351146E6BC468
:100ED000E6FF6CC4E6FFE66AE66A11EBE6FF12EB9A
:100EE000E6FF13EBE6FF14EBE6FFB3EC20F0E55270
:100EF000E5CF33F4E5CF32F4E5CF31F4E7CF30F48A
:100F000004013051116E3151126E3251136E335152
:100F1000146E100EE66E270EE66EE66AE66A11EBB8
:100F2000E6FF12EBE6FF13EBE6FF14EBE6FFABEC9C
:100F30001FF0E552E5CF33F4E5CF32F4E5CF31F4DD
:100F4000E7CF30F404013051116E3151126E32513D
:100F5000136E3351146E25EBE9FF26EBEAFF010E09
:100F6000D890E936EA36E806FBE18A0EE926030E58
:100F7000EA2211EBEEFF12EBEDFF252A000E2622EE
:100F800038D7256A266A030E255C000E26583DE2F6
:100F900025EBE9FF26EBEAFF010ED890E936EA36A9
:100FA000E806FBE1840EE926030EEA22EECF32F4D6
:100FB000EFCF33F425EBE9FF26EBEAFF010ED890E3
:100FC000E936EA36E806FBE18A0EE926030EEA2254
:100FD000EE500401325D306FEE503359316F25EB26
:100FE000E9FF26EBEAFF010ED890E936EA36E8067B
:100FF000FBE1900EE926030EEA2230C4EEFF31C475
:10100000EDFF252A000E2622BED7256A266AE80EA5
:10101000E66E030EE66EE66AE66A25EBE9FF26EB6E
:10102000EAFF010ED890E936EA36E806FBE1900EB9
:10103000E926030EEA22EECFE6FFEECFE6FFE66AF0
:10104000E66AB3EC20F0E552E5CF33F4E5CF32F4B5
:10105000E5CF31F4E7CF30F404013051196E31514E
:101060001A6E32511B6E33511C6E04016F51195CA4
:1010700070511A5871511B5872511C5837E3030EA6
:10108000255C000E265832E2252A000E2622E80EA4
:10109000E66E030EE66EE66AE66A25EBE9FF26EBEE
:1010A000EAFF010ED890E936EA36E806FBE1900E39
:1010B000E926030EEA22EECFE6FFEECFE6FFE66A70
:1010C000E66AB3EC20F0E552E5CF33F4E5CF32F435
:1010D000E5CF31F4E7CF30F404013051196E3151CE
:1010E0001A6E32511B6E33511C6EBFD7255026101D
:1010F00001E0D6D06E0E316E326A0401B60E306F4A
:10110000AC0E316F000E326F020EE66EE66AE66AD2
:101110002528366F000E2620376F36C4E6FF37C409
:10112000E6FFE66A53EC20F0E552E5CF35F4E5CF73
:1011300034F4E7CF33F4040130513325F36E3151E9
:101140003421F46E32513521F86EF4CFF7FFF3CF2E
:10115000F6FF0900F550336E0A00F550346EB60EF6
:10116000306FAC0E316F000E326F020EE66EE66A23
:10117000E66A25EBE6FF26EBE6FFE66A53EC20F095
:10118000E552E5CF35F4E5CF34F4E7CF33F404018D
:1011900030513325F36E31513421F46E3251352103
:1011A000F86EF4CFF7FFF3CFF6FF0900F550276E86
:1011B0000A00F550286E25EBE9FF26EBEAFF010E49
:1011C000D890E936EA36E806FBE1900EE926030EF0
:1011D000EA22EECFE6FFEECFE6FFE66AE66A6FC4EC
:1011E000E6FF70C4E6FF71C4E6FF72C4E6FFABEC35
:1011F0001FF0E552E5CF33F4E5CF32F4E5CF31F41B
:10120000E7CF30F4040130510D6E31510E6E325182
:101210000F6E3351106E27EBE6FF28EBE6FFE66A10
:10122000E66A0DEBE6FF0EEBE6FF0FEBE6FF10EBD9
:10123000E6FFB3EC20F0E552E5CF33F4E5CF32F42E
:10124000E5CF31F4E7CF30F4040130510D6E315168
:101250000E6E32510F6E3351106EE80EE66E030EB5
:10126000E66EE66AE66A0DEBE6FF0EEBE6FF0FEBD5
:10127000E6FF10EBE6FFABEC1FF0E552E5CF33F4F1
:10128000E5CF32F4E5CF31F4E7CF30F4040130514B
:101290000D6E31510E6E32510F6E3351106EA3D25E
:1012A000030E255C000E265801E2DCD00401B60EC8
:1012B000306FAC0E316F000E326F020EE66EE66AD2
:1012C000E66A2504366F000E2658376F36C4E6FFEF
:1012D00037C4E6FFE66A53EC20F0E552E5CF35F47B
:1012E000E5CF34F4E7CF33F4040130513325F36E06
:1012F00031513421F46E32513521F86EF4CFF7FFBD
:10130000F3CFF6FF0900F550316E0A00F550326E4A
:10131000320E336E346AB60E306FAC0E316F000E83
:10132000326F020EE66EE66AE66A2504366F000E3C
:101330002658376F36C4E6FF37C4E6FFE66A53EC3B
:1013400020F0E552E5CF35F4E5CF34F4E7CF33F4C0
:10135000040130513325F36E31513421F46E325192
:101360003521F86EF4CFF7FFF3CFF6FF0900F55003
:10137000276E0A00F550286E2504E96E000E2658E7
:10138000EA6E010ED890E936EA36E806FBE1900EE7
:10139000E926030EEA22EECFE6FFEECFE6FFE66A8D
:1013A000E66A6FC4E6FF70C4E6FF71C4E6FF72C46C
:1013B000E6FFABEC1FF0E552E5CF33F4E5CF32F4B6
:1013C000E5CF31F4E7CF30F4040130510D6E3151E7
:1013D0000E6E32510F6E3351106E27EBE6FF28EB85
:1013E000E6FFE66AE66A0DEBE6FF0EEBE6FF0FEBC3
:1013F000E6FF10EBE6FFB3EC20F0E552E5CF33F467
:10140000E5CF32F4E5CF31F4E7CF30F404013051C9
:101410000D6E31510E6E32510F6E3351106EE80E5B
:10142000E66E030EE66EE66AE66A0DEBE6FF0EEB8D
:10143000E6FF0FEBE6FF10EBE6FFABEC1FF0E5522B
:10144000E5CF33F4E5CF32F4E5CF31F4E7CF30F434
:10145000040130510D6E31510E6E32510F6E335109
:10146000106EC1D10401B60E306FAC0E316F000E9C
:10147000326F020EE66EE66AE66A2504366F000EEB
:101480002658376F36C4E6FF37C4E6FFE66A53ECEA
:1014900020F0E552E5CF35F4E5CF34F4E7CF33F46F
:1014A000040130513325F36E31513421F46E325141
:1014B0003521F86EF4CFF7FFF3CFF6FF0900F550B2
:1014C000316E0A00F550326EB60E306FAC0E316FD1
:1014D000000E326F020EE66EE66AE66A25EBE6FF64
:1014E00026EBE6FFE66A53EC20F0E552E5CF35F453
:1014F000E5CF34F4E7CF33F4040130513325F36EF4
:1015000031513421F46E32513521F86EF4CFF7FFAA
:10151000F3CFF6FF0900F550336E0A00F550346E34
:10152000B60E306FAC0E316F000E326F020EE66EEB
:10153000E66AE66A2504366F000E2658376F36C411
:10154000E6FF37C4E6FFE66A53EC20F0E552E5CF4C
:1015500035F4E5CF34F4E7CF33F4040130513325CB
:10156000F36E31513421F46E32513521F86EF4CFDF
:10157000F7FFF3CFF6FF0900F550296E0A00F5508A
:101580002A6EB60E306FAC0E316F000E326F020E47
:10159000E66EE66AE66A25EBE6FF26EBE6FFE66A1C
:1015A00053EC20F0E552E5CF35F4E5CF34F4E7CF46
:1015B00033F4040130513325F36E31513421F46E8C
:1015C00032513521F86EF4CFF7FFF3CFF6FF090063
:1015D000F5502B6E0A00F5502C6E2504E96E000EB6
:1015E0002658EA6E010ED890E936EA36E806FBE1A5
:1015F000900EE926030EEA22EE502D6EED502E6E6F
:1016000025EBE9FF26EBEAFF010ED890E936EA3632
:10161000E806FBE1900EE926030EEA22EE502F6E5B
:10162000ED50306E04012B50295C306F2C502A583D
:10163000316F30511D6E31511E6E1F6A206AE80EE7
:10164000E66E030EE66EE66AE66A1DEBE6FF1EEB4B
:10165000E6FF1FEBE6FF20EBE6FFB3EC20F0E552E0
:10166000E5CF33F4E5CF32F4E5CF31F4E7CF30F412
:10167000040130511D6E31511E6E32511F6E3351B7
:10168000206E2F502D5C346F30502E58356F34C47F
:10169000E6FF35C4E6FFE66AE66A1DEBE6FF1EEBF1
:1016A000E6FF1FEBE6FF20EBE6FFABEC1FF0E55299
:1016B000E5CF33F4E5CF32F4E5CF31F4E7CF30F4C2
:1016C000040130511D6E31511E6E32511F6E335167
:1016D000206EE80EE66E030EE66EE66AE66A2FEB13
:1016E000E6FF30EBE6FFE66AE66AB3EC20F0E5528F
:1016F000E5CF3BF4E5CF3AF4E5CF39F4E7CF38F462
:101700006F0EE96E040EEA6E04013851EE5C346F20
:101710003951EE58356F3A51EE58366F3B51EE580D
:10172000376F34C4E6FF35C4E6FF36C4E6FF37C47E
:10173000E6FF1DEBE6FF1EEBE6FF1FEBE6FF20EBEF
:10174000E6FFB3EC20F0E552E5CF33F4E5CF32F419
:10175000E5CF31F4E7CF30F4040130510D6E315153
:101760000E6E32510F6E3351106E400EE66E420E09
:10177000E66E0F0EE66EE66A0DEBE6FF0EEBE6FF99
:101780000FEBE6FF10EBE6FFABEC1FF0E552E5CF09
:1017900033F4E5CF32F4E5CF31F4E7CF30F4040190
:1017A00030510D6E31510E6E32510F6E3351106E3D
:1017B0002BEB30F42CEB31F4326B336BD9500D0F33
:1017C000E96EDACFEAFFEE503027EE503123EE50CB
:1017D0003223EE50332330510D6E31510E6E3251A3
:1017E0000F6E3351106E31EBE6FF32EBE6FFE66A27
:1017F000E66AFC0EE350D8800D54FD0EE3500E5403
:10180000FE0EE3500F54FF0EE350105444E90BE278
:1018100031EB30F432EB31F430510D6E31510E6E4C
:101820000F6A106A1ED033EBE6FF34EBE6FFE66A80
:10183000E66AFC0EE3500D5CFD0EE3500E58FE0E02
:10184000E3500F58FF0EE350105844E90AE233EB1F
:1018500030F434EB31F430510D6E31510E6E0F6AAD
:10186000106A0DEBE6FF0EEBE6FF2B0EE66EB7EC13
:1018700057F043E90501380532E1386B020EE66E98
:10188000E66A0A0EE66EE66A77C4E6FF78C4E6FF0B
:10189000C1EC1EF01FEC20F0E552E5CFEAFFE7CFE8
:1018A000E9FF850EE926040EEA2209EBEEFF0AEBBA
:1018B000EDFF0A0EE66EE66A77C430F478C431F4C0
:1018C0000401302B000E312330C4E6FF31C4E6FFA3
:1018D000C1EC1EF0E552E5CF78F4E7CF77F4020EC5
:1018E000E66EE66A0A0EE66EE66A77C4E6FF78C43C
:1018F000E6FFC1EC1EF01FEC20F0E552E5CFEAFF59
:10190000E7CFE9FF850EE926040EEA220DEBEEFF94
:101910000EEBEDFF0A0EE66EE66A77C430F478C48B
:1019200031F40401302B000E312330C4E6FF31C402
:10193000E6FFC1EC1EF0E552E5CF78F4E7CF77F48F
:10194000216A226A04017751215C7851225816E2FB
:1019500021EBE9FF22EBEAFF010ED890E936EA36E7
:10196000E806FBE1850EE926040EEA22EE50232666
:10197000ED502422212A000E2222E4D777C4E6FF6C
:1019800078C4E6FF23EBE6FF24EBE6FFBEEC1EF097
:10199000E552E550246EE750236E23EBE6FF24EB7F
:1019A000E6FF2A0EE66EB7EC57F043E923EBE6FFBD
:1019B000200EE66EC8EC58F042E9256A266A030E4E
:1019C000255C000E265828E225EBE9FF26EBEAFF0E
:1019D000010ED890E936EA36E806FBE18A0EE926E0
:1019E000030EEA22EECF30F4EFCF31F425EBE9FF1E
:1019F00026EBEAFF010ED890E936EA36E806FBE16D
:101A0000840EE926030EEA2230C4EEFF31C4EDFF56
:101A1000252A000E2622D3D704016F6B706B716BE1
:101A2000726B0BEB75F40CEB76F475E9E7CFD9FF2D
:021A30001200A2
:0E1A3200D9CFE6FFE1CFD9FF81E95BE81E0EB8
:101A4000E66E33EC58F041E9F350016EF450026E4B
:101A5000030EE66E6FEC58F041E9F350036EF4505C
:101A6000046E040EE66E6FEC58F041E9F350056E1B
:101A7000F450066E076A086A096A0A6A0B6A0C6AF9
:101A80000D6A0E6A0F6A106A116A126A136A146A82
:101A9000156A166A176A186A196A1A6A1B6A0401B3
:101AA000BE050BE1E80EE66E030EE66EE66EC5ECD3
:101AB00056F043E90401BE6B1DD0030EE66E4EECFA
:101AC00057F041E9F3501A6EF4501B6E1A501B1078
:101AD00009E1010EE66EE66A090EE66EF5EC57F0D6
:101AE00043E908D0000EE66EE66A090EE66EF5ECF4
:101AF00057F043E904011851076E1951086E030E9F
:101B0000E66EE66A07EBE6FF08EBE6FF1FEC20F067
:101B1000E552E550086EE750076E040100510726B4
:101B200001510822040EE66EE66A07EBE6FF08EBB9
:101B3000E6FFBEEC1EF0E552E550086EE750076E7A
:101B400000C418F401C419F4010EE66E07EBE6FFB9
:101B500008EBE6FF39EC2EF043E9F350096EF45040
:101B60000A6E09EBE6FF0AEBE6FFE66AD6EC57F0F1
:101B700043E909EBE6FF0AEBE6FF010EE66EB7EC80
:101B800057F043E904011C51076E1D51086E030E06
:101B9000E66EE66A07EBE6FF08EBE6FF1FEC20F0D7
:101BA000E552E550086EE750076E04010451072620
:101BB00005510822040EE66EE66A07EBE6FF08EB25
:101BC000E6FFBEEC1EF0E552E550086EE750076EEA
:101BD00004C41CF405C41DF4040EE66E07EBE6FF16
:101BE00008EBE6FF09EC30F043E9F350096EF450DE
:101BF0000A6E09EBE6FF0AEBE6FF010EE66ED6EC95
:101C000057F043E904010851076E0951086EC1C439
:101C1000E9FFC2C4EAFF010ED890E936EA36E806C9
:101C2000FBE1000EE926010EEA2207EBEEFF08EBCE
:101C3000EDFFE66A07EBE6FF08EBE6FF09EC30F0A4
:101C400043E9F350096EF4500A6E09EBE6FF0AEB24
:101C5000E6FF020EE66ED6EC57F043E9040122518E
:101C6000076E2351086E030EE66EE66A07EBE6FF89
:101C700008EBE6FF1FEC20F0E552E550086EE75058
:101C8000076E04010A5107260B510822040EE66E66
:101C9000E66A07EBE6FF08EBE6FFBEEC1EF0E55256
:101CA000E550086EE750076E04010A0EBF5D000E96
:101CB000C05912E2BFC4E9FFC0C4EAFF010ED890C8
:101CC000E936EA36E806FBE1C80EE926010EEA220B
:101CD0000AC4EEFF0BC4EDFF0AC422F40BC423F4C4
:101CE000E66A07EBE6FF08EBE6FF20EC4DF043E980
:101CF000F350096EF4500A6E09EBE6FF0AEBE6FFBB
:101D0000030EE66ED6EC57F043E904012451076E4A
:101D10002551086E030EE66EE66A07EBE6FF08EB58
:101D2000E6FF1FEC20F0E552E550086EE750076E25
:101D300004010C5107260D510822040EE66EE66AD6
:101D400007EBE6FF08EBE6FFBEEC1EF0E552E550C0
:101D5000086EE750076E04010A0EBF5D000EC05901
:101D600012E2BFC4E9FFC0C4EAFF010ED890E93611
:101D7000EA36E806FBE1DC0EE926010EEA220CC495
:101D8000EEFF0DC4EDFF0CC424F40DC425F4060EC3
:101D9000E66E07EBE6FF08EBE6FF09EC30F043E9FF
:101DA000F350096EF4500A6E09EBE6FF0AEBE6FF0A
:101DB000040EE66ED6EC57F043E904012651076E97
:101DC0002751086E030EE66EE66A07EBE6FF08EBA6
:101DD000E6FF1FEC20F0E552E550086EE750076E75
:101DE00004010E5107260F510822040EE66EE66A22
:101DF00007EBE6FF08EBE6FFBEEC1EF0E552E55010
:101E0000086EE750076E0EC426F40FC427F4E66A86
:101E100007EBE6FF08EBE6FF39EC2EF043E9F35061
:101E2000096EF4500A6E09EBE6FF0AEBE6FF050EB9
:101E3000E66ED6EC57F043E909EBE6FF0AEBE6FF66
:101E4000100EE66EB7EC57F043E904012851076E17
:101E50002951086E030EE66EE66A07EBE6FF08EB13
:101E6000E6FF1FEC20F0E552E550086EE750076EE4
:101E700004011051072611510822040EE66EE66A8D
:101E800007EBE6FF08EBE6FFBEEC1EF0E552E5507F
:101E9000086EE750076E04010A0EBF5D000EC059C0
:101EA00012E2BFC4E9FFC0C4EAFF010ED890E936D0
:101EB000EA36E806FBE1A00EE926010EEA2210C48C
:101EC000EEFF11C4EDFF10C428F411C429F4010E73
:101ED000E66E07EBE6FF08EBE6FF09EC30F043E9BE
:101EE000F350096EF4500A6E09EBE6FF0AEBE6FFC9
:101EF000060EE66ED6EC57F043E904012A51076E50
:101F00002B51086E030EE66EE66A07EBE6FF08EB60
:101F1000E6FF1FEC20F0E552E550086EE750076E33
:101F200004011251072613510822040EE66EE66AD8
:101F300007EBE6FF08EBE6FFBEEC1EF0E552E550CE
:101F4000086EE750076E12C42AF413C42BF4050E72
:101F5000E66E07EBE6FF08EBE6FF09EC30F043E93D
:101F6000F350096EF4500A6E09EBE6FF0AEBE6FF48
:101F7000070EE66ED6EC57F043E904012C51076ECC
:101F80002D51086E030EE66EE66A07EBE6FF08EBDE
:101F9000E6FF1FEC20F0E552E550086EE750076EB3
:101FA00004011451072615510822040EE66EE66A54
:101FB00007EBE6FF08EBE6FFBEEC1EF0E552E5504E
:101FC000086EE750076E14C42CF415C42DF4030EEC
:101FD000E66E07EBE6FF08EBE6FF09EC30F043E9BD
:101FE000F350096EF4500A6E09EBE6FF0AEBE6FFC8
:101FF000080EE66ED6EC57F043E904012E51076E49
:102000002F51086E030EE66EE66A07EBE6FF08EB5B
:10201000E6FF1FEC20F0E552E550086EE750076E32
:1020200004011651072617510822040EE66EE66ACF
:1020300007EBE6FF08EBE6FFBEEC1EF0E552E550CD
:10204000086EE750076E04010A0EBF5D000EC0590E
:1020500012E2BFC4E9FFC0C4EAFF010ED890E9361E
:10206000EA36E806FBE1B40EE926010EEA2216C4C0
:10207000EEFF17C4EDFF16C42EF417C42FF4020EA2
:10208000E66E07EBE6FF08EBE6FF09EC30F043E90C
:10209000F350096EF4500A6E09EBE6FF0AEBE6FF17
:1020A000090EE66ED6EC57F043E90401BF2B000E93
:1020B000C023C12BC223500EE66EE66AC1C4E6FF00
:1020C000C2C4E6FFC1EC1EF0E552E5CFC2F4E7CF93
:1020D000C1F40D6A0E6A0F6A106A196A500E195C13
:1020E00027E2EA6A1934FE0BE96EEA36000EE926A9
:1020F000010EEA22EECF30F4EFCF31F40401326B5F
:10210000336BD9500D0FE96EDACFEAFFEE5030276E
:10211000EE503123EE503223EE50332330510D6E0A
:1021200031510E6E32510F6E3351106E192AD6D7BF
:10213000500EE66EE66AE66AE66A0DEBE6FF0EEB27
:10214000E6FF0FEBE6FF10EBE6FFABEC1FF0E5520E
:10215000E5CF33F4E5CF32F4E5CF31F4E7CF30F417
:10216000040130510D6E31510E6E32510F6E3351EC
:10217000106EE66A0DEBE6FF0EEBE6FF09EC30F0C1
:1021800043E9F3CF30F4F4CF31F4040130510D6E54
:1021900031510E6E0F6A106A0DEBE6FF0EEBE6FF93
:1021A0000F0EE66ED6EC57F043E904010A0EBF5D50
:1021B000000EC05901E2D4D0196A0A0E195C36E249
:1021C000EA6A1934FE0BE96EEA36A00EE926010E22
:1021D000EA22EE501126ED501222EA6A1934FE0B63
:1021E000E96EEA36B40EE926010EEA22EE50132615
:1021F000ED501422EA6A1934FE0BE96EEA36DC0E61
:10220000E926010EEA22EE501526ED501622EA6A62
:102210001934FE0BE96EEA36C80EE926010EEA22F1
:10222000EE501726ED501822192AC7D70A0EE66E6F
:10223000E66A11EBE6FF12EBE6FFBEEC1EF0E5529C
:10224000E550126EE750116E010EE66E11EBE6FFDF
:1022500012EBE6FF09EC30F043E9F350096EF4505D
:102260000A6E09EBE6FF0AEBE6FF100EE66ED6EC0F
:1022700057F043E90A0EE66EE66A13EBE6FF14EB4D
:10228000E6FFBEEC1EF0E552E550146EE750136E0B
:10229000020EE66E13EBE6FF14EBE6FF09EC30F0FE
:1022A00043E9F350096EF4500A6E09EBE6FF0AEBBE
:1022B000E6FF0D0EE66ED6EC57F043E909EBE6FFBC
:1022C0000AEBE6FFE66AB7EC57F043E90A0EE66E62
:1022D000E66A15EBE6FF16EBE6FFBEEC1EF0E552F4
:1022E000E550166EE750156E060EE66E15EBE6FF2E
:1022F00016EBE6FF09EC30F043E9F350096EF450B9
:102300000A6E09EBE6FF0AEBE6FF0E0EE66ED6EC70
:1023100057F043E90A0EE66EE66A17EBE6FF18EBA4
:10232000E6FFBEEC1EF0E552E550186EE750176E62
:10233000E66A17EBE6FF18EBE6FF20EC4DF043E909
:10234000F350096EF4500A6E09EBE6FF0AEBE6FF64
:102350000B0EE66ED6EC57F043E90401BF6BC06B81
:10236000010E031801E1045005E0010E051801E11A
:10237000065073E1C32B000EC42322C430F423C4DF
:1023800031F40401326B336B0401C5510401302771
:102390000401C651040131230401C7510401322351
:1023A0000401C8510401332330C4C5F431C4C6F458
:1023B00032C4C7F433C4C8F40401700EC35D170EF1
:1023C000C4594AE3700EE66E170EE66EE66AE66AD8
:1023D000C5C4E6FFC6C4E6FFC7C4E6FFC8C4E6FF3F
:1023E000ABEC1FF0E552E5CFC8F4E5CFC7F4E5CF7D
:1023F000C6F4E7CFC5F40401C551076EC651086E97
:10240000E66A07EBE6FF08EBE6FF20EC4DF043E958
:10241000F350096EF4500A6E09EBE6FF0AEBE6FF93
:102420000A0EE66ED6EC57F043E90401C56BC66BA5
:10243000C76BC86BC36BC46B010EE66EE66A120E07
:10244000E66ED6EC57F043E9010EE66EE66A130E2F
:10245000E66ED6EC57F043E910D0000EE66EE66A61
:10246000120EE66ED6EC57F043E9000EE66EE66A11
:10247000130EE66ED6EC57F043E95CE9E7CFD9FFDF
:02248000120048
:0E248200D9CFE6FFE1CFD9FF87E95EE8020E71
:10249000E66E33EC58F041E9F350076EF450086EE5
:1024A000096A0A6A0B6A0C6A0D6A0E6A0F6A106A78
:1024B000116A126A136A146A156A166A176A186A28
:1024C000196A1A6A1B6A1C6A1D6A1E6A1F6A206AD8
:1024D000216A226A236A246A0401B60E306FAC0EA8
:1024E000316F000E326F020EE66EE66AE66A19EB95
:1024F000E6FF1AEBE6FFE66A53EC20F0E552E5CF83
:1025000035F4E5CF34F4E7CF33F40401305133250B
:10251000F36E31513421F46E32513521F86EF4CF1F
:10252000F7FFF3CFF6FF00500900F55C01500A00F9
:10253000F55809E3030E195C000E1A5804E2192A33
:10254000000E1A22C9D719501A1067E1176A186AC3
:102550000D0E175C000E18585FE204014E0E356F29
:10256000AC0E366F000E376F080EE66EE66AE66A4E
:1025700017EBE6FF18EBE6FFE66A53EC20F0E552B6
:10258000E5CF3AF4E5CF39F4E7CF38F4040135511B
:102590003825326F36513921336F37513A21346F34
:1025A000020EE66EE66AE66A19EBE6FF1AEBE6FF54
:1025B000E66A53EC20F0E552E5CF3DF4E5CF3CF47C
:1025C000E7CF3BF4040132513B25F36E33513C21FC
:1025D000F46E34513D21F86EF4CFF7FFF3CFF6FFE0
:1025E0000900F5CF30F40800F5CF31F417EBE9FF1F
:1025F00018EBEAFF020ED890E936EA36E806FBE16E
:10260000500EE926030EEA2230C4EEFF31C4EDFF7E
:10261000172A000E18229CD78FD2030E195C000EC9
:102620001A586CE3176A186A0D0E175C000E1858DA
:1026300064E204014E0E356FAC0E366F000E376F3C
:10264000080EE66EE66AE66A17EBE6FF18EBE6FFB1
:10265000E66A53EC20F0E552E5CF3AF4E5CF39F4E1
:10266000E7CF38F4040135513825326F365139211E
:10267000336F37513A21346F020EE66EE66AE66A2E
:1026800019043E6F000E1A583F6F3EC4E6FF3FC468
:10269000E6FFE66A53EC20F0E552E5CF3DF4E5CFE6
:1026A0003CF4E7CF3BF4040132513B25F36E335148
:1026B0003C21F46E34513D21F86EF4CFF7FFF3CF97
:1026C000F6FF0900F5CF30F40800F5CF31F417EB31
:1026D000E9FF18EBEAFF020ED890E936EA36E80681
:1026E000FBE1500EE926030EEA2230C4EEFF31C4AE
:1026F000EDFF172A000E182297D71ED2B60E306FA4
:10270000AC0E316F000E326F020EE66EE66AE66ABC
:102710001904366F000E1A58376F36C4E6FF37C4F7
:10272000E6FFE66A53EC20F0E552E5CF35F4E5CF5D
:1027300034F4E7CF33F4040130513325F36E3151D3
:102740003421F46E32513521F86EF4CFF7FFF3CF18
:10275000F6FF0900F550116E0A00F550126EB60E24
:10276000306FAC0E316F000E326F020EE66EE66A0D
:10277000E66A19EBE6FF1AEBE6FFE66A53EC20F097
:10278000E552E5CF35F4E5CF34F4E7CF33F4040177
:1027900030513325F36E31513421F46E32513521ED
:1027A000F86EF4CFF7FFF3CFF6FF0900F550136E84
:1027B0000A00F550146EE80EE66E030EE66EE66A49
:1027C000E66A1350005C346F14500158356F34C4FE
:1027D000E6FF35C4E6FFE66AE66AB3EC20F0E552B0
:1027E000E5CF33F4E5CF32F4E5CF31F4E7CF30F481
:1027F00004013051096E31510A6E32510B6E335162
:102800000C6E1350115C346F14501258356F34C471
:10281000E6FF35C4E6FFE66AE66A09EBE6FF0AEB87
:10282000E6FF0BEBE6FF0CEBE6FFABEC1FF0E5522F
:10283000E5CF33F4E5CF32F4E5CF31F4E7CF30F430
:1028400004013051096E31510A6E32510B6E335111
:102850000C6E176A186A0D0E175C000E185801E30B
:102860006BD104014E0E376FAC0E386F000E396F0E
:10287000080EE66EE66AE66A17EBE6FF18EBE6FF7F
:10288000E66A53EC20F0E552E5CF3CF4E5CF3BF4AB
:10289000E7CF3AF4040137513A25346F38513B21E0
:1028A000356F39513C21366F020EE66EE66AE66AF4
:1028B0001904406F000E1A58416F40C4E6FF41C42E
:1028C000E6FFE66A53EC20F0E552E5CF3FF4E5CFB2
:1028D0003EF4E7CF3DF4040134513D25F36E35510C
:1028E0003E21F46E36513F21F86EF4CFF7FFF3CF5F
:1028F000F6FF0900F5CF32F40800F5CF33F44E0EA1
:10290000456FAC0E466F000E476F080EE66EE66A26
:10291000E66A17EBE6FF18EBE6FFE66A53EC20F0F9
:10292000E552E5CF4AF4E5CF49F4E7CF48F4040196
:1029300045514825426F46514921436F47514A212D
:10294000446F020EE66EE66AE66A19EBE6FF1AEBE2
:10295000E6FFE66A53EC20F0E552E5CF4DF4E5CF13
:102960004CF4E7CF4BF4040142514B25F36E435135
:102970004C21F46E44514D21F86EF4CFF7FFF3CFA4
:10298000F6FF0900F550325D306F0900F5503359FC
:10299000316F30510D6E31510E6E0F6A106A09EBB6
:1029A000E6FF0AEBE6FF0BEBE6FF0CEBE6FF0DEBB9
:1029B000E6FF0EEBE6FF0FEBE6FF10EBE6FFB3ECF6
:1029C00020F0E552E5CF33F4E5CF32F4E5CF31F432
:1029D000E7CF30F4040130510D6E31510E6E32519B
:1029E0000F6E3351106EE80EE66E030EE66EE66A69
:1029F000E66A4E0E376FAC0E386F000E396F080E58
:102A0000E66EE66AE66A17EBE6FF18EBE6FFE66AB3
:102A100053EC20F0E552E5CF3CF4E5CF3BF4E7CFB3
:102A20003AF4040137513A25346F38513B21356F60
:102A300039513C21366F020EE66EE66AE66A19EB02
:102A4000E6FF1AEBE6FFE66A53EC20F0E552E5CF2D
:102A50003FF4E5CF3EF4E7CF3DF4040134513D258A
:102A6000F36E35513E21F46E36513F21F86EF4CFAE
:102A7000F7FFF3CFF6FF0900F5CFE6FF0900F5CF2A
:102A8000E6FFE66AE66AB3EC20F0E552E5CF33F400
:102A9000E5CF32F4E5CF31F4E7CF30F4D9500D0F64
:102AA000E96EDACFEAFFEE5004013027EE50312311
:102AB000EE503223EE50332330510D6E31510E6EF5
:102AC00032510F6E3351106EE80EE66E030EE66E55
:102AD000E66AE66A0DEBE6FF0EEBE6FF0FEBE6FFBC
:102AE00010EBE6FFABEC1FF0E552E5CF33F4E5CF9A
:102AF00032F4E5CF31F4E7CF30F4040130510D6EFC
:102B000031510E6E32510F6E3351106E17EBE9FFDB
:102B100018EBEAFF020ED890E936EA36E806FBE148
:102B2000500EE926030EEA220DEBEEFF0EEBEDFF51
:102B3000172A000E18228FD6025003105BE00250B5
:102B40006408236E000E0354246E176A186A0D0E73
:102B5000175C000E18584EE217EBE9FF18EBEAFF7E
:102B6000020ED890E936EA36E806FBE1500EE92677
:102B7000030EEA22020EE926000EEA220250EE5C63
:102B8000216E0350ED58226E640EE66EE66A21EB6C
:102B9000E6FF22EBE6FF1FEC20F0E552E550226E47
:102BA000E750216E23EBE6FF24EBE6FF21EBE6FF87
:102BB00022EBE6FF76EC1EF0E552E550226EE75080
:102BC000216E17EBE9FF18EBEAFF020ED890E93609
:102BD000EA36E806FBE1500EE926030EEA22020E71
:102BE000E926000EEA2221EBEEFF22EBEDFF172A89
:102BF0001822ADD703018051045C8151055804E3CC
:102C0000640E156E166A38D10450505D0550515946
:102C100003E3156A166A30D1176A186A17EBE9FFE1
:102C200018EBEAFF020ED890E936EA36E806FBE137
:102C3000500EE926030EEA22EE50045CED500558D2
:102C400009E30D0E175C000E185804E2172A000E57
:102C50001822E4D71704E96E000E1858EA6E020E27
:102C6000D890E936EA36E806FBE1500EE926030E75
:102C7000EA22EECFE6FFEECFE6FF17EBE9FF18EB17
:102C8000EAFF020ED890E936EA36E806FBE1500E7C
:102C9000E926030EEA22FE0EE350EE5C1B6E41E9CC
:102CA000E550ED581C6E1704E96E000E1858EA6ED8
:102CB000020ED890E936EA36E806FBE1500EE92626
:102CC000030EEA22020EE926000EEA22EECFE6FF0C
:102CD000EECFE6FF17EBE9FF18EBEAFF020ED89004
:102CE000E936EA36E806FBE1500EE926030EEA2251
:102CF000020EE926000EEA22FE0EE350EE5C156E8F
:102D000041E9E550ED58166E1BEB38F41CEB39F435
:102D100004013A6B3B6B39AF02D03A693B6938C466
:102D2000E6FF39C4E6FF3AC4E6FF3BC4E6FFA00E67
:102D3000E66E860EE66E010EE66EE66A15EB34F47C
:102D400016EB35F4366B376B35AF02D03669376921
:102D500034C4E6FF35C4E6FF36C4E6FF37C4E6FFF9
:102D6000B3EC20F04DEC1FF0E552E5CF33F4E5CFA6
:102D700032F4E5CF31F4E7CF30F4040130511D6E69
:102D800031511E6E32511F6E3351206E1704E96EA1
:102D9000000E1858EA6E020ED890E936EA36E806B8
:102DA000FBE1500EE926030EEA22EE50045C1B6E96
:102DB000ED5005581C6EE80EE66E030EE66EE66AF0
:102DC000E66A1BEB34F41CEB35F40401366B376B0D
:102DD00035AF02D03669376934C4E6FF35C4E6FF43
:102DE00036C4E6FF37C4E6FF1DEBE6FF1EEBE6FF49
:102DF0001FEBE6FF20EBE6FFB3EC20F04DEC1FF0FD
:102E0000E552E5CF33F4E5CF32F4E5CF31F4E7CF47
:102E100030F4640EE66EE66A1704E96E000E185888
:102E2000EA6E020ED890E936EA36E806FBE1500E6B
:102E3000E926030EEA22020EE926000EEA22EECF70
:102E4000E6FFEECFE6FF1FEC20F00401FE0EE3509C
:102E50003025156E41E9E5503121166E640EE66E9F
:102E6000E66A15EBE6FF16EBE6FF76EC1EF0E552A0
:102E7000E550166EE750156E020E071801E1085076
:102E80000BE0630ED89016BE03D0155C000E1658EA
:102E900003E3630E156E166A163402E3156A166AAA
:102EA00015EBF3FF16EBF4FF00D05FE9E7CFD9FF96
:022EB00012000E
:0E2EB20090DB86E90150010600090CE002EBFE
:102EC000E6FF03EBE6FF00EBE6FF69DBF4E1311D13
:102ED000F2E1010E01D0000E41E9E5CFDAFFE7CFC4
:102EE000D9FF120077DB89E97BE80A6A0B6A02EBFB
:102EF000F6FF03EBF7FF04EBF8FF0800F550096E4F
:102F0000095001E12DD3250E095C01E01BD30C6AA9
:102F10000D6A0E6A0F6A106A2DDB2D0E095C0CE03B
:102F20002B0E095C09E0200E095C06E0230E095C0B
:102F300003E0300E095C15E10950300A10E0130A75
:102F40000CE0030A08E00B0A04E0060AE5E10C8045
:102F5000E3D70C82E1D70C84DFD70C86DDD70C8851
:102F6000DBD72A0E095C13E1A5DB0DE30C801CEB1B
:102F700030F41DEB31F40401306D311F000E3123AC
:102F800030510D6E02D09CEB0DF0F4DA07D0126ACE
:102F90003FDB02E06BDBFCD792EB0DF00CB00C9842
:102FA0002E0E095C15E1E6DA2A0E095C08E182DBE7
:102FB00004E29CEB0EF0010E0F6EDCDA09D0126A0F
:102FC00027DB02E053DBFCD792EB0EF0010E0F6E15
:102FD000680E095C07E1CEDA680E095C1DE1030E9C
:102FE000106E19D0740E095C16E07A0E095C13E0BD
:102FF000480E095C06E0540E095C03E05A0E095CB9
:1030000002E1020E07D06C0E095C03E06A0E095C57
:1030100003E1010E106EAEDA09506E0A01E16ED2C4
:103020001E0A01E128D1200A01E125D13F0A01E170
:10303000FDD01A0A01E1FAD00D0A01E1F7D0200A09
:1030400001E1F4D03A0A01E1F1D0200A01E1EED029
:10305000260A01E1EAD00D0A01E1E7D01A0A01E1EE
:103060009ED0200A3BE0300A1AE0460A0EE0250A0C
:1030700001E072D2D950020FE96E000EDA20EA6E3A
:10308000010EEE5E000EEE5AEE5A0FDB250EE66ED6
:1030900086DA03E1311D01E159D20A2A5BD2116AB5
:1030A0000D50010803E20D04116EF5DA115007E02E
:1030B000010E0C1404E16DDA01E048D2116AD3DA92
:1030C000EF50096ECBDA03E1311D01E13FD20A2A4C
:1030D000000E0B225EDA01E13FD238D2020E105C04
:1030E00008E1030E4EDAEE50176EEE50186EEF50F8
:1030F00007D0E7DA326B3051176E3151186E32510A
:10310000196E17EBE6FF18EBE6FF19EBE6FF05EC8F
:1031100051F043E9FCC130F4FDC131F4FEC132F499
:10312000040130511C6E31511D6E0F5006E01C50D1
:103130000E5C03E20E501C6E1D6A1C500D5C02E218
:103140009CEB0DF050DA05E00D500E5C02E28EEBC8
:103150000DF00CB004D01DDA01E0F8D1116A126A4A
:1031600017EBF6FF18EBF7FF19EBF8FF0800F55027
:10317000096E095010E00D50125C0DE26FDA03E1A8
:10318000311D01E1E3D10A2A000E0B22122AD95087
:10319000170F55DAEBD7FDD901E1DED1D7D163DACC
:1031A000EE501A6EED501B6E1AEBE6FF1BEBE6FFBE
:1031B000F7EC50F042E9F3501C6EF4501D6E0F50C6
:1031C00006E01C500E5C03E20E501C6E1D6A1C5083
:1031D0000D5C02E29CEB0DF006DA05E00D500E5C92
:1031E00002E28EEB0DF00CB004D0D3D901E0AED1E9
:1031F000116A126A1AEBE9FF1BEBEAFFEF50096E46
:1032000009500FE00D50125C0CE228DA03E1311D89
:1032100001E19CD10A2A000E0B22122A1A2A1B2233
:10322000E9D7B7D901E198D191D10C8E10040AE108
:10323000040EA7D9EE50136EEE50146EEE50156EBC
:10324000EF5032D0030E105C16E10CAE0CD00BDA4E
:10325000EFCF30F40401316B326B336B30AF23D0DE
:10326000316932691FD0FFD9EFCF30F404013051FA
:10327000136E146A20D0020E105C0CE10CAE06D066
:10328000030E7FD9B6D932AF0ED00CD0030E79D948
:10329000B0D909D00CAE0AD014DA326B336B31AF2F
:1032A00002D032693369BCD9166E07D00ADA3051C0
:1032B000136E3151146E156A166A0F5002E1010E39
:1032C0000E6E1E6A1F6AD950400FE66E000EDA209D
:1032D000E66EE552E550436EE750426E416A116A70
:1032E0000A0E106E0950780A12E0200A10E0280A2F
:1032F0000CE0200A0AE03F0A06E00D0A02E0200A7C
:1033000008E1020E05D0080E03D0080E0926100EA3
:10331000106E0CBE02D00C920C94800E0C1417E0B0
:10332000163415E3E668E668E668E66842D9B3EC69
:1033300020F0E552E5CF33F4E5CF32F4E5CF31F4B8
:10334000E7CF30F404016CD9166E2D0E07D00CA215
:1033500002D02B0E03D00CA404D0200E206E1E2A07
:1033600001D0206A0E5005E11350141015101610EC
:1033700061E00401B40E306FB30E316F000E326F96
:1033800083D9AEEC1FF0E552E5CF36F4E5CF35F446
:10339000E5CF34F4E7CF33F4040130513325F36E35
:1033A00031513421F46E32513521F86EF4CFF7FFEC
:1033B000F3CFF6FF0800F550126E580E095C05E1D8
:1033C000610E125C02E3200E125E5ED9ABEC1FF0C0
:1033D000E552E550166EE550156EE550146EE75057
:1033E000136E42EBE9FF43EBEAFF4206000E435A3D
:1033F00012EBEFFF1E2A1350141015101610B9E12E
:103400000CA619D06F0E095C06E10E501E5C13E38A
:103410001E280E6E10D0780E095C09E0580E095C6B
:1034200006E0620E095C03E0420E095C04E1020E54
:103430001F6E01D01E6A100E0C1407E00D500E5CBA
:1034400004E20F5002E18DEB0EF00E501E5C03E221
:103450001E500E5E01D00E6A0E501E241F24D8800E
:103460000D5407E20E500D5CD8801E54D8801F54B6
:10347000116E010E0C1406E1115004E08AD866E1C9
:103480000AD9116A205007E010D920EBE6FF87D84F
:1034900002E1311D5BE01F500BE007D9300EE66EF4
:1034A0007ED802E1311D52E0D9D802E1311D4EE053
:1034B0000E501F5C02E21F500E5E300EE66E0EEBE9
:1034C000E6FFDCD843E1422A000E432242EBE9FF4B
:1034D00043EBEAFFEF50126E125008E0E6D812EB11
:1034E000E6FF5DD8F0E1311DEEE130D052D82EE19B
:1034F0000E501E2411241F240A262CD01050030A1B
:103500001CE0010A14E0030A07E0ADD8C9D80AEBB1
:10351000EEFF0BEBEDFF20D08BD8336B31AF02D039
:1035200032693369A0D84ED833C4EEFF15D080D8A5
:1035300031BF326998D846D80FD095D8B1D80AEBA8
:10354000EFFF0AD08BD805E1311D03E1F368F46881
:103550000BD00A2A000E0B22D950020F70D8CDD4FE
:103560000AEBF3FF0BEBF4FF7CE9E5CFDAFFE7CFE3
:10357000D9FF1200D950020F62D80800F550096E29
:103580001200005E000E015A00EBE9FF01EBEAFFBA
:103590001200200EE66E11EBE6FF3EEF1BF05FEC33
:1035A00056F043E9F3CF30F4F4CF31F40401F31CC7
:1035B000120013EBE6FF14EBE6FF15EBE6FF16EB4C
:1035C000E6FF12006DD830C4EEFF31C4EEFF32C406
:1035D000EEFF1200D9CFE6FFDACFE6FFE1CFD9FF49
:1035E000E2CFDAFF12001C500D5C116E54D80F5060
:1035F0001200EECF30F4EECF31F4EFCF32F404010D
:10360000336B1200EECF30F4EFCF31F4040112002F
:103610000950E66EE66A81EC59F042E9F350120077
:103620003051136E3151146E3251156E33511200F8
:103630000AEB30F40BEB31F40401326B1200E96E4B
:10364000000EDA20EA6EEF2AEECFF6FF000EEF2230
:10365000EECFF7FFEF22EECFF8FF120026D809EBEE
:10366000E6FFCFEF1AF0020EC1EF1AF00A0E1202B7
:10367000F3500924D00F126EBAEF1AF016D859EC95
:1036800017F044E90009120010EBE6FFE66AE66A6B
:10369000E66AD9EF1AF011500A26000E0B2212002A
:1036A000EE50EFCFEAFFE96E120005EBE6FF06EB06
:1036B000E6FF1200D8DFEE501C6EED501D6E1D347B
:0836C0001200D1DF02EF1BF044
:0836C800D9CFE6FFE1CFD9FFE5
:1036D00081E948E8016A026A036A046A056A066ABF
:1036E000220EE66E33EC58F041E9F350076EF450C9
:1036F000086E03014D5103014C5D01E1E7D2030166
:103700004C51EA6A370FE96E030EEA22EF50EB08DC
:1037100011E003014D5103014C5D0CE0150EE66E06
:1037200003014C29E66E00EC20F041E9E75003016B
:103730004C6FE5D7150EE66E150E0301D8804C557B
:1037400003014D25E66E00EC20F041E9E75004014D
:10375000306F070E0401305D01E2B8D2016A026ADF
:1037600003014C51036E150EE66E050E03014C2548
:10377000E66E00EC20F041E9E750035C14E00350F2
:10378000EA6A370FE96E030EEA22EF50011A000EC3
:10379000021A150EE66E0328E66E00EC20F041E9F1
:1037A000E750036EE0D7150EE66E050E03014C25BB
:1037B000E66E00EC20F041E9E750EA6A370FE96E67
:1037C000030EEA22EF50011801E1025001E073D22A
:1037D000150EE66E060E03014C25E66E00EC20F099
:1037E00041E9E750EA6A370FE96E030EEA22EF502B
:1037F000FA0801E060D2150EE66E4CC3E6FF00EC5D
:1038000020F041E9E750EA6A370FE96E030EEA2239
:10381000EF50EB0801E04FD2150EE66E03014C2984
:10382000E66E00EC20F041E9E750EA6A370FE96EF6
:10383000030EEA22EF50900801E03DD2150EE66E2D
:10384000020E03014C25E66E00EC20F041E9E75042
:10385000056E066A370E0524E96E030E0620EA6E31
:10386000EF50270A01E1F3D1030A01E1D3D1070A9E
:1038700001E1B4D1020A01E196D1030A01E17BD151
:10388000020A01E15DD1380A01E13FD10F0A01E1ED
:1038900021D1010A01E103D1030A01E1E5D0010AC6
:1038A00001E1C7D0070A01E1A9D0010A01E18BD0EB
:1038B000030A6EE0010A51E0480A17E00E0A11E01F
:1038C000030A01E0EAD1C00EE66ED40EE66E010EE8
:1038D000E66EE66AE66A74EC55F045E90301006BB2
:1038E000DDD10301010E006FD9D1C40EE66E090EC1
:1038F000E66EE66AE66A010EE66E74EC55F045E99E
:10390000010E071801E1085016E1010EE66EE66AA5
:10391000010EE66EF5EC57F043E9C00EE66ED40EEC
:10392000E66E010EE66EE66AE66A74EC55F045E96D
:103930000301006B08D0000EE66EE66A010EE66E2B
:10394000F5EC57F043E9010EE66E6FEC58F041E9F3
:10395000F3CF34F5F4CF35F5A1D10501010E3419BB
:1039600001E1355114E1150EE66E030E03014C25FD
:10397000E66E00EC20F041E9E750EA6A370FE96EA5
:10398000030EEA22EF50E8B08486E8A0849686D140
:103990000501010E341901E1355114E1150EE66EF1
:1039A000030E03014C25E66E00EC20F041E9E750E0
:1039B000EA6A370FE96E030EEA22EF50E8B0848C12
:1039C000E8A0849C6BD10501010E341901E1355149
:1039D00014E1150EE66E030E03014C25E66E00ECB5
:1039E00020F041E9E750EA6A370FE96E030EEA2258
:1039F000EF50E8B08488E8A0849850D10501010E0A
:103A0000341901E1355114E1150EE66E030E030180
:103A10004C25E66E00EC20F041E9E750EA6A370FEA
:103A2000E96E030EEA22EF50E8B0848AE8A0849A97
:103A300035D10501010E341901E1355114E1150E9E
:103A4000E66E030E03014C25E66E00EC20F041E922
:103A5000E750EA6A370FE96E030EEA22EF50E8B04A
:103A60008382E8A083921AD10501010E341901E185
:103A7000355114E1150EE66E030E03014C25E66E7A
:103A800000EC20F041E9E750EA6A370FE96E030ED7
:103A9000EA22EF50E8B08380E8A08390FFD00501D0
:103AA000010E341901E1355114E1150EE66E030ED5
:103AB00003014C25E66E00EC20F041E9E750EA6A8C
:103AC000370FE96E030EEA22EF50E8B08386E8A0D4
:103AD0008396E4D00501010E341901E1355114E15A
:103AE000150EE66E030E03014C25E66E00EC20F089
:103AF00041E9E750EA6A370FE96E030EEA22EF5018
:103B0000E8B08384E8A08394C9D00501010E34197C
:103B100001E1355114E1150EE66E030E03014C254B
:103B2000E66E00EC20F041E9E750EA6A370FE96EF3
:103B3000030EEA22EF50E8B08184E8A08194AED071
:103B40000501010E341901E1355114E1150EE66E3F
:103B5000030E03014C25E66E00EC20F041E9E7502E
:103B6000EA6A370FE96E030EEA22EF50E8B0818867
:103B7000E8A0819893D00501010E341901E1355177
:103B800011E1150EE66E030E03014C25E66E00EC06
:103B900020F041E9E750EA6A370FE96E030EEA22A6
:103BA000EF50BB6E7BD00501010E341901E1355198
:103BB00014E1150EE66E030E03014C25E66E00ECD3
:103BC00020F041E9E750EA6A370FE96E030EEA2276
:103BD000EF50E8B08484E8A0849460D00501010E21
:103BE000341901E1355115E1E66A150EE66E030E52
:103BF00003014C25E66E00EC20F041E9E750EA6A4B
:103C0000370FE96E030EEA22EFCFE6FFE3EC58F040
:103C100042E944D00501010E341901E1355116E1A4
:103C2000010EE66E150EE66E030E03014C25E66EE0
:103C300000EC20F041E9E750EA6A370FE96E030E25
:103C4000EA22EFCFE6FFE3EC58F042E927D0150E69
:103C5000E66E030E03014C25E66E00EC20F041E910
:103C6000E750EA6A370FE96E030EEA22EF50550873
:103C700013E1150EE66E040E03014C25E66E00EC12
:103C800020F041E9E750EA6A370FE96E030EEA22B5
:103C9000EF50AA0801E1FF0001D000D0150EE66E3A
:103CA000070E03014C25E66E00EC20F041E9E750D9
:103CB00003014C6F0BD0150EE66E03014C29E66E26
:103CC00000EC20F041E9E75003014C6F49E9E7CFF0
:043CD000D9FF120006
:0C3CD40043E8D9CFE6FFDACFE6FFE1CFEE
:103CE000D9FFE2CFDAFF89E9066A1200F3DF068026
:103CF00001D0F0DF01AE83EF1EF0006C011EE86A18
:103D0000012206B0067E03AE8BEF1EF0026C031E8E
:103D1000E86A0322067EC3EC1EF003BEADEF1EF080
:103D200006AE08D0026C031EE86A0322046C051E6E
:103D3000E86A052206B006D084EB00F085EB01F0BE
:103D400006A004D082EB00F083EB01F0E552E5CF52
:103D5000DAFFE7CFD9FF45E9000C06BE92EF1EF06F
:103D6000E9DFFF0C43E8D9CFE6FFDACFE6FFE1CF8A
:103D7000D9FFE2CFDAFF89E9066A1200F3DF068095
:103D800003D0F0DF01D00682056A046A100EE76EE8
:103D9000D89002360336043605360050045C0150D4
:103DA000055805E30050045E0150055A022AE72E2B
:103DB000F0D706B2120006B006D084EB00F085EB17
:103DC00001F006A004D082EB00F083EB01F0E55295
:103DD000E5CFDAFFE7CFD9FF45E9120044E8D9CFB4
:103DE000E6FFDACFE6FFE1CFD9FFE2CFDAFF8CE9D9
:103DF000096A1200F3DF098001D0F0DF02AE09EF9B
:103E00001FF0006C011E021EE86A0122022209B0A6
:103E1000097E05AE13EF1FF0036C041E051EE86A51
:103E200004220522097E15EC21F005BE3CEF1FF0AF
:103E300009AE0BD0036C041E051EE86A042205229D
:103E4000066C071E081E0722082209B008D086EB60
:103E500000F087EB01F088EB02F009A006D083EBBD
:103E600000F084EB01F085EB02F0E552E5CFDAFFDC
:103E7000E7CFD9FF47E9000C09BE1AEF1FF0E5DFD5
:103E8000FF0C45E8D9CFE6FFDACFE6FFE1CFD9FF57
:103E9000E2CFDAFF8FE90C6A1200F3DF0C8001D069
:103EA000F0DFE86A03AE5EEF1FF0006C011E021E39
:103EB000031E0122022203220CB00C7E07AE69EF22
:103EC0001FF0046C051E061E071E0522062207228F
:103ED0000C7EB0EC1FF007BE9AEF1FF00CAE0FD0B7
:103EE000046C051E061E071EE86A0522062207222C
:103EF000086C091E0A1E0B1E09220A220B220CB096
:103F00000AD088EB00F089EB01F08AEB02F08BEB32
:103F100003F00CA008D084EB00F085EB01F086EBF9
:103F200002F087EB03F0E552E5CFDAFFE7CFD9FFE8
:103F300049E9000C0CBE70EF1FF0E1DFFF0C45E813
:103F4000D9CFE6FFDACFE6FFE1CFD9FFE2CFDAFF44
:103F50008FE90C6A1200F3DF0C8003D0F0DF01D090
:103F60000C820B6A0A6A096A086A200EE76ED8900A
:103F70000436053606360736083609360A360B3655
:103F80000050085C0150095802500A5803500B5861
:103F900009E30050085E0150095A02500A5A0350C2
:103FA0000B5A042AE72EE4D70CB212000CB00AD048
:103FB00088EB00F089EB01F08AEB02F08BEB03F069
:103FC0000CA008D084EB00F085EB01F086EB02F04A
:103FD00087EB03F0E552E5CFDAFFE7CFD9FF49E9F8
:103FE000120042E8D9CFE6FFDACFE6FFE1CFD9FFF2
:103FF000E2CFDAFF86E9036A1200F3DF038003D021
:10400000F0DF01D00382026A080EE76ED890013615
:1040100002360050025C02E3026E012AE72EF7D757
:1040200003B2120003B081EB00F003A082EB00F0BA
:10403000E552E5CFDAFFE7CFD9FF43E9120044E8C4
:10404000D9CFE6FFDACFE6FFE1CFD9FFE2CFDAFF43
:104050008AE980EB04F081EB05F082EB06F0025078
:104060000402F450016EF350006E0350076E050217
:10407000F450036EF350026E07500402F350012611
:10408000F4500222E86A032206500502F35001268A
:10409000F4500222E86A0322E552E5CFDAFFE7CFC7
:1040A000D9FF46E9000C46E8D9CFE6FFDACFE6FFB4
:1040B000E1CFD9FFE2CFDAFF8EE980EB06F081EBAA
:1040C00007F082EB08F085EB0BF084EB0AF083EB52
:1040D00009F003500602F450016EF350006E0450D4
:1040E0000702F450036EF350026E04500602F350C0
:1040F0000126F4500222E86A032209500702F35015
:104100000126F4500222E86A032205500602F35009
:104110000226F450032205500702046AE86A0422CA
:10412000F3500326F450042209500802F3500226EB
:10413000F4500322056AE86A042205220A500802A4
:10414000F3500326F4500422E86A05220B500802BB
:10415000F3500426F4500522E552E5CFDAFFE7CF0D
:10416000D9FF49E9000C44E8D9CFE6FFDACFE6FFF2
:10417000E1CFD9FFE2CFDAFF8EE980EB08F081EBE7
:1041800009F082EB0AF083EB0BF004500802F350C5
:10419000006EF450016E04500902F3500126000E27
:1041A000F420026E04500A02F3500226000EF4209E
:1041B000036E04500B02F350032605500802F3501F
:1041C0000126F4500222000E032205500902F3508A
:1041D0000226F450032205500A02F350032606502B
:1041E0000802F3500226F450032206500902F3504D
:1041F000032607500802F3500326E552E5CFDAFF05
:10420000E7CFD9FF48E9000C44E8D9CFE6FFDACF81
:10421000E6FFE1CFD9FFE2CFDAFF8CE9096A1200AD
:10422000F3DF098003D0F0DF01D00982086A076A52
:10423000066A180EE76ED890033604360536063641
:10424000073608360050065C0150075802500858DF
:1042500007E30050065E0150075A0250085A032A2D
:10426000E72EEAD709B2120009B008D086EB00F0B9
:1042700087EB01F088EB02F009A006D083EB00F099
:1042800084EB01F085EB02F0E552E5CFDAFFE7CFF2
:06429000D9FF47E912000E
:0A429600D9CFE6FFE1CFD9FF81E99F
:1042A00064E8090EE66E6FEC58F041E9F350016ED8
:1042B000F450026E1E0EE66E33EC58F041E9F350F6
:1042C000036EF450046E020EE66E33EC58F041E9D2
:1042D000F350056EF450066E0F0EE66E33EC58F098
:1042E00041E9F350076EF450086E270EE66E33EC8A
:1042F00058F041E9F350096EF4500A6E2A0EE66E4A
:1043000033EC58F041E9F3500B6EF4500C6E2C0E68
:10431000E66E33EC58F041E9F3500D6EF4500E6E3A
:10432000210EE66E33EC58F041E9F3500F6EF45075
:10433000106E240EE66E33EC58F041E9F350116E26
:10434000F450126E0C0EE66E33EC58F041E9F35067
:10435000136EF450146E156A166A010E011801E10D
:10436000025001E0A0D114EC41F0030196053AE1BE
:10437000966B0401600E6B6F090E6C6F6D6B6E6B4C
:104380006F6B706B716B726B736B746B756B766B41
:10439000776B786B796B7A6B7B6B7C6B7D6B7E6BF1
:1043A000000EE66EE66A0D0EE66EF5EC57F043E998
:1043B000000EE66EE66A2D0EE66EB7EC57F043E9A6
:1043C0005A0EE66EE66A2A0EE66EB7EC57F043E93F
:1043D000F40EE66E010EE66E2C0EE66EB7EC57F0AC
:1043E00043E924D1010E091801E10A5001E01ED170
:1043F0001150121001E01AD1000EE66EE66A270E87
:10440000E66EB7EC57F043E9010E04017F6F806B55
:10441000816F826B836F846B796B7A6B7B6B7C6B48
:104420007D6B7E6B000EE66EE66A0D0EE66EF5ECB9
:1044300057F043E9080EE66E2EEC59F041E9F350CF
:10444000176EF450186E090EE66E2EEC59F041E925
:10445000F350196EF4501A6EE66A010EE66E17EB11
:10446000E6FF18EBE6FF1FEC20F00401FE0EE35020
:1044700019246B6F41E9E5501A206C6F6D6B6E6B00
:104480006F6B706B716B726B736B746B756B766B40
:10449000776B786B200EE66E2EEC59F041E9F35005
:1044A0000B6EF4500C6E250EE66E2EEC59F041E9C1
:1044B000F350236EF450246E010E231801E12450B2
:1044C00017E0640EE66EE66A2A0EE66EB7EC57F069
:1044D00043E9640EE66E200EE66EC8EC58F042E941
:1044E000010EE66E250EE66EC8EC58F042E923D0C8
:1044F0000B506E08000E0C5405E3320E0B5C000EE0
:104500000C5810E25A0EE66EE66A2A0EE66EB7EC1A
:1045100057F043E95A0EE66E200EE66EC8EC58F0EE
:1045200042E909D00BEBE6FF0CEBE6FF2A0EE66E44
:10453000B7EC57F043E9230EE66E2EEC59F041E953
:10454000F3501B6EF4501C6E240EE66E2EEC59F0E8
:1045500041E9F3501D6EF4501E6EE66A010EE66EE0
:104560001BEBE6FF1CEBE6FF1FEC20F0FE0EE3501A
:104570001D24156E41E9E5501E20166E15EBE6FF71
:1045800016EBE6FF2D0EE66EB7EC57F043E9210E71
:10459000E66E2EEC59F041E9F3501F6EF450206E98
:1045A000220EE66E2EEC59F041E9F350216EF450E4
:1045B000226EE66A010EE66E1FEBE6FF20EBE6FFD9
:1045C0001FEC20F0FE0EE35021240D6E41E9E55072
:1045D00022200E6E0D50DC08050E0E5405E3C80EA9
:1045E0000D5C000E0E5818E2F40EE66E010EE66E3B
:1045F0002C0EE66EB7EC57F043E9010EE66E210E85
:10460000E66EC8EC58F042E9F40EE66E220EE66E55
:10461000C8EC58F042E909D00DEBE6FF0EEBE6FFDF
:104620002C0EE66EB7EC57F043E900D0020E0518E9
:1046300001E106500DE18EEC2AF02EEC4CF043EC3B
:1046400026F017EC40F0C4EC04F0E9EC47F02AD077
:10465000010E04017F6F806B816F826B836F846BAF
:10466000C00EE66ED40EE66E010EE66EE66A050E2C
:10467000E66E74EC55F045E9C00EE66ED40EE66EBB
:10468000010EE66EE66A060EE66E74EC55F045E93C
:10469000000EE66EE66A2F0EE66EB7EC57F043E9C1
:1046A00043EC26F000D0010E031801E1045016E19E
:1046B000020E051801E1065011E1030197050EE114
:1046C000976BC00EE66ED40EE66E010EE66EE66ADD
:1046D000030EE66E74EC55F045E90CD0035004105F
:1046E00005E0020E051801E1065004E00301010E89
:1046F000976F00D0010E031801E104502AE1030E68
:10470000E66E73EC57F041E9FCC130F4FDC131F4C1
:10471000FEC132F4FFC133F40401305131113211C2
:10472000331117E1020E051801E1065012E10F5096
:1047300010100FE1075008100CE11350141009E19C
:10474000010EE66EE66A050EE66EB7EC57F043E939
:1047500020D00350041014E0010E0F1801E1105096
:104760000FE0010E071801E108500AE0020E0518DB
:1047700001E1065005E1010E131801E1145009E1B1
:10478000000EE66EE66A050EE66EB7EC57F043E9FA
:0A47900000D065E9E7CFD9FF120061
:06479A0005011B51100A8D
:1047A00001E158D21F0A01E1F2D0030A01E1B5D0BC
:1047B000070A76E0010A29E0030A1FE0010A0BE07C
:1047C000080A01E05FD20401F66BC10EAD6E05016F
:1047D000080E1B6F57D20401F6050BE1DF0E040132
:1047E000F715CD0806E1E10EAD6E0501090E1B6F50
:1047F00003D00501100E1B6F45D20401F66BCC0EE1
:10480000AD6E05010A0E1B6F3DD20401F60544E1B1
:10481000CC0E0401F75D40E10F0EAD6E0301FE6B9F
:10482000FF6B04012E0E326F7E0E336F000E346F5D
:10483000020EE66EE66AE66A0F0E0301FE19E66EE8
:10484000E66AE66A53EC20F0E552E5CF37F4E5CFAF
:1048500036F4E7CF35F4040132513525F36E335188
:104860003621F46E34513721F86EF4CFF7FFF3CFD1
:10487000F6FF0900F5CF30F40800F5CF31F4FFC39F
:1048800038F4396B385130190301FE6F31C4FFF32E
:1048900005010B0E1B6F03D00501100E1B6FF2D12B
:1048A000FBC3ADFF04012E0E326F7E0E336F000E80
:1048B000346F020EE66EE66AE66A0301FE51FB19EA
:1048C000E66EE66AE66A53EC20F0E552E5CF37F48F
:1048D000E5CF36F4E7CF35F4040132513525F36ED8
:1048E00033513621F46E34513721F86EF4CFF7FF8F
:1048F000F3CFF6FF0900F5CF30F40800F5CF31F41F
:10490000FFC338F4396B385130190301FE6F31C4DD
:10491000FFF305010C0E1B6FB5D1AD6A04012E0E1D
:10492000326F7E0E336F000E346F020EE66EE66A53
:10493000E66AFEC3E6FFE66AE66A53EC20F0E5525B
:10494000E5CF37F4E5CF36F4E7CF35F40401325143
:104950003525F36E33513621F46E34513721F86E1C
:10496000F4CFF7FFF3CFF6FF0900F5CF30F40800DE
:10497000F5CF31F4FFC338F4396B385130190301E6
:10498000FE6F31C4FFF305010F0E1B6F7BD10301D6
:10499000FD5166E1FAC4E9FFFBC4EAFFEF50AD6EDA
:1049A00004012E0E326F7E0E336F000E346F020E36
:1049B000E66EE66AE66AFAC4E9FFFBC4EAFFEF5076
:1049C0000301FE19E66EE66AE66A53EC20F0E55252
:1049D000E5CF37F4E5CF36F4E7CF35F404013251B3
:1049E0003525F36E33513621F46E34513721F86E8C
:1049F000F4CFF7FFF3CFF6FF0900F5CF30F408004E
:104A0000F5CF31F4FFC338F4396B38513019030155
:104A1000FE6F31C4FFF30401FA2B000EFB23080ED6
:104A2000E66EE66AFAC432F4FBC433F40401400EC5
:104A3000325F0F0E335B32C4E6FF33C4E6FF79EC1E
:104A40001EF0E552E5CF31F4E7CF30F404013051E8
:104A5000311105E10301010EFD6F0401F56BF9D081
:104A60000401F5510D0A01E1B6D0010A01E19FD020
:104A7000070A01E18ED0010A01E187D0030A01E1B2
:104A80007FD0010A6CE00F0A62E0010A4EE0030ADF
:104A900044E0010A3DE0070A28E0010A1FE0030A9A
:104AA0000DE0010A01E0D5D00401F66B0301FE1F01
:104AB000FF1FAD680401010EF56FCBD00401F605B0
:104AC00009E10301FE510401F75D04E10401020E56
:104AD000F56F03D00501100E1B6FBBD00401F66B00
:104AE000AD680401030EF56FB4D00401F6050CE1C6
:104AF0000401FFC330F4316B30510401F75D04E170
:104B00000401040EF56F03D00501100E1B6FA1D038
:104B1000E30EAD6E050EF56F9CD00401F66BC10E71
:104B2000AD6E0401060EF56F94D00401F6050BE19D
:104B3000DF0E0401F715CD0806E1E10EAD6E0401AC
:104B4000070EF56F03D00501100E1B6F82D0040114
:104B5000F66BCC0EAD6E0401080EF56F7AD0040131
:104B6000F6050AE1CC0E0401F75D06E1550EAD6EC7
:104B70000401090EF56F03D00501100E1B6F69D0FB
:104B8000FBC3ADFF0A0EF56F64D0AD6A0B0EF56F77
:104B900060D0070EAD6E140EE66EE66A010EE66E8C
:104BA000C5EC56F043E904010C0EF56F52D0010E2E
:104BB000E66E4EEC57F041E9F3CF30F4F4CF31F428
:104BC00004013051311106E10401F66BAD680401B6
:104BD0000D0EF56F3ED00401F60537E1AA0E040173
:104BE000F75D33E1E30EAD6E0301FC2BFC510308CE
:104BF00024E20501010E1A6F05011B6B0401400E32
:104C0000FA6F0F0EFB6F0301200EFB6FFD6BFC6B49
:104C1000000EE66EE66A250EE66EB7EC57F043E945
:104C2000A00EE66EBB0EE66E0D0EE66EE66A020E96
:104C3000E66E74EC55F045E907D005011B6B080ED4
:104C40000301FB25FB6FFD6B03D00501100E1B6FED
:104C500000D018D0010EE66EE66A250EE66EB7ECBF
:104C600057F043E90501010E1A6F05011B6B0401A2
:104C7000400EFA6F0F0EFB6F0301200EFB6FFD6BF2
:064C8000FC6B00D01200E5
:0A4C8600D9CFE6FFE1CFD9FF81E9A5
:104C900060E8020EE66E33EC58F041E9F350016E25
:104CA000F450026E2A0EE66E33EC58F041E9F350F0
:104CB000036EF450046E090EE66E51EC58F041E9B3
:104CC000F350056EF450066E2F0EE66E33EC58F07E
:104CD00041E9F350076EF450086E096A0A6A0B6ADC
:104CE0000C6A0D6A0E6A0F6A106A116A126A136AF8
:104CF000146A156A166A176A186A196A1A6A1B6AA8
:104D00001C6A1D6A1E6A020E011801E1025005E0CC
:104D1000010E011801E1025018E1030EE66E51EC9C
:104D200058F041E9F3501F6EF450206E0A0EE66E03
:104D3000E66A1FEBE6FF20EBE6FF76EC1EF0E5529D
:104D4000E550206EE7501F6E02D01F6A206A0401F2
:104D5000C80E7D5D000E7E5901E2F1D0C80EE66EF0
:104D6000E66AE66AE66A79C4E6FF7AC4E6FF7BC4CF
:104D7000E6FF7CC4E6FFABEC1FF0E552E5CF33F471
:104D8000E5CF32F4E5CF31F4E7CF30F40401305110
:104D9000156E3151166E010EE66EE66A0D0EE66E68
:104DA000F5EC57F043E915EBE6FF16EBE6FF2E0EA8
:104DB000E66EB7EC57F043E9D00E0724176E070EE6
:104DC0000820186E4E0EF66EAC0EF76E000EF86EE2
:104DD00017500900F55C18500A00F5580CE34E0E08
:104DE000F66EAC0EF76E000EF86E0900F550176EF9
:104DF0000A00F550186E03EBE6FF04EBE6FF000E29
:104E0000E66EE66A17EBE6FF18EBE6FF41EC12F000
:104E100046E9F350196EF4501A6E03EBE6FF04EB0B
:104E2000E6FF19EBE6FF1AEBE6FF15EBE6FF16EBE4
:104E3000E6FF41EC12F046E9F3500F6EF450106EAD
:104E40000FEBE6FF10EBE6FF060EE66EB7EC57F051
:104E500043E903EBE6FF04EBE6FFE66AE66A6BC4B0
:104E6000E6FF6CC4E6FFE66AE66AB3EC20F0E552C2
:104E7000E5CF33F4E5CF32F4E5CF31F4E7CF30F4CA
:104E800004013051096E31510A6E32510B6E3351AB
:104E90000C6E0FEBE6FF10EBE6FFE66AE66A09EB45
:104EA000E6FF0AEBE6FF0BEBE6FF0CEBE6FFB3ECED
:104EB00020F0E552E5CF33F4E5CF32F4E5CF31F41D
:104EC000E7CF30F404013051096E31510A6E32518E
:104ED0000B6E33510C6E100EE66E270EE66EE66A10
:104EE000E66A09EBE6FF0AEBE6FF0BEBE6FF0CEBED
:104EF000E6FFABEC1FF0E552E5CF33F4E5CF32F43B
:104F0000E5CF31F4E7CF30F404013051096E31516F
:104F10000A6E32510B6E33510C6E09EBE6FF0AEB51
:104F2000E6FF290EE66EB7EC57F043E90401796B12
:104F30007A6B7B6B7C6B04017D6B7E6BCED02C0E11
:104F4000E66E33EC58F041E9F3500D6EF4500E6EFE
:104F50000A0EE66EE66AE66AE66A05EBE6FF06EB2F
:104F6000E6FFE66AE66AB3EC20F0E552E5CF33F4FB
:104F7000E5CF32F4E5CF31F4E7CF30F4040130511E
:104F8000116E3151126E3251136E3351146E1FEB8C
:104F900034F420EB35F4366B376B35AF02D036691D
:104FA000376934C4E6FF35C4E6FF36C4E6FF37C4CC
:104FB000E6FF0DEBE6FF0EEBE6FFE66AE66AB3EC12
:104FC00020F0E552E5CF33F4E5CF32F4E5CF31F40C
:104FD000E7CF30F4040130511B6E31511C6E325159
:104FE0001D6E33511E6EE80EE66E030EE66EE66A27
:104FF000E66A1BEBE6FF1CEBE6FF1DEBE6FF1EEB94
:10500000E6FF4DEC1FF0E552E5CF33F4E5CF32F487
:10501000E5CF31F4E7CF30F4040130511B6E31514C
:105020001C6E32511D6E33511E6E11EB34F412EBB7
:1050300035F413EB36F414EB37F4D9501B0FE96E4B
:10504000DACFEAFFEE50345D306FEE503559316FF4
:10505000EE503659326FEE503759336F3051116E72
:105060003151126E3251136E3351146E0A0EE66EC8
:10507000E66AE66AE66A11EBE6FF12EBE6FF13EB7F
:10508000E6FF14EBE6FFABEC1FF0E552E5CF33F49F
:10509000E5CF32F4E5CF31F4E7CF30F404013051FD
:1050A000116E3151126E3251136E3351146ED9504C
:1050B000110FE96EDACFEAFF04017951EE24796F1E
:1050C0007A51EE207A6F7B51EE207B6F7C51EE207F
:1050D0007C6F04017D2B000E7E2361E9E7CFD9FFB1
:0250E0001200BC
:0E50E200D9CFE6FFE1CFD9FF81E965E8040EE2
:1050F000E66E6FEC58F041E9F350016EF450026E29
:10510000050EE66E6FEC58F041E9F350036EF45073
:10511000046E060EE66E6FEC58F041E9F350056E32
:10512000F450066E090EE66E6FEC58F041E9F3504C
:10513000076EF450086E0D0EE66E33EC58F041E940
:10514000F350096EF4500A6E090EE66E33EC58F017
:1051500041E9F3500B6EF4500C6E0B0EE66E33EC1F
:1051600058F041E9F3500D6EF4500E6E130EE66EDA
:1051700033EC58F041E9F3500F6EF450106E0E0E00
:10518000E66E33EC58F041E9F350116EF450126EB4
:10519000090EE66E51EC58F041E9F350136EF450ED
:1051A000146E0A0EE66E33EC58F041E9F350156EBA
:1051B000F450166E1C0EE66E33EC58F041E9F350D5
:1051C000176EF450186E1B0EE66E33EC58F041E982
:1051D000F350196EF4501A6E0B0EE66E51EC58F047
:1051E00041E9F3501B6EF4501C6EE66A51EC58F026
:1051F00041E9F3501D6EF4501E6E0C0EE66E51EC3C
:1052000058F041E9F3501F6EF450206E010EE66E27
:105210006FEC58F041E9F350216EF450226E020E0B
:10522000E66E6FEC58F041E9F350236E246A256A6C
:105230002150221001E04CD1230401E07DD0115017
:10524000121001E079D00550061076E1010E071822
:1052500001E1085071E11E3404E31D503C08F60ED4
:105260001E546AE209500A1067E10B500C1064E109
:105270000D500E1061E10F5010105EE11550161028
:105280005BE11750181003E019501A1055E113EBA9
:1052900030F414EB31F40401326B336B220E305DC9
:1052A0000B0E3159000E3259000E33590CE2010138
:1052B000010EF81901E1F95106E1010EFA6FFB6BDD
:1052C000F86BF96B1DD013EB30F414EB31F40401DF
:1052D000326B336BD880220E30550B0E3155000ED9
:1052E0003255000E33550CE20101010EF81901E1AF
:1052F000F95106E1FA6BFB6B010EF86FF96B00D008
:105300000101F851F91118E1010EFA1901E1FB51FF
:1053100013E1010EE66EE66A050EE66EF5EC57F057
:1053200043E9EFEC42F0000EE66EE66A0C0EE66E24
:10533000D6EC57F043E900D0230449E1010E0518EB
:1053400001E1065044E11150121041E11E3404E322
:105350001D503C08F60E1E543AE2010E0101F86F92
:10536000F96BFA6BFB6B10EC3EF0000EE66EE66A32
:105370000A0EE66EB7EC57F043E9010EE66EE66AF8
:10538000020EE66EB7EC57F043E9010EE66EE66AF0
:10539000040EE66EF5EC57F043E9010EE66EE66AA0
:1053A000070EE66EF5EC57F043E91C3420501C184C
:1053B00004E61B501F5C1C50205809E21BEBE6FF63
:1053C0001CEBE6FF0C0EE66ED6EC57F043E9040E3C
:1053D000E66E6FEC58F041E9F350016EF450026E46
:1053E000050EE66E6FEC58F041E9F350036EF45091
:1053F000046E1C3404E21B50DC08050E1C5405E24C
:10540000010E011801E1025005E0010E031801E14F
:10541000045009E1100EE66E270EE66E070EE66EEA
:10542000C5EC56F043E9070EE66E4EEC57F041E945
:10543000F350246EF450256E010E091801E10A5054
:1054400026E0010E0B1801E10C5021E0010E0D18B1
:1054500001E10E501CE0010E0F1801E1105017E0A1
:10546000230415E12450251012E0D8801E5004E7D3
:105470003C0E1D5CF60E1E580AE3010E171801E1E2
:10548000185025E1010E191801E11A5020E193ECA2
:1054900059F0010E011801E1025019E1000EE66E0B
:1054A000E66A020EE66EB7EC57F043E9000EE66ED0
:1054B000E66A070EE66EF5EC57F043E9000EE66E7D
:1054C000E66A040EE66EF5EC57F043E900D01ED014
:1054D0000101F651F7111AE193EC59F0000EE66E56
:1054E000E66A020EE66EB7EC57F043E9000EE66E90
:1054F000E66A070EE66EF5EC57F043E9000EE66E3D
:10550000E66A040EE66EF5EC57F043E921EBF6F19E
:0C55100022EBF7F166E9E7CFD9FF1200AB
:04551C00D9CFE6FFFE
:10552000E1CFD9FF81E94CE8030EE66E51EC58F06B
:1055300041E9F350016EF450026E090EE66E51EC33
:1055400058F041E9F350036EF450046E2C0EE66EF1
:1055500033EC58F041E9F350056EF450066E076ADB
:10556000086A096A0A6A0B6A0C6A02340DE3E66883
:10557000E66801EBE6FF02EBE6FF1FEC20F0E552E8
:10558000E550026EE750016E0401010E7F1901E142
:10559000805114E17F6B806BE00EE66E2E0EE66E9E
:1055A000150EE66EC5EC56F043E90401DD6BDE6BCB
:1055B000DF6BE06BE169E269E369E469150EE66EB1
:1055C0004EEC57F041E9F3CF30F4F4CF31F404015D
:1055D0003051311101E01BD11B0EE66E4EEC57F03D
:1055E00041E9F3CF32F4F4CF33F4040132513311F3
:1055F00001E00DD11C0EE66E4EEC57F041E9F3CF01
:1056000034F4F4CF35F404013451351101E0FFD006
:10561000E00EE66E2E0EE66E150EE66EC5EC56F04A
:1056200043E90401E351DF5D0401306F0401E451FB
:10563000E0590401316F3051076E3151086E096A2B
:105640000A6AA00EE66E860EE66E010EE66EE66A49
:1056500007EBE6FF08EBE6FF09EBE6FF0AEBE6FFE8
:10566000B3EC20F0E552E5CF33F4E5CF32F4E5CFEB
:1056700031F4E7CF30F404013051076E3151086E38
:105680003251096E33510A6E0401E151DD5D0401AE
:10569000346F0401E251DE590401356F34C4E6FF72
:1056A00035C4E6FFE66AE66A07EBE6FF08EBE6FFCD
:1056B00009EBE6FF0AEBE6FFABEC1FF0E552E5CFA6
:1056C00033F4E5CF32F4E5CF31F4E7CF30F4040121
:1056D0003051076E3151086E3251096E33510A6EE6
:1056E0000750DC08050E0854000E0954000E0A5439
:1056F00007E2DC0E076E050E086E096A0A6A0FD013
:10570000C80E075C000E0858000E0958000E0A5813
:1057100006E2C80E076E086A096A0A6A00D005EB3D
:1057200030F406EB31F4030E3103F3CF31F43003E0
:10573000F3CF30F4F4503127326B336BD950070F6D
:10574000E96EDACFEAFFEE503027EE503123EE500B
:105750003223EE5033233051076E3151086E3251EF
:10576000096E33510A6E040EE66EE66AE66AE66A70
:1057700007EBE6FF08EBE6FF09EBE6FF0AEBE6FFC7
:10578000ABEC1FF0E552E5CF33F4E5CF32F4E5CFD3
:1057900031F4E7CF30F404013051076E3151086E17
:1057A0003251096E33510A6E87EB0BF088EB0CF027
:1057B0000CEBE6FF210EE66EC8EC58F042E9E66A13
:1057C000010EE66E0BEBE6FF0CEBE6FFC1EC1EF004
:1057D000E552E5CF31F4E7CF30F430C4E6FF220ED6
:1057E000E66EC8EC58F042E907EBE6FF08EBE6FF8F
:1057F0002C0EE66EB7EC57F043E90401DD6BDE6B6F
:10580000DF6BE06BE169E269E369E46959D00401A7
:10581000E151015CE25102580FE201EBE1F402EBCD
:10582000E2F4DF6BE06BF40EE66E010EE66E1C0E2A
:10583000E66EC5EC56F043E91C0EE66E4EEC57F0F2
:1058400041E9F3CF30F4F4CF31F404013051311198
:105850000AE004010350DF5D0450E05904E203EB69
:10586000DFF404EBE0F404010150DD5D0250DE5989
:1058700010E201EBDDF402EBDEF4F40EE66E010E55
:10588000E66E1B0EE66EC5EC56F043E90401E369D3
:10589000E4691B0EE66E4EEC57F041E9F3CF30F4AD
:1058A000F4CF31F40401305131110AE00401E35125
:1058B000035CE451045804E203EBE3F404EBE4F486
:0858C0004DE9E7CFD9FF12000A
:0858C800D9CFE6FFE1CFD9FFC3
:1058D00085E954E8230E056E066A0A0E076E086A0B
:1058E000096A0A6A0B6A0C6A0D6A0E6A0F6A106A04
:1058F000156A166A176A186A02EB34F403EB35F47A
:105900000401366B376B00EB38F401EB39F43A6B7A
:105910003B6B3851345D306F39513559316F3A51E5
:105920003659326F3B513759336F30510D6E31510B
:105930000E6E32510F6E3351106E05EBE6FF06EB23
:10594000E6FFE66AE66A0DEBE6FF0EEBE6FF0FEB1D
:10595000E6FF10EBE6FFB3EC20F0E552E5CF33F4C1
:10596000E5CF32F4E5CF31F4E7CF30F40401305124
:10597000096E31510A6E32510B6E33510C6E640E4A
:10598000E66EE66AE66AE66A09EBE6FF0AEBE6FF20
:105990000BEBE6FF0CEBE6FF4DEC1FF0E552E5CF1D
:1059A00033F4E5CF32F4E5CF31F4E7CF30F404013E
:1059B0003051096E31510A6E32510B6E33510C6EFB
:1059C000800EE66E020EE66EE66AE66A800EE66E0F
:1059D000FD0EE66EE668E66809EBE6FF0AEBE6FF19
:1059E0000BEBE6FF0CEBE6FF5FEC53F04CE9FCC180
:1059F00030F4FDC131F4FEC132F4FFC133F40401CF
:105A00003051096E31510A6E32510B6E33510C6EAA
:105A1000E80EE66E030EE66EE66AE66AE5C4E6FFA9
:105A2000E6C4E6FFE7C4E6FFE8C4E6FFB3EC20F017
:105A3000E552E5CF33F4E5CF32F4E5CF31F4E7CFEB
:105A400030F407EBE6FF08EBE6FFE66AE66A0DEBEB
:105A5000E6FF0EEBE6FF0FEBE6FF10EBE6FFB3EC25
:105A600020F0E552E5CF37F4E5CF36F4E5CF35F455
:105A7000E7CF34F404013451302735513123365106
:105A800032233751332330C4E5F431C4E6F432C451
:105A9000E7F433C4E8F4E80EE66E030EE66EE66A59
:105AA000E66AE5C4E6FFE6C4E6FFE7C4E6FFE8C44D
:105AB000E6FF4DEC1FF0E552E5CFE8F4E5CFE7F463
:105AC000E5CFE6F4E7CFE5F4800EE66E020EE66E73
:105AD000E66AE66AE66AE66AE66AE66AE5C4E6FF58
:105AE000E6C4E6FFE7C4E6FFE8C4E6FF5FEC53F078
:105AF0004CE9FCC1E5F4FDC1E6F4FEC1E7F4FFC1E9
:105B0000E8F409EB30F40AEB31F40BEB32F40CEB74
:105B100033F40401E551040130270401E651040186
:105B200031230401E751040132230401E851040147
:105B300033233051156E3151166E3251176E335179
:105B4000186ED950150FE96EDACFEAFF0401E9515A
:105B5000EE5C0401306F0401EA51EE580401316F2C
:105B60000401EB51EE580401326F0401EC51EE5880
:105B70000401336F3051116E3151126E3251136E78
:105B80003351146E143408E211500908000E1254F7
:105B9000000E1354000E14540CE3D880145008E780
:105BA000F70E115CFF0E1258FF0E1358FF0E14581B
:105BB00025E211EB30F412EB31F413EB32F414EB79
:105BC00033F4E90EE96E040EEA6EEE503027EE5023
:105BD0003123EE503223EE5033233051156E3151C4
:105BE000166E3251176E3351186E15EBE9F416EB41
:105BF000EAF417EBEBF418EBECF409D00401E951EB
:105C0000156EEA51166EEB51176EEC51186E400E80
:105C1000E66EE66AE66AE66A0A0EE66EE66AE66A34
:105C2000E66AE66EE66AE66AE66A15EBE6FF16EBFA
:105C3000E6FF17EBE6FF18EBE6FF4DEC1FF05FEC1D
:105C400053F04CE9FCC130F4FDC131F4FEC132F433
:105C5000FFC133F404013051156E3151166E3251CB
:105C6000176E3351186E155000D055E9E7CFD9FFA4
:025C7000120020
:0E5C7200D9CFE6FFE1CFD9FF84E94AE8046A02
:105C8000056A066A076A086A096A0A6A0B6A0C6A80
:105C90000D6A0050010A01E1DBD0010A01E0B0D138
:105CA0000150D108030E025407E2480E046EF40EB0
:105CB000056E06680768CBD0630E015C000E0258C3
:105CC00007E2400E046E1F0E056E066A076ABFD01B
:105CD0000CEBE9FF0DEBEAFF020ED890E936EA364D
:105CE000E806FBE1840EE926020EEA22EE50015C92
:105CF000ED50025804E20C2A000E0D22E9D70C04E4
:105D0000E96E000E0D58EA6E020ED890E936EA36BA
:105D1000E806FBE1840EE926020EEA22EECF36F415
:105D2000EFCF37F40CEBE9FF0DEBEAFF020ED89052
:105D3000E936EA36E806FBE1840EE926020EEA229D
:105D4000EE500401365D346FEE503759356F34C470
:105D5000E6FF35C4E6FFE66AA00EE66E860EE66E46
:105D6000010EE66EFAEC1EF0E552E5CF32F4E5CF17
:105D700031F4E7CF30F40401336B32BF3369305173
:105D8000086E3151096E32510A6E33510B6E640E3A
:105D9000E66EE66AE66AE66A0C04E96E000E0D58E5
:105DA000EA6E020ED890E936EA36E806FBE1840E88
:105DB000E926020EEA2204010150EE5C346F025023
:105DC000ED58356F34C4E6FF35C4E6FFE66AE66A8F
:105DD00008EBE6FF09EBE6FF0AEBE6FF0BEBE6FF5D
:105DE000B3EC20F04DEC1FF0E552E5CF33F4E5CFF6
:105DF00032F4E5CF31F4E7CF30F40C04E96E000E55
:105E00000D58EA6E020ED890E936EA36E806FBE154
:105E1000840EE926020EEA22020EE926000EEA228C
:105E2000EECF36F4EFCF37F40401386B396B3651CF
:105E300030273751312338513223395133233051F0
:105E4000046E3151056E3251066E3351076ED8D053
:105E50000150AA08030E025407E2480E046EF40E25
:105E6000056E06680768CBD0920E015C000E0258E2
:105E700007E2400E046E1F0E056E066A076ABFD069
:105E80000CEBE9FF0DEBEAFF020ED890E936EA369B
:105E9000E806FBE1B40EE926020EEA22EE50015CB0
:105EA000ED50025804E20C2A000E0D22E9D70C0432
:105EB000E96E000E0D58EA6E020ED890E936EA3609
:105EC000E806FBE1B40EE926020EEA22EECF36F434
:105ED000EFCF37F40CEBE9FF0DEBEAFF020ED890A1
:105EE000E936EA36E806FBE1B40EE926020EEA22BC
:105EF000EE500401365D346FEE503759356F34C4BF
:105F0000E6FF35C4E6FFE66AA00EE66E860EE66E94
:105F1000010EE66EFAEC1EF0E552E5CF32F4E5CF65
:105F200031F4E7CF30F40401336B32BF33693051C1
:105F3000086E3151096E32510A6E33510B6E640E88
:105F4000E66EE66AE66AE66A0C04E96E000E0D5833
:105F5000EA6E020ED890E936EA36E806FBE1B40EA6
:105F6000E926020EEA2204010150EE5C346F025071
:105F7000ED58356F34C4E6FF35C4E6FFE66AE66ADD
:105F800008EBE6FF09EBE6FF0AEBE6FF0BEBE6FFAB
:105F9000B3EC20F04DEC1FF0E552E5CF33F4E5CF44
:105FA00032F4E5CF31F4E7CF30F40C04E96E000EA3
:105FB0000D58EA6E020ED890E936EA36E806FBE1A3
:105FC000B40EE926020EEA22020EE926000EEA22AB
:105FD000EECF36F4EFCF37F40401386B396B36511E
:105FE000302737513123385132233951332330513F
:105FF000046E3151056E3251066E3351076E00D07A
:1060000004EBF3FF05EBF4FF00D04BE9E7CFD9FF3A
:0260100012007C
:0E601200D9CFE6FFE1CFD9FF84E944E8046A64
:10602000056A066A076A0050060A01E16DD1030A93
:1060300001E130D1010A01E1F3D0070A01E1B6D054
:10604000010A01E179D0030A3DE0010A01E096D19D
:1060500001EBE6FF02EBE6FFE66AE66A130EE66E88
:106060000E0EE66EE66AE66AB3EC20F0E552E5CF86
:1060700033F4E5CF32F4E5CF31F4E7CF30F4040167
:106080003051046E3151056E3251066E3351076E38
:1060900004EB30F405EB31F406EB32F407EB33F4A8
:1060A0000A0ED8903333323331333033E806F9E116
:1060B00004013051046E3151056E3251066E335178
:1060C000076E5CD101EBE6FF02EBE6FFE66AE66AEB
:1060D000130EE66E0E0EE66EE66AE66AB3EC20F08C
:1060E000E552E5CF33F4E5CF32F4E5CF31F4E7CF35
:1060F00030F404013051046E3151056E3251066E98
:106100003351076E04EB30F405EB31F406EB32F457
:1061100007EB33F40A0ED890333332333133303354
:10612000E806F9E104013051046E3151056E325137
:10613000066E3351076E22D101EBE6FF02EBE6FF5C
:10614000E66AE66AE70EE66E0C0EE66EE66AE66A58
:10615000B3EC20F0E552E5CF33F4E5CF32F4E5CFF0
:1061600031F4E7CF30F404013051046E3151056E43
:106170003251066E3351076E04EB30F405EB31F407
:1061800006EB32F407EB33F40A0ED8903333323394
:1061900031333033E806F9E104013051046E3151F6
:1061A000056E3251066E3351076EE8D001EBE6FF03
:1061B00002EBE6FFE66AE66A580EE66E020EE66E4F
:1061C000E66AE66AB3EC20F0E552E5CF33F4E5CFBA
:1061D00032F4E5CF31F4E7CF30F404013051046EEE
:1061E0003151056E3251066E3351076E04EB30F4B7
:1061F00005EB31F406EB32F407EB33F40A0ED890DA
:106200003333323331333033E806F9E104013051AE
:10621000046E3151056E3251066E3351076EAED0A9
:1062200001EBE6FF02EBE6FFE66AE66A580EE66E71
:10623000020EE66EE66AE66AB3EC20F0E552E5CFC0
:1062400033F4E5CF32F4E5CF31F4E7CF30F4040195
:106250003051046E3151056E3251066E3351076E66
:1062600004EB30F405EB31F406EB32F407EB33F4D6
:106270000A0ED8903333323331333033E806F9E144
:1062800004013051046E3151056E3251066E3351A6
:10629000076E74D001EBE6FF02EBE6FFE66AE66A02
:1062A000E70EE66E0C0EE66EE66AE66AB3EC20F0E8
:1062B000E552E5CF33F4E5CF32F4E5CF31F4E7CF63
:1062C00030F404013051046E3151056E3251066EC6
:1062D0003351076E04EB30F405EB31F406EB32F486
:1062E00007EB33F40A0ED890333332333133303383
:1062F000E806F9E104013051046E3151056E325166
:10630000066E3351076E3AD001EBE6FF02EBE6FF73
:10631000E66AE66AE70EE66E0C0EE66EE66AE66A86
:10632000B3EC20F0E552E5CF33F4E5CF32F4E5CF1E
:1063300031F4E7CF30F404013051046E3151056E71
:106340003251066E3351076E04EB30F405EB31F435
:1063500006EB32F407EB33F40A0ED89033333233C2
:1063600031333033E806F9E104013051046E315124
:10637000056E3251066E3351076E00D004EBF3FF09
:0E63800005EBF4FF00D045E9E7CFD9FF12008E
:02638E00D9CF65
:10639000E6FFE1CFD9FF81E958E8050EE66E51EC42
:1063A00058F041E9F350016EF450026EE66A51EC88
:1063B00058F041E9F350036EF450046E190EE66E86
:1063C00033EC58F041E9F350056EF450066E160EAA
:1063D000E66E33EC58F041E9F350076EF450086E66
:1063E000010EE66E6FEC58F041E9F350096EF4507F
:1063F0000A6E200EE66E33EC58F041E9F3500B6E56
:10640000F4500C6E1F0EE66E33EC58F041E9F35079
:106410000D6EF4500E6E0F6A106A116A126A136ADA
:10642000146A800E156E166AE10E176E186AD890FF
:10643000025004E6700E015C170E025805E3700E60
:10644000016E170E026E0CD0023404E20150C40833
:10645000090E025405E3C40E016E090E026E00D04F
:10646000D890045004E6A00E035C0F0E045805E318
:10647000A00E036E0F0E046E0CD0043404E2035021
:10648000D008070E045405E3D00E036E070E046E09
:1064900000D0640EE66EE66AE66AE66A15EBE6FF91
:1064A00016EBE6FFE66AE66A0401C40E015C346F8F
:1064B000090E0258356F366B376B35AF02D036692F
:1064C000376934C4E6FF35C4E6FF36C4E6FF37C497
:1064D000E6FFB3EC20F0ABEC1FF0E552E5CF33F470
:1064E000E5CF32F4E5CF31F4E7CF30F4B80E040154
:1064F00030270B0E3123000E322333233051116E1F
:106500003151126E640EE66EE66AE66AE66A17EBD1
:10651000E6FF18EBE6FFE66AE66AD00E035C346F2E
:10652000070E0458356F366B376B35AF02D03669BE
:10653000376934C4E6FF35C4E6FF36C4E6FF37C426
:10654000E6FFB3EC20F0ABEC1FF0E552E5CF33F4FF
:10655000E5CF32F4E5CF31F4E7CF30F4B80E0401E3
:1065600030270B0E3123000E322333233051136EAC
:106570003151146E1350115C1450125823E3030E62
:10658000E66EE66A11EB32F412EB33F4010ED890AA
:1065900032373337E806FBE10401F35104013225B9
:1065A000306F0401F45104013321316F30C4E6FF30
:1065B00031C4E6FFBEEC1EF0E552E5CFF4F4E7CFC0
:1065C000F3F422D0030EE66EE66A13EB32F414EB1A
:1065D00033F4010ED89032373337E806FBE104017B
:1065E000F35104013225306F0401F45104013321C9
:1065F000316F30C4E6FF31C4E6FFBEEC1EF0E55259
:10660000E5CFF4F4E7CFF3F40401A00EF35D0F0E31
:10661000F45904E2A00EF36F0F0EF46F2AEC51F060
:1066200009500A1038E1010E0D1801E10E5007E182
:10663000010E0B1801E10C5002E1BB6A2BD0010ED8
:10664000051801E1065005E0010E071801E10850A8
:1066500003E1400EBB6E1ED0F3C4E6FFF4C4E6FFB8
:10666000080EE66EF5EC57F043E9110EE66E51ECBC
:1066700058F041E9F3500F6EF450106E0FEBE6FF47
:1066800010EBE6FFF3C4E6FFF4C4E6FF64EC2CF085
:0E66900044E9BB6E00D059E9E7CFD9FF1200F4
:02669E00D9CF52
:1066A000E6FFE1CFD9FF81E94CE8170EE66E33EC47
:1066B00058F041E9F350016EF450026E180EE66E88
:1066C00033EC58F041E9F350036EF450046E110EB0
:1066D000E66E33EC58F041E9F350056EF450066E67
:1066E000020EE66E6FEC58F041E9F350076EF4507D
:1066F000086E0C0EE66E6FEC58F041E9F350096E2F
:10670000F4500A6E060EE66E51EC58F041E9F35073
:106710000B6EF4500C6E050122514FE10150021036
:106720004CE1010E071801E1085010E005012A5163
:106730002B110CE1010E2A6F2B6BD00EE66E070EAB
:10674000E66E130EE66EC5EC56F043E9130EE66EE8
:106750004EEC57F041E9F3CF30F4F4CF31F40401BB
:106760003051311129E1010E071801E1085024E0F0
:10677000010E076E086A07EBE6FF08EBE6FF020E64
:10678000E66EF5EC57F043E9010EE66EE66A030E9D
:10679000E66EB7EC57F043E9000EE66EE66A030ECC
:1067A000E66EF5EC57F043E9000EE66EE66A020E7F
:1067B000E66EB7EC57F043E9C3D0010E011801E1D2
:1067C000025008E1225106E1010E071801E10850CC
:1067D00001E1B6D009500A1063E10501235160E1DF
:1067E000035004105DE1020E071801E1085022E099
:1067F00005012A512B111EE1D00E0B5C070E0C581F
:106800000DE3010E2A6F2B6BE80EE66E030EE66EAB
:10681000130EE66EC5EC56F043E90CD0010E2A6F5C
:106820002B6BD00EE66E070EE66E130EE66EC5EC11
:1068300056F043E9130EE66E4EEC57F041E9F3CF04
:1068400030F4F4CF31F404013051311128E1020E5B
:10685000071801E1085023E0020E076E086A07EBF3
:10686000E6FF08EBE6FFE66EF5EC57F043E9020EB3
:10687000E66EE66A030EE66EB7EC57F043E9000EEB
:10688000E66EE66A030EE66EF5EC57F043E9000E9D
:10689000E66EE66A020EE66EB7EC57F043E950D0BA
:1068A000010E031801E1045009E10501235106E13D
:1068B000020E071801E1085001E142D0030E07184B
:1068C00001E1085010E005012A512B110CE1010EE5
:1068D0002A6F2B6BD00EE66E070EE66E130EE66E79
:1068E000C5EC56F043E9130EE66E4EEC57F041E965
:1068F000F3CF30F4F4CF31F404013051311120E101
:10690000030E071801E108501BE0030E076E086A2A
:1069100007EBE6FF08EBE6FF020EE66EF5EC57F03C
:1069200043E9030EE66EE66AE66EB7EC57F043E91C
:10693000010EE66EE66A030EE66EF5EC57F043E9EB
:10694000130EE66E4EEC57F041E9F3CF30F4F4CF7E
:1069500031F404013051311109E105012A6B2B6B2F
:1069600007EBE6FF24EC4AF041E914D0000EE66E96
:10697000E66A030EE66EB7EC57F043E9000EE66EEA
:10698000E66A020EE66EF5EC57F043E9E66A24EC9F
:0C6990004AF041E94DE9E7CFD9FF1200C1
:04699C00D9CFE6FF6A
:1069A000E1CFD9FF81E942E8070EE66E33EC58F0FB
:1069B00041E9F350016EF450026E0150021036E1CD
:1069C0000501010E0A1901E10B5130E1000EE66EDE
:1069D000E66A090EE66EB7EC57F043E9000EE66E84
:1069E000E66A0D0EE66EB7EC57F043E9000EE66E70
:1069F000E66A0B0EE66EB7EC57F043E9000EE66E62
:106A0000E66A0C0EE66EB7EC57F043E9000EE66E50
:106A1000E66A0A0EE66EB7EC57F043E9010EE66E41
:106A2000E66A260EE66EB7EC57F043E901EB0AF58D
:106A300002EB0BF50501085109110DE1B80EE66EE8
:106A40000B0EE66E190EE66EC5EC56F043E9010E2C
:106A50000501086F096B190EE66E4EEC57F041E91F
:106A6000F3CF30F4F4CF31F404013051311105E1AA
:106A7000010E0501066F076BA8D0000EE66EE66AF0
:106A8000110EE66EB7EC57F043E9000EE66EE66ACB
:106A9000120EE66EB7EC57F043E9000EE66EE66ABA
:106AA000070EE66EB7EC57F043E9000EE66EE66AB5
:106AB000080EE66EB7EC57F043E9000EE66EE66AA4
:106AC000130EE66EB7EC57F043E9000EE66EE66A89
:106AD000140EE66EB7EC57F043E9000EE66EE66A78
:106AE000090EE66EB7EC57F043E9000EE66EE66A73
:106AF0000D0EE66EB7EC57F043E9000EE66EE66A5F
:106B0000150EE66EB7EC57F043E9000EE66EE66A46
:106B1000160EE66EB7EC57F043E9000EE66EE66A35
:106B20001A0EE66EB7EC57F043E9000EE66EE66A21
:106B3000170EE66EB7EC57F043E9000EE66EE66A14
:106B4000180EE66EB7EC57F043E9000EE66EE66A03
:106B50001C0EE66EB7EC57F043E9000EE66EE66AEF
:106B60000A0EE66EB7EC57F043E9000EE66EE66AF1
:106B70000B0EE66EB7EC57F043E9000EE66EE66AE0
:106B80000C0EE66EB7EC57F043E9000EE66EE66ACF
:106B9000190EE66EB7EC57F043E9000EE66EE66AB2
:106BA0001B0EE66EB7EC57F043E9000EE66EE66AA0
:106BB0000F0EE66EB7EC57F043E9000EE66EE66A9C
:106BC000210EE66EB7EC57F043E90501010E0619F8
:106BD00001E1075128E1E7EC4EF031EC4BF09AEC83
:106BE00049F037EC55F052EC4FF008EC4EF0B0ECB9
:106BF00055F0A5EC46F0ADEC4AF0D3EC51F094EC36
:106C000044F0FEEC45F0F8EC54F056EC45F077EC2F
:106C100054F0C4EC52F092EC56F0EFEC53F013EC5D
:0E6C200053F0ECEC55F043E9E7CFD9FF12003A
:026C2E00D9CFBC
:106C3000E6FFE1CFD9FF81E942E8026A03014F058F
:106C400001E03AD14F6B03014E6B016A0301015120
:106C5000011A0251011AD4C303F30351011AD3C319
:106C600004F30451011A05CF05F30551011A06CFAB
:106C700006F30651011AD6C307F30751011AD5C30B
:106C800008F30851011AE4C309F30951011AE3C3D7
:106C90000AF30A51011AD8C30BF30B51011AD7C3D7
:106CA0000CF30C51011ADAC30DF30D51011AD9C3BB
:106CB0000EF30E51011AF0C30FF30F51011AEFC377
:106CC00010F31051011ADEC311F31151011ADDC383
:106CD00012F31251011AE0C313F31351011ADFC367
:106CE00014F31451011AE2C315F31551011AE1C34B
:106CF00016F31651011AE6C317F31751011AE5C32B
:106D000018F31851011A8350010B800DF3CF36F49C
:106D10008350020B01E0010E400DF3CF35F4835098
:106D2000040B01E0010E200DF3CF34F48350080B67
:106D300001E0010E100DF3CF33F48150040B01E09C
:106D4000010E080DF3CF32F48150080B01E0010E63
:106D5000040DF3CF31F48150100B01E0010E020D50
:106D6000F3CF30F48450040B01E0010E0401302510
:106D70003125322533253425352536250301196F74
:106D80001951011A8150020B01E0010E200DF3CFC1
:106D900034F48150010B100DF3CF33F48450080B01
:106DA00001E0010E080DF3CF32F48450100B01E026
:106DB000010E040DF3CF31F48450200B01E0010EDD
:106DC000020DF3CF30F48450400B01E0010E0401BA
:106DD0003025312532253325342503011A6F1A5108
:106DE000011A550E1B6F1B51011AAA0E1C6F1C5164
:106DF000011A550E1D6F1D51011AAA0E1E6F1E514C
:106E0000011A550E1F6F1F51011AAA0E206F205133
:106E1000011AF6C321F32151011AF5C322F32251BD
:106E2000011AE8C323F32351011AE7C324F32451C1
:106E3000011A59C025F32551011A58C026F32651CD
:106E4000011A5BC027F32751011A5AC028F32851B1
:106E5000011A54C029F32951011A09C02AF32A51F1
:106E6000011A08C02BF32B51011A0CC02CF32C5122
:106E7000011A5DC02DF32D51011A5CC02EF32E5165
:106E8000011A51C02FF32F51011A50C030F3305165
:106E9000011A53C031F33151011A52C032F3325149
:106EA000011A57C033F33351011A56C034F3345129
:106EB000011A01EB35F3A38843E9E7CFD9FF1200AC
:106EC000D9CFE6FFE1CFD9FF81E942E8016A026A42
:106ED00005011B51070A01E1AED0010A01E19FD073
:106EE000030A01E184D0010A76E0070A62E0010AA0
:106EF0004BE0030A37E0010A01E01ED1016A026A91
:106F0000400E015C000E02581BE2000E0124E96EE7
:106F10000F0E0220EA6EEF6A200E015C000E02588E
:106F20000BE3200E015CE96E000E0258EA6E400E83
:106F3000E9260F0EEA22EF6A012A000E0222E0D7AC
:106F4000000EE66EE66A1D0EE66EB7EC57F043E9FA
:106F50000401F66BE30EAD6EC50EAD6E0501010EBC
:106F60001B6FEAD00401F6050CE1CD0E0401F75DBC
:106F700008E10401F66BC10EAD6E0501020E1B6F38
:106F800002D005011B6BD8D00401F6050FE1DF0E1E
:106F90000401F715CD080AE10401F66BE10EAD6EB0
:106FA000CC0EAD6E0501030E1B6F02D005011B6BED
:106FB000C3D00401F6050CE1CC0E0401F75D08E135
:106FC0000401F66BF00EAD6E0501040E1B6F02D0CE
:106FD00005011B6BB1D00401F60506E1F66BAD6A45
:106FE0000501050E1B6F02D005011B6BA5D0040126
:106FF000F60512E1F66BAD6A0401000EF86F0F0E94
:10700000F96F0401400EFA6F0F0EFB6F0401996BCC
:107010000501060E1B6F02D005011B6B8DD004010C
:10702000F60506E1F66BAD680501070E1B6F02D091
:1070300005011B6B81D00401F6053CE10401995167
:10704000EA6A9A0FE96E040EEA22EF500401F75D36
:1070500031E10401F66B070E0401995D25E3E30EAF
:10706000AD6E996B000EE66EE66A230EE66EB7EC27
:1070700057F043E9010EE66EE66A1D0EE66EB7ECC8
:1070800057F043E90401000EF86F0F0EF96F040189
:10709000400EFA6F0F0EFB6F0501010E1C6F05010C
:1070A0001B6B05011A6F05D0992BAD680501070E02
:1070B0001B6F41D00401F6053CE104019951EA6AD5
:1070C000A30FE96E040EEA22EF500401F75D31E1EF
:1070D0000401F66B070E0401995D25E3E30EAD6E26
:1070E000996B000EE66EE66A230EE66EB7EC57F07B
:1070F00043E9020EE66EE66A1D0EE66EB7EC57F047
:1071000043E90401000EF86F0F0EF96F0401400E01
:10711000FA6F0F0EFB6F0501010E1C6F05011B6B53
:1071200005011A6F05D0992BAD680501070E1B6F7D
:1071300002D005011B6B00D043E9E7CFD9FF120055
:10714000D9CFE6FFE1CFD9FF81E944E8016A046ABB
:107150000301D0510301CF5D01E12DD1CF51EA6A86
:10716000C10FE96E030EEA22EF50EB0810E00301B5
:10717000D0510301CF5D0BE00E0EE66ECF29E66E17
:1071800000EC20F041E9E7500301CF6FE7D70E0E86
:10719000E66ED880CF550301D025E66E00EC20F0D6
:1071A00041E9E7500401306F070E305D01E203D181
:1071B000046A0301CF510001FE6FFF6B0E0EE66EF5
:1071C000E66A050E0301CF250401326F336B3337B6
:1071D00032C4E6FF33C4E6FFC1EC1EF0E552E5CF52
:1071E00031F4E7CF30F4040130510001FE1904E11D
:1071F000040131510001FF191FE0C10EFE25E96EA7
:10720000030EFF21EA6EEF50041A0E0EE66EE66AD8
:10721000FEC030F4FFC031F40401302B000E3123E6
:1072200030C4E6FF31C4E6FFC1EC1EF0E552E5CF05
:10723000FFF0E7CFFEF0C2D70E0EE66E050E03019B
:10724000CF25E66E00EC20F041E9E750EA6AC10F75
:10725000E96E030EEA22EF50045C01E090D00E0EBE
:10726000E66E060E0301CF25E66E00EC20F041E944
:10727000E750EA6AC10FE96E030EEA22EF50FA08FE
:1072800001E07DD00E0EE66ECFC3E6FF00EC20F0ED
:1072900041E9E750EA6AC10FE96E030EEA22EF50B6
:1072A000EB086DE10E0EE66E0301CF29E66E00ECF1
:1072B00020F041E9E750EA6AC10FE96E030EEA22C5
:1072C000EF5090085CE10E0EE66E020E0301CF2532
:1072D000E66E00EC20F041E9E750EA6AC10FE96E82
:1072E000030EEA22EF50E66EE66A1E0EE66EB7EC7B
:1072F00057F043E90E0EE66E030E0301CF25E66E4E
:1073000000EC20F041E9E750EA6AC10FE96E030E94
:10731000EA22EF50E66EE66A1F0EE66EB7EC57F013
:1073200043E90E0EE66E040E0301CF25E66E00EC77
:1073300020F041E9E750EA6AC10FE96E030EEA2244
:10734000EF50E66EE66A200EE66EB7EC57F043E9C2
:107350000E0EE66E070E0301CF25E66E00EC20F060
:1073600041E9E7500301CF6F960EE66EE66A050E1F
:10737000E66EC5EC56F043E90501166B1CD00E0E07
:10738000E66E0301CF29E66E00EC20F041E9E750FC
:107390000301CF6F050EE66E4EEC57F041E9F3CFD7
:1073A00030F4F4CF31F404013051311104E105011E
:0E73B000020E166F00D045E9E7CFD9FF12009C
:0273BE00D9CF25
:1073C000E6FFE1CFD9FF85E950E8056A066A076A5A
:1073D000086A096A0A6A0B6A0C6A0D6A0E6A0F6A01
:1073E000106A116A126A136A146A320E136E146AF2
:1073F000080E116E126A02EB34F403EB35F404014B
:10740000366B376B00EB38F401EB39F43A6B3B6BBE
:107410003851345D306F39513559316F3A513659E1
:10742000326F3B513759336F3051056E3151066E13
:107430003251076E3351086E05EBE6FF06EBE6FFAF
:1074400007EBE6FF08EBE6FF11EBE6FF12EBE6FFCA
:10745000E66AE66AB3EC20F0E552E5CF33F4E5CF17
:1074600032F4E5CF31F4E7CF30F404013051096E46
:1074700031510A6E32510B6E33510C6E05EBE6FF43
:1074800006EBE6FF07EBE6FF08EBE6FF13EBE6FF94
:1074900014EBE6FFE66AE66AB3EC20F0E552E5CFCE
:1074A00033F4E5CF32F4E5CF31F4E7CF30F41E0EFC
:1074B000E96E050EEA6EEE5004013027EE503123DE
:1074C000EE503223EE50332330C41EF531C41FF585
:1074D00032C420F533C421F5F40EE66E010EE66EDB
:1074E000E66AE66A09EB34F40AEB35F40BEB36F4A2
:1074F0000CEB37F405011E510401342705011F511F
:1075000004013523050120510401362305012151D1
:107510000401372334C4E6FF35C4E6FF36C4E6FF72
:1075200037C4E6FF4DEC1FF0E552E5CF33F4E5CF6D
:1075300032F4E5CF31F4E7CF30F4040130510D6E71
:1075400031510E6E32510F6E3351106E400EE66E99
:10755000E66AE66AE66AE66AE66AE66AE66A0DEB03
:10756000E6FF0EEBE6FF0FEBE6FF10EBE6FF5FEC4E
:1075700053F04CE9FCC130F4FDC131F4FEC132F4EA
:10758000FFC133F4040130510D6E31510E6E325192
:107590000F6E3351106E400E346F356B366B376B98
:1075A000D9500D0FE96EDACFEAFFEE50345D306F3F
:1075B000EE503559316FEE503659326FEE50375923
:1075C000336F30510D6E31510E6E32510F6E33519B
:0E75D000106E0D5000D051E9E7CFD9FF120028
:0275DE00D9CF03
:1075E000E6FFE1CFD9FF81E942E8026A016A0301BF
:1075F0009851011A9951011A01C09AF39A51011A2E
:1076000000C09BF39B51011A03C09CF39C51011ACB
:1076100002C09DF39D51011A23CF9EF39E51011A82
:1076200024CF9FF39F51011A20CFBCF3BC51011A04
:1076300004C0A0F3A051011A06C0A1F3A151011A80
:1076400009C0A2F3A251011A08C0A3F3A351011A61
:107650000AC0A4F3A451011A0CC0A5F3A551011A44
:107660000EC0A6F3A651011A000110511411040115
:10767000306F0001115115110401316F30510001BB
:1076800016110301A76FA751011A000112511A1117
:107690000401326F000113511B110401336F325189
:1076A000000118110401306F335100011911040158
:1076B000316F305100011C110301A86FA851011A4C
:1076C0001EC0A9F3A951011A21C0AAF3AA51011A97
:1076D00020C0ABF3AB51011A22C0ACF3AC51011A7C
:1076E00024C0ADF3AD51011A000126512811030148
:1076F000B16FB151011A00012A512C110401346FEC
:1077000000012B512D110401356F3451000130114E
:107710000401326F3551000131110401336F3251D0
:1077200000012E110401306F335100012F110401AB
:10773000316F3051000132110301B26FB251011AA1
:1077400034C0B3F3B351011A36C0B4F3B451011AC3
:1077500038C0B5F3B551011A020EB66FB651011A11
:10776000B76BB751011A040EB86FB851011A3AC07D
:10777000BDF3BD51011A0ACFB0F3B051011A0BCFBE
:10778000AFF3AF51011A0CCFAEF3AE51011A0DCFCA
:10779000B9F3B951011A0ECFBAF3BA51011A0FCF8A
:1077A000BBF3BB51011A640EE66EE66A0F01085185
:1077B0000401346F356B34C435F4346B0F01095157
:1077C00004013425326F000E3521336F32C4E6FFD9
:1077D00033C4E6FF76EC1EF0E552E5CF31F4E7CF97
:1077E00030F430C4BEF30301BE51011A01EBBFF304
:0877F00043E9E7CFD9FF1200C5
:0877F800D9CFE6FFE1CFD9FF74
:1078000081E941E8016A016A1D0E015C01E37CD057
:107810000150040DF3CFE9FFF4CFEAFF600EE92633
:10782000000EEA22020EE926000EEA22010EEE18F0
:1078300001E1ED5034E10150040DF3CFE9FFF4CF45
:10784000EAFF600EE926000EEA22EECF30F4EECF1A
:1078500031F4EECF32F4EFCF33F404010A0E305D91
:10786000000E31590FE30150040DF3CFE9FFF4CFBF
:10787000EAFF600EE926000EEA220A0EEE5E000E16
:10788000ED5A0CD00150040DF3CFE9FFF4CFEAFF1D
:10789000600EE926000EEA22EE6AED6A33D001504E
:1078A000040DF3CFE9FFF4CFEAFF600EE926000EE6
:1078B000EA22EECF30F4EECF31F4EECF32F4EFCF58
:1078C00033F404010A0E305D000E31590FE301500C
:1078D000040DF3CFE9FFF4CFEAFF600EE926000EB6
:1078E000EA220A0EEE26000EED220CD00150040D05
:1078F000F3CFE9FFF4CFEAFF600EE926000EEA229B
:10790000EE6AED6A012A80D7016A070E015C01E385
:107910007AD00150060DF3CFE9FFF4CFEAFFD40E81
:10792000E926000EEA22040EE926000EEA22010EE4
:10793000EE1801E1ED5033E10150060DF3CFE9FF00
:10794000F4CFEAFFD40EE926000EEA220A0EEE5C1E
:10795000000EEE58000EEE58000EEE5811E30150E6
:10796000060DF3CFE9FFF4CFEAFFD40EE926000EAF
:10797000EA220A0EEE5E000EEE5AEE5AEE5A0ED0D3
:107980000150060DF3CFE9FFF4CFEAFFD40EE9264C
:10799000000EEA22EE6AEE6AEE6AEE6A32D001501A
:1079A000060DF3CFE9FFF4CFEAFFD40EE926000E6F
:1079B000EA220A0EEE5C000EEE58000EEE58000EA3
:1079C000EE5811E30150060DF3CFE9FFF4CFEAFFC3
:1079D000D40EE926000EEA220A0EEE26000EEE2252
:1079E000EE22EE220ED00150060DF3CFE9FFF4CFC8
:1079F000EAFFD40EE926000EEA22EE6AEE6AEE6A8B
:0E7A0000EE6A012A82D742E9E7CFD9FF1200D1
:027A0E00DACFCD
:107A1000E4FFE2CFDAFFE9CFE4FFEACFE4FFFCC105
:107A2000E4FFFDC1E4FFFEC1E4FFFFC1E4FFF6CFC8
:107A3000E4FFF7CFE4FFF8CFE4FFF5CFE4FFF3CFA7
:107A4000E4FFF4CFE4FFFACFE4FFFBCFE4FF04EE62
:107A500030F01E0EE80403E3EECFE4FFFBD7E6525E
:107A6000D9CFE6FFE1CFD9FF81E942E8020EE66E09
:107A70006FEC58F041E9F350016EF450026EF25091
:107A8000040B0AE0F250200B07E0850ED66EF2944C
:107A9000B0EC4BF044EC59F0F050010B30E0F050FA
:107AA000080B2DE0849A83908394849CB190B368F2
:107AB0000F0EB26EA192B180A1A2FED784968392DE
:107AC0008498D00EE66E070EE66E130EE66EC5ECD9
:107AD00056F043E9F090F096000EE66EE66A030E6B
:107AE000E66EB7EC57F043E9000EE66EE66A020E6A
:107AF000E66EF5EC57F043E90101F06BF16BF250E3
:107B0000020B33E0F250100B30E0849A83948390A0
:107B1000B190B3680F0EB26EA192B180A1A2FED750
:107B200083968498D00EE66E070EE66E130EE66E10
:107B3000C5EC56F043E9010EE66EE66A0C0EE66E01
:107B4000F5EC57F043E9F292F298000EE66EE66A21
:107B5000030EE66EB7EC57F043E9000EE66EE66AF8
:107B6000020EE66EF5EC57F043E9A450200B05E059
:107B7000A350200B02E059EC59F0A450100B05E083
:107B8000A350100B02E06EEC59F09E50080B0DE074
:107B90009D50080B0AE0190EE66EE66A040EE66ECA
:107BA000C5EC56F043E928EC57F09E50200B05E059
:107BB0009D50200B02E0E3EC59F09E50040B05E0D1
:107BC0009D50040B02E00AEC42F043E9E7CFD9FFF5
:107BD000E55204EE4DF01E0EE80403E3E5CFEDFFA1
:107BE000FBD7E5CFFBFFE5CFFAFFE5CFF4FFE5CF0D
:107BF000F3FFE5CFF5FFE5CFF8FFE5CFF7FFE5CFE2
:107C0000F6FFE5CFFFF1E5CFFEF1E5CFFDF1E5CFE2
:107C1000FCF1E5CFEAFFE5CFE9FFE5CFDAFF1100A0
:107C2000D9CFE6FFE1CFD9FF81E953E81E0EE66E1A
:107C300033EC58F041E9F350016EF450026E1F0E20
:107C4000E66E33EC58F041E9F350036EF450046EE5
:107C5000210EE66E33EC58F041E9F350056EF45016
:107C6000066E0C0EE66E33EC58F041E9F350076EE9
:107C7000F450086E1B0EE66E33EC58F041E9F350F9
:107C8000096EF4500A6E220EE66E33EC58F041E9AC
:107C9000F3500B6EF4500C6E0A0EE66E51EC58F079
:107CA00041E9F3500D6EF4500E6E0B0EE66E6FEC64
:107CB00058F041E9F3500F6EF450106E116A126AD9
:107CC000136A0E340DE3E668E6680DEBE6FF0EEB93
:107CD000E6FF1FEC20F0E552E5500E6EE7500D6E0A
:107CE000010E011801E102501EE0010E031801E12E
:107CF000045019E0010E051801E1065014E0010ED0
:107D00000B1801E10C5005E1010E0F1801E11050B4
:107D10000AE0010E071801E1085005E0010E0918FC
:107D200001E10A5007E1290E116E880E126E130E42
:107D3000136E16D00550061006E10150021003E143
:107D40000350041008E0010E0B1801E10C5008E18B
:107D50000F50101005E1116A980E126E3A0E136E54
:107D600011EB71FF12EBE6FF13EBE6FF060EE66E7A
:107D700014EC58F043E9848C84868494140EE66EE7
:107D80004EEC57F041E9F3CF30F4F4CF31F4040175
:107D90003051311148E1600EE66EEA0EE66E140EC7
:107DA000E66EC5EC56F043E93C0EE66EE66AE66A1E
:107DB000E66A640EE66EE66AE66AE66A0DEB34F49D
:107DC0000EEB35F40401366B376B35AF02D03669F4
:107DD000376934C4E6FF35C4E6FF36C4E6FF37C46E
:107DE000E6FFB3EC20F0ABEC1FF0E552E5CF33F447
:107DF000E5CF32F4E5CF31F4E7CF30F4F20EE96E9F
:107E0000010EEA6EEE5004013027EE503123EE50A1
:107E10003223EE50332330C4F2F131C4F3F132C4D3
:0E7E2000F4F133C4F5F154E9E7CFD9FF1200B5
:027E2E00000052
:107E3000C1C081C1400101C3C003800241C201C66B
:107E4000C006800741C70005C1C581C4400401CCFC
:107E5000C00C800D41CD000FC1CF81CE400E000A75
:107E6000C1CA81CB400B01C9C009800841C801D8F3
:107E7000C018801941D9001BC1DB81DA401A001EED
:107E8000C1DE81DF401F01DDC01D801C41DC00140C
:107E9000C1D481D5401501D7C017801641D601D273
:107EA000C012801341D30011C1D181D0401001F024
:107EB000C030803141F10033C1F381F240320036ED
:107EC000C1F681F7403701F5C035803441F4003CFC
:107ED000C1FC81FD403D01FFC03F803E41FE01FAF3
:107EE000C03A803B41FB0039C1F981F84038002895
:107EF000C1E881E9402901EBC02B802A41EA01EE6B
:107F0000C02E802F41EF002DC1ED81EC402C01E40B
:107F1000C024802541E50027C1E781E640260022F4
:107F2000C1E281E3402301E1C021802041E001A0C2
:107F3000C060806141A10063C1A381A2406200666C
:107F4000C1A681A7406701A5C065806441A4006CFB
:107F5000C1AC81AD406D01AFC06F806E41AE01AA72
:107F6000C06A806B41AB0069C1A981A840680078F4
:107F7000C1B881B9407901BBC07B807A41BA01BEEA
:107F8000C07E807F41BF007DC1BD81BC407C01B40B
:107F9000C074807541B50077C1B781B64076007274
:107FA000C1B281B3407301B1C071807041B0005063
:107FB000C190819140510193C053805241920196EA
:107FC000C056805741970055C19581944054019CFB
:107FD000C05C805D419D005FC19F819E405E005AF4
:107FE000C19A819B405B0199C05980584198018892
:107FF000C04880494189004BC18B818A404A004E6C
:10800000C18E818F404F018DC04D804C418C00440A
:10801000C184818540450187C047804641860182F1
:0E802000C042804341830041C18181804040C5
:02802E00D9CFA8
:10803000E6FFE1CFD9FF81E94AE80A0EE66E51EC8E
:1080400058F041E9F350016EF450026E290EE66ECD
:1080500033EC58F041E9F350036EF450046E056AB6
:10806000066A076A086A096A0A6A02340DE3E66862
:10807000E66801EBE6FF02EBE6FF1FEC20F0E552BD
:10808000E550026EE750016E580EE66E020EE66E87
:10809000E66AE66A03EBE6FF04EBE6FFE66AE66AF9
:1080A000B3EC20F0E552E5CF33F4E5CF32F4E5CF81
:1080B00031F4E7CF30F404013051056E3151066ED2
:1080C0003251076E3351086E5E0EE66EE66AE66A5E
:1080D000E66A05EBE6FF06EBE6FF07EBE6FF08EBDB
:1080E000E6FFB3EC20F0E552E5CF33F4E5CF32F410
:1080F000E5CF31F4E7CF30F404013051056E315152
:10810000066E3251076E3351086E640EE66EE66AF3
:10811000E66AE66A05EBE6FF06EBE6FF07EBE6FF3D
:1081200008EBE6FFABEC1FF0E552E5CF33F4E5CF0B
:1081300032F4E5CF31F4E7CF30F404013051056E6D
:108140003151066E3251076E3351086E01EB34F433
:1081500002EB35F4366B376B35AF02D036693769D1
:1081600034C4E6FF35C4E6FF36C4E6FF37C4E6FF95
:1081700005EBE6FF06EBE6FF07EBE6FF08EBE6FFA5
:10818000ABEC1FF0E552E5CF33F4E5CF32F4E5CFA9
:1081900031F4E7CF30F404013051056E3151066EF1
:1081A0003251076E3351086E0550A008050E065473
:1081B000000E0754000E085406E2A00E056E050ED0
:1081C000066E076A086A190E055C000E0658000E56
:1081D0000758000E085817E305EB30F406EB31F4AE
:1081E00007EB32F408EB33F4190E305F000E315B0D
:1081F000325B335B3051056E3151066E3251076E82
:108200003351086E04D0056A066A076A086A05EBEE
:10821000E6FF06EBE6FF040EE66EB7EC57F043E927
:088220004BE9E7CFD9FF120082
:08822800D9CFE6FFE1CFD9FF39
:1082300081E94EE8010EE66E6FEC58F041E9F3502B
:10824000016EF450026E040EE66E6FEC58F041E9D8
:10825000F350036EF450046E110EE66E33EC58F0DA
:1082600041E9F350056EF450066E070EE66E33ECEE
:1082700058F041E9F350076EF450086E060EE66EB2
:108280008DEC58F041E9F350096EF4500A6E0B0E74
:10829000E66E51EC58F041E9F3500B6EF4500C6E61
:1082A000020EE66E6FEC58F041E9F3500D6EF4509B
:1082B0000E6E0150021001E0A9D00501010E141943
:1082C00001E1155113E1146B156B7D0EE66EE66A44
:1082D000160EE66EC5EC56F043E9F40EE66E010E9E
:1082E000E66E160EE66EC5EC56F043E9010E0D186B
:1082F00001E10E5002E1818401D08194010E031846
:1083000001E1045062E10C3404E20B50E808030E72
:108310000C545BE2160EE66E4EEC57F041E9F3CFDB
:1083200030F4F4CF31F404013051311120E1050172
:10833000125113111CE1980E091802E13A0E0A18A5
:1083400009E17D0EE66EE66A160EE66EC5EC56F0A5
:1083500043E909D0F40EE66E010EE66E160EE66EE7
:10836000C5EC56F043E9010E0501126F136B160EB2
:10837000E66E4EEC57F041E9F3CF30F4F4CF31F430
:1083800004013051311121E10501010E121901E101
:1083900013511BE1980E091802E13A0E0A1809E17F
:1083A0007D0EE66EE66A160EE66EC5EC56F043E903
:1083B00009D0F40EE66E010EE66E160EE66EC5EC02
:1083C00056F043E90501126B136B0501010E1219FA
:1083D00001E113510CE1010E031801E1045007E122
:1083E0000C3404E20B50E808030E0C540BE303506A
:1083F00004100AE10750081007E1030E0D1801E10F
:108400000E5002E1818801D0819800D04FE9E7CF7A
:04841000D9FF12007E
:0C841400D9CFE6FFE1CFD9FF81E942E8B3
:10842000016A026A050132511AE19E94050EE66E58
:1084300032C5E6FF00EC20F041E9E750E96EEA6A58
:10844000D890E936EA36D30EE926040EEA22BECFEA
:10845000EEFFBFCFEDFF05013229326FBCD0050E14
:10846000E66E32C5E6FF00EC20F041E9E750E96E28
:10847000EA6AD890E936EA36D30EE926040EEA22F3
:10848000BECFEEFFBFCFEDFF05013251E96EEA6AC4
:10849000D890E936EA36D30EE926040EEA22EECF6A
:1084A00030F4EFCF31F43229E96EEA6AD890E93638
:1084B000EA36D30EE926040EEA22EECF32F4EFCFED
:1084C00033F404013251305D3351315922E2050158
:1084D0003205E96EEA6AD890E936EA36D30EE92623
:1084E000040EEA22EECFE6FFEECFE6FF3251E96E50
:1084F000EA6AD890E936EA36D30EE926040EEA2273
:10850000FE0EE350EE5C016E41E9E550ED58026E5F
:1085100029D005013205E96EEA6AD890E936EA36D3
:10852000D30EE926040EEA22EECF30F4EFCF31F479
:108530000401FF0ED8803057315705013251E96EE2
:10854000EA6AD890E936EA36D30EE926040EEA2222
:108550000401EE503025016EED503121026E05010F
:10856000010E336F040E325D2CE10150F408010E50
:10857000025427E29D94330515E1D3C430F4D4C4EA
:1085800031F40401FF0ED8803057315730510401C7
:10859000DB250401ED6F040131510401DC210401EC
:1085A000EE6F0AD00401D351DB5D0401ED6F0401CD
:1085B000D451DC590401EE6F0501336B326B9E948C
:1085C0000AD00150F408010E025404E23229326F3D
:0E85D0009E9401D09E9443E9E7CFD9FF12009C
:0285DE00D9CFF3
:1085E000E6FFE1CFD9FF81E944E8016A026A0D0E96
:1085F000E66E51EC58F041E9F350036EF450046E0E
:108600000101F26BF36BF46BF56B600EE66EEA0E34
:10861000E66E140EE66EC5EC56F043E90101F0512A
:10862000F11112E1B80EE66E0B0EE66E060EE66E66
:10863000C5EC56F043E9010E0101F06FF16B050145
:10864000256B266B276B00D0060EE66E4EEC57F0BE
:1086500041E9F3CF30F4F4CF31F40401305131115A
:1086600001E17CD0849C84968484716A040EE66E59
:1086700051EC58F041E9F350016EF450026E01EBF9
:10868000E6FF02EBE6FF7C0EE66E0B0EE66EDFEC1D
:1086900039F044E9746E01EB30F402EB31F404017B
:1086A000326B336BD8806E0E30550B0E3155000E89
:1086B0003255000E33554FE201EB34F402EB35F442
:1086C000366B376B8A0E345D0B0E3559000E3659FA
:1086D000000E375940E2630E0501255D0BE20501EE
:1086E000375105012625266F000E2721276F2529E2
:1086F000256F30D0630E255D2CE1640EE66EE66AD0
:1087000026C5E6FF27C5E6FFBEEC1EF0E552E5CF25
:1087100027F5E7CF26F526C574FF8494010EE66E93
:10872000E66A060EE66EF5EC57F043E9000EE66EDB
:10873000E66A0E0EE66EB7EC57F043E9000EE66E01
:10874000E66A050EE66EF5EC57F043E90501256B88
:1087500001D0256B00D074CF37F51DD0849C849652
:108760008494010EE66EE66A0E0EE66EB7EC57F0E4
:1087700043E9000EE66EE66A060EE66EF5EC57F08B
:1087800043E9000EE66EE66A050EE66EF5EC57F07C
:0E87900043E90501256B45E9E7CFD9FF12004B
:02879E00D9CF31
:1087A000E6FFE1CFD9FF81E946E8016A026A036A80
:1087B000046A056A066A016A026A550E015C000EC7
:1087C00002580BE20400050EB36EB268A192A1A29A
:1087D000FED7012A000E0222F0D7016A026A280E93
:1087E000015C000E025818E20400130EC26EC28231
:1087F000C2B2FED7C3500326C45004220400230E85
:10880000C26EC282C2B2FED7C3500526C450062231
:10881000012A000E0222E3D7280EE66EE66A03EB79
:10882000E6FF04EBE6FFBEEC1EF0E552E550046EF9
:10883000E750036E03507008030E045404E2010E67
:10884000036E046A02D0036A046A280EE66EE66AC2
:1088500005EBE6FF06EBE6FFBEEC1EF0E552E55049
:10886000066EE750056E05500008010E065404E23E
:10887000010E056E066A02D0056A066A010E03182B
:1088800001E104502AE10550061027E1818400002F
:108890008188016A026AA00E015C0F0E025819E27B
:1088A0000400010E031801E1045001E18380B36864
:1088B000F30EB26EA192A1A2FED78390FE0EB36E0C
:1088C0006F0EB26EA192A1A2FED7012A000E022263
:1088D000E2D781940000819823D0010E031801E1B2
:1088E00004501EE1010E051801E1065019E18184D2
:1088F00000008188016A026A190E015C000E0258AC
:108900000BE20400050EB36EB268A192A1A2FED7DD
:10891000012A000E0222F0D781940000819800D035
:0889200047E9E7CFD9FF12007F
:08892800D9CFE6FFE1CFD9FF32
:1089300081E94AE80D0EE66E51EC58F041E9F3503A
:10894000016EF450026E030EE66E33EC58F041E90E
:10895000F350036EF450046E050EE66E6FEC58F0A3
:1089600041E9F350056EF450066E040EE66E6FECAE
:1089700058F041E9F350076EF450086EE66A51EC86
:1089800058F041E9F350096EF4500A6E0A3407E2D8
:108990000A3404E209509408110E0A5413E2010E3D
:1089A000051801E1065005E0010E071801E1085025
:1089B00009E1010EE66EE66A130EE66EB7EC57F0BB
:1089C00043E925D00A3404E209500008000E0A5495
:1089D00008E2D8900A5004E6940E095C110E0A5879
:1089E0000DE3010E031801E1045008E1D8800A509C
:1089F00004E73C0E095CF60E0A5809E2000EE66E2A
:108A0000E66A130EE66EB7EC57F043E900D001EBCF
:108A100030F402EB31F40401326B336BD880400E3A
:108A20003055060E3155000E3255000E33551DE2FD
:108A3000D8800A5004E7180E095CFC0E0A5807E3B8
:108A40000A3404E209507008170E0A540EE2030EAD
:108A5000031801E1045009E1010EE66EE66A140E06
:108A6000E66EB7EC57F043E91DD00A3404E3095031
:108A70001808FC0E0A5408E2D8900A5004E6700E5A
:108A8000095C170E0A5805E3030E031801E10450B0
:108A900009E0000EE66EE66A140EE66EB7EC57F0DB
:0C8AA00043E900D04BE9E7CFD9FF1200FA
:048AAC00D9CFE6FF39
:108AB000E1CFD9FF81E94AE8190EE66E33EC58F0B0
:108AC00041E9F350016EF450026E160EE66E33EC7F
:108AD00058F041E9F350036EF450046E110EE66E47
:108AE00051EC58F041E9F350056EF450066E080E53
:108AF000E66E6FEC58F041E9F350076EF450086EE3
:108B0000640EE66EE66A07EBE6FF08EBE6FFBEECF6
:108B10001EF0E552E5500A6EE750096E140EE66E3F
:108B2000E66A09EBE6FF0AEBE6FF1FEC20F0E552F0
:108B3000E5500A6EE750096E04010950075C306F7A
:108B40000A500858316F0550305D065031590BE21C
:108B500007500924326F08500A20336F3251055CE8
:108B6000335106580AE3010E011801E1025005E0F5
:108B7000010E031801E1045009E1A00EE66E0F0E8C
:108B8000E66E100EE66EC5EC56F043E9100EE66E8A
:108B90004EEC57F041E9F3CF30F4F4CF31F4040157
:108BA0003051311109E1010EE66EE66A1C0EE66EE7
:108BB000B7EC57F043E91ED00950075C306F0A50FC
:108BC0000858316F3051055C3151065813E3075096
:108BD0000924326F08500A20336F0550325D065069
:108BE000335908E3000EE66EE66A1C0EE66EB7EC3B
:0C8BF00057F043E94BE9E7CFD9FF120032
:048BFC00D9CFE6FFE8
:108C0000E1CFD9FF81E94AE80D0EE66E51EC58F04C
:108C100041E9F350016EF450026E030EE66E51EC22
:108C200058F041E9F350036EF450046E070EE66EFF
:108C30006FEC58F041E9F350056EF450066E060EE5
:108C4000E66E8DEC58F041E9F350076EF450086E73
:108C5000640EE66EE66A07EBE6FF08EBE6FFBEECA5
:108C60001EF0E552E5500A6EE750096E140EE66EEE
:108C7000E66A09EBE6FF0AEBE6FF1FEC20F0E5529F
:108C8000E5500A6EE750096E0550061009E1E00E46
:108C9000E66E2E0EE66E080EE66EC5EC56F043E963
:108CA000080EE66E4EEC57F041E9F3CF30F4F4CF06
:108CB00031F404013051311144E107500924306F7F
:108CC00008500A20316F3051035C315104580BE2D7
:108CD0000950075C326F0A500858336F0350325DF9
:108CE0000450335910E301EB34F402EB35F4366BE6
:108CF000376BD880220E34550B0E3555000E365585
:108D0000000E375509E2880EE66E130EE66E180E59
:108D1000E66EC5EC56F043E9180EE66E4EEC57F0E1
:108D200041E9F3CF30F4F4CF31F404013051311183
:108D300008E1010EE66EE66A090EE66EB7EC57F042
:0A8D400043E94BE9E7CFD9FF120029
:068D4A00D9CFE6FFE1CFE6
:108D5000D9FF81E94AE80B0EE66E51EC58F041E983
:108D6000F350016EF450026EE66A51EC58F041E99E
:108D7000F350036EF450046E020EE66E33EC58F0BE
:108D800041E9F350056EF450066E050EE66E6FEC89
:108D900058F041E9F350076EF450086E080EE66E85
:108DA00033EC58F041E9F350096EF4500A6ED88064
:108DB000025004E7180E015CFC0E025805E3020E97
:108DC000051801E106504BE0023404E30150480865
:108DD000F40E025412E2D890025004E6B80E015C80
:108DE0000B0E02580AE2B80EE66E0B0EE66E110E7E
:108DF000E66EC5EC56F043E932D0010E051801E1EC
:108E0000065024E0020E051801E106501FE0010E95
:108E1000071801E108501AE0D880045004E73C0E1E
:108E2000035CF60E045812E3130EE66E4EEC57F098
:108E300041E9F3CF30F4F4CF31F404013051311172
:108E400005E1010E091801E10A5009E1B80EE66ECC
:108E50000B0EE66E110EE66EC5EC56F043E9110EF0
:108E6000E66E4EEC57F041E9F3CF30F4F4CF31F435
:108E700004013051311109E1010EE66EE66A0C0E73
:108E8000E66EB7EC57F043E900D04BE9E7CFD9FFE6
:028E90001200CE
:0E8E9200D9CFE6FFE1CFD9FF81E94AE8260EED
:108EA000E66E33EC58F041E9F350016EF450026E77
:108EB000070EE66E33EC58F041E9F350036EF450C0
:108EC000046E230EE66E33EC58F041E9F350056E64
:108ED000F450066EF7EC56F0F350076EF450086E3F
:108EE000E66A51EC58F041E9F350096EF4500A6E0D
:108EF00005011D0505E0010E011801E1025033E1F5
:108F00001D6B1A6B1B6B010EE66EE66A230EE66E96
:108F1000B7EC57F043E9010EE66EE66A240EE66E02
:108F2000B7EC57F043E9010EE66EE66A250EE66EF1
:108F3000B7EC57F043E9000EE66EE66A260EE66EE1
:108F4000B7EC57F043E9010EE66EE66A270EE66ECF
:108F5000B7EC57F043E9000EE66EE66A1D0EE66ECA
:108F6000B7EC57F043E905011A5103E160EC37F023
:108F70002CD01A0506E10550061003E17EEC48F0FE
:108F800024D0020E1A5D1EE1020EE66E73EC57F05D
:108F900041E9FCC130F4FDC131F4FEC132F4FFC13E
:108FA00033F4040130513111321133110BE1010E50
:108FB000071801E1085006E10550061003E1CDEC69
:108FC00023F003D00501010E1A6F4BE9E7CFD9FF5B
:028FD00012008D
:0E8FD200D9CFE6FFE1CFD9FF81E948E8016A77
:108FE000026A060EE66E33EC58F041E9F350036E68
:108FF000F450046E2D0EE66E33EC58F041E9F35058
:10900000056EF450066E0D0EE66E6FEC58F041E9F9
:10901000F350076EF450086E010E071801E1085076
:1090200020E10401010E811901E182511AE1060ECD
:10903000E66E73EC57F041E9FCC130F4FDC131F448
:10904000FEC132F4FFC133F4040130513111321149
:10905000331107E10401816B826B03EB28F504EB0C
:1090600029F505012851035C2951045807E20350F2
:10907000285D016E04502959026E00D0050E015C76
:10908000000E025837E301506408000E025404E257
:10909000640E016E026A00D003EB28F504EB29F59B
:1090A000055001260650022201EBE6FF02EBE6FF27
:1090B0002D0EE66EB7EC57F043E902EBE6FF230E08
:1090C000E66EC8EC58F042E9E66A010EE66E01EB86
:1090D000E6FF02EBE6FFC1EC1EF0E552E5CF31F40E
:1090E000E7CF30F430C4E6FF240EE66EC8EC58F04B
:0C90F00042E900D049E9E7CFD9FF1200A7
:0490FC0005011B51FE
:109100000E0A56E0030A46E0010A40E0070A3AE088
:10911000010A28E0030A1EE0010A0BE0080A01E048
:109120007CD00401F66BC10EAD6E0501080E1B6FFD
:1091300074D00401F6050BE1DF0E0401F715CD082C
:1091400006E1E10EAD6E0501090E1B6F02D00501AF
:109150001B6B63D00401F66BCC0EAD6E05010A0EDD
:109160001B6F5BD00401F6050AE1CC0E0401F75D2C
:1091700006E1F00EAD6E05010B0E1B6F02D005016E
:109180001B6B4BD0AD6A0C0E1B6F47D0AD6A0D0E3A
:109190001B6F43D0AD680E0E1B6F0401000EF86FFD
:1091A0000F0EF96F0401400EFA6F0F0EFB6F35D0F2
:1091B000F8C4E9FFF9C4EAFFF7C4EFFF0401200E89
:1091C000F85D0F0EF9590DE305011C050AE1FAC41B
:1091D000E9FFFBC4EAFFF7C4EFFF0401FA2B000E1E
:1091E000FB230401F82B000EF923AD68400EF85D57
:1091F0000F0EF95911E3E30EAD6E000EE66EE66A4E
:10920000240EE66EB7EC57F043E905011B6B050130
:0C921000020E1A6F05011C6B00D012004A
:04921C00D9CFE6FFC1
:10922000E1CFD9FF8CE942E805EB30F406EB31F4ED
:1092300007EB32F408EB33F405010C51040130174D
:1092400005010D510401311705010E5104013217BA
:1092500005010F510401331704013051311132114E
:10926000331120E005010350105D045011591AE339
:10927000D9CFE6FFDACFE6FFE552E5500D6EE750B5
:109280000C6E0CEBE6FF0DEBE6FF00EBE6FF01EBEF
:10929000E6FF02EBE6FF09EBE6FF0AEBE6FF72EC06
:1092A00017F047E9040043E9E7CFD9FF120039D8A6
:1092B000020EE66EE66AE66AE66A07D844E9030E3D
:1092C000E66EE66A13D842E91200D9CFE6FFE1CF95
:1092D000D9FF85E900EB0CF501EB0DF502EB0EF57E
:1092E00003EB0FF541E9E7CFD9FF1200D9CFE6FF35
:1092F000E1CFD9FF83E900EB10F501EB11F541E96E
:10930000E7CFD9FF1200D9CFE6FFE1CFD9FF82E93D
:109310006CA2FED700EB6DFF6C8A41E9E7CFD9FF65
:109320001200060E6C6E900E6B6E7C6A670E6F6E8E
:04933000A3981200EC
:0C933400D9CFE6FFE1CFD9FF81E944E882
:10934000070EE66E51EC58F041E9F350016EF4500F
:10935000026E780E036E046A040103506008306FD9
:10936000090E0454316F0150305D0250315914E23E
:10937000600E0324326F090E0420336F3251015CFA
:109380003351025809E2F40EE66E010EE66E0C0E41
:10939000E66EC5EC56F043E90C0EE66E4EEC57F067
:1093A00041E9F3CF30F4F4CF31F4040130513111FD
:1093B00021E1010EE66EE66A1A0EE66EB7EC57F092
:1093C00043E9000EE66EE66A0B0EE66EF5EC57F02A
:1093D00043E9000EE66EE66A1E0EE66EB7EC57F045
:1093E00043E9000EE66EE66A1F0EE66EB7EC57F034
:1093F00043E926D003506008306F090E0454316FE2
:109400000150305D025031591BE2600E0324326F6F
:10941000090E0420336F3251015C3351025810E2BF
:10942000000EE66EE66A1A0EE66EB7EC57F043E9F8
:10943000010EE66EE66A0B0EE66EF5EC57F043E9B8
:0894400045E9E7CFD9FF120056
:08944800D9CFE6FFE1CFD9FF07
:1094500082E900506DE0030A43E0010A1DE0030ABF
:1094600001E077D08390849AB190B3680F0EB26E0A
:10947000A192B180A1A2FED7839683828488B19005
:10948000B3680F0EB26EA192B180A1A2FED7838401
:10949000F090F086F2985DD08394849A849CB19089
:1094A000B3680F0EB26EA192B180A1A2FED78392D3
:1094B000838684888496B190B3680F0EB26EA192B1
:1094C000B180A1A2FED78380F292F288F096000EBE
:1094D000E66EE66A020EE66EB7EC57F043E939D065
:1094E00083948390849CB190B3680F0EB26EA19266
:1094F000B180A1A2FED78498838683828496B1909E
:10950000B3680F0EB26EA192B180A1A2FED7848A79
:10951000020EE66EE66AE66EB7EC57F043E9010E1E
:10952000E66EE66A030EE66EF5EC57F043E911D0FD
:109530008390849A8394849CB190B3680F0EB26E2A
:10954000A192B180A1A2FED783968392849884963B
:0A95500000D041E9E7CFD9FF120077
:06955A00D9CFE6FFE1CFCE
:10956000D9FF81E948E8010EE66E33EC58F041E995
:10957000F350016EF450026E030EE66E33EC58F0B9
:1095800041E9F350036EF450046E0D0EE66E51EC9B
:1095900058F041E9F350056EF450066E070EE66E82
:1095A0006FEC58F041E9F350076EF450086E055027
:1095B0007808050E065410E3075008100DE1D88016
:1095C000025004E7300E015CF80E025805E3030E6A
:1095D000031801E1045009E1D00EE66E070EE66EB5
:1095E0000E0EE66EC5EC56F043E90E0EE66E4EEC3E
:1095F00057F041E9F3CF30F4F4CF31F404013051A6
:10960000311109E1010EE66EE66A080EE66EB7EC6E
:1096100057F043E922D005EB30F406EB31F4326B1E
:10962000336BD880400E3055060E3155000E325542
:10963000000E335512E2023404E301503008F80EF4
:1096400002540BE20750081008E1000EE66EE66ACD
:10965000080EE66EB7EC57F043E949E9E7CFD9FFCA
:029660001200F6
:0E966200D9CFE6FFE1CFD9FF81E94CE8040E35
:10967000E66E33EC58F041E9F350016EF450026E9F
:10968000030EE66E33EC58F041E9F350036EF450EC
:10969000046E110EE66E33EC58F041E9F350056E9E
:1096A000F450066E050EE66E33EC58F041E9F350C7
:1096B000076EF450086E060EE66E33EC58F041E982
:1096C000F350096EF4500A6E0D0EE66E6FEC58F012
:1096D00041E9F3500B6EF4500C6E010E0B1801E1D2
:1096E0000C501BE10550061018E1080E095C000E35
:1096F0000A580AE31E0E015C000E02580EE2010E2B
:10970000071801E1085009E1010EE66EE66A120E43
:10971000E66EB7EC57F043E91FD0030E031801E1E2
:1097200004500DE0010E0B1801E10C5008E105504A
:10973000061005E1080E095C000E0A5805E2010E4C
:10974000051801E1065008E1000EE66EE66A120E09
:10975000E66EB7EC57F043E94DE9E7CFD9FF1200C9
:10976000D9CFE6FFE1CFD9FF81E943E8016A026A78
:10977000036AC2B26FD0C350026EC450036EC250AF
:10978000E840E8403F0B016E0F0E0114016E0150DE
:109790000B0A58E0010A4FE0030A46E0010A3DE0E7
:1097A0000F0A34E0010A2BE0030A22E0010A19E063
:1097B000070A16E0010A0DE0030A0AE0010A01E0C7
:1097C00048D002EB00F403EB01F40B0EC26E41D063
:1097D00040D002EB04F403EB05F4130EC26E39D053
:1097E00038D002EB08F403EB09F4170EC26E31D047
:1097F00002EB0AF403EB0BF41B0EC26E2AD002EB51
:109800000CF403EB0DF41F0EC26E23D002EB0EF42A
:1098100003EB0FF4230EC26E1CD002EB10F403EB2B
:1098200011F4270EC26E15D002EB12F403EB13F401
:109830002B0EC26E0ED002EB14F403EB15F42F0EB8
:10984000C26E07D002EB16F403EB17F4030EC26EE0
:0C98500000D0C28244E9E7CFD9FF12002B
:04985C00D9CFE6FF7B
:10986000E1CFD9FF81E944E80D0EE66E51EC58F0E6
:1098700041E9F350016EF450026E036A046A050177
:10988000010E041901E1055115E1046B056B300E61
:10989000E66E750EE66EE66AE66A040EE66E74EC37
:1098A00055F045E901EB00F502EB01F501EB02F59E
:1098B00002EB03F5040EE66E73EC57F041E9FCC1D0
:1098C00030F4FDC131F4FEC132F4FFC133F40401C0
:1098D000305131113211331124E105010251005D83
:1098E000036E01510355046E03EBE6FF04EBE6FF44
:1098F0002F0EE66EB7EC57F043E901EB00F502EBF3
:1099000001F501EB02F502EB03F5300EE66E750E84
:10991000E66EE66AE66A040EE66E74EC55F045E91A
:1099200013D005010251015C0351025804E201EB1E
:1099300002F502EB03F50150005D0250015904E20B
:1099400001EB00F502EB01F545E9E7CFD9FF120085
:10995000D9CFE6FFE1CFD9FF81E948E80F0EE66EE7
:1099600051EC58F041E9F350016EF450026E100EC4
:10997000E66E51EC58F041E9F350036EF450046E7A
:109980000D0EE66E51EC58F041E9F350056EF450BF
:10999000066E020EE66E6FEC58F041E9F350076E6A
:1099A000F450086EB80E015C0B0E025802E305017C
:1099B000226BB80E015C0B0E025806E20501010E87
:1099C000226F0101F06BF16B1A0E035C040E045858
:1099D00008E2840E035C030E045805E305012351DD
:1099E00002E10501236B840E035C030E045803E2BD
:1099F0000501010E236F000E035C050E045805E2FD
:109A00000350C808000E045408E3000EE66EE66A30
:109A10000C0EE66EF5EC57F043E9C40E055C090E3A
:109A2000065802E30501246BC40E055C090E0658B6
:109A300003E20501010E246F49E9E7CFD9FF1200C7
:109A4000D9CFE6FFE1CFD9FF84E944E8046A056A8B
:109A5000066A076A005001E05FD001EB30F402EBC8
:109A600031F404013051046E3151056E066A076A03
:109A70008D0EE66E720EE66EE66AE66A04EBE6FFAF
:109A800005EBE6FF06EBE6FF07EBE6FFB3EC20F0A5
:109A9000E552E5CF33F4E5CF32F4E5CF31F4E7CF4B
:109AA00030F404013051046E3151056E3251066EAE
:109AB0003351076E04EB30F405EB31F406EB32F46E
:109AC00007EB33F4220E305FB90E315B140E325BBC
:109AD000010E335B3051046E3151056E3251066E0A
:109AE0003351076E5B0EE66E020EE66EE66AE66ABC
:109AF00004EBE6FF05EBE6FF06EBE6FF07EBE6FF10
:109B00004DEC1FF0E552E550076EE550066EE5504E
:109B1000056EE750046E00D004EBF3FF05EBF4FF95
:0A9B200000D045E9E7CFD9FF12009D
:069B2A00D9CFE6FFE1CFF8
:109B3000D9FF81E941E8020E6B14000805E26B6A67
:109B40006E50016E900E6B6E64EC1BF0E66A73EC67
:109B500057F041E9FCC130F4FDC131F4FEC132F4EB
:109B6000FFC133F40401305131113211331103E1DB
:109B70000301010E006F010EE66E73EC57F041E930
:109B8000FCC130F4FDC131F4FEC132F4FFC133F445
:109B90000401305131113211331109E1000EE66E2A
:109BA000E66A010EE66EF5EC57F043E907D0010EC8
:109BB000E66EE66AE66EF5EC57F043E90301005104
:109BC000010A1CE0010A01E01FD0260E6C6EE66A55
:109BD0004EEC57F041E9F3CF30F4F4CF31F4040107
:109BE000305131110AE117EC36F0900EE66E010E9D
:109BF000E66EE66AC5EC56F043E906D0060E6C6EDA
:109C00000301010E4F6F00D042E9E7CFD9FF1200E8
:109C1000D9CFE6FFE1CFD9FF81E944E8020EE66E35
:109C200051EC58F041E9F350016EF450026EC60E4B
:109C3000036E046A04010350E408306F0C0E0454F0
:109C4000316F0150305D025031590BE2E40E0324B4
:109C5000326F0C0E0420336F3251015C33510258C5
:109C600003E30501220509E1F40EE66E010EE66E3E
:109C70000D0EE66EC5EC56F043E90D0EE66E4EECA9
:109C800057F041E9F3CF30F4F4CF31F4040130510F
:109C9000311109E1010EE66EE66A170EE66EB7ECC9
:109CA00057F043E921D00350E408306F0C0E045400
:109CB000316F3051015C315102580BE3E40E032443
:109CC000326F0C0E0420336F0150325D0250335955
:109CD00003E20501220508E1000EE66EE66A170EB2
:109CE000E66EB7EC57F043E945E9E7CFD9FF12003C
:109CF000900EAB6E260EAC6E7E6ACF0EAF6E9D8A56
:109D0000AC6AC10EB36E7F0EB26EA192A1A2FED755
:109D1000260EAC6EC10EB36E7F0EB26EA192A1A2E2
:109D2000FED70401F66BC10EAD6E170EAD6E630E5D
:109D3000B36EBF0EB26EA1920401F65104E1A150C0
:109D4000020B01E1F9D70401F66B450EAD6E630E0F
:109D5000B36EBF0EB26EA1920401F65104E1A150A0
:109D6000020B01E1F9D70401F66B5B0EAD6E630ED9
:109D7000B36EBF0EB26EA1920401F65104E1A15080
:109D8000020B01E1F9D70401F66B0F0EAD6E630E05
:109D9000B36EBF0EB26EA1920401F65104E1A15060
:109DA000020B01E1F9D70401F66B910EAD6E630E63
:109DB000B36EBF0EB26EA1920401F65104E1A15040
:0E9DC000020B01E1F9D70401F66B040012005A
:029DCE00D9CFEB
:109DD000E6FFE1CFD9FF81E94AE8040EE66E33ECF5
:109DE00058F041E9F350016EF450026E060EE66E33
:109DF00033EC58F041E9F350036EF450046E030E57
:109E0000E66E33EC58F041E9F350056EF450066EFF
:109E1000050EE66E33EC58F041E9F350076EF4504E
:109E2000086E0D0EE66E6FEC58F041E9F350096EC6
:109E3000F4500A6E010E091801E10A5018E1030EF0
:109E4000035C000E04580AE30A0E015C000E02587F
:109E50000EE2010E071801E1085009E1010EE66E5D
:109E6000E66A110EE66EB7EC57F043E917D0030E21
:109E7000051801E1065012E0010E091801E10A502F
:109E80000DE1030E035C000E045808E3000EE66EBD
:109E9000E66A110EE66EB7EC57F043E94BE9E7CFFF
:049EA000D9FF1200D4
:0C9EA400D9CFE6FFE1CFD9FF81E944E807
:109EB000080EE66E51EC58F041E9F350016EF45093
:109EC000026E190E036E046A04010350F408306F29
:109ED000010E0454316F0150305D0250315914E2CB
:109EE000F40E0324326F010E0420336F3251015CF3
:109EF0003351025809E2F40EE66E010EE66E0B0EC7
:109F0000E66EC5EC56F043E90B0EE66E4EEC57F0EC
:109F100041E9F3CF30F4F4CF31F404013051311181
:109F200009E1010EE66EE66A150EE66EB7EC57F033
:109F300043E91ED00350F408306F010E0454316F12
:109F40000150305D0250315913E2F40E0324326F98
:109F5000010E0420336F3251015C3351025808E284
:109F6000000EE66EE66A150EE66EB7EC57F043E9B2
:089F700045E9E7CFD9FF12001B
:089F7800D9CFE6FFE1CFD9FFCC
:109F800083E948E8036A056A066A076A086A096A93
:109F90000A6A0050011002E1010E4CD000EBE9FF0B
:109FA00001EBEAFFEF5042E000EBE9FF01EBEAFFD3
:109FB000EE52EE50056EEE50066EEE50076EEF500C
:109FC000086E00EBE9FF01EBEAFF050EE926000E43
:109FD000EA220550EE5C0650EE580750EE58085045
:109FE000EE581FE30400010EE66EE66A05EBE6FF9D
:109FF00006EBE6FF07EBE6FFD950040FE66EDACF7B
:10A00000E6FFD4EC50F047E904500326D950050F81
:10A01000E96EDACFEAFFEE2A000EEE22EE22EE2201
:10A02000D0D7090E0026000E0122B8D7031E032A3E
:0CA03000035000D049E9E7CFD9FF12002F
:04A03C000201835149
:10A04000040DF3CFE9FFF4CFEAFF600EE926020E1C
:10A05000EA22EECFFCF4EECFFDF4EECFFEF4EFCF2C
:10A06000FFF4826B8051D88082553CE382511F0BF4
:10A07000FCC430F4FDC431F4FEC432F4FFC433F444
:10A0800008E00401D8903333323331333033E806FB
:10A09000F9E1010E04013017316B326B336B30196B
:10A0A00005E1315103E1325101E1335118E102017F
:10A0B0008251030DF3CFE9FFF4CFEAFF000EE9264A
:10A0C000020EEA22EECF30F4EECF31F4EFCF32F4CD
:10A0D00032C4FBFF31C4FAFF040130511400020105
:10A0E000822BC0D78105835D02E2832B01D0836B75
:02A0F00012005C
:0EA0F200700ED36E400E9B6E000EE96E000ED7
:10A10000EA6EAA0EEE6EEA500F08FBE1E950600815
:10A11000F8E1000EE96E000EEA6EEE50AA0820E1AA
:10A12000EA500F08FAE1E9506008F7E1000EE96E25
:10A13000000EEA6E550EEE6EEA500F08FBE1E95094
:10A140006008F8E1000EE96E000EEA6EEE50550868
:10A1500007E1EA500F08FAE1E9506008F7E1120060
:10A16000E30E93161C0E811204D8E30E811601D85B
:10A17000F9D7D59EC20ED76EF60ED66AD58EF2A44A
:10A18000FED7F294D59E1200600EF36E00EE00F042
:10A190000F0E01D81200EA6002D0EE6AFCD7F3502D
:08A1A000E9601200EE6AFCD731
:08A1A800FB0EE3CFF6FFFC0EF5
:10A1B000E3CFF7FFFD0EE3CFF8FFFE0EE3CFE9FF9D
:10A1C000FF0EE3CFEAFFE9CFF3FFEACFF4FFF90E8A
:10A1D000E35003E1FA0EE35009E0F90EE30602E270
:10A1E000FA0EE3060900F5CFEEFFF1D71200FE0EDE
:10A1F000E3CFE9FFFF0EE3CFEAFFF36AF46AEE5222
:10A2000003E0F34AF42AFBD71200FF0EE3CFF8FF76
:10A21000E552FF0EE3CFF7FFE552FF0EE3CFF6FF67
:10A22000E552E66AE66AE66A0900F55209E0FD0EC3
:10A23000E32A05E1FE0EE32A02E1FF0EE32AF4D74A
:10A24000FD0EE3CFFCF1FE0EE3CFFDF1FF0EE3CFF9
:04A25000FEF1120009
:0CA254009DB43CD0EDC4E6FFEEC4E6FF74
:10A26000E66AE66AE66A870EE66E930EE66E030E0F
:10A27000E66EABEC1FF0E552E5CFF2F4E5CFF1F47A
:10A28000E5CFF0F4E7CFEFF4D880100E0401EF55DE
:10A29000270EF055000EF155000EF25505E2EF6B5A
:10A2A000F06BF16BF26B00D0EFC4E6FFF0C4E6FF99
:10A2B000110EE66ED6EC57F043E99D849E943C0E59
:10A2C000E66EE66A1A0EE66EC5EC56F043E916D065
:10A2D0001A0EE66E4EEC57F041E9F3CF30F4F4CFAE
:10A2E00031F404013051311109E1000EE66EE66AE5
:0EA2F000110EE66ED6EC57F043E900D01200D6
:02A2FE00D9CFB6
:10A30000E6FFE1CFD9FF81E941E8016A016A1D0E4C
:10A31000015C1FE20150040DF3CFE9FFF4CFEAFF27
:10A32000600EE926000EEA22EE6AED6A0150040D85
:10A33000F3CFE9FFF4CFEAFF600EE926000EEA2230
:10A34000020EE926000EEA22010EEE6EED6A012AE7
:10A35000DED7016A070E015C21E20150060DF3CF42
:10A36000E9FFF4CFEAFFD40EE926000EEA22EE6AF6
:10A37000EE6AEE6AEE6A0150060DF3CFE9FFF4CF04
:10A38000EAFFD40EE926000EEA22040EE926000EAA
:10A39000EA22010EEE6EED6A012ADCD7040042E9E2
:06A3A000E7CFD9FF120017
:0AA3A600D9CFE6FFE1CFD9FF81E92E
:10A3B00048E80C0EE66E51EC58F041E9F350016E9E
:10A3C000F450026E070EE66E6FEC58F041E9F35060
:10A3D000036EF450046E050EE66E6FEC58F041E922
:10A3E000F350056EF450066E076A086A0501010E07
:10A3F0002E1901E12F510AE10350041007E1055025
:10A40000061004E1010E076E086A02D0076A086AA6
:10A41000D890025004E6D00E015C070E02580DE2FF
:10A42000010E071801E1085008E1010EE66EE66A28
:10A430000A0EE66EB7EC57F043E903EB2EF504EB9A
:0AA440002FF549E9E7CFD9FF12001C
:06A44A00D9CFE6FFE1CFCF
:10A45000D9FF81E941E8016A016A090E015C0DE258
:10A46000EA6A0134FE0BE96EEA36AC0EE926040E08
:10A47000EA22EE6AED6A012AF0D7016A0E0E015C4B
:10A480000DE2EA6A0134FE0BE96EEA36E40EE926D3
:10A49000020EEA22EE6AED6A012AF0D7016A140E72
:10A4A000015C0DE2EA6A0134FE0BE96EEA36D30E76
:10A4B000E926030EEA22EE6AED6A012AF0D7016A64
:10A4C000300E015C0DE2EA6A0134FE0BE96EEA36F9
:10A4D000000EE926000EEA22EE6AED6A012AF0D7A4
:0AA4E000040042E9E7CFD9FF1200A3
:06A4EA002A0EF66E080EBA
:10A4F000F76E000EF86E04010900F550CE6F0900EA
:10A50000F550CF6F03E1CE6701D03DD00900F55083
:10A51000C96F0900F550CA6F0900F550CB6F0900EB
:10A520000900F550E96E0900F550EA6E09000900CE
:10A530000900F550CC6F0900F550CD6F09000900F6
:10A54000F6CFD0F4F7CFD1F4F8CFD2F4C9C4F6FFE8
:10A55000CAC4F7FFCBC4F8FF0401CC5302E1CD53CA
:10A5600007E00900F550EE6ECC07F8E2CD07F9D709
:10A57000D0C4F6FFD1C4F7FFD2C4F8FF0401CE0760
:08A58000000ECF5BBFD71200F3
:08A58800D9CFE6FFE1CFD9FFB6
:10A5900081E944E8010EE66E33EC58F041E9F350EE
:10A5A000016EF450026E030EE66E33EC58F041E992
:10A5B000F350036EF450046E023404E301503C087F
:10A5C000F60E025405E3030E031801E1045009E1FD
:10A5D000F40EE66E010EE66E090EE66EC5EC56F060
:10A5E00043E9090EE66E4EEC57F041E9F3CF30F443
:10A5F000F4CF31F404013051311109E1010EE66E5E
:10A60000E66A070EE66EB7EC57F043E908D0000E95
:10A61000E66EE66A070EE66EB7EC57F043E945E9E9
:06A62000E7CFD9FF120094
:0AA62600D9CFE6FFE1CFD9FF81E9AB
:10A6300042E8230EE66E33EC58F041E9F350016E28
:10A64000F450026E010E011801E1025009E0880E7B
:10A65000E66E130EE66E120EE66EC5EC56F043E99A
:10A66000120EE66E4EEC57F041E9F3CF30F4F4CF22
:10A6700031F40401305131110DE0C00E04016B19A9
:10A6800002E1120E6C190FE0600E6B1902E1090E67
:10A690006C1909E0010EE66EE66A0F0EE66EB7EC85
:10A6A00057F043E908D0000EE66EE66A0F0EE66E3C
:0EA6B000B7EC57F043E943E9E7CFD9FF1200BA
:02A6BE00D9CFF2
:10A6C000E6FFE1CFD9FF8DE944E80D6A0E6A0F6A13
:10A6D000106A0B3403500B1808E60850005C095050
:10A6E00001580A5002580B50035809E280EB0DF054
:10A6F00081EB0EF082EB0FF083EB10F01ED00734ED
:10A700000B50071808E60450085C0550095806501D
:10A710000A5807500B5809E284EB0DF085EB0EF058
:10A7200086EB0FF087EB10F008D088EB0DF089EB8B
:10A730000EF08AEB0FF08BEB10F00DEBFCF10EEB53
:10A74000FDF10FEBFEF110EBFFF100D045E9E7CF93
:04A75000D9FF12001B
:0CA75400D9CFE6FFE1CFD9FF81E944E84E
:10A76000090EE66E6FEC58F041E9F350016EF450BB
:10A77000026E010EE66E6FEC58F041E9F350036E85
:10A78000F450046E010E011801E1025020E1035063
:10A79000041005E1A8EC4CF04FEC33F018D00501A3
:10A7A0002C512D1114E1E66A24EC4AF041E9000E27
:10A7B000E66EE66A030EE66EB7EC57F043E9000E6C
:10A7C000E66EE66A020EE66EF5EC57F043E903EB3F
:0EA7D0002CF504EB2DF545E9E7CFD9FF12007B
:02A7DE00D9CFD1
:10A7E000E6FFE1CFD9FF81E944E8190EE66E33ECCC
:10A7F00058F041E9F350016EF450026E050EE66E1A
:10A8000051EC58F041E9F350036EF450046E0434F7
:10A8100004E203507008170E04540CE201500210B9
:10A8200009E1010EE66EE66A1B0EE66EB7EC57F024
:10A8300043E915D0D890045004E67C0E035C150E55
:10A84000045805E3010E011801E1025008E1000E71
:10A85000E66EE66A1B0EE66EB7EC57F043E945E993
:06A86000E7CFD9FF120052
:0AA86600700ED36E400E9B6E806AE8
:10A87000816A826A836A846A856A866A9268AB0E94
:10A88000936E9F0E946E956A030E966E9768050EF2
:10A89000986ED50ED56EF10ECD6E010ECA6E090EF4
:10A8A000B16E040E766E3F0E776ED00EF26E640EB1
:10A8B000F16E400EF06E100E9E6EA16A100EA46E28
:10A8C0009D6AA06AA36A9F68A268A568800ED06E80
:10A8D000050EBD6E0C0EBA6E0C0E736E0C0E706E05
:0EA8E000BB6A746A716A0400010ED16E120028
:02A8EE00D9CFC0
:10A8F000E6FFE1CFD9FF81E942E80D0EE66E51ECAB
:10A9000058F041E9F350016EF450026E01EB30F45F
:10A9100002EB31F40401326B336B9F0E305D0B0E92
:10A920003159000E3259000E335909E22C0EE66EF1
:10A93000010EE66E0A0EE66EC5EC56F043E90A0E0D
:10A94000E66E4EEC57F041E9F3CF30F4F4CF31F43A
:10A9500004013051311108E1010EE66EE66A0D0E78
:10A96000E66EB7EC57F043E943E9E7CFD9FF1200B1
:10A97000D9CFE6FFE1CFD9FF83E941E800EBE6FF5D
:10A9800001EBE6FFBCEC4FF042E9036E03EB69F428
:10A99000F668F768F86A0800F5CF6AF404016A51AE
:10A9A000035C02E1000E01D0010E00D042E9E7CFC6
:10A9B000D9FF1200D9CFE6FFE1CFD9FF82E941E804
:10A9C000026A005008E14E0EE66E040EE66ED0DF1D
:10A9D00042E9026E02D0020E026E025002E1000451
:10A9E00001E104D842E9E7CFD9FF1200B0EF50F0FF
:10A9F000D9CFE6FFE1CFD9FF81E946E8070EE66E41
:10AA00006FEC58F041E9F350016EF450026E600EA5
:10AA100004016B1902E1090E6C1908E1800E036E46
:10AA2000EE0E046E360E056E066A06D0036ADD0E63
:10AA3000046E6D0E056E066A0101F251035CF3515E
:10AA40000458F4510558F55106580DE2010E01184D
:10AA500001E1025008E1010EE66EE66A0B0EE66EB9
:0EAA6000B7EC57F043E947E9E7CFD9FF120002
:02AA6E00D9CF3E
:10AA7000E6FFE1CFD9FF81E944E8150EE66E33EC3D
:10AA800058F041E9F350016EF450026E1A0EE66E72
:10AA900033EC58F041E9F350036EF450046E010EAC
:10AAA000011801E102500EE1010E031801E104500A
:10AAB00009E1010EE66EE66A160EE66EB7EC57F097
:10AAC00043E90ED00150021003E00350041008E1E6
:10AAD000000EE66EE66A160EE66EB7EC57F043E936
:08AAE00045E9E7CFD9FF1200A0
:08AAE800D9CFE6FFE1CFD9FF51
:10AAF00086E904EBE9FFEA6AE9BEEA68060EEA02C3
:10AB0000F3CFEAFFE902F3CFE9FFF450EA26D40ECF
:10AB1000E926000EEA22040EE926000EEA22010EC2
:10AB2000EE6EED6A04EBE9FFEA6AE9BEEA68060E3A
:10AB3000EA02F3CFEAFFE902F3CFE9FFF450EA2695
:10AB4000D40EE926000EEA2200EBEEFF01EBEEFF49
:10AB500002EBEEFF03EBEFFF41E9E7CFD9FF120075
:10AB6000D9CFE6FFE1CFD9FF81E944E8020EE66ED6
:10AB70006FEC58F041E9F350016EF450026E060E8E
:10AB8000E66E51EC58F041E9F350036EF450046E58
:10AB90000350E4080C0E04540EE2020E011801E109
:10ABA000025009E0010EE66EE66A180EE66EB7EC9A
:10ABB00057F043E90DD00350E4080C0E045408E3A9
:10ABC000000EE66EE66A180EE66EB7EC57F043E943
:08ABD00045E9E7CFD9FF1200AF
:08ABD800D9CFE6FFE1CFD9FF60
:10ABE00081E944E8220EE66E33EC58F041E9F35077
:10ABF000016EF450026E0B0EE66E6FEC58F041E9F8
:10AC0000F350036EF450046E020E0501165D0AE067
:10AC1000010E011801E102500EE1010E031801E1DD
:10AC2000045009E1010EE66EE66A210EE66EB7EC0D
:10AC300057F043E908D0000EE66EE66A210EE66E94
:0EAC4000B7EC57F043E945E9E7CFD9FF120022
:02AC4E00C0083C
:10AC5000C008C0080000A6093309E8080200F90985
:10AC600092091F0905000C0AE20978090A00330A53
:10AC70001E0ADD091400480A3C0A0F0A1E005D0A7C
:10AC8000460A2A0A2800750A5A0A410A32009C0A12
:10AC90008C0A690A3C00C60ABE0A950A4600F10AF7
:10ACA000E60AC80A50002D0B2D0B050B5A00680B45
:0EACB000680B680B640064005B00510000003C
:02ACBE00D9CFEC
:10ACC000E6FFDACFE6FFE1CFD9FFE2CFDAFF85E991
:10ACD000013415E200EBE9FF01EBEAFFEECFF3FFF1
:10ACE000EDCFF4FFEE2A000EEF22F3CFE9FFF4CF11
:10ACF000EAFF02EBEFFFEF50F36EF46A0DD0FE0EA9
:10AD0000005C05E102EBE6FFA2EC59F004D002EB97
:10AD1000E6FF83EC49F041E941E9E5CFDAFFE7CF0F
:04AD2000D9FF120045
:0CAD2400D9CFE6FFE1CFD9FF81E942E87A
:10AD3000100EE66E33EC58F041E9F350016EF4501A
:10AD4000026ED880025004E73C0E015CF60E0258F9
:10AD500007E3023404E201504C081D0E025409E2DC
:10AD6000010EE66EE66A190EE66EB7EC57F043E99F
:10AD700008D0000EE66EE66A190EE66EB7EC57F0E4
:0AAD800043E943E9E7CFD9FF1200D1
:06AD8A00D9CFE6FFE1CF86
:10AD9000D9FF84E902EBE9FFEA6AE9BEEA68D890E4
:10ADA000E936EA36D890E936EA36600EE926000E32
:10ADB000EA22020EE926000EEA22010EEE6EED6A8C
:10ADC00002EBE9FFEA6AE9BEEA68D890E936EA36BA
:10ADD000D890E936EA36600EE926000EEA2200EB4A
:0EADE000EEFF01EBEDFF41E9E7CFD9FF1200D6
:02ADEE00D9CFBB
:10ADF000E6FFE1CFD9FF81E943E8016A026A036A0D
:10AE0000200E0124EA6A000FE96E0F0EEA22EFCF4E
:10AE100030F40150EA6A400FE96E0F0EEA22EF505B
:10AE20000401305D04E0010E026E036A00D00128C7
:10AE3000016E200E015C03E202500310E1E002EB20
:10AE4000F3FF03EBF4FF00D044E9E7CFD9FF120092
:10AE50000301D051EA6AC10FE96E030EEA22C9CF9D
:10AE6000EFFFD02B0E0EE66ED0C3E6FF00EC20F015
:10AE700041E9E7500301D06F0301D151EA6A980F0D
:10AE8000E96E030EEA22EF50C96ED12B290ED15D77
:0CAE900003E1D16BEFEC3AF09E9612004B
:04AE9C00D9CFE6FF25
:10AEA000E1CFD9FF82E900EBE9FFEA6AE9BEEA688F
:10AEB000D890E936EA36D890E936EA36600EE926C7
:10AEC000000EEA22EECF30F4EECF31F4EECF32F4C2
:10AED000EFCF33F430C4F3FF31C4F4FF00D041E9C5
:06AEE000E7CFD9FF1200CC
:0AAEE600D9CFE6FFE1CFD9FF82E9E2
:10AEF00000EBE9FFEA6AE9BEEA68060EEA02F3CF70
:10AF0000EAFFE902F3CFE9FFF450EA26D40EE9267E
:10AF1000000EEA22EECFFCF1EECFFDF1EECFFEF116
:0EAF2000EECFFFF100D041E9E7CFD9FF1200DC
:02AF2E00040E0F
:10AF3000E66E4EEC57F041E9F3CF30F4F4CF31F444
:10AF400004013051311109E1010EE66EE66A220E6C
:10AF5000E66EB7EC57F043E908D0000EE66EE66AFD
:0EAF6000220EE66EB7EC57F043E9A0EF38F092
:02AF6E00D9CF39
:10AF7000E6FFE1CFD9FF84E9D890025002E6300E17
:10AF8000025C10E202EBE9FFEA6AE9BEEA68D890E7
:10AF9000E936EA36000EE926000EEA2200EBEEFF63
:0CAFA00001EBEDFF41E9E7CFD9FF120003
:04AFAC00D9CFE6FF14
:10AFB000E1CFD9FF84E9D890025002E6140E025C7A
:10AFC00010E202EBE9FFEA6AE9BEEA68D890E936E6
:10AFD000EA36D30EE926030EEA2200EBEEFF01EB80
:0AAFE000EDFF41E9E7CFD9FF1200B1
:06AFEA00D9CFE6FFE1CF24
:10AFF000D9FF84E9D890025002E60E0E025C10E2FE
:10B0000002EBE9FFEA6AE9BEEA68D890E936EA3677
:10B01000E40EE926020EEA2200EBEEFF01EBEDFF63
:08B0200041E9E7CFD9FF12005E
:08B02800D9CFE6FFE1CFD9FF0B
:10B0300084E9D890025002E6090E025C10E202EBAD
:10B04000E9FFEA6AE9BEEA68D890E936EA36AC0E6A
:10B05000E926040EEA2200EBEEFF01EBEDFF41E9E9
:06B06000E7CFD9FF12004A
:0AB06600D9CFE6FFE1CFD9FF82E960
:10B0700000EBE9FFEA6AE9BEEA68D890E936EA3609
:10B08000000EE926000EEA22EECF30F4EFCF31F4C5
:10B0900030C4F3FF31C4F4FF00D041E9E7CFD9FF5A
:02B0A00012009C
:0EB0A200D9CFE6FFE1CFD9FF82E900EBE9FF4D
:10B0B000EA6AE9BEEA68D890E936EA36D30EE926AC
:10B0C000030EEA22EECF30F4EFCF31F430C4F3FFB9
:0EB0D00031C4F4FF00D041E9E7CFD9FF1200F0
:02B0DE00D9CFC8
:10B0E000E6FFE1CFD9FF82E900EBE9FFEA6AE9BEBA
:10B0F000EA68D890E936EA36E40EE926020EEA223A
:10B10000EECF30F4EFCF31F430C4F3FF31C4F4FFAD
:0AB1100000D041E9E7CFD9FF12009B
:06B11A00D9CFE6FFE1CFF2
:10B12000D9FF82E900EBE9FFEA6AE9BEEA68D89054
:10B13000E936EA36AC0EE926040EEA22EECF30F408
:10B14000EFCF31F430C4F3FF31C4F4FF00D041E954
:06B15000E7CFD9FF120059
:0AB15600060E6C6E900E6B6E7C6AA4
:10B16000670E6F6E03014C6B03014D6B0301010E03
:10B17000006F0301EB0E016F0301900E026F0301DC
:10B18000FA0E366F0301010E4F6FA38A04001200FE
:10B19000D9CFE6FFE1CFD9FF83E9D890015002E68D
:10B1A000400E015C0CE2200E015CE96EEA6AE9BE29
:10B1B000EA68400EE9260F0EEA2200EBEFFF41E9B4
:06B1C000E7CFD9FF1200E9
:0AB1C600D9CFE6FFE1CFD9FF83E9FE
:10B1D0000050010A0BE0010A06E0020A01E009D072
:10B1E00001EBBBFF06D001EB74FF03D001EB71FF55
:0AB1F00000D041E9E7CFD9FF1200BB
:06B1FA0033EC54F0ABEC55
:10B2000058F0E66ADAEC54F041E925EC52F0BDEC76
:10B2100059F07FEC51F0ABEC58F0CFEC43F0E9EC97
:0EB2200059F078EC4EF017EC59F0C8EF59F0E9
:02B22E00C76AED
:10B23000340EC66E0301CF6B0301D06B0301EB0E1E
:10B24000986F0301900E996F0301FA0EC06F03010E
:0CB25000010ED26F9E969D860400120035
:04B25C00D9CFE6FF61
:10B26000E1CFD9FF82E900EBE9FFEA6AE9BEEA68CB
:10B27000000EE9260F0EEA22EF50F36EF46A00D0BA
:08B2800041E9E7CFD9FF1200FC
:08B288000A0EE66E05013129F2
:10B29000E66E00EC20F041E9E7500501306F3051D7
:10B2A00006E10501010E396F0501316B01D0312B2B
:02B2B00012008A
:0EB2B20003014D51EA6A370FE96E030EEA22DE
:10B2C0006ECFEFFF4D294D6F150EE66E4DC3E6FFB5
:0CB2D00000EC20F041E9E7CF4DF3120044
:04B2DC00360E030126
:10B2E0004E5D05E1A3980301010E4F6F09D04E5149
:10B2F0004E2BEA6A010FE96E030EEA22EF506D6EE3
:02B30000120039
:0EB30200F36AF46AFF0EE124E96EFF0EE2200A
:10B31000EA6EED6607D02F0EEF6404D03A0EEF60B0
:06B3200001D0F32A120027
:0AB32600849C849684940101F06B6E
:10B33000F16B000EE66EE66A060EE66EF5EC57F06F
:04B3400043E91200CB
:0CB34400FF0EE350ACBA04D0AF6AAB8E31
:10B35000AC8A949CACA2FED7AD6EF36EF46A120078
:10B3600079EC50F01EEE00F02EEE00F0F86A75EC6D
:0AB3700052F0FDEC58F0FDD712007A
:06B37A00010EC26E130E6D
:10B38000C16EBE0EC06EC282230EC26E04001200D9
:10B390000501390504E11EEC50F00501396BF8D7C1
:02B3A000120099
:0EB3A200DACFE4FFE2CFDAFFE652E552E5CF64
:04B3B000DAFF1100AF
:0CB3B400303132333435363738396162BD
:05B3C0006364656600F6
:01B3C5000087
:0AB3C6000401010EF66FAECFF7F49C
:02B3D000120069
:06B3D200F28A04001200E3
:04B3D800040012005B
:04B3DC00000000006D
:02B3E00001006A
:04B3E2000000010066
:0AB3E600000000000000020000005B
:10B3F000050000000A000000140000001E0000000C
:10B4000028000000320000003C0000004600000060
:10B41000500000005A00000064000000000000001E
:0EB4200000000000000000000000000001011C
:02B42E0000001C
:06B430000000FFFFFFFF1A
:02B43600000014
:03B438000101010E
:02B43B0000000F
:02B43D0000000D
:01B43F00000C
:01B44000000B
:06B4410000000000000005
:09B44700321A002A9B00F877007C
:10B4500054A700964200E250009C69002EAF009273
:10B460008E008E6300D8B3000000000000000000D2
:10B4700000000000000000000000000000000000CC
:10B4800000000000000000000000000000000000BC
:10B4900000000000000000000000000000000000AC
:10B4A00000000000000000BF060000EF010000AF38
:10B4B000020000EF010000AF020000EF010000AF4A
:0BB4C000020000EF0100000B0800007C
:01B4CB000080
:04B4CC00D20348F46B
:10B4D000AD0330F8730318FC1E030000B402E80348
:10B4E0003C02D007C501B80B5801A00F000188131A
:10B4F000BB0070178800581B6300401FAB0348F463
:10B500007B0330F83C0318FCED0200009102E803D5
:10B510003002D007D001B80B7901A00F2D0188139C
:0CB52000ED007017BA00581B9200401F8D
:04B52C00010000001A
:07B530000000000000000014
:09B537000100000000FEFF00000D
:10B5400001000030000D003000000000000000008D
:04B5500000000000F7
:02B554000000F5
:06B55600000000000300EC
:04B55C0000000000EB
:08B560000000000000000000E3
:08B56800000000000000A00F2C
:02B570000000D9
:02B572000000D7
:05B574002000000000B2
:04B5790000000001CD
:03B57D0000414941
:10B58000524F58534146004149524F58414343009E
:04B5900000000000B7
:0CB59400000000000000000001000000AA
:03B5A000000000A8
:020000040030CA
:0E00000000090F0AF382C1000FC00FA00F40CD
:00000001FF
