MPLINK 5.00, LINKER
Linker Map File - Created Sat Apr 11 09:38:32 2020

                                 Section Info
                  Section       Type    Address   Location Size(Bytes)
                ---------  ---------  ---------  ---------  ---------
                   .org_0       code   0x000000    program   0x000002
                   .org_1       code   0x000008    program   0x000004
                   .org_2       code   0x000018    program   0x0001de
                   .org_3       code   0x000800    program   0x000000
               _entry_scn       code   0x000800    program   0x000006
    HIGH_INTERRUPT_VECTOR       code   0x000808    program   0x000006
                   .org_4       code   0x000808    program   0x000000
     LOW_INTERRUPT_VECTOR       code   0x000818    program   0x000006
                   .org_5       code   0x000818    program   0x000000
                   .cinit    romdata   0x00082a    program   0x00015e
   .code_SYS_Bat_Ageing.o       code   0x000988    program   0x0010aa
       .code_SAM_Launch.o       code   0x001a32    program   0x000a50
.code_SYS_Voltage_Capacity_Conversion.o       code   0x002482    program   0x000a30
         .code_vfprintf.o       code   0x002eb2    program   0x000816
.code_DRV_RS232_ReadBuffer.o       code   0x0036c8    program   0x00060c
                     PROG       code   0x003cd4    program   0x0005c2
       .code_SYS_Launch.o       code   0x004296    program   0x000504
.code_DRV_EEPROM_BAT_WriteMemory.o       code   0x00479a    program   0x0004ec
.code_SYS_Gas_Gauge_Percent.o       code   0x004c86    program   0x00045c
    .code_CHARGE_Launch.o       code   0x0050e2    program   0x00043a
.code_SYS_ImpedanceCompute.o       code   0x00551c    program   0x0003ac
.code_FAN_Loop_Controller.o       code   0x0058c8    program   0x0003aa
.code_SAM_Temperature_Conversion.o       code   0x005c72    program   0x0003a0
.code_SAM_Voltage_Conversion.o       code   0x006012    program   0x00037c
.code_FAN_Driving_Launch.o       code   0x00638e    program   0x000310
.code_SWITCH_State_Control.o       code   0x00669e    program   0x0002fe
       .code_SEC_Alarms.o       code   0x00699c    program   0x000292
.code_DRV_RS232_TransmitMonit.o       code   0x006c2e    program   0x000292
.code_DRV_EEPROM_BAT_InitNewBattery.o       code   0x006ec0    program   0x000280
.code_DRV_SPI_ST10_ReadBuffer.o       code   0x007140    program   0x00027e
.code_CHARGE_Loop_Controller.o       code   0x0073be    program   0x000220
.code_DRV_SPI_ST10_Transmit.o       code   0x0075de    program   0x00021a
       .code_TIM_Launch.o       code   0x0077f8    program   0x000216
.code_INTERRUPT_HighPriority.o       code   0x007a0e    program   0x000212
    .code_CHARGE_Charge.o       code   0x007c20    program   0x00020e
.romdata_DRV_EEPROM_BAT_Launch.o    romdata   0x007e2e    program   0x000200
.code_SYS_Gas_Gauge_Minute.o       code   0x00802e    program   0x0001fa
.code_SYS_Led_Management.o       code   0x008228    program   0x0001ec
  .code_FAN_Acquisition.o       code   0x008414    program   0x0001ca
      .code_CHARGE_Init.o       code   0x0085de    program   0x0001c0
        .code_INIT_Leds.o       code   0x00879e    program   0x00018a
.code_SEC_Charge_Discharge_Fail.o       code   0x008928    program   0x000184
.code_SEC_CoolingFan_Fail.o       code   0x008aac    program   0x000150
  .code_SEC_Charge_Fail.o       code   0x008bfc    program   0x00014e
.code_SEC_Abnormal_IBat.o       code   0x008d4a    program   0x000148
.code_DRV_EEPROM_BAT_Launch.o       code   0x008e92    program   0x000140
.code_SYS_Charge_Discharge_Compute.o       code   0x008fd2    program   0x00012a
.code_DRV_EEPROM_BAT_ReadMemory.o       code   0x0090fc    program   0x000120
        .code_LOG_Print.o       code   0x00921c    program   0x000118
  .code_SEC_24V_Failure.o       code   0x009334    program   0x000114
       .code_DRV_Switch.o       code   0x009448    program   0x000112
   .code_SEC_Bat_Opened.o       code   0x00955a    program   0x000108
  .code_SEC_low_Battery.o       code   0x009662    program   0x0000fe
.code_CAN_Channel_Acquisition.o       code   0x009760    program   0x0000fc
.code_SYS_Voltage_Colapse_Compensation.o       code   0x00985c    program   0x0000f4
.code_SWITCH_Supply_Detection.o       code   0x009950    program   0x0000f0
.code_SAM_Current_Conversion.o       code   0x009a40    program   0x0000ea
 .code_DRV_RS232_Launch.o       code   0x009b2a    program   0x0000e6
.code_SEC_Measure_VACDC_Fail.o       code   0x009c10    program   0x0000e0
.code_INIT_EEPROM_BAT_Driver.o       code   0x009cf0    program   0x0000de
.code_SEC_End_Of_Battery.o       code   0x009dce    program   0x0000d6
      .code_SEC_5V_Fail.o       code   0x009ea4    program   0x0000d4
        .code_PUST_crc8.o       code   0x009f78    program   0x0000c4
      .code_SCHED_entry.o       code   0x00a03c    program   0x0000b6
                    .code       code   0x00a0f2    program   0x0000b6
                   STRING       code   0x00a1a8    program   0x0000ac
     .code_FAN_Sampling.o       code   0x00a254    program   0x0000aa
       .code_INIT_Timer.o       code   0x00a2fe    program   0x0000a8
.code_SEC_Battery_Unchargeable.o       code   0x00a3a6    program   0x0000a4
    .code_INIT_DataBase.o       code   0x00a44a    program   0x0000a0
               _cinit_scn       code   0x00a4ea    program   0x00009e
   .code_SEC_No_Battery.o       code   0x00a588    program   0x00009e
.code_SEC_UnknownBattery.o       code   0x00a626    program   0x000098
       .code_Saturation.o       code   0x00a6be    program   0x000096
    .code_SWITCH_Launch.o       code   0x00a754    program   0x00008a
.code_SEC_Ambient_Temp_Too_High.o       code   0x00a7de    program   0x000088
         .code_INIT_CPU.o       code   0x00a866    program   0x000088
.code_SEC_Measures_Out_Of_Bounds.o       code   0x00a8ee    program   0x000082
             .code_PUST.o       code   0x00a970    program   0x000080
.code_SEC_Charge_Time_Too_Long.o       code   0x00a9f0    program   0x00007e
      .code_SEC_3V_Fail.o       code   0x00aa6e    program   0x00007a
.code_TIM_StartDecounter32.o       code   0x00aae8    program   0x000078
.code_SEC_Measure_VDC_Fail.o       code   0x00ab60    program   0x000078
     .code_SEC_CommFail.o       code   0x00abd8    program   0x000076
    .romdata_SYS_Launch.o    romdata   0x00ac4e    program   0x000070
             .code_putc.o       code   0x00acbe    program   0x000066
.code_SEC_Temp_Sensor_Failure.o       code   0x00ad24    program   0x000066
.code_TIM_StartDecounter16.o       code   0x00ad8a    program   0x000064
.code_DRV_EEPROM_BAT_DifferenceZoneReadWrite.o       code   0x00adee    program   0x000062
.code_DRV_SPI_ST10_Interrupt.o       code   0x00ae50    program   0x00004c
  .code_TIM_ReadValue16.o       code   0x00ae9c    program   0x00004a
  .code_TIM_ReadValue32.o       code   0x00aee6    program   0x000048
.code_DRV_SPI_ST10_Launch.o       code   0x00af2e    program   0x000040
.code_DB_PowerSupply_Write.o       code   0x00af6e    program   0x00003e
.code_DB_Measurement_Write.o       code   0x00afac    program   0x00003e
 .code_DB_Control_Write.o       code   0x00afea    program   0x00003e
  .code_DB_Config_Write.o       code   0x00b028    program   0x00003e
.code_DB_PowerSupply_Read.o       code   0x00b066    program   0x00003c
.code_DB_Measurement_Read.o       code   0x00b0a2    program   0x00003c
  .code_DB_Control_Read.o       code   0x00b0de    program   0x00003c
   .code_DB_Config_Read.o       code   0x00b11a    program   0x00003c
.code_INIT_RS232_Driver.o       code   0x00b156    program   0x00003a
.code_DB_EEPROM_BAT_Write.o       code   0x00b190    program   0x000036
.code_SAM_PWM_Conversion.o       code   0x00b1c6    program   0x000034
  .code_MAIN_Carte_Alim.o       code   0x00b1fa    program   0x000034
.code_INIT_SPI_ST10_Driver.o       code   0x00b22e    program   0x00002e
.code_DB_EEPROM_BAT_Read.o       code   0x00b25c    program   0x00002c
.code_MAIN_activate_tasks.o       code   0x00b288    program   0x00002a
.code_DRV_RS232_InterruptReceive.o       code   0x00b2b2    program   0x00002a
.code_DRV_RS232_InterruptTransmit.o       code   0x00b2dc    program   0x000026
                    CTYPE       code   0x00b302    program   0x000024
.code_CHARGE_StopCharge.o       code   0x00b326    program   0x00001e
                    STDIO       code   0x00b344    program   0x00001c
             _startup_scn       code   0x00b360    program   0x00001a
      .code_INIT_Sample.o       code   0x00b37a    program   0x000016
     .code_SCHED_Launch.o       code   0x00b390    program   0x000012
.code_INTERRUPT_LowPriority.o       code   0x00b3a2    program   0x000012
      .romdata_vfprintf.o    romdata   0x00b3b4    program   0x000011
.romdata_STARTUP_Alim_Legendair_Phase_II.o    romdata   0x00b3c5    program   0x000000
.romdata_Watch_Dog_Launch.o    romdata   0x00b3c5    program   0x000000
.idata_Watch_Dog_Launch.o_i    romdata   0x00b3c5    program   0x000000
.romdata_DB_Control_Read.o    romdata   0x00b3c5    program   0x000000
.romdata_DRV_SPI_ST10_Interrupt.o    romdata   0x00b3c5    program   0x000000
      .idata_vfprintf.o_i    romdata   0x00b3c5    program   0x000000
.romdata_DRV_SPI_ST10_Launch.o    romdata   0x00b3c5    program   0x000000
    .romdata_Saturation.o    romdata   0x00b3c5    program   0x000000
.romdata_DRV_SPI_ST10_ReadBuffer.o    romdata   0x00b3c5    program   0x000000
.romdata_DRV_SPI_ST10_Transmit.o    romdata   0x00b3c5    program   0x000000
      .romdata_INIT_CPU.o    romdata   0x00b3c5    program   0x000000
.romdata_INIT_SPI_ST10_Driver.o    romdata   0x00b3c5    program   0x000000
    .idata_Saturation.o_i    romdata   0x00b3c5    program   0x000000
.romdata_CAN_Channel_Acquisition.o    romdata   0x00b3c5    program   0x000000
   .romdata_SEC_5V_Fail.o    romdata   0x00b3c5    program   0x000000
.romdata_SEC_Temp_Sensor_Failure.o    romdata   0x00b3c5    program   0x000000
.romdata_DB_Control_Write.o    romdata   0x00b3c5    program   0x000000
.romdata_SEC_No_Battery.o    romdata   0x00b3c5    program   0x000000
     .romdata_INIT_Leds.o    romdata   0x00b3c5    program   0x000000
.romdata_MAIN_Carte_Alim.o    romdata   0x00b3c5    program   0x000000
.romdata_SEC_Measures_Out_Of_Bounds.o    romdata   0x00b3c5    program   0x000000
  .romdata_SCHED_Launch.o    romdata   0x00b3c5    program   0x000000
.romdata_SEC_Measure_VDC_Fail.o    romdata   0x00b3c5    program   0x000000
          .idata_putc.o_i    romdata   0x00b3c5    program   0x000000
.romdata_SEC_Measure_VACDC_Fail.o    romdata   0x00b3c5    program   0x000000
.romdata_SEC_low_Battery.o    romdata   0x00b3c5    program   0x000000
.romdata_DB_Measurement_Read.o    romdata   0x00b3c5    program   0x000000
.romdata_SEC_End_Of_Battery.o    romdata   0x00b3c5    program   0x000000
          .romdata_putc.o    romdata   0x00b3c5    program   0x000000
          .romdata_PUST.o    romdata   0x00b3c5    program   0x000000
  .romdata_SEC_CommFail.o    romdata   0x00b3c5    program   0x000000
.romdata_FAN_Acquisition.o    romdata   0x00b3c5    program   0x000000
     .romdata_LOG_Print.o    romdata   0x00b3c5    program   0x000000
.romdata_INTERRUPT_Init.o    romdata   0x00b3c5    program   0x000000
.romdata_INTERRUPT_LowPriority.o    romdata   0x00b3c5    program   0x000000
   .romdata_SCHED_entry.o    romdata   0x00b3c5    program   0x000000
.romdata_FAN_Loop_Controller.o    romdata   0x00b3c5    program   0x000000
     .romdata_PUST_crc8.o    romdata   0x00b3c5    program   0x000000
.idata_SYS_Voltage_Capacity_Conversion.o_i    romdata   0x00b3c5    program   0x000000
.romdata_DRV_EEPROM_BAT_DifferenceZoneReadWrite.o    romdata   0x00b3c5    program   0x000000
.romdata_DRV_EEPROM_BAT_InitNewBattery.o    romdata   0x00b3c5    program   0x000000
.romdata_SYS_Voltage_Capacity_Conversion.o    romdata   0x00b3c5    program   0x000000
.romdata_DB_EEPROM_BAT_Write.o    romdata   0x00b3c5    program   0x000000
.romdata_INTERRUPT_HighPriority.o    romdata   0x00b3c5    program   0x000000
.romdata_SYS_Voltage_Colapse_Compensation.o    romdata   0x00b3c5    program   0x000000
.romdata_DB_EEPROM_BAT_Read.o    romdata   0x00b3c5    program   0x000000
.romdata_FAN_Driving_Launch.o    romdata   0x00b3c5    program   0x000000
.romdata_DB_Measurement_Write.o    romdata   0x00b3c5    program   0x000000
  .romdata_FAN_Sampling.o    romdata   0x00b3c5    program   0x000000
   .romdata_CHARGE_Init.o    romdata   0x00b3c5    program   0x000000
.romdata_SAM_Temperature_Conversion.o    romdata   0x00b3c5    program   0x000000
 .romdata_CHARGE_Charge.o    romdata   0x00b3c5    program   0x000000
.romdata_CHARGE_StopCharge.o    romdata   0x00b3c5    program   0x000000
             .stringtable    romdata   0x00b3c5    program   0x000000
.romdata_INIT_EEPROM_BAT_Driver.o    romdata   0x00b3c5    program   0x000000
.romdata_SAM_Voltage_Conversion.o    romdata   0x00b3c5    program   0x000000
.romdata_DRV_EEPROM_BAT_Interrupt.o    romdata   0x00b3c5    program   0x000000
.romdata_SAM_Current_Conversion.o    romdata   0x00b3c5    program   0x000000
.romdata_DRV_EEPROM_BAT_ReadMemory.o    romdata   0x00b3c5    program   0x000000
.romdata_DRV_EEPROM_BAT_WriteMemory.o    romdata   0x00b3c5    program   0x000000
    .romdata_SAM_Launch.o    romdata   0x00b3c5    program   0x000000
.idata_TIM_ReadValue32.o_i    romdata   0x00b3c5    program   0x000000
.romdata_TIM_ReadValue32.o    romdata   0x00b3c5    program   0x000000
.idata_SYS_Gas_Gauge_Minute.o_i    romdata   0x00b3c5    program   0x000000
.romdata_SYS_Gas_Gauge_Minute.o    romdata   0x00b3c5    program   0x000000
.romdata_SWITCH_Supply_Detection.o    romdata   0x00b3c5    program   0x000000
    .idata_TIM_Launch.o_i    romdata   0x00b3c5    program   0x000000
.idata_SYS_Gas_Gauge_Percent.o_i    romdata   0x00b3c5    program   0x000000
.romdata_SYS_Gas_Gauge_Percent.o    romdata   0x00b3c5    program   0x000000
.romdata_DRV_RS232_Launch.o    romdata   0x00b3c5    program   0x000000
.romdata_TIM_ReadValue16.o    romdata   0x00b3c5    program   0x000000
 .romdata_SWITCH_Launch.o    romdata   0x00b3c5    program   0x000000
.romdata_SYS_Charge_Discharge_Compute.o    romdata   0x00b3c5    program   0x000000
.romdata_SYS_Led_Management.o    romdata   0x00b3c5    program   0x000000
.romdata_SEC_UnknownBattery.o    romdata   0x00b3c5    program   0x000000
.romdata_MAIN_activate_tasks.o    romdata   0x00b3c5    program   0x000000
.romdata_INIT_Interrupt_T0.o    romdata   0x00b3c5    program   0x000000
.romdata_INIT_RS232_Driver.o    romdata   0x00b3c5    program   0x000000
   .romdata_SEC_3V_Fail.o    romdata   0x00b3c5    program   0x000000
    .romdata_INIT_Timer.o    romdata   0x00b3c5    program   0x000000
 .romdata_CHARGE_Launch.o    romdata   0x00b3c5    program   0x000000
.romdata_CHARGE_Loop_Controller.o    romdata   0x00b3c5    program   0x000000
.romdata_DRV_RS232_ReadBuffer.o    romdata   0x00b3c5    program   0x000000
.romdata_DB_PowerSupply_Write.o    romdata   0x00b3c5    program   0x000000
.romdata_DB_PowerSupply_Read.o    romdata   0x00b3c5    program   0x000000
 .romdata_INIT_DataBase.o    romdata   0x00b3c5    program   0x000000
    .romdata_SEC_Alarms.o    romdata   0x00b3c5    program   0x000000
.romdata_TIM_StartDecounter32.o    romdata   0x00b3c5    program   0x000000
.romdata_SYS_ImpedanceCompute.o    romdata   0x00b3c5    program   0x000000
.idata_TIM_StartDecounter32.o_i    romdata   0x00b3c5    program   0x000000
.romdata_SAM_PWM_Conversion.o    romdata   0x00b3c5    program   0x000000
    .romdata_DRV_Switch.o    romdata   0x00b3c5    program   0x000000
.idata_SYS_Bat_Ageing.o_i    romdata   0x00b3c5    program   0x000001
.romdata_SWITCH_State_Control.o    romdata   0x00b3c5    program   0x000000
.romdata_SYS_Bat_Ageing.o    romdata   0x00b3c5    program   0x000000
    .romdata_TIM_Launch.o    romdata   0x00b3c5    program   0x000000
.idata_TIM_ReadValue16.o_i    romdata   0x00b3c5    program   0x000000
.romdata_SEC_Charge_Discharge_Fail.o    romdata   0x00b3c5    program   0x000000
.romdata_DB_Config_Write.o    romdata   0x00b3c5    program   0x000000
.romdata_SEC_Battery_Unchargeable.o    romdata   0x00b3c5    program   0x000000
.idata_TIM_StartDecounter16.o_i    romdata   0x00b3c5    program   0x000000
.romdata_SEC_Charge_Fail.o    romdata   0x00b3c5    program   0x000000
.romdata_SEC_Bat_Opened.o    romdata   0x00b3c5    program   0x000000
.romdata_DRV_RS232_TransmitMonit.o    romdata   0x00b3c5    program   0x000000
.romdata_DB_Config_Read.o    romdata   0x00b3c5    program   0x000000
.romdata_DRV_RS232_InterruptTransmit.o    romdata   0x00b3c5    program   0x000000
.romdata_TIM_StartDecounter16.o    romdata   0x00b3c5    program   0x000000
.romdata_SEC_Ambient_Temp_Too_High.o    romdata   0x00b3c5    program   0x000000
.romdata_SEC_24V_Failure.o    romdata   0x00b3c5    program   0x000000
.romdata_SEC_CoolingFan_Fail.o    romdata   0x00b3c5    program   0x000000
.romdata_DRV_RS232_InterruptReceive.o    romdata   0x00b3c5    program   0x000000
.romdata_SEC_Charge_Time_Too_Long.o    romdata   0x00b3c5    program   0x000000
.romdata_SEC_Abnormal_IBat.o    romdata   0x00b3c5    program   0x000000
   .romdata_INIT_Sample.o    romdata   0x00b3c5    program   0x000000
.code_DRV_EEPROM_BAT_Interrupt.o       code   0x00b3c6    program   0x00000c
.code_INIT_Interrupt_T0.o       code   0x00b3d2    program   0x000006
 .code_Watch_Dog_Launch.o       code   0x00b3d8    program   0x000004
.idata_SYS_Voltage_Colapse_Compensation.o_i    romdata   0x00b3dc    program   0x000006
.idata_SYS_Led_Management.o_i    romdata   0x00b3e2    program   0x000004
    .idata_SYS_Launch.o_i    romdata   0x00b3e6    program   0x000048
.idata_SYS_ImpedanceCompute.o_i    romdata   0x00b42e    program   0x000008
.idata_SYS_Charge_Discharge_Compute.o_i    romdata   0x00b436    program   0x000002
.idata_SWITCH_Supply_Detection.o_i    romdata   0x00b438    program   0x000003
.idata_SWITCH_State_Control.o_i    romdata   0x00b43b    program   0x000002
 .idata_SWITCH_Launch.o_i    romdata   0x00b43d    program   0x000002
.idata_SEC_Measure_VACDC_Fail.o_i    romdata   0x00b43f    program   0x000000
.idata_SEC_End_Of_Battery.o_i    romdata   0x00b43f    program   0x000000
.idata_SEC_CoolingFan_Fail.o_i    romdata   0x00b43f    program   0x000000
.idata_SEC_Charge_Fail.o_i    romdata   0x00b43f    program   0x000000
.idata_SEC_Measure_VDC_Fail.o_i    romdata   0x00b43f    program   0x000000
.idata_SEC_low_Battery.o_i    romdata   0x00b43f    program   0x000000
  .idata_SEC_CommFail.o_i    romdata   0x00b43f    program   0x000000
.idata_SEC_Charge_Time_Too_Long.o_i    romdata   0x00b43f    program   0x000000
.idata_SEC_Measures_Out_Of_Bounds.o_i    romdata   0x00b43f    program   0x000000
.idata_SEC_Charge_Discharge_Fail.o_i    romdata   0x00b43f    program   0x000000
.idata_SEC_No_Battery.o_i    romdata   0x00b43f    program   0x000000
.idata_SEC_Battery_Unchargeable.o_i    romdata   0x00b43f    program   0x000002
.idata_SEC_Temp_Sensor_Failure.o_i    romdata   0x00b43f    program   0x000000
.idata_SEC_UnknownBattery.o_i    romdata   0x00b43f    program   0x000000
.idata_STARTUP_Alim_Legendair_Phase_II.o_i    romdata   0x00b43f    program   0x000000
.idata_SEC_Ambient_Temp_Too_High.o_i    romdata   0x00b441    program   0x000000
    .idata_SEC_Alarms.o_i    romdata   0x00b441    program   0x000006
.idata_SEC_Bat_Opened.o_i    romdata   0x00b441    program   0x000000
   .idata_SEC_5V_Fail.o_i    romdata   0x00b447    program   0x000000
   .idata_SEC_3V_Fail.o_i    romdata   0x00b447    program   0x000000
.idata_SEC_Abnormal_IBat.o_i    romdata   0x00b447    program   0x000000
.idata_SEC_24V_Failure.o_i    romdata   0x00b447    program   0x000000
   .idata_SCHED_entry.o_i    romdata   0x00b447    program   0x000084
  .idata_SCHED_Launch.o_i    romdata   0x00b4cb    program   0x000001
.idata_SAM_Temperature_Conversion.o_i    romdata   0x00b4cc    program   0x000060
.idata_SAM_Voltage_Conversion.o_i    romdata   0x00b4cc    program   0x000000
.idata_SAM_PWM_Conversion.o_i    romdata   0x00b52c    program   0x000000
    .idata_SAM_Launch.o_i    romdata   0x00b52c    program   0x00000b
          .idata_PUST.o_i    romdata   0x00b537    program   0x00001d
     .idata_PUST_crc8.o_i    romdata   0x00b537    program   0x000000
.idata_SAM_Current_Conversion.o_i    romdata   0x00b537    program   0x000000
.idata_MAIN_activate_tasks.o_i    romdata   0x00b554    program   0x000002
.idata_MAIN_Carte_Alim.o_i    romdata   0x00b556    program   0x000000
     .idata_LOG_Print.o_i    romdata   0x00b556    program   0x000006
   .idata_INIT_Sample.o_i    romdata   0x00b55c    program   0x000000
.idata_INTERRUPT_LowPriority.o_i    romdata   0x00b55c    program   0x000000
.idata_INIT_SPI_ST10_Driver.o_i    romdata   0x00b55c    program   0x000004
.idata_INTERRUPT_HighPriority.o_i    romdata   0x00b55c    program   0x000000
    .idata_INIT_Timer.o_i    romdata   0x00b55c    program   0x000000
.idata_INTERRUPT_Init.o_i    romdata   0x00b55c    program   0x000000
     .idata_INIT_Leds.o_i    romdata   0x00b560    program   0x000000
.idata_INIT_EEPROM_BAT_Driver.o_i    romdata   0x00b560    program   0x000000
  .idata_FAN_Sampling.o_i    romdata   0x00b560    program   0x000000
.idata_INIT_Interrupt_T0.o_i    romdata   0x00b560    program   0x000000
 .idata_INIT_DataBase.o_i    romdata   0x00b560    program   0x000000
.idata_INIT_RS232_Driver.o_i    romdata   0x00b560    program   0x000000
      .idata_INIT_CPU.o_i    romdata   0x00b560    program   0x000000
.idata_FAN_Loop_Controller.o_i    romdata   0x00b560    program   0x000008
.idata_FAN_Driving_Launch.o_i    romdata   0x00b568    program   0x000008
.idata_FAN_Acquisition.o_i    romdata   0x00b570    program   0x000002
.idata_DRV_SPI_ST10_ReadBuffer.o_i    romdata   0x00b572    program   0x000000
.idata_DRV_SPI_ST10_Launch.o_i    romdata   0x00b572    program   0x000000
.idata_DRV_SPI_ST10_Transmit.o_i    romdata   0x00b572    program   0x000000
.idata_DRV_SPI_ST10_Interrupt.o_i    romdata   0x00b572    program   0x000000
.idata_DRV_RS232_TransmitMonit.o_i    romdata   0x00b572    program   0x000000
    .idata_DRV_Switch.o_i    romdata   0x00b572    program   0x000000
.idata_DRV_RS232_ReadBuffer.o_i    romdata   0x00b572    program   0x000002
.idata_DRV_RS232_Launch.o_i    romdata   0x00b574    program   0x000000
.idata_DRV_RS232_InterruptTransmit.o_i    romdata   0x00b574    program   0x000000
.idata_DRV_EEPROM_BAT_WriteMemory.o_i    romdata   0x00b574    program   0x000005
.idata_DRV_RS232_InterruptReceive.o_i    romdata   0x00b574    program   0x000000
.idata_DRV_EEPROM_BAT_Launch.o_i    romdata   0x00b579    program   0x000004
.idata_DRV_EEPROM_BAT_ReadMemory.o_i    romdata   0x00b579    program   0x000000
.idata_DRV_EEPROM_BAT_Interrupt.o_i    romdata   0x00b57d    program   0x000000
.idata_DRV_EEPROM_BAT_InitNewBattery.o_i    romdata   0x00b57d    program   0x000013
.idata_DB_Config_Write.o_i    romdata   0x00b590    program   0x000000
.idata_CHARGE_Loop_Controller.o_i    romdata   0x00b590    program   0x000004
.idata_DB_Measurement_Read.o_i    romdata   0x00b590    program   0x000000
.idata_DB_Config_Read.o_i    romdata   0x00b590    program   0x000000
.idata_DB_Control_Write.o_i    romdata   0x00b590    program   0x000000
.idata_DB_PowerSupply_Write.o_i    romdata   0x00b590    program   0x000000
.idata_DRV_EEPROM_BAT_DifferenceZoneReadWrite.o_i    romdata   0x00b590    program   0x000000
.idata_DB_PowerSupply_Read.o_i    romdata   0x00b590    program   0x000000
.idata_DB_EEPROM_BAT_Write.o_i    romdata   0x00b590    program   0x000000
.idata_DB_EEPROM_BAT_Read.o_i    romdata   0x00b590    program   0x000000
.idata_DB_Control_Read.o_i    romdata   0x00b590    program   0x000000
.idata_DB_Measurement_Write.o_i    romdata   0x00b590    program   0x000000
.idata_CHARGE_StopCharge.o_i    romdata   0x00b590    program   0x000000
 .idata_CHARGE_Launch.o_i    romdata   0x00b594    program   0x00000c
   .idata_CHARGE_Init.o_i    romdata   0x00b5a0    program   0x000003
.idata_CAN_Channel_Acquisition.o_i    romdata   0x00b5a3    program   0x000000
 .idata_CHARGE_Charge.o_i    romdata   0x00b5a3    program   0x000000
   .code_INTERRUPT_Init.o       code   0x00b5a4    program   0x000000
.code_STARTUP_Alim_Legendair_Phase_II.o       code   0x00b5a4    program   0x000000
                   CONFIG    romdata   0x300000    program   0x00000e
.udata_DB_PowerSupply_Write.o      udata   0x000000       data   0x000060
      .udata_INIT_Timer.o      udata   0x000060       data   0x00009e
.udata_DRV_SPI_ST10_ReadBuffer.o      udata   0x0000fe       data   0x000002
      .udata_SAM_Launch.o      udata   0x000100       data   0x0000f0
   .idata_CHARGE_Launch.o      idata   0x0001f0       data   0x00000c
                MATH_DATA      udata   0x0001fc       data   0x000004
     .idata_SCHED_entry.o      idata   0x000200       data   0x000084
.idata_SAM_Temperature_Conversion.o      idata   0x000284       data   0x000060
.udata_DB_Control_Write.o      udata   0x0002e4       data   0x00001c
.udata_INIT_RS232_Driver.o      udata   0x000300       data   0x000050
      .idata_SYS_Launch.o      idata   0x000350       data   0x000048
.udata_INIT_SPI_ST10_Driver.o      udata   0x000398       data   0x00003b
.udata_DB_Measurement_Read.o      udata   0x0003d3       data   0x000028
.idata_DRV_EEPROM_BAT_WriteMemory.o      idata   0x0003fb       data   0x000005
.udata_CAN_Channel_Acquisition.o      udata   0x000400       data   0x000030
                 .tmpdata      udata   0x000430       data   0x00001e
            .idata_PUST.o      idata   0x00044e       data   0x00001d
      .udata_SYS_Launch.o      udata   0x00046b       data   0x00001a
  .udata_SYS_Bat_Ageing.o      udata   0x000485       data   0x000014
.idata_DRV_EEPROM_BAT_InitNewBattery.o      idata   0x000499       data   0x000013
 .udata_DB_Config_Write.o      udata   0x0004ac       data   0x000012
      .idata_SAM_Launch.o      idata   0x0004be       data   0x00000b
.udata_STARTUP_Alim_Legendair_Phase_II.o      udata   0x0004c9       data   0x00000a
.udata_FAN_Driving_Launch.o      udata   0x0004d3       data   0x00000a
.idata_SYS_ImpedanceCompute.o      idata   0x0004dd       data   0x000008
.idata_FAN_Loop_Controller.o      idata   0x0004e5       data   0x000008
.idata_FAN_Driving_Launch.o      idata   0x0004ed       data   0x000008
.udata_DRV_EEPROM_BAT_Launch.o      udata   0x0004f5       data   0x000007
     .udata_SCHED_entry.o      udata   0x0004fc       data   0x000004
.idata_SYS_Voltage_Colapse_Compensation.o      idata   0x000500       data   0x000006
      .idata_SEC_Alarms.o      idata   0x000506       data   0x000006
       .idata_LOG_Print.o      idata   0x00050c       data   0x000006
.idata_SYS_Led_Management.o      idata   0x000512       data   0x000004
.idata_INIT_SPI_ST10_Driver.o      idata   0x000516       data   0x000004
.idata_DRV_EEPROM_BAT_Launch.o      idata   0x00051a       data   0x000004
.idata_CHARGE_Loop_Controller.o      idata   0x00051e       data   0x000004
.idata_SWITCH_Supply_Detection.o      idata   0x000522       data   0x000003
     .idata_CHARGE_Init.o      idata   0x000525       data   0x000003
.idata_SYS_Charge_Discharge_Compute.o      idata   0x000528       data   0x000002
.idata_SWITCH_State_Control.o      idata   0x00052a       data   0x000002
   .idata_SWITCH_Launch.o      idata   0x00052c       data   0x000002
.idata_SEC_Battery_Unchargeable.o      idata   0x00052e       data   0x000002
.idata_MAIN_activate_tasks.o      idata   0x000530       data   0x000002
 .idata_FAN_Acquisition.o      idata   0x000532       data   0x000002
.idata_DRV_RS232_ReadBuffer.o      idata   0x000534       data   0x000002
              temp_tblptr      udata   0x000536       data   0x000001
   .udata_CHARGE_Launch.o      udata   0x000537       data   0x000001
  .idata_SYS_Bat_Ageing.o      idata   0x000538       data   0x000001
    .idata_SCHED_Launch.o      idata   0x000539       data   0x000001
.udata_SEC_CoolingFan_Fail.o      udata   0x00053a       data   0x000000
        .idata_vfprintf.o      idata   0x00053a       data   0x000000
.idata_SEC_CoolingFan_Fail.o      idata   0x00053a       data   0x000000
.udata_SEC_End_Of_Battery.o      udata   0x00053a       data   0x000000
.idata_SEC_End_Of_Battery.o      idata   0x00053a       data   0x000000
 .udata_SEC_low_Battery.o      udata   0x00053a       data   0x000000
            .udata_putc.o      udata   0x00053a       data   0x000000
 .idata_SEC_low_Battery.o      idata   0x00053a       data   0x000000
.udata_SEC_Measure_VACDC_Fail.o      udata   0x00053a       data   0x000000
.idata_SEC_Measure_VACDC_Fail.o      idata   0x00053a       data   0x000000
.udata_SEC_Measure_VDC_Fail.o      udata   0x00053a       data   0x000000
.idata_SEC_Measure_VDC_Fail.o      idata   0x00053a       data   0x000000
            .idata_putc.o      idata   0x00053a       data   0x000000
.idata_DRV_SPI_ST10_Transmit.o      idata   0x00053a       data   0x000000
.udata_DRV_SPI_ST10_Transmit.o      udata   0x00053a       data   0x000000
.udata_SEC_Measures_Out_Of_Bounds.o      udata   0x00053a       data   0x000000
.idata_SEC_Measures_Out_Of_Bounds.o      idata   0x00053a       data   0x000000
.idata_DRV_SPI_ST10_ReadBuffer.o      idata   0x00053a       data   0x000000
  .udata_SEC_No_Battery.o      udata   0x00053a       data   0x000000
  .idata_SEC_No_Battery.o      idata   0x00053a       data   0x000000
.udata_SEC_Temp_Sensor_Failure.o      udata   0x00053a       data   0x000000
.idata_SEC_Temp_Sensor_Failure.o      idata   0x00053a       data   0x000000
     .udata_SEC_5V_Fail.o      udata   0x00053a       data   0x000000
.idata_DRV_SPI_ST10_Launch.o      idata   0x00053a       data   0x000000
     .idata_SEC_5V_Fail.o      idata   0x00053a       data   0x000000
.udata_DRV_SPI_ST10_Launch.o      udata   0x00053a       data   0x000000
.idata_DRV_SPI_ST10_Interrupt.o      idata   0x00053a       data   0x000000
.udata_DRV_SPI_ST10_Interrupt.o      udata   0x00053a       data   0x000000
.idata_STARTUP_Alim_Legendair_Phase_II.o      idata   0x00053a       data   0x000000
.idata_DRV_EEPROM_BAT_DifferenceZoneReadWrite.o      idata   0x00053a       data   0x000000
.udata_FAN_Loop_Controller.o      udata   0x00053a       data   0x000000
 .udata_FAN_Acquisition.o      udata   0x00053a       data   0x000000
    .udata_SEC_CommFail.o      udata   0x00053a       data   0x000000
    .idata_SEC_CommFail.o      idata   0x00053a       data   0x000000
.udata_DRV_EEPROM_BAT_InitNewBattery.o      udata   0x00053a       data   0x000000
.udata_SYS_Voltage_Colapse_Compensation.o      udata   0x00053a       data   0x000000
.idata_CAN_Channel_Acquisition.o      idata   0x00053a       data   0x000000
      .udata_Saturation.o      udata   0x00053a       data   0x000000
.idata_SYS_Voltage_Capacity_Conversion.o      idata   0x00053a       data   0x000000
      .idata_Saturation.o      idata   0x00053a       data   0x000000
.udata_SYS_Voltage_Capacity_Conversion.o      udata   0x00053a       data   0x000000
.udata_Watch_Dog_Launch.o      udata   0x00053a       data   0x000000
.idata_Watch_Dog_Launch.o      idata   0x00053a       data   0x000000
       .udata_INIT_Leds.o      udata   0x00053a       data   0x000000
       .idata_INIT_Leds.o      idata   0x00053a       data   0x000000
            .udata_PUST.o      udata   0x00053a       data   0x000000
       .udata_PUST_crc8.o      udata   0x00053a       data   0x000000
       .idata_PUST_crc8.o      idata   0x00053a       data   0x000000
       .udata_LOG_Print.o      udata   0x00053a       data   0x000000
        .udata_vfprintf.o      udata   0x00053a       data   0x000000
    .udata_FAN_Sampling.o      udata   0x00053a       data   0x000000
    .idata_FAN_Sampling.o      idata   0x00053a       data   0x000000
     .udata_CHARGE_Init.o      udata   0x00053a       data   0x000000
   .udata_CHARGE_Charge.o      udata   0x00053a       data   0x000000
   .idata_CHARGE_Charge.o      idata   0x00053a       data   0x000000
.udata_CHARGE_StopCharge.o      udata   0x00053a       data   0x000000
.idata_CHARGE_StopCharge.o      idata   0x00053a       data   0x000000
.udata_INIT_EEPROM_BAT_Driver.o      udata   0x00053a       data   0x000000
.idata_INIT_EEPROM_BAT_Driver.o      idata   0x00053a       data   0x000000
.udata_DRV_EEPROM_BAT_Interrupt.o      udata   0x00053a       data   0x000000
.idata_DRV_EEPROM_BAT_Interrupt.o      idata   0x00053a       data   0x000000
.udata_DRV_EEPROM_BAT_ReadMemory.o      udata   0x00053a       data   0x000000
.idata_DRV_EEPROM_BAT_ReadMemory.o      idata   0x00053a       data   0x000000
.udata_DRV_EEPROM_BAT_WriteMemory.o      udata   0x00053a       data   0x000000
 .udata_TIM_ReadValue32.o      udata   0x00053a       data   0x000000
 .idata_TIM_ReadValue32.o      idata   0x00053a       data   0x000000
.udata_DB_EEPROM_BAT_Read.o      udata   0x00053a       data   0x000000
.idata_DB_EEPROM_BAT_Read.o      idata   0x00053a       data   0x000000
.idata_DB_EEPROM_BAT_Write.o      idata   0x00053a       data   0x000000
.udata_DRV_EEPROM_BAT_DifferenceZoneReadWrite.o      udata   0x00053a       data   0x000000
 .idata_DB_Config_Write.o      idata   0x00053a       data   0x000000
  .udata_DB_Config_Read.o      udata   0x00053a       data   0x000000
  .idata_DB_Config_Read.o      idata   0x00053a       data   0x000000
.udata_MAIN_activate_tasks.o      udata   0x00053a       data   0x000000
.udata_DRV_RS232_Launch.o      udata   0x00053a       data   0x000000
.idata_DRV_RS232_Launch.o      idata   0x00053a       data   0x000000
      .udata_TIM_Launch.o      udata   0x00053a       data   0x000000
      .idata_TIM_Launch.o      idata   0x00053a       data   0x000000
.udata_TIM_StartDecounter32.o      udata   0x00053a       data   0x000000
.idata_TIM_StartDecounter32.o      idata   0x00053a       data   0x000000
.udata_DRV_RS232_ReadBuffer.o      udata   0x00053a       data   0x000000
.udata_SAM_PWM_Conversion.o      udata   0x00053a       data   0x000000
.idata_SAM_PWM_Conversion.o      idata   0x00053a       data   0x000000
 .udata_TIM_ReadValue16.o      udata   0x00053a       data   0x000000
 .idata_TIM_ReadValue16.o      idata   0x00053a       data   0x000000
.udata_TIM_StartDecounter16.o      udata   0x00053a       data   0x000000
.idata_TIM_StartDecounter16.o      idata   0x00053a       data   0x000000
.udata_DRV_RS232_TransmitMonit.o      udata   0x00053a       data   0x000000
.idata_DRV_RS232_TransmitMonit.o      idata   0x00053a       data   0x000000
.udata_DRV_RS232_InterruptTransmit.o      udata   0x00053a       data   0x000000
.idata_DRV_RS232_InterruptTransmit.o      idata   0x00053a       data   0x000000
.udata_DRV_RS232_InterruptReceive.o      udata   0x00053a       data   0x000000
 .udata_MAIN_Carte_Alim.o      udata   0x00053a       data   0x000000
 .idata_MAIN_Carte_Alim.o      idata   0x00053a       data   0x000000
        .udata_INIT_CPU.o      udata   0x00053a       data   0x000000
        .idata_INIT_CPU.o      idata   0x00053a       data   0x000000
    .udata_SCHED_Launch.o      udata   0x00053a       data   0x000000
.udata_INTERRUPT_HighPriority.o      udata   0x00053a       data   0x000000
.idata_INTERRUPT_HighPriority.o      idata   0x00053a       data   0x000000
  .udata_INTERRUPT_Init.o      udata   0x00053a       data   0x000000
  .idata_INTERRUPT_Init.o      idata   0x00053a       data   0x000000
.udata_INTERRUPT_LowPriority.o      udata   0x00053a       data   0x000000
.idata_INTERRUPT_LowPriority.o      idata   0x00053a       data   0x000000
.udata_SAM_Current_Conversion.o      udata   0x00053a       data   0x000000
.idata_SAM_Current_Conversion.o      idata   0x00053a       data   0x000000
.udata_SAM_Voltage_Conversion.o      udata   0x00053a       data   0x000000
.idata_SAM_Voltage_Conversion.o      idata   0x00053a       data   0x000000
.udata_SAM_Temperature_Conversion.o      udata   0x00053a       data   0x000000
.udata_DB_Measurement_Write.o      udata   0x00053a       data   0x000000
.idata_DB_Measurement_Write.o      idata   0x00053a       data   0x000000
 .udata_DB_Control_Read.o      udata   0x00053a       data   0x000000
 .idata_DB_Control_Read.o      idata   0x00053a       data   0x000000
.idata_DB_Control_Write.o      idata   0x00053a       data   0x000000
.idata_DB_Measurement_Read.o      idata   0x00053a       data   0x000000
.udata_SYS_Gas_Gauge_Percent.o      udata   0x00053a       data   0x000000
.idata_SYS_Gas_Gauge_Percent.o      idata   0x00053a       data   0x000000
.udata_SYS_Charge_Discharge_Compute.o      udata   0x00053a       data   0x000000
.udata_SYS_Led_Management.o      udata   0x00053a       data   0x000000
.udata_SEC_UnknownBattery.o      udata   0x00053a       data   0x000000
.idata_SEC_UnknownBattery.o      idata   0x00053a       data   0x000000
     .udata_SEC_3V_Fail.o      udata   0x00053a       data   0x000000
     .idata_SEC_3V_Fail.o      idata   0x00053a       data   0x000000
 .udata_SEC_24V_Failure.o      udata   0x00053a       data   0x000000
 .idata_SEC_24V_Failure.o      idata   0x00053a       data   0x000000
.udata_SEC_Abnormal_IBat.o      udata   0x00053a       data   0x000000
.idata_SEC_Abnormal_IBat.o      idata   0x00053a       data   0x000000
.udata_SEC_Ambient_Temp_Too_High.o      udata   0x00053a       data   0x000000
.idata_SEC_Ambient_Temp_Too_High.o      idata   0x00053a       data   0x000000
  .udata_SEC_Bat_Opened.o      udata   0x00053a       data   0x000000
  .idata_SEC_Bat_Opened.o      idata   0x00053a       data   0x000000
.udata_SEC_Battery_Unchargeable.o      udata   0x00053a       data   0x000000
.udata_SEC_Charge_Discharge_Fail.o      udata   0x00053a       data   0x000000
.idata_SEC_Charge_Discharge_Fail.o      idata   0x00053a       data   0x000000
 .udata_SEC_Charge_Fail.o      udata   0x00053a       data   0x000000
 .idata_SEC_Charge_Fail.o      idata   0x00053a       data   0x000000
.udata_SEC_Charge_Time_Too_Long.o      udata   0x00053a       data   0x000000
.idata_SEC_Charge_Time_Too_Long.o      idata   0x00053a       data   0x000000
     .udata_INIT_Sample.o      udata   0x00053a       data   0x000000
     .idata_INIT_Sample.o      idata   0x00053a       data   0x000000
      .idata_INIT_Timer.o      idata   0x00053a       data   0x000000
.idata_INIT_RS232_Driver.o      idata   0x00053a       data   0x000000
.udata_INIT_Interrupt_T0.o      udata   0x00053a       data   0x000000
.idata_DRV_RS232_InterruptReceive.o      idata   0x00053a       data   0x000000
.idata_INIT_Interrupt_T0.o      idata   0x00053a       data   0x000000
   .udata_SWITCH_Launch.o      udata   0x00053a       data   0x000000
.udata_SWITCH_Supply_Detection.o      udata   0x00053a       data   0x000000
.udata_SWITCH_State_Control.o      udata   0x00053a       data   0x000000
      .udata_DRV_Switch.o      udata   0x00053a       data   0x000000
      .idata_DRV_Switch.o      idata   0x00053a       data   0x000000
   .udata_INIT_DataBase.o      udata   0x00053a       data   0x000000
   .idata_INIT_DataBase.o      idata   0x00053a       data   0x000000
.udata_CHARGE_Loop_Controller.o      udata   0x00053a       data   0x000000
.idata_DB_PowerSupply_Write.o      idata   0x00053a       data   0x000000
.udata_DB_PowerSupply_Read.o      udata   0x00053a       data   0x000000
.idata_DB_PowerSupply_Read.o      idata   0x00053a       data   0x000000
      .udata_SEC_Alarms.o      udata   0x00053a       data   0x000000
.udata_SYS_ImpedanceCompute.o      udata   0x00053a       data   0x000000
.udata_SYS_Gas_Gauge_Minute.o      udata   0x00053a       data   0x000000
.idata_SYS_Gas_Gauge_Minute.o      idata   0x00053a       data   0x000000
                   .stack      udata   0x000e00       data   0x000100
.udata_DB_EEPROM_BAT_Write.o      udata   0x000f00       data   0x000060
            SFR_UNBANKED0      udata   0x000f62       data   0x00009e



                              Program Memory Usage 
                               Start         End      
                           ---------   ---------      
                            0x000000    0x000001      
                            0x000008    0x00000b      
                            0x000018    0x0001f5      
                            0x000800    0x000805      
                            0x000808    0x00080d      
                            0x000818    0x00081d      
                            0x00082a    0x00b5a2      
                            0x300000    0x30000d      
            44925 out of 66602 program addresses used, program memory utilization is 67%



                              Symbols - Sorted by Name
                     Name    Address   Location    Storage File                     
                ---------  ---------  ---------  --------- ---------                
                 Autobaud   0x000046    program     static Y:\Documents\Openventilator\SRC\ALIM\bootload.asm
  CAN_Channel_Acquisition   0x009760    program     extern Y:\Documents\Openventilator\SRC\CAN\CAN_Channel_Acquisition.c
            CHARGE_Charge   0x007c20    program     extern Y:\Documents\Openventilator\SRC\CHARGE\CHARGE_Charge.c
              CHARGE_Init   0x0085de    program     extern Y:\Documents\Openventilator\SRC\CHARGE\CHARGE_Init.c
            CHARGE_Launch   0x0050e2    program     extern Y:\Documents\Openventilator\SRC\CHARGE\CHARGE_Launch.c
   CHARGE_Loop_Controller   0x0073be    program     extern Y:\Documents\Openventilator\SRC\CHARGE\CHARGE_Loop_Controller.c
        CHARGE_StopCharge   0x00b326    program     extern Y:\Documents\Openventilator\SRC\CHARGE\CHARGE_StopCharge.c
              CRC16_Table   0x007e2e    program     extern Y:\Documents\Openventilator\SRC\DRIVERS_EEPROM\DRV_EEPROM_BAT_Data.h
             CheckCommand   0x0000b4    program     static Y:\Documents\Openventilator\SRC\ALIM\bootload.asm
                 CheckSum   0x000094    program     static Y:\Documents\Openventilator\SRC\ALIM\bootload.asm
                   D1616S   0x003d16    program     static E:\3.46\pic18-lt\cxx-framework\src\extended\math\div16s.asm
                D1616SNEG   0x003d24    program     static E:\3.46\pic18-lt\cxx-framework\src\extended\math\div16s.asm
                 D1616SOK   0x003d20    program     static E:\3.46\pic18-lt\cxx-framework\src\extended\math\div16s.asm
                D1616SPOS   0x003d34    program     static E:\3.46\pic18-lt\cxx-framework\src\extended\math\div16s.asm
                  D1616SX   0x003d5a    program     static E:\3.46\pic18-lt\cxx-framework\src\extended\math\div16s.asm
                   D2424S   0x003e26    program     static E:\3.46\pic18-lt\cxx-framework\src\extended\math\div24s.asm
                D2424SNEG   0x003e34    program     static E:\3.46\pic18-lt\cxx-framework\src\extended\math\div24s.asm
                 D2424SOK   0x003e30    program     static E:\3.46\pic18-lt\cxx-framework\src\extended\math\div24s.asm
                D2424SPOS   0x003e4a    program     static E:\3.46\pic18-lt\cxx-framework\src\extended\math\div24s.asm
                  D2424SX   0x003e78    program     static E:\3.46\pic18-lt\cxx-framework\src\extended\math\div24s.asm
                   D3232S   0x003ed2    program     static E:\3.46\pic18-lt\cxx-framework\src\extended\math\div32s.asm
                D3232SNEG   0x003ee0    program     static E:\3.46\pic18-lt\cxx-framework\src\extended\math\div32s.asm
                 D3232SOK   0x003edc    program     static E:\3.46\pic18-lt\cxx-framework\src\extended\math\div32s.asm
                D3232SPOS   0x003efe    program     static E:\3.46\pic18-lt\cxx-framework\src\extended\math\div32s.asm
                  D3232SX   0x003f34    program     static E:\3.46\pic18-lt\cxx-framework\src\extended\math\div32s.asm
                  DA1616S   0x003d06    program     static E:\3.46\pic18-lt\cxx-framework\src\extended\math\div16s.asm
                  DA2424S   0x003e12    program     static E:\3.46\pic18-lt\cxx-framework\src\extended\math\div24s.asm
                  DA3232S   0x003ebc    program     static E:\3.46\pic18-lt\cxx-framework\src\extended\math\div32s.asm
           DB_Config_Read   0x00b11a    program     extern Y:\Documents\Openventilator\SRC\DATABASE\DB_Config_Read.c
          DB_Config_Write   0x00b028    program     extern Y:\Documents\Openventilator\SRC\DATABASE\DB_Config_Write.c
          DB_Control_Read   0x00b0de    program     extern Y:\Documents\Openventilator\SRC\DATABASE\DB_Control_Read.c
         DB_Control_Write   0x00afea    program     extern Y:\Documents\Openventilator\SRC\DATABASE\DB_Control_Write.c
       DB_EEPROM_BAT_Read   0x00b25c    program     extern Y:\Documents\Openventilator\SRC\DATABASE\DB_EEPROM_BAT_Read.c
      DB_EEPROM_BAT_Write   0x00b190    program     extern Y:\Documents\Openventilator\SRC\DATABASE\DB_EEPROM_BAT_Write.c
      DB_Measurement_Read   0x00b0a2    program     extern Y:\Documents\Openventilator\SRC\DATABASE\DB_Measurement_Read.c
     DB_Measurement_Write   0x00afac    program     extern Y:\Documents\Openventilator\SRC\DATABASE\DB_Measurement_Write.c
      DB_PowerSupply_Read   0x00b066    program     extern Y:\Documents\Openventilator\SRC\DATABASE\DB_PowerSupply_Read.c
     DB_PowerSupply_Write   0x00af6e    program     extern Y:\Documents\Openventilator\SRC\DATABASE\DB_PowerSupply_Write.c
DRV_EEPROM_BAT_DifferenceZoneReadWrite   0x00adee    program     extern Y:\Documents\Openventilator\SRC\DRIVERS_EEPROM\DRV_EEPROM_BAT_DifferenceZoneReadWrite.c
DRV_EEPROM_BAT_INIT_NEW_BATTERY   0x006ec0    program     extern Y:\Documents\Openventilator\SRC\DRIVERS_EEPROM\DRV_EEPROM_BAT_InitNewBattery.c
 DRV_EEPROM_BAT_Interrupt   0x00b3c6    program     extern Y:\Documents\Openventilator\SRC\DRIVERS_EEPROM\DRV_EEPROM_BAT_Interrupt.c
    DRV_EEPROM_BAT_Launch   0x008e92    program     extern Y:\Documents\Openventilator\SRC\DRIVERS_EEPROM\DRV_EEPROM_BAT_Launch.c
DRV_EEPROM_BAT_ReadMemory   0x0090fc    program     extern Y:\Documents\Openventilator\SRC\DRIVERS_EEPROM\DRV_EEPROM_BAT_ReadMemory.c
DRV_EEPROM_BAT_WriteMemory   0x00479a    program     extern Y:\Documents\Openventilator\SRC\DRIVERS_EEPROM\DRV_EEPROM_BAT_WriteMemory.c
DRV_RS232_InterruptReceive   0x00b2b2    program     extern Y:\Documents\Openventilator\SRC\DRIVERS_RS232\DRV_RS232_InterruptReceive.c
DRV_RS232_InterruptTransmit   0x00b2dc    program     extern Y:\Documents\Openventilator\SRC\DRIVERS_RS232\DRV_RS232_InterruptTransmit.c
         DRV_RS232_Launch   0x009b2a    program     extern Y:\Documents\Openventilator\SRC\DRIVERS_RS232\DRV_RS232_Launch.c
     DRV_RS232_ReadBuffer   0x0036c8    program     extern Y:\Documents\Openventilator\SRC\DRIVERS_RS232\DRV_RS232_ReadBuffer.c
  DRV_RS232_TransmitMonit   0x006c2e    program     extern Y:\Documents\Openventilator\SRC\DRIVERS_RS232\DRV_RS232_TransmitMonit.c
   DRV_SPI_ST10_Interrupt   0x00ae50    program     extern Y:\Documents\Openventilator\SRC\DRIVERS_SPI\DRV_SPI_ST10_Interrupt.c
      DRV_SPI_ST10_Launch   0x00af2e    program     extern Y:\Documents\Openventilator\SRC\DRIVERS_SPI\DRV_SPI_ST10_Launch.c
  DRV_SPI_ST10_ReadBuffer   0x007140    program     extern Y:\Documents\Openventilator\SRC\DRIVERS_SPI\DRV_SPI_ST10_ReadBuffer.c
    DRV_SPI_ST10_Transmit   0x0075de    program     extern Y:\Documents\Openventilator\SRC\DRIVERS_SPI\DRV_SPI_ST10_Transmit.c
               DRV_Switch   0x009448    program     extern Y:\Documents\Openventilator\SRC\SWITCH\DRV_Switch.c
             EraseProgMem   0x000112    program     static Y:\Documents\Openventilator\SRC\ALIM\bootload.asm
            ExecutionMode   0x000058    program     static Y:\Documents\Openventilator\SRC\ALIM\bootload.asm
          FAN_Acquisition   0x008414    program     extern Y:\Documents\Openventilator\SRC\FAN\FAN_Acquisition.c
       FAN_Driving_Launch   0x00638e    program     extern Y:\Documents\Openventilator\SRC\FAN\FAN_Driving_Launch.c
      FAN_Loop_Controller   0x0058c8    program     extern Y:\Documents\Openventilator\SRC\FAN\FAN_Loop_Controller.c
             FAN_Sampling   0x00a254    program     extern Y:\Documents\Openventilator\SRC\FAN\FAN_Sampling.c
               GetNextDat   0x000074    program     static Y:\Documents\Openventilator\SRC\ALIM\bootload.asm
    HIGH_INTERRUPT_VECTOR   0x000808    program     extern Y:\Documents\Openventilator\SRC\INTERRUPTS\INTERRUPT_Init.c
                 INIT_CPU   0x00a866    program     extern Y:\Documents\Openventilator\SRC\INIT\INIT_CPU.c
            INIT_DataBase   0x00a44a    program     extern Y:\Documents\Openventilator\SRC\INIT\INIT_DataBase.c
   INIT_EEPROM_BAT_Driver   0x009cf0    program     extern Y:\Documents\Openventilator\SRC\INIT\INIT_EEPROM_BAT_Driver.c
        INIT_Interrupt_T0   0x00b3d2    program     extern Y:\Documents\Openventilator\SRC\INIT\INIT_Interrupt_T0.c
                INIT_Leds   0x00879e    program     extern Y:\Documents\Openventilator\SRC\INIT\INIT_Leds.c
        INIT_RS232_Driver   0x00b156    program     extern Y:\Documents\Openventilator\SRC\INIT\INIT_RS232_Driver.c
     INIT_SPI_ST10_Driver   0x00b22e    program     extern Y:\Documents\Openventilator\SRC\INIT\INIT_SPI_ST10_Driver.c
              INIT_Sample   0x00b37a    program     extern Y:\Documents\Openventilator\SRC\INIT\INIT_Sample.c
               INIT_Timer   0x00a2fe    program     extern Y:\Documents\Openventilator\SRC\INIT\INIT_Timer.c
   INTERRUPT_HighPriority   0x007a0e    program     extern Y:\Documents\Openventilator\SRC\INTERRUPTS\INTERRUPT_HighPriority.c
    INTERRUPT_LowPriority   0x00b3a2    program     extern Y:\Documents\Openventilator\SRC\INTERRUPTS\INTERRUPT_LowPriority.c
                LOG_Print   0x00921c    program     extern Y:\Documents\Openventilator\SRC\LOG\LOG_Print.c
           LOG_Print_Init   0x0092ae    program     extern Y:\Documents\Openventilator\SRC\LOG\LOG_Print.c
LOG_Print_Set_Activated_Modules   0x0092ca    program     extern Y:\Documents\Openventilator\SRC\LOG\LOG_Print.c
      LOG_Print_Set_level   0x0092ec    program     extern Y:\Documents\Openventilator\SRC\LOG\LOG_Print.c
     LOW_INTERRUPT_VECTOR   0x000818    program     extern Y:\Documents\Openventilator\SRC\INTERRUPTS\INTERRUPT_Init.c
                      Lp1   0x0000f8    program     static Y:\Documents\Openventilator\SRC\ALIM\bootload.asm
      MAIN_activate_tasks   0x00b288    program     extern Y:\Documents\Openventilator\SRC\MAIN\MAIN_activate_tasks.c
                    NoDLE   0x000088    program     static Y:\Documents\Openventilator\SRC\ALIM\bootload.asm
                    NoETX   0x000080    program     static Y:\Documents\Openventilator\SRC\ALIM\bootload.asm
                    NoSTX   0x00007a    program     static Y:\Documents\Openventilator\SRC\ALIM\bootload.asm
            PUST_CalcCrc8   0x009f78    program     extern Y:\Documents\Openventilator\SRC\PUST\PUST_crc8.c
         PUST_Check_Flash   0x00a970    program     static Y:\Documents\Openventilator\SRC\PUST\PUST.c
              PUST_Checks   0x00a9b4    program     extern Y:\Documents\Openventilator\SRC\PUST\PUST.c
PUST_InfiniteLoopFlashLeds   0x00a9ec    program     static Y:\Documents\Openventilator\SRC\PUST\PUST.c
                  RESTORE   0x003e6a    program     static E:\3.46\pic18-lt\cxx-framework\src\extended\math\div24s.asm
                  RESTORE   0x004288    program     static E:\3.46\pic18-lt\cxx-framework\src\extended\math\div24u.asm
                  RESTORE   0x003dce    program     static E:\3.46\pic18-lt\cxx-framework\src\extended\math\div16u.asm
                  RESTORE   0x003f26    program     static E:\3.46\pic18-lt\cxx-framework\src\extended\math\div32s.asm
                  RESTORE   0x003d4c    program     static E:\3.46\pic18-lt\cxx-framework\src\extended\math\div16s.asm
                  RESTORE   0x003fd4    program     static E:\3.46\pic18-lt\cxx-framework\src\extended\math\div32u.asm
                  RESTORE   0x004024    program     static E:\3.46\pic18-lt\cxx-framework\src\extended\math\div08u.asm
              RETQUOTIENT   0x003f16    program     static E:\3.46\pic18-lt\cxx-framework\src\extended\math\div32s.asm
              RETQUOTIENT   0x003dc6    program     static E:\3.46\pic18-lt\cxx-framework\src\extended\math\div16u.asm
              RETQUOTIENT   0x003d44    program     static E:\3.46\pic18-lt\cxx-framework\src\extended\math\div16s.asm
              RETQUOTIENT   0x00427c    program     static E:\3.46\pic18-lt\cxx-framework\src\extended\math\div24u.asm
              RETQUOTIENT   0x003e5e    program     static E:\3.46\pic18-lt\cxx-framework\src\extended\math\div24s.asm
              RETQUOTIENT   0x003fc4    program     static E:\3.46\pic18-lt\cxx-framework\src\extended\math\div32u.asm
                   RVIntH   0x000808    program     static Y:\Documents\Openventilator\SRC\ALIM\bootload.asm
                   RVIntL   0x000818    program     static Y:\Documents\Openventilator\SRC\ALIM\bootload.asm
                  RVReset   0x000800    program     static Y:\Documents\Openventilator\SRC\ALIM\bootload.asm
                  RdRS232   0x0001b4    program     static Y:\Documents\Openventilator\SRC\ALIM\bootload.asm
                   ReadEE   0x000128    program     static Y:\Documents\Openventilator\SRC\ALIM\bootload.asm
              ReadProgMem   0x0000e2    program     static Y:\Documents\Openventilator\SRC\ALIM\bootload.asm
              ReadVersion   0x0000d6    program     static Y:\Documents\Openventilator\SRC\ALIM\bootload.asm
              ReloadTimer   0x0001e8    program     static Y:\Documents\Openventilator\SRC\ALIM\bootload.asm
                 ResetPic   0x00016a    program     static Y:\Documents\Openventilator\SRC\ALIM\bootload.asm
   SAM_Current_Conversion   0x009a40    program     extern Y:\Documents\Openventilator\SRC\SAM\SAM_Current_Conversion.c
               SAM_Launch   0x001a32    program     extern Y:\Documents\Openventilator\SRC\SAM\SAM_Launch.c
       SAM_PWM_Conversion   0x00b1c6    program     extern Y:\Documents\Openventilator\SRC\SAM\SAM_PWM_Conversion.c
SAM_Temperature_Conversion   0x005c72    program     extern Y:\Documents\Openventilator\SRC\SAM\SAM_Temperature_Conversion.c
   SAM_Voltage_Conversion   0x006012    program     extern Y:\Documents\Openventilator\SRC\SAM\SAM_Voltage_Conversion.c
             SCHED_Launch   0x00b390    program     extern Y:\Documents\Openventilator\SRC\SCHEDULER\SCHED_Launch.c
              SCHED_entry   0x00a03c    program     extern Y:\Documents\Openventilator\SRC\SCHEDULER\SCHED_entry.c
             SEC_24V_Fail   0x009334    program     extern Y:\Documents\Openventilator\SRC\SECURITY\SEC_24V_Failure.c
              SEC_3V_Fail   0x00aa6e    program     extern Y:\Documents\Openventilator\SRC\SECURITY\SEC_3V_Fail.c
              SEC_5V_Fail   0x009ea4    program     extern Y:\Documents\Openventilator\SRC\SECURITY\SEC_5V_Fail.c
        SEC_Abnormal_IBat   0x008d4a    program     extern Y:\Documents\Openventilator\SRC\SECURITY\SEC_Abnormal_IBat.c
               SEC_Alarms   0x00699c    program     extern Y:\Documents\Openventilator\SRC\SECURITY\SEC_Alarms.c
SEC_Ambient_Temp_Too_High   0x00a7de    program     extern Y:\Documents\Openventilator\SRC\SECURITY\SEC_Ambient_Temp_Too_High.c
           SEC_Bat_Opened   0x00955a    program     extern Y:\Documents\Openventilator\SRC\SECURITY\SEC_Bat_Opened.c
 SEC_Battery_Unchargeable   0x00a3a6    program     extern Y:\Documents\Openventilator\SRC\SECURITY\SEC_Battery_Unchargeable.c
SEC_Charge_Discharge_Fail   0x008928    program     extern Y:\Documents\Openventilator\SRC\SECURITY\SEC_Charge_Discharge_Fail.c
          SEC_Charge_Fail   0x008bfc    program     extern Y:\Documents\Openventilator\SRC\SECURITY\SEC_Charge_Fail.c
 SEC_Charge_Time_Too_Long   0x00a9f0    program     extern Y:\Documents\Openventilator\SRC\SECURITY\SEC_Charge_Time_Too_Long.c
             SEC_CommFail   0x00abd8    program     extern Y:\Documents\Openventilator\SRC\SECURITY\SEC_CommFail.c
      SEC_CoolingFan_Fail   0x008aac    program     extern Y:\Documents\Openventilator\SRC\SECURITY\SEC_CoolingFan_Fail.c
       SEC_End_Of_Battery   0x009dce    program     extern Y:\Documents\Openventilator\SRC\SECURITY\SEC_End_Of_Battery.c
   SEC_Measure_VACDC_Fail   0x009c10    program     extern Y:\Documents\Openventilator\SRC\SECURITY\SEC_Measure_VACDC_Fail.c
     SEC_Measure_VDC_Fail   0x00ab60    program     extern Y:\Documents\Openventilator\SRC\SECURITY\SEC_Measure_VDC_Fail.c
SEC_Measures_Out_Of_Bounds   0x00a8ee    program     extern Y:\Documents\Openventilator\SRC\SECURITY\SEC_Measures_Out_Of_Bounds.c
           SEC_No_Battery   0x00a588    program     extern Y:\Documents\Openventilator\SRC\SECURITY\SEC_No_Battery.c
  SEC_Temp_Sensor_Failure   0x00ad24    program     extern Y:\Documents\Openventilator\SRC\SECURITY\SEC_Temp_Sensor_Failure.c
       SEC_UnknownBattery   0x00a626    program     extern Y:\Documents\Openventilator\SRC\SECURITY\SEC_UnknownBattery.c
          SEC_low_Battery   0x009662    program     extern Y:\Documents\Openventilator\SRC\SECURITY\SEC_low_Battery.c
                  SETSIGN   0x003ea2    program     static E:\3.46\pic18-lt\cxx-framework\src\extended\math\div32s.asm
                  SETSIGN   0x003dfc    program     static E:\3.46\pic18-lt\cxx-framework\src\extended\math\div24s.asm
                  SETSIGN   0x003cf4    program     static E:\3.46\pic18-lt\cxx-framework\src\extended\math\div16s.asm
                 SETUPSTK   0x003fe2    program     static E:\3.46\pic18-lt\cxx-framework\src\extended\math\div08u.asm
                 SETUPSTK   0x003f3e    program     static E:\3.46\pic18-lt\cxx-framework\src\extended\math\div32u.asm
                 SETUPSTK   0x003e82    program     static E:\3.46\pic18-lt\cxx-framework\src\extended\math\div32s.asm
                 SETUPSTK   0x004208    program     static E:\3.46\pic18-lt\cxx-framework\src\extended\math\div24u.asm
                 SETUPSTK   0x003ddc    program     static E:\3.46\pic18-lt\cxx-framework\src\extended\math\div24s.asm
                 SETUPSTK   0x003d64    program     static E:\3.46\pic18-lt\cxx-framework\src\extended\math\div16u.asm
                 SETUPSTK   0x003cd4    program     static E:\3.46\pic18-lt\cxx-framework\src\extended\math\div16s.asm
            SWITCH_Launch   0x00a754    program     extern Y:\Documents\Openventilator\SRC\SWITCH\SWITCH_Launch.c
     SWITCH_State_Control   0x00669e    program     extern Y:\Documents\Openventilator\SRC\SWITCH\SWITCH_State_Control.c
  SWITCH_Supply_Detection   0x009950    program     extern Y:\Documents\Openventilator\SRC\SWITCH\SWITCH_Supply_Detection.c
           SYS_Bat_Ageing   0x000988    program     extern Y:\Documents\Openventilator\SRC\SYSTEM\SYS_Bat_Ageing.c
SYS_Charge_Discharge_Compute   0x008fd2    program     extern Y:\Documents\Openventilator\SRC\SYSTEM\SYS_Charge_Discharge_Compute.c
     SYS_Gas_Gauge_Minute   0x00802e    program     extern Y:\Documents\Openventilator\SRC\SYSTEM\SYS_Gas_Gauge_Minute.c
    SYS_Gas_Gauge_Percent   0x004c86    program     extern Y:\Documents\Openventilator\SRC\SYSTEM\SYS_Gas_Gauge_Percent.c
     SYS_ImpedanceCompute   0x00551c    program     extern Y:\Documents\Openventilator\SRC\SYSTEM\SYS_ImpedanceCompute.c
               SYS_Launch   0x004296    program     extern Y:\Documents\Openventilator\SRC\SYSTEM\SYS_Launch.c
       SYS_Led_Management   0x008228    program     extern Y:\Documents\Openventilator\SRC\SYSTEM\SYS_Led_Management.c
SYS_Voltage_Capacity_Conversion   0x002482    program     extern Y:\Documents\Openventilator\SRC\SYSTEM\SYS_Voltage_Capacity_Conversion.c
SYS_Voltage_Colapse_Compensation   0x00985c    program     extern Y:\Documents\Openventilator\SRC\SYSTEM\SYS_Voltage_Colapse_Compensation.c
          SendAcknowledge   0x00016c    program     static Y:\Documents\Openventilator\SRC\ALIM\bootload.asm
                 SendNext   0x00017c    program     static Y:\Documents\Openventilator\SRC\ALIM\bootload.asm
                    Setup   0x00001c    program     static Y:\Documents\Openventilator\SRC\ALIM\bootload.asm
              StartOfLine   0x000066    program     static Y:\Documents\Openventilator\SRC\ALIM\bootload.asm
               StartWrite   0x0001c4    program     static Y:\Documents\Openventilator\SRC\ALIM\bootload.asm
               TIM_Launch   0x0077f8    program     extern Y:\Documents\Openventilator\SRC\TIMERS\TIM_Launch.c
          TIM_ReadValue16   0x00ae9c    program     extern Y:\Documents\Openventilator\SRC\TIMERS\TIM_ReadValue16.c
          TIM_ReadValue32   0x00aee6    program     extern Y:\Documents\Openventilator\SRC\TIMERS\TIM_ReadValue32.c
     TIM_StartDecounter16   0x00ad8a    program     extern Y:\Documents\Openventilator\SRC\TIMERS\TIM_StartDecounter16.c
     TIM_StartDecounter32   0x00aae8    program     extern Y:\Documents\Openventilator\SRC\TIMERS\TIM_StartDecounter32.c
                    VIntH   0x000008    program     static Y:\Documents\Openventilator\SRC\ALIM\bootload.asm
                    VIntL   0x000018    program     static Y:\Documents\Openventilator\SRC\ALIM\bootload.asm
              WaitForRise   0x0001d4    program     static Y:\Documents\Openventilator\SRC\ALIM\bootload.asm
          Watchdog_Launch   0x00b3d8    program     extern Y:\Documents\Openventilator\SRC\WATCHDOG\Watch_Dog_Launch.c
                    WrDLE   0x0001a4    program     static Y:\Documents\Openventilator\SRC\ALIM\bootload.asm
                   WrData   0x000192    program     static Y:\Documents\Openventilator\SRC\ALIM\bootload.asm
                   WrNext   0x0001a8    program     static Y:\Documents\Openventilator\SRC\ALIM\bootload.asm
                  WrRS232   0x0001aa    program     static Y:\Documents\Openventilator\SRC\ALIM\bootload.asm
              WriteConfig   0x000156    program     static Y:\Documents\Openventilator\SRC\ALIM\bootload.asm
                  WriteEE   0x00013e    program     static Y:\Documents\Openventilator\SRC\ALIM\bootload.asm
              WritePacket   0x00016e    program     static Y:\Documents\Openventilator\SRC\ALIM\bootload.asm
             WriteProgMem   0x0000f2    program     static Y:\Documents\Openventilator\SRC\ALIM\bootload.asm
                     WtSR   0x0001de    program     static Y:\Documents\Openventilator\SRC\ALIM\bootload.asm
             _.org_2_014A   0x00014a    program     static Y:\Documents\Openventilator\SRC\ALIM\bootload.asm
             _.org_2_01AE   0x0001ae    program     static Y:\Documents\Openventilator\SRC\ALIM\bootload.asm
             _.org_2_01BC   0x0001bc    program     static Y:\Documents\Openventilator\SRC\ALIM\bootload.asm
                   _2jEnd   0x00a23e    program     static E:\3.46\pic18-lt\cxx-framework\src\extended\stdclib\slenpgm.asm
              _3jContinue   0x00a1da    program     static E:\3.46\pic18-lt\cxx-framework\src\extended\stdclib\mcpyp2r.asm
                   _4jEnd   0x00a1e4    program     static E:\3.46\pic18-lt\cxx-framework\src\extended\stdclib\mcpyp2r.asm
      ___case_16_lbl00018   0x00395a    program     static                          
      ___case_17_lbl00020   0x003990    program     static                          
      ___case_18_lbl00022   0x0039c6    program     static                          
      ___case_19_lbl00024   0x0039fc    program     static                          
      ___case_20_lbl00026   0x003a32    program     static                          
      ___case_21_lbl00028   0x003a68    program     static                          
      ___case_22_lbl00030   0x003a9e    program     static                          
      ___case_23_lbl00032   0x003ad4    program     static                          
      ___case_24_lbl00034   0x003b0a    program     static                          
      ___case_32_lbl00036   0x003b40    program     static                          
      ___case_33_lbl00040   0x003ba6    program     static                          
      ___case_34_lbl00038   0x003b76    program     static                          
      ___case_35_lbl00042   0x003bdc    program     static                          
      ___case_36_lbl00044   0x003c14    program     static                          
      ___case_39_lbl00047   0x003c4e    program     static                          
      ___case_85_lbl00012   0x0038c6    program     static                          
      ___case_86_lbl00013   0x0038e2    program     static                          
      ___case_88_lbl00016   0x0038ea    program     static                          
      ___default_lbl00048   0x003c9a    program     static                          
         ___else_lbl00014   0x008846    program     static                          
         ___else_lbl00015   0x003936    program     static                          
         ___else_lbl00016   0x008878    program     static                          
         ___else_lbl00033   0x008920    program     static                          
         ___else_lbl00035   0x0088da    program     static                          
         ___else_lbl00050   0x003cb6    program     static                          
          ___for_lbl00001   0x00a476    program     static                          
          ___for_lbl00001   0x0087d2    program     static                          
          ___for_lbl00001   0x00a34e    program     static                          
          ___for_lbl00002   0x00a352    program     static                          
          ___for_lbl00002   0x0087da    program     static                          
          ___for_lbl00002   0x00a47a    program     static                          
          ___for_lbl00003   0x00a30e    program     static                          
          ___for_lbl00003   0x00a45a    program     static                          
          ___for_lbl00004   0x00a398    program     static                          
          ___for_lbl00004   0x00a498    program     static                          
          ___for_lbl00005   0x003792    program     static                          
          ___for_lbl00005   0x00a49c    program     static                          
          ___for_lbl00005   0x0087ba    program     static                          
          ___for_lbl00005   0x00a39c    program     static                          
          ___for_lbl00006   0x00a354    program     static                          
          ___for_lbl00006   0x00a47c    program     static                          
          ___for_lbl00006   0x0037a6    program     static                          
          ___for_lbl00006   0x008810    program     static                          
          ___for_lbl00007   0x00a4ba    program     static                          
          ___for_lbl00007   0x008818    program     static                          
          ___for_lbl00007   0x003766    program     static                          
          ___for_lbl00008   0x00a4be    program     static                          
          ___for_lbl00009   0x00a49e    program     static                          
          ___for_lbl00010   0x00a4dc    program     static                          
          ___for_lbl00011   0x00a4e0    program     static                          
          ___for_lbl00012   0x0087de    program     static                          
          ___for_lbl00012   0x00a4c0    program     static                          
          ___for_lbl00018   0x0088ca    program     static                          
          ___for_lbl00019   0x0088d2    program     static                          
          ___for_lbl00025   0x008896    program     static                          
          ___for_lbl00027   0x008910    program     static                          
          ___for_lbl00028   0x008918    program     static                          
          ___for_lbl00031   0x0088f8    program     static                          
           ___if_lbl00001   0x0092a4    program     static                          
           ___if_lbl00001   0x009f9c    program     static                          
           ___if_lbl00001   0x0036fe    program     static                          
           ___if_lbl00002   0x0092a4    program     static                          
           ___if_lbl00013   0x00884a    program     static                          
           ___if_lbl00014   0x003946    program     static                          
           ___if_lbl00015   0x00887c    program     static                          
           ___if_lbl00017   0x00398e    program     static                          
           ___if_lbl00019   0x0039c4    program     static                          
           ___if_lbl00020   0x0088ae    program     static                          
           ___if_lbl00021   0x0039fa    program     static                          
           ___if_lbl00023   0x003a30    program     static                          
           ___if_lbl00025   0x003a66    program     static                          
           ___if_lbl00027   0x003a9c    program     static                          
           ___if_lbl00029   0x003ad2    program     static                          
           ___if_lbl00031   0x003b08    program     static                          
           ___if_lbl00032   0x008920    program     static                          
           ___if_lbl00033   0x003b3e    program     static                          
           ___if_lbl00034   0x008920    program     static                          
           ___if_lbl00035   0x003b74    program     static                          
           ___if_lbl00037   0x003ba4    program     static                          
           ___if_lbl00039   0x003bda    program     static                          
           ___if_lbl00041   0x003c12    program     static                          
           ___if_lbl00043   0x003c4c    program     static                          
           ___if_lbl00046   0x003c98    program     static                          
           ___if_lbl00049   0x003ccc    program     static                          
           ___if_lbl00051   0x003ccc    program     static                          
       ___return_lbl00000   0x000804    program     static                          
       ___return_lbl00000   0x00a034    program     static                          
       ___return_lbl00000   0x00a4e2    program     static                          
       ___return_lbl00000   0x00b3d6    program     static                          
       ___return_lbl00000   0x00b18e    program     static                          
       ___return_lbl00000   0x009dcc    program     static                          
       ___return_lbl00000   0x00a39e    program     static                          
       ___return_lbl00000   0x00b38e    program     static                          
       ___return_lbl00000   0x003ccc    program     static                          
       ___return_lbl00000   0x0092a6    program     static                          
       ___return_lbl00000   0x008920    program     static                          
       ___return_lbl00000   0x00a8ec    program     static                          
       ___return_lbl00000   0x00080c    program     static                          
       ___return_lbl00000   0x00b3da    program     static                          
       ___return_lbl00000   0x00b25a    program     static                          
       ___return_lbl00001   0x00b378    program     static                          
       ___return_lbl00001   0x00081c    program     static                          
       ___return_lbl00002   0x00a586    program     static                          
   ___switchexit_lbl00011   0x003c9c    program     static                          
        ___while_lbl00001   0x009d0c    program     static                          
        ___while_lbl00002   0x009f9c    program     static                          
        ___while_lbl00002   0x0036fe    program     static                          
        ___while_lbl00002   0x009d10    program     static                          
        ___while_lbl00003   0x00a02c    program     static                          
        ___while_lbl00003   0x009d1e    program     static                          
        ___while_lbl00003   0x0087ce    program     static                          
        ___while_lbl00003   0x003734    program     static                          
        ___while_lbl00004   0x0087d2    program     static                          
        ___while_lbl00004   0x009d22    program     static                          
        ___while_lbl00004   0x009fc2    program     static                          
        ___while_lbl00005   0x009d38    program     static                          
        ___while_lbl00005   0x00a022    program     static                          
        ___while_lbl00006   0x009d46    program     static                          
        ___while_lbl00008   0x0087f0    program     static                          
        ___while_lbl00008   0x009d58    program     static                          
        ___while_lbl00009   0x0087f4    program     static                          
        ___while_lbl00009   0x009d66    program     static                          
        ___while_lbl00010   0x008804    program     static                          
        ___while_lbl00011   0x008808    program     static                          
        ___while_lbl00011   0x009d78    program     static                          
        ___while_lbl00012   0x009d86    program     static                          
        ___while_lbl00014   0x009d98    program     static                          
        ___while_lbl00015   0x009da6    program     static                          
        ___while_lbl00017   0x009db8    program     static                          
        ___while_lbl00018   0x009dc6    program     static                          
        ___while_lbl00021   0x0088b6    program     static                          
        ___while_lbl00022   0x0088ba    program     static                          
        ___while_lbl00023   0x0088c6    program     static                          
        ___while_lbl00024   0x0088ca    program     static                          
        ___while_lbl00029   0x00890c    program     static                          
        ___while_lbl00030   0x008910    program     static                          
                 __div08u   0x003ffa    program     extern E:\3.46\pic18-lt\cxx-framework\src\extended\math\div08u.asm
                 __div16s   0x003cec    program     extern E:\3.46\pic18-lt\cxx-framework\src\extended\math\div16s.asm
                 __div16u   0x003d7c    program     extern E:\3.46\pic18-lt\cxx-framework\src\extended\math\div16u.asm
                 __div24s   0x003df4    program     extern E:\3.46\pic18-lt\cxx-framework\src\extended\math\div24s.asm
                 __div24u   0x004220    program     extern E:\3.46\pic18-lt\cxx-framework\src\extended\math\div24u.asm
                 __div32s   0x003e9a    program     extern E:\3.46\pic18-lt\cxx-framework\src\extended\math\div32s.asm
                 __div32u   0x003f56    program     extern E:\3.46\pic18-lt\cxx-framework\src\extended\math\div32u.asm
                 __mod08u   0x004000    program     extern E:\3.46\pic18-lt\cxx-framework\src\extended\math\div08u.asm
                 __mod16s   0x003cf2    program     extern E:\3.46\pic18-lt\cxx-framework\src\extended\math\div16s.asm
                 __mod16u   0x003d82    program     extern E:\3.46\pic18-lt\cxx-framework\src\extended\math\div16u.asm
                 __mod24s   0x003dfa    program     extern E:\3.46\pic18-lt\cxx-framework\src\extended\math\div24s.asm
                 __mod24u   0x004226    program     extern E:\3.46\pic18-lt\cxx-framework\src\extended\math\div24u.asm
                 __mod32s   0x003ea0    program     extern E:\3.46\pic18-lt\cxx-framework\src\extended\math\div32s.asm
                 __mod32u   0x003f5c    program     extern E:\3.46\pic18-lt\cxx-framework\src\extended\math\div32u.asm
                  __mul16   0x00403e    program     extern E:\3.46\pic18-lt\cxx-framework\src\extended\math\mul16.asm
                  __mul24   0x0040a6    program     extern E:\3.46\pic18-lt\cxx-framework\src\extended\math\mul24.asm
                  __mul32   0x004166    program     extern E:\3.46\pic18-lt\cxx-framework\src\extended\math\mul32.asm
                   __pa_0   0x003574    program     static E:\3.46\pic18-lt\cxx-framework\src\extended\stdclib\vfprintf.c
                   __pa_1   0x003582    program     static E:\3.46\pic18-lt\cxx-framework\src\extended\stdclib\vfprintf.c
                  __pa_10   0x003610    program     static E:\3.46\pic18-lt\cxx-framework\src\extended\stdclib\vfprintf.c
                  __pa_11   0x003620    program     static E:\3.46\pic18-lt\cxx-framework\src\extended\stdclib\vfprintf.c
                  __pa_12   0x003630    program     static E:\3.46\pic18-lt\cxx-framework\src\extended\stdclib\vfprintf.c
                  __pa_13   0x00363e    program     static E:\3.46\pic18-lt\cxx-framework\src\extended\stdclib\vfprintf.c
                  __pa_14   0x00365c    program     static E:\3.46\pic18-lt\cxx-framework\src\extended\stdclib\vfprintf.c
                  __pa_15   0x003666    program     static E:\3.46\pic18-lt\cxx-framework\src\extended\stdclib\vfprintf.c
                  __pa_16   0x00366c    program     static E:\3.46\pic18-lt\cxx-framework\src\extended\stdclib\vfprintf.c
                  __pa_17   0x00367c    program     static E:\3.46\pic18-lt\cxx-framework\src\extended\stdclib\vfprintf.c
                  __pa_18   0x003688    program     static E:\3.46\pic18-lt\cxx-framework\src\extended\stdclib\vfprintf.c
                  __pa_19   0x003696    program     static E:\3.46\pic18-lt\cxx-framework\src\extended\stdclib\vfprintf.c
                   __pa_2   0x003592    program     static E:\3.46\pic18-lt\cxx-framework\src\extended\stdclib\vfprintf.c
                  __pa_20   0x0036a0    program     static E:\3.46\pic18-lt\cxx-framework\src\extended\stdclib\vfprintf.c
                  __pa_21   0x0036aa    program     static E:\3.46\pic18-lt\cxx-framework\src\extended\stdclib\vfprintf.c
                  __pa_22   0x0036b4    program     static E:\3.46\pic18-lt\cxx-framework\src\extended\stdclib\vfprintf.c
                  __pa_23   0x0036c2    program     static E:\3.46\pic18-lt\cxx-framework\src\extended\stdclib\vfprintf.c
                   __pa_3   0x00359e    program     static E:\3.46\pic18-lt\cxx-framework\src\extended\stdclib\vfprintf.c
                   __pa_4   0x0035b2    program     static E:\3.46\pic18-lt\cxx-framework\src\extended\stdclib\vfprintf.c
                   __pa_5   0x0035c4    program     static E:\3.46\pic18-lt\cxx-framework\src\extended\stdclib\vfprintf.c
                   __pa_6   0x0035d4    program     static E:\3.46\pic18-lt\cxx-framework\src\extended\stdclib\vfprintf.c
                   __pa_7   0x0035e6    program     static E:\3.46\pic18-lt\cxx-framework\src\extended\stdclib\vfprintf.c
                   __pa_8   0x0035f2    program     static E:\3.46\pic18-lt\cxx-framework\src\extended\stdclib\vfprintf.c
                   __pa_9   0x003604    program     static E:\3.46\pic18-lt\cxx-framework\src\extended\stdclib\vfprintf.c
               __tmplbl_0   0x00888c    program     static                          
               __tmplbl_0   0x00371c    program     static                          
               __tmplbl_0   0x009fe2    program     static                          
               __tmplbl_0   0x009d44    program     static                          
               __tmplbl_1   0x003712    program     static                          
               __tmplbl_1   0x009d3e    program     static                          
               __tmplbl_1   0x008886    program     static                          
              __tmplbl_15   0x001a2a    program     static                          
              __tmplbl_18   0x001a2a    program     static                          
              __tmplbl_19   0x001a2a    program     static                          
               __tmplbl_2   0x009d64    program     static                          
               __tmplbl_2   0x00383c    program     static                          
               __tmplbl_2   0x0088ee    program     static                          
               __tmplbl_3   0x009d5e    program     static                          
               __tmplbl_3   0x003818    program     static                          
               __tmplbl_3   0x0088e4    program     static                          
               __tmplbl_4   0x0037f6    program     static                          
               __tmplbl_4   0x009d84    program     static                          
               __tmplbl_5   0x009d7e    program     static                          
               __tmplbl_5   0x0037d0    program     static                          
               __tmplbl_6   0x003c96    program     static                          
               __tmplbl_6   0x009da4    program     static                          
               __tmplbl_7   0x003c72    program     static                          
               __tmplbl_7   0x009d9e    program     static                          
               __tmplbl_8   0x009dc4    program     static                          
               __tmplbl_9   0x009dbe    program     static                          
            __zero_memory   0x00a188    program     extern E:\3.46\pic18-lt\cxx-framework\src\extended\proc\p18f6622.asm
                _do_cinit   0x00a4ea    program     extern Y:\Documents\Openventilator\SRC\ALIM\STARTUP_Alim_Legendair_Phase_II.c
            _early08uexit   0x004004    program     extern E:\3.46\pic18-lt\cxx-framework\src\extended\math\div08u.asm
            _early16uexit   0x003d86    program     extern E:\3.46\pic18-lt\cxx-framework\src\extended\math\div16u.asm
            _early24uexit   0x00422a    program     extern E:\3.46\pic18-lt\cxx-framework\src\extended\math\div24u.asm
            _early32uexit   0x003f60    program     extern E:\3.46\pic18-lt\cxx-framework\src\extended\math\div32u.asm
                   _entry   0x000800    program     extern Y:\Documents\Openventilator\SRC\ALIM\STARTUP_Alim_Legendair_Phase_II.c
                   _false   0x003fa4    program     static E:\3.46\pic18-lt\cxx-framework\src\extended\math\div32u.asm
                   _false   0x004260    program     static E:\3.46\pic18-lt\cxx-framework\src\extended\math\div24u.asm
                 _startup   0x00b360    program     extern Y:\Documents\Openventilator\SRC\ALIM\STARTUP_Alim_Legendair_Phase_II.c
              _usart_putc   0x00b344    program     extern E:\3.46\pic18-lt\cxx-framework\src\pmc_common\USART\_usartpc.asm
               _user_putc   0x009306    program     extern Y:\Documents\Openventilator\SRC\LOG\LOG_Print.c
    cCapacityBasedVoltage   0x00ac4e    program     extern Y:\Documents\Openventilator\SRC\SYSTEM\SYS_Gauge_Data.h
                compare_l   0x00a19e    program     static E:\3.46\pic18-lt\cxx-framework\src\extended\proc\p18f6622.asm
            configuration   0x300000    program     extern Y:\Documents\Openventilator\SRC\INIT\INIT_CPU.c
                copy_loop   0x00a55c    program     static                          
            copy_one_byte   0x00a562    program     static                          
                divmod08u   0x004006    program     static E:\3.46\pic18-lt\cxx-framework\src\extended\math\div08u.asm
                divmod16u   0x003d88    program     static E:\3.46\pic18-lt\cxx-framework\src\extended\math\div16u.asm
                divmod24u   0x00422c    program     static E:\3.46\pic18-lt\cxx-framework\src\extended\math\div24u.asm
                divmod32u   0x003f62    program     static E:\3.46\pic18-lt\cxx-framework\src\extended\math\div32u.asm
                     done   0x00a586    program     static                          
             done_copying   0x00a570    program     static                          
                  endloop   0x00401c    program     static E:\3.46\pic18-lt\cxx-framework\src\extended\math\div08u.asm
                  endloop   0x003dae    program     static E:\3.46\pic18-lt\cxx-framework\src\extended\math\div16u.asm
            init_hardware   0x009322    program     static Y:\Documents\Openventilator\SRC\LOG\LOG_Print.c
                  isdigit   0x00b302    program     extern E:\3.46\pic18-lt\cxx-framework\src\extended\stdclib\isdigit.asm
                     jEnd   0x00a208    program     static E:\3.46\pic18-lt\cxx-framework\src\extended\stdclib\strlen.asm
                     jEnd   0x00a240    program     static E:\3.46\pic18-lt\cxx-framework\src\extended\stdclib\slenpgm.asm
                     jEnd   0x00a1ec    program     static E:\3.46\pic18-lt\cxx-framework\src\extended\stdclib\mcpyp2r.asm
                    jLoop   0x00a228    program     static E:\3.46\pic18-lt\cxx-framework\src\extended\stdclib\slenpgm.asm
                    jLoop   0x00a1ce    program     static E:\3.46\pic18-lt\cxx-framework\src\extended\stdclib\mcpyp2r.asm
                    jLoop   0x00a1fe    program     static E:\3.46\pic18-lt\cxx-framework\src\extended\stdclib\strlen.asm
                   jMatch   0x00b322    program     static E:\3.46\pic18-lt\cxx-framework\src\extended\stdclib\isdigit.asm
                 jNoMatch   0x00b324    program     static E:\3.46\pic18-lt\cxx-framework\src\extended\stdclib\isdigit.asm
                 leds_off   0x00a16a    program     static Y:\Documents\Openventilator\SRC\PUST\ramtest.asm
                  leds_on   0x00a164    program     static Y:\Documents\Openventilator\SRC\PUST\ramtest.asm
                     loop   0x00b372    program     static                          
                     loop   0x004238    program     static E:\3.46\pic18-lt\cxx-framework\src\extended\math\div24u.asm
                     loop   0x00400e    program     static E:\3.46\pic18-lt\cxx-framework\src\extended\math\div08u.asm
                     loop   0x003f70    program     static E:\3.46\pic18-lt\cxx-framework\src\extended\math\div32u.asm
                     loop   0x003d92    program     static E:\3.46\pic18-lt\cxx-framework\src\extended\math\div16u.asm
                     loop   0x00b354    program     static E:\3.46\pic18-lt\cxx-framework\src\pmc_common\USART\_usartpc.asm
                   loop_h   0x00a196    program     static E:\3.46\pic18-lt\cxx-framework\src\extended\proc\p18f6622.asm
                   loop_l   0x00a1a0    program     static E:\3.46\pic18-lt\cxx-framework\src\extended\proc\p18f6622.asm
                     main   0x00b1fa    program     extern Y:\Documents\Openventilator\SRC\MAIN\MAIN_Carte_Alim.c
            memcpypgm2ram   0x00a1a8    program     extern E:\3.46\pic18-lt\cxx-framework\src\extended\stdclib\mcpyp2r.asm
                     putc   0x00acbe    program     extern E:\3.46\pic18-lt\cxx-framework\src\extended\stdclib\putc.c
                  ramtest   0x00a0f2    program     extern Y:\Documents\Openventilator\SRC\PUST\ramtest.asm
            read_55_error   0x00a160    program     static Y:\Documents\Openventilator\SRC\PUST\ramtest.asm
             read_55_loop   0x00a14c    program     static Y:\Documents\Openventilator\SRC\PUST\ramtest.asm
            read_AA_error   0x00a160    program     extern Y:\Documents\Openventilator\SRC\PUST\ramtest.asm
             read_AA_loop   0x00a11a    program     static Y:\Documents\Openventilator\SRC\PUST\ramtest.asm
                 s_digits   0x00b3b4    program     static E:\3.46\pic18-lt\cxx-framework\src\extended\stdclib\vfprintf.c
            s_put_n_chars   0x002eb2    program     static E:\3.46\pic18-lt\cxx-framework\src\extended\stdclib\vfprintf.c
               saturation   0x00a6be    program     extern Y:\Documents\Openventilator\SRC\ALIM\Saturation.c
                   strlen   0x00a1ee    program     extern E:\3.46\pic18-lt\cxx-framework\src\extended\stdclib\strlen.asm
                strlenpgm   0x00a20a    program     extern E:\3.46\pic18-lt\cxx-framework\src\extended\stdclib\slenpgm.asm
                     test   0x00a504    program     static                          
                 vfprintf   0x002ee4    program     extern E:\3.46\pic18-lt\cxx-framework\src\extended\stdclib\vfprintf.c
                wait500ms   0x00a172    program     static Y:\Documents\Openventilator\SRC\PUST\ramtest.asm
                   waitT0   0x00a17e    program     static Y:\Documents\Openventilator\SRC\PUST\ramtest.asm
            write_55_loop   0x00a134    program     static Y:\Documents\Openventilator\SRC\PUST\ramtest.asm
            write_AA_loop   0x00a102    program     static Y:\Documents\Openventilator\SRC\PUST\ramtest.asm
               zero_block   0x00a196    program     static E:\3.46\pic18-lt\cxx-framework\src\extended\proc\p18f6622.asm
         AC_Loss_Detected   0x000522       data     extern Y:\Documents\Openventilator\SRC\SWITCH\Switch_Data.h
                   ADCON0   0x000fc2       data     extern E:\3.46\pic18-lt\cxx-framework\src\extended\proc\p18f6622.asm
               ADCON0bits   0x000fc2       data     extern E:\3.46\pic18-lt\cxx-framework\src\extended\proc\p18f6622.asm
                   ADCON1   0x000fc1       data     extern E:\3.46\pic18-lt\cxx-framework\src\extended\proc\p18f6622.asm
               ADCON1bits   0x000fc1       data     extern E:\3.46\pic18-lt\cxx-framework\src\extended\proc\p18f6622.asm
                   ADCON2   0x000fc0       data     extern E:\3.46\pic18-lt\cxx-framework\src\extended\proc\p18f6622.asm
               ADCON2bits   0x000fc0       data     extern E:\3.46\pic18-lt\cxx-framework\src\extended\proc\p18f6622.asm
                    ADRES   0x000fc3       data     extern E:\3.46\pic18-lt\cxx-framework\src\extended\proc\p18f6622.asm
                   ADRESH   0x000fc4       data     extern E:\3.46\pic18-lt\cxx-framework\src\extended\proc\p18f6622.asm
                   ADRESL   0x000fc3       data     extern E:\3.46\pic18-lt\cxx-framework\src\extended\proc\p18f6622.asm
               Adress_LSB   0x0003fb       data     static Y:\Documents\Openventilator\SRC\DRIVERS_EEPROM\DRV_EEPROM_BAT_WriteMemory.c
            AgeingCompute   0x000384       data     extern Y:\Documents\Openventilator\SRC\SYSTEM\SYS_Gauge_Data.h
  Ageing_Per_Cent_Samples   0x000485       data     static Y:\Documents\Openventilator\SRC\SYSTEM\SYS_Bat_Ageing.c
        Answer_EEPROM_BAT   0x0004f7       data     extern Y:\Documents\Openventilator\SRC\DRIVERS_EEPROM\DRV_EEPROM_BAT_Data.h
              ArrayTxData   0x000301       data     extern Y:\Documents\Openventilator\SRC\DRIVERS_RS232\DRV_RS232_Data.h
            ArrayTxDataId   0x00034e       data     extern Y:\Documents\Openventilator\SRC\DRIVERS_RS232\DRV_RS232_Data.h
    AverageCurrentCompute   0x0004c5       data     static Y:\Documents\Openventilator\SRC\SAM\SAM_Launch.c
        BAT_Loss_Detected   0x000524       data     extern Y:\Documents\Openventilator\SRC\SWITCH\Switch_Data.h
                  BAUDCON   0x000f7e       data     extern E:\3.46\pic18-lt\cxx-framework\src\extended\proc\p18f6622.asm
                 BAUDCON1   0x000f7e       data     extern E:\3.46\pic18-lt\cxx-framework\src\extended\proc\p18f6622.asm
             BAUDCON1bits   0x000f7e       data     extern E:\3.46\pic18-lt\cxx-framework\src\extended\proc\p18f6622.asm
                 BAUDCON2   0x000f7c       data     extern E:\3.46\pic18-lt\cxx-framework\src\extended\proc\p18f6622.asm
             BAUDCON2bits   0x000f7c       data     extern E:\3.46\pic18-lt\cxx-framework\src\extended\proc\p18f6622.asm
              BAUDCONbits   0x000f7e       data     extern E:\3.46\pic18-lt\cxx-framework\src\extended\proc\p18f6622.asm
                    BLOCK   0x0003fc       data     static Y:\Documents\Openventilator\SRC\DRIVERS_EEPROM\DRV_EEPROM_BAT_WriteMemory.c
                      BSR   0x000fe0       data     extern E:\3.46\pic18-lt\cxx-framework\src\extended\proc\p18f6622.asm
                 BatLedOn   0x000512       data     static Y:\Documents\Openventilator\SRC\SYSTEM\SYS_Led_Management.c
BatteryChangingDetectedFlagToAgeingCompute   0x000483       data     extern Y:\Documents\Openventilator\SRC\SYSTEM\SYS_Gauge_Data.h
BatteryChangingDetectedFlagToCycleCompute   0x000481       data     extern Y:\Documents\Openventilator\SRC\SYSTEM\SYS_Gauge_Data.h
BatteryChangingDetectedFlagToImpedanceCompute   0x00047f       data     extern Y:\Documents\Openventilator\SRC\SYSTEM\SYS_Gauge_Data.h
        BatteryVoltageMax   0x000500       data     static Y:\Documents\Openventilator\SRC\SYSTEM\SYS_Voltage_Colapse_Compensation.c
        BatteryVoltageMin   0x000502       data     static Y:\Documents\Openventilator\SRC\SYSTEM\SYS_Voltage_Colapse_Compensation.c
          BufferOfReceipt   0x000337       data     extern Y:\Documents\Openventilator\SRC\DRIVERS_RS232\DRV_RS232_Data.h
          CAN_Acquisition   0x000400       data     extern Y:\Documents\Openventilator\SRC\CAN\CAN_Channel_Acquisition.h
 CAN_Previous_Acquisition   0x000418       data     extern Y:\Documents\Openventilator\SRC\CAN\CAN_Channel_Acquisition.h
           CAPACITY_AT_T1   0x000473       data     extern Y:\Documents\Openventilator\SRC\SYSTEM\SYS_Gauge_Data.h
                  CCP1CON   0x000fbd       data     extern E:\3.46\pic18-lt\cxx-framework\src\extended\proc\p18f6622.asm
              CCP1CONbits   0x000fbd       data     extern E:\3.46\pic18-lt\cxx-framework\src\extended\proc\p18f6622.asm
                  CCP2CON   0x000fba       data     extern E:\3.46\pic18-lt\cxx-framework\src\extended\proc\p18f6622.asm
              CCP2CONbits   0x000fba       data     extern E:\3.46\pic18-lt\cxx-framework\src\extended\proc\p18f6622.asm
                  CCP3CON   0x000fb7       data     extern E:\3.46\pic18-lt\cxx-framework\src\extended\proc\p18f6622.asm
              CCP3CONbits   0x000fb7       data     extern E:\3.46\pic18-lt\cxx-framework\src\extended\proc\p18f6622.asm
                  CCP4CON   0x000f73       data     extern E:\3.46\pic18-lt\cxx-framework\src\extended\proc\p18f6622.asm
              CCP4CONbits   0x000f73       data     extern E:\3.46\pic18-lt\cxx-framework\src\extended\proc\p18f6622.asm
                  CCP5CON   0x000f70       data     extern E:\3.46\pic18-lt\cxx-framework\src\extended\proc\p18f6622.asm
              CCP5CONbits   0x000f70       data     extern E:\3.46\pic18-lt\cxx-framework\src\extended\proc\p18f6622.asm
                    CCPR1   0x000fbe       data     extern E:\3.46\pic18-lt\cxx-framework\src\extended\proc\p18f6622.asm
                   CCPR1H   0x000fbf       data     extern E:\3.46\pic18-lt\cxx-framework\src\extended\proc\p18f6622.asm
                   CCPR1L   0x000fbe       data     extern E:\3.46\pic18-lt\cxx-framework\src\extended\proc\p18f6622.asm
                    CCPR2   0x000fbb       data     extern E:\3.46\pic18-lt\cxx-framework\src\extended\proc\p18f6622.asm
                   CCPR2H   0x000fbc       data     extern E:\3.46\pic18-lt\cxx-framework\src\extended\proc\p18f6622.asm
                   CCPR2L   0x000fbb       data     extern E:\3.46\pic18-lt\cxx-framework\src\extended\proc\p18f6622.asm
                    CCPR3   0x000fb8       data     extern E:\3.46\pic18-lt\cxx-framework\src\extended\proc\p18f6622.asm
                   CCPR3H   0x000fb9       data     extern E:\3.46\pic18-lt\cxx-framework\src\extended\proc\p18f6622.asm
                   CCPR3L   0x000fb8       data     extern E:\3.46\pic18-lt\cxx-framework\src\extended\proc\p18f6622.asm
                    CCPR4   0x000f74       data     extern E:\3.46\pic18-lt\cxx-framework\src\extended\proc\p18f6622.asm
                   CCPR4H   0x000f75       data     extern E:\3.46\pic18-lt\cxx-framework\src\extended\proc\p18f6622.asm
                   CCPR4L   0x000f74       data     extern E:\3.46\pic18-lt\cxx-framework\src\extended\proc\p18f6622.asm
                    CCPR5   0x000f71       data     extern E:\3.46\pic18-lt\cxx-framework\src\extended\proc\p18f6622.asm
                   CCPR5H   0x000f72       data     extern E:\3.46\pic18-lt\cxx-framework\src\extended\proc\p18f6622.asm
                   CCPR5L   0x000f71       data     extern E:\3.46\pic18-lt\cxx-framework\src\extended\proc\p18f6622.asm
                    CMCON   0x000fb4       data     extern E:\3.46\pic18-lt\cxx-framework\src\extended\proc\p18f6622.asm
                CMCONbits   0x000fb4       data     extern E:\3.46\pic18-lt\cxx-framework\src\extended\proc\p18f6622.asm
           CRC_EEPROM_BAT   0x0003fe       data     static Y:\Documents\Openventilator\SRC\DRIVERS_EEPROM\DRV_EEPROM_BAT_WriteMemory.c
                   CVRCON   0x000fb5       data     extern E:\3.46\pic18-lt\cxx-framework\src\extended\proc\p18f6622.asm
               CVRCONbits   0x000fb5       data     extern E:\3.46\pic18-lt\cxx-framework\src\extended\proc\p18f6622.asm
CapacityBasedVoltageComputed   0x000350       data     extern Y:\Documents\Openventilator\SRC\SYSTEM\SYS_Gauge_Data.h
     ChargeInitialization   0x0001fa       data     static Y:\Documents\Openventilator\SRC\CHARGE\CHARGE_Launch.c
         CountActivateJob   0x000282       data     extern Y:\Documents\Openventilator\SRC\SCHEDULER\SCHED_entry.c
    CountActivateTaskStep   0x000283       data     extern Y:\Documents\Openventilator\SRC\SCHEDULER\SCHED_entry.c
            CounterTop1ms   0x000531       data     static Y:\Documents\Openventilator\SRC\MAIN\MAIN_activate_tasks.c
       CumulChargeCurrent   0x0001f2       data     extern Y:\Documents\Openventilator\SRC\CHARGE\CHARGE_Data.h
                DB_Config   0x0004ac       data     extern Y:\Documents\Openventilator\SRC\DATABASE\DB_Config.h
               DB_Control   0x0002e4       data     extern Y:\Documents\Openventilator\SRC\DATABASE\DB_Control.h
           DB_Measurement   0x0003d3       data     extern Y:\Documents\Openventilator\SRC\DATABASE\DB_Measurement.h
           DB_powerSupply   0x000000       data     extern Y:\Documents\Openventilator\SRC\DATABASE\DB_PowerSupply.h
         DC_Loss_Detected   0x000523       data     extern Y:\Documents\Openventilator\SRC\SWITCH\Switch_Data.h
                     DDRA   0x000f92       data     extern E:\3.46\pic18-lt\cxx-framework\src\extended\proc\p18f6622.asm
                 DDRAbits   0x000f92       data     extern E:\3.46\pic18-lt\cxx-framework\src\extended\proc\p18f6622.asm
                     DDRB   0x000f93       data     extern E:\3.46\pic18-lt\cxx-framework\src\extended\proc\p18f6622.asm
                 DDRBbits   0x000f93       data     extern E:\3.46\pic18-lt\cxx-framework\src\extended\proc\p18f6622.asm
                     DDRC   0x000f94       data     extern E:\3.46\pic18-lt\cxx-framework\src\extended\proc\p18f6622.asm
                 DDRCbits   0x000f94       data     extern E:\3.46\pic18-lt\cxx-framework\src\extended\proc\p18f6622.asm
                     DDRD   0x000f95       data     extern E:\3.46\pic18-lt\cxx-framework\src\extended\proc\p18f6622.asm
                 DDRDbits   0x000f95       data     extern E:\3.46\pic18-lt\cxx-framework\src\extended\proc\p18f6622.asm
                     DDRE   0x000f96       data     extern E:\3.46\pic18-lt\cxx-framework\src\extended\proc\p18f6622.asm
                 DDREbits   0x000f96       data     extern E:\3.46\pic18-lt\cxx-framework\src\extended\proc\p18f6622.asm
                     DDRF   0x000f97       data     extern E:\3.46\pic18-lt\cxx-framework\src\extended\proc\p18f6622.asm
                 DDRFbits   0x000f97       data     extern E:\3.46\pic18-lt\cxx-framework\src\extended\proc\p18f6622.asm
                     DDRG   0x000f98       data     extern E:\3.46\pic18-lt\cxx-framework\src\extended\proc\p18f6622.asm
                 DDRGbits   0x000f98       data     extern E:\3.46\pic18-lt\cxx-framework\src\extended\proc\p18f6622.asm
        DELTA_BAT_VOLTAGE   0x00046d       data     extern Y:\Documents\Openventilator\SRC\SYSTEM\SYS_Gauge_Data.h
           DELTA_CAPACITY   0x00046f       data     extern Y:\Documents\Openventilator\SRC\SYSTEM\SYS_Gauge_Data.h
      DRV_SPI_ST10_Status   0x000516       data     extern Y:\Documents\Openventilator\SRC\DRIVERS_SPI\DRV_SPI_ST10_Data.h
                  ECCP1AS   0x000fb6       data     extern E:\3.46\pic18-lt\cxx-framework\src\extended\proc\p18f6622.asm
              ECCP1ASbits   0x000fb6       data     extern E:\3.46\pic18-lt\cxx-framework\src\extended\proc\p18f6622.asm
                 ECCP1CON   0x000fbd       data     extern E:\3.46\pic18-lt\cxx-framework\src\extended\proc\p18f6622.asm
             ECCP1CONbits   0x000fbd       data     extern E:\3.46\pic18-lt\cxx-framework\src\extended\proc\p18f6622.asm
                 ECCP1DEL   0x000f79       data     extern E:\3.46\pic18-lt\cxx-framework\src\extended\proc\p18f6622.asm
             ECCP1DELbits   0x000f79       data     extern E:\3.46\pic18-lt\cxx-framework\src\extended\proc\p18f6622.asm
                  ECCP2AS   0x000f68       data     extern E:\3.46\pic18-lt\cxx-framework\src\extended\proc\p18f6622.asm
              ECCP2ASbits   0x000f68       data     extern E:\3.46\pic18-lt\cxx-framework\src\extended\proc\p18f6622.asm
                 ECCP2CON   0x000fba       data     extern E:\3.46\pic18-lt\cxx-framework\src\extended\proc\p18f6622.asm
             ECCP2CONbits   0x000fba       data     extern E:\3.46\pic18-lt\cxx-framework\src\extended\proc\p18f6622.asm
                 ECCP2DEL   0x000f67       data     extern E:\3.46\pic18-lt\cxx-framework\src\extended\proc\p18f6622.asm
             ECCP2DELbits   0x000f67       data     extern E:\3.46\pic18-lt\cxx-framework\src\extended\proc\p18f6622.asm
                  ECCP3AS   0x000f6a       data     extern E:\3.46\pic18-lt\cxx-framework\src\extended\proc\p18f6622.asm
              ECCP3ASbits   0x000f6a       data     extern E:\3.46\pic18-lt\cxx-framework\src\extended\proc\p18f6622.asm
                 ECCP3CON   0x000fb7       data     extern E:\3.46\pic18-lt\cxx-framework\src\extended\proc\p18f6622.asm
             ECCP3CONbits   0x000fb7       data     extern E:\3.46\pic18-lt\cxx-framework\src\extended\proc\p18f6622.asm
                 ECCP3DEL   0x000f69       data     extern E:\3.46\pic18-lt\cxx-framework\src\extended\proc\p18f6622.asm
             ECCP3DELbits   0x000f69       data     extern E:\3.46\pic18-lt\cxx-framework\src\extended\proc\p18f6622.asm
                    EEADR   0x000fa9       data     extern E:\3.46\pic18-lt\cxx-framework\src\extended\proc\p18f6622.asm
                   EEADRH   0x000faa       data     extern E:\3.46\pic18-lt\cxx-framework\src\extended\proc\p18f6622.asm
                   EECON1   0x000fa6       data     extern E:\3.46\pic18-lt\cxx-framework\src\extended\proc\p18f6622.asm
               EECON1bits   0x000fa6       data     extern E:\3.46\pic18-lt\cxx-framework\src\extended\proc\p18f6622.asm
                   EECON2   0x000fa7       data     extern E:\3.46\pic18-lt\cxx-framework\src\extended\proc\p18f6622.asm
                   EEDATA   0x000fa8       data     extern E:\3.46\pic18-lt\cxx-framework\src\extended\proc\p18f6622.asm
            EndOfTransmit   0x00034f       data     extern Y:\Documents\Openventilator\SRC\DRIVERS_RS232\DRV_RS232_Data.h
                     FSR0   0x000fe9       data     extern E:\3.46\pic18-lt\cxx-framework\src\extended\proc\p18f6622.asm
                    FSR0H   0x000fea       data     extern E:\3.46\pic18-lt\cxx-framework\src\extended\proc\p18f6622.asm
                    FSR0L   0x000fe9       data     extern E:\3.46\pic18-lt\cxx-framework\src\extended\proc\p18f6622.asm
                     FSR1   0x000fe1       data     extern E:\3.46\pic18-lt\cxx-framework\src\extended\proc\p18f6622.asm
                    FSR1H   0x000fe2       data     extern E:\3.46\pic18-lt\cxx-framework\src\extended\proc\p18f6622.asm
                    FSR1L   0x000fe1       data     extern E:\3.46\pic18-lt\cxx-framework\src\extended\proc\p18f6622.asm
                     FSR2   0x000fd9       data     extern E:\3.46\pic18-lt\cxx-framework\src\extended\proc\p18f6622.asm
                    FSR2H   0x000fda       data     extern E:\3.46\pic18-lt\cxx-framework\src\extended\proc\p18f6622.asm
                    FSR2L   0x000fd9       data     extern E:\3.46\pic18-lt\cxx-framework\src\extended\proc\p18f6622.asm
              FanSetPoint   0x0004f3       data     static Y:\Documents\Openventilator\SRC\FAN\FAN_Driving_Launch.c
          FirstInitCharge   0x0001f8       data     static Y:\Documents\Openventilator\SRC\CHARGE\CHARGE_Launch.c
                FirstRead   0x00051c       data     extern Y:\Documents\Openventilator\SRC\DRIVERS_EEPROM\DRV_EEPROM_BAT_Data.h
                 FirstRun   0x000504       data     static Y:\Documents\Openventilator\SRC\SYSTEM\SYS_Voltage_Colapse_Compensation.c
                 FirstRun   0x00051d       data     static Y:\Documents\Openventilator\SRC\DRIVERS_EEPROM\DRV_EEPROM_BAT_Launch.c
                 FirstRun   0x0004be       data     static Y:\Documents\Openventilator\SRC\SAM\SAM_Launch.c
                 FirstRun   0x000396       data     static Y:\Documents\Openventilator\SRC\SYSTEM\SYS_Launch.c
                 FirstRun   0x000514       data     static Y:\Documents\Openventilator\SRC\SYSTEM\SYS_Led_Management.c
    FirstRunTimerNoCommut   0x00052a       data     static Y:\Documents\Openventilator\SRC\SWITCH\SWITCH_State_Control.c
              FirtsVentil   0x000397       data     static Y:\Documents\Openventilator\SRC\SYSTEM\SYS_Launch.c
            FlagPostStart   0x000506       data     static Y:\Documents\Openventilator\SRC\SECURITY\SEC_Alarms.c
   Flag_Answer_EEPROM_BAT   0x0004f6       data     extern Y:\Documents\Openventilator\SRC\DRIVERS_EEPROM\DRV_EEPROM_BAT_Data.h
     Flag_Scratchpad_Full   0x0003fd       data     static Y:\Documents\Openventilator\SRC\DRIVERS_EEPROM\DRV_EEPROM_BAT_WriteMemory.c
       FlashCalculatedCrc   0x000469       data     static Y:\Documents\Openventilator\SRC\PUST\PUST.c
             FlashMapping   0x00044e       data     static Y:\Documents\Openventilator\SRC\PUST\PUST.c
            FlashRomedCrc   0x00046a       data     static Y:\Documents\Openventilator\SRC\PUST\PUST.c
                  HLVDCON   0x000fd2       data     extern E:\3.46\pic18-lt\cxx-framework\src\extended\proc\p18f6622.asm
              HLVDCONbits   0x000fd2       data     extern E:\3.46\pic18-lt\cxx-framework\src\extended\proc\p18f6622.asm
                        I   0x0004e5       data     static Y:\Documents\Openventilator\SRC\FAN\FAN_Loop_Controller.c
         IBAT_Can_Samples   0x0001c8       data     static Y:\Documents\Openventilator\SRC\SAM\SAM_Launch.h
      ID_AIROXACCUTRONICS   0x0004a3       data     static Y:\Documents\Openventilator\SRC\DRIVERS_EEPROM\DRV_EEPROM_BAT_InitNewBattery.c
             ID_AIROXSAFT   0x00049a       data     static Y:\Documents\Openventilator\SRC\DRIVERS_EEPROM\DRV_EEPROM_BAT_InitNewBattery.c
                 ID_INDEX   0x000499       data     static Y:\Documents\Openventilator\SRC\DRIVERS_EEPROM\DRV_EEPROM_BAT_InitNewBattery.c
                    INDF0   0x000fef       data     extern E:\3.46\pic18-lt\cxx-framework\src\extended\proc\p18f6622.asm
                    INDF1   0x000fe7       data     extern E:\3.46\pic18-lt\cxx-framework\src\extended\proc\p18f6622.asm
                    INDF2   0x000fdf       data     extern E:\3.46\pic18-lt\cxx-framework\src\extended\proc\p18f6622.asm
                   INTCON   0x000ff2       data     extern E:\3.46\pic18-lt\cxx-framework\src\extended\proc\p18f6622.asm
                  INTCON2   0x000ff1       data     extern E:\3.46\pic18-lt\cxx-framework\src\extended\proc\p18f6622.asm
              INTCON2bits   0x000ff1       data     extern E:\3.46\pic18-lt\cxx-framework\src\extended\proc\p18f6622.asm
                  INTCON3   0x000ff0       data     extern E:\3.46\pic18-lt\cxx-framework\src\extended\proc\p18f6622.asm
              INTCON3bits   0x000ff0       data     extern E:\3.46\pic18-lt\cxx-framework\src\extended\proc\p18f6622.asm
               INTCONbits   0x000ff2       data     extern E:\3.46\pic18-lt\cxx-framework\src\extended\proc\p18f6622.asm
                     IPR1   0x000f9f       data     extern E:\3.46\pic18-lt\cxx-framework\src\extended\proc\p18f6622.asm
                 IPR1bits   0x000f9f       data     extern E:\3.46\pic18-lt\cxx-framework\src\extended\proc\p18f6622.asm
                     IPR2   0x000fa2       data     extern E:\3.46\pic18-lt\cxx-framework\src\extended\proc\p18f6622.asm
                 IPR2bits   0x000fa2       data     extern E:\3.46\pic18-lt\cxx-framework\src\extended\proc\p18f6622.asm
                     IPR3   0x000fa5       data     extern E:\3.46\pic18-lt\cxx-framework\src\extended\proc\p18f6622.asm
                 IPR3bits   0x000fa5       data     extern E:\3.46\pic18-lt\cxx-framework\src\extended\proc\p18f6622.asm
                      Idx   0x0000fe       data     extern Y:\Documents\Openventilator\SRC\DRIVERS_SPI\DRV_SPI_ST10_ReadBuffer.c
Impedance_Compute_IBat_Max   0x0004dd       data     static Y:\Documents\Openventilator\SRC\SYSTEM\SYS_ImpedanceCompute.c
Impedance_Compute_Ibat_Min   0x0004e1       data     static Y:\Documents\Openventilator\SRC\SYSTEM\SYS_ImpedanceCompute.c
Impedance_Compute_Vbat_Max   0x0004df       data     static Y:\Documents\Openventilator\SRC\SYSTEM\SYS_ImpedanceCompute.c
Impedance_Compute_Vbat_Min   0x0004e3       data     static Y:\Documents\Openventilator\SRC\SYSTEM\SYS_ImpedanceCompute.c
Init_Chargeur_Autorisation   0x0001f0       data     extern Y:\Documents\Openventilator\SRC\CHARGE\CHARGE_Data.h
                 Integral   0x00051e       data     static Y:\Documents\Openventilator\SRC\CHARGE\CHARGE_Loop_Controller.c
                     LATA   0x000f89       data     extern E:\3.46\pic18-lt\cxx-framework\src\extended\proc\p18f6622.asm
                 LATAbits   0x000f89       data     extern E:\3.46\pic18-lt\cxx-framework\src\extended\proc\p18f6622.asm
                     LATB   0x000f8a       data     extern E:\3.46\pic18-lt\cxx-framework\src\extended\proc\p18f6622.asm
                 LATBbits   0x000f8a       data     extern E:\3.46\pic18-lt\cxx-framework\src\extended\proc\p18f6622.asm
                     LATC   0x000f8b       data     extern E:\3.46\pic18-lt\cxx-framework\src\extended\proc\p18f6622.asm
                 LATCbits   0x000f8b       data     extern E:\3.46\pic18-lt\cxx-framework\src\extended\proc\p18f6622.asm
                     LATD   0x000f8c       data     extern E:\3.46\pic18-lt\cxx-framework\src\extended\proc\p18f6622.asm
                 LATDbits   0x000f8c       data     extern E:\3.46\pic18-lt\cxx-framework\src\extended\proc\p18f6622.asm
                     LATE   0x000f8d       data     extern E:\3.46\pic18-lt\cxx-framework\src\extended\proc\p18f6622.asm
                 LATEbits   0x000f8d       data     extern E:\3.46\pic18-lt\cxx-framework\src\extended\proc\p18f6622.asm
                     LATF   0x000f8e       data     extern E:\3.46\pic18-lt\cxx-framework\src\extended\proc\p18f6622.asm
                 LATFbits   0x000f8e       data     extern E:\3.46\pic18-lt\cxx-framework\src\extended\proc\p18f6622.asm
                     LATG   0x000f8f       data     extern E:\3.46\pic18-lt\cxx-framework\src\extended\proc\p18f6622.asm
                 LATGbits   0x000f8f       data     extern E:\3.46\pic18-lt\cxx-framework\src\extended\proc\p18f6622.asm
                   LVDCON   0x000fd2       data     extern E:\3.46\pic18-lt\cxx-framework\src\extended\proc\p18f6622.asm
               LVDCONbits   0x000fd2       data     extern E:\3.46\pic18-lt\cxx-framework\src\extended\proc\p18f6622.asm
        ListOfActivateJob   0x0004fc       data     extern Y:\Documents\Openventilator\SRC\SCHEDULER\SCHED_entry.c
       MaintenanceControl   0x000534       data     static Y:\Documents\Openventilator\SRC\DRIVERS_RS232\DRV_RS232_ReadBuffer.c
              NbInterrupt   0x000532       data     static Y:\Documents\Openventilator\SRC\FAN\FAN_Acquisition.c
             NewDischarge   0x000538       data     static Y:\Documents\Openventilator\SRC\SYSTEM\SYS_Bat_Ageing.c
          Number_of_tasks   0x000280       data     extern Y:\Documents\Openventilator\SRC\SCHEDULER\SCHED_entry.c
                   OSCCON   0x000fd3       data     extern E:\3.46\pic18-lt\cxx-framework\src\extended\proc\p18f6622.asm
               OSCCONbits   0x000fd3       data     extern E:\3.46\pic18-lt\cxx-framework\src\extended\proc\p18f6622.asm
                  OSCTUNE   0x000f9b       data     extern E:\3.46\pic18-lt\cxx-framework\src\extended\proc\p18f6622.asm
              OSCTUNEbits   0x000f9b       data     extern E:\3.46\pic18-lt\cxx-framework\src\extended\proc\p18f6622.asm
        Overflow_TimerFan   0x000533       data     static Y:\Documents\Openventilator\SRC\FAN\FAN_Acquisition.c
                       PC   0x000ff9       data     extern E:\3.46\pic18-lt\cxx-framework\src\extended\proc\p18f6622.asm
                      PCL   0x000ff9       data     extern E:\3.46\pic18-lt\cxx-framework\src\extended\proc\p18f6622.asm
                   PCLATH   0x000ffa       data     extern E:\3.46\pic18-lt\cxx-framework\src\extended\proc\p18f6622.asm
                   PCLATU   0x000ffb       data     extern E:\3.46\pic18-lt\cxx-framework\src\extended\proc\p18f6622.asm
                     PIE1   0x000f9d       data     extern E:\3.46\pic18-lt\cxx-framework\src\extended\proc\p18f6622.asm
                 PIE1bits   0x000f9d       data     extern E:\3.46\pic18-lt\cxx-framework\src\extended\proc\p18f6622.asm
                     PIE2   0x000fa0       data     extern E:\3.46\pic18-lt\cxx-framework\src\extended\proc\p18f6622.asm
                 PIE2bits   0x000fa0       data     extern E:\3.46\pic18-lt\cxx-framework\src\extended\proc\p18f6622.asm
                     PIE3   0x000fa3       data     extern E:\3.46\pic18-lt\cxx-framework\src\extended\proc\p18f6622.asm
                 PIE3bits   0x000fa3       data     extern E:\3.46\pic18-lt\cxx-framework\src\extended\proc\p18f6622.asm
                     PIR1   0x000f9e       data     extern E:\3.46\pic18-lt\cxx-framework\src\extended\proc\p18f6622.asm
                 PIR1bits   0x000f9e       data     extern E:\3.46\pic18-lt\cxx-framework\src\extended\proc\p18f6622.asm
                     PIR2   0x000fa1       data     extern E:\3.46\pic18-lt\cxx-framework\src\extended\proc\p18f6622.asm
                 PIR2bits   0x000fa1       data     extern E:\3.46\pic18-lt\cxx-framework\src\extended\proc\p18f6622.asm
                     PIR3   0x000fa4       data     extern E:\3.46\pic18-lt\cxx-framework\src\extended\proc\p18f6622.asm
                 PIR3bits   0x000fa4       data     extern E:\3.46\pic18-lt\cxx-framework\src\extended\proc\p18f6622.asm
                   PLUSW0   0x000feb       data     extern E:\3.46\pic18-lt\cxx-framework\src\extended\proc\p18f6622.asm
                   PLUSW1   0x000fe3       data     extern E:\3.46\pic18-lt\cxx-framework\src\extended\proc\p18f6622.asm
                   PLUSW2   0x000fdb       data     extern E:\3.46\pic18-lt\cxx-framework\src\extended\proc\p18f6622.asm
                    PORTA   0x000f80       data     extern E:\3.46\pic18-lt\cxx-framework\src\extended\proc\p18f6622.asm
                PORTAbits   0x000f80       data     extern E:\3.46\pic18-lt\cxx-framework\src\extended\proc\p18f6622.asm
                    PORTB   0x000f81       data     extern E:\3.46\pic18-lt\cxx-framework\src\extended\proc\p18f6622.asm
                PORTBbits   0x000f81       data     extern E:\3.46\pic18-lt\cxx-framework\src\extended\proc\p18f6622.asm
                    PORTC   0x000f82       data     extern E:\3.46\pic18-lt\cxx-framework\src\extended\proc\p18f6622.asm
                PORTCbits   0x000f82       data     extern E:\3.46\pic18-lt\cxx-framework\src\extended\proc\p18f6622.asm
                    PORTD   0x000f83       data     extern E:\3.46\pic18-lt\cxx-framework\src\extended\proc\p18f6622.asm
                PORTDbits   0x000f83       data     extern E:\3.46\pic18-lt\cxx-framework\src\extended\proc\p18f6622.asm
                    PORTE   0x000f84       data     extern E:\3.46\pic18-lt\cxx-framework\src\extended\proc\p18f6622.asm
                PORTEbits   0x000f84       data     extern E:\3.46\pic18-lt\cxx-framework\src\extended\proc\p18f6622.asm
                    PORTF   0x000f85       data     extern E:\3.46\pic18-lt\cxx-framework\src\extended\proc\p18f6622.asm
                PORTFbits   0x000f85       data     extern E:\3.46\pic18-lt\cxx-framework\src\extended\proc\p18f6622.asm
                    PORTG   0x000f86       data     extern E:\3.46\pic18-lt\cxx-framework\src\extended\proc\p18f6622.asm
                PORTGbits   0x000f86       data     extern E:\3.46\pic18-lt\cxx-framework\src\extended\proc\p18f6622.asm
                 POSTDEC0   0x000fed       data     extern E:\3.46\pic18-lt\cxx-framework\src\extended\proc\p18f6622.asm
                 POSTDEC1   0x000fe5       data     extern E:\3.46\pic18-lt\cxx-framework\src\extended\proc\p18f6622.asm
                 POSTDEC2   0x000fdd       data     extern E:\3.46\pic18-lt\cxx-framework\src\extended\proc\p18f6622.asm
                 POSTINC0   0x000fee       data     extern E:\3.46\pic18-lt\cxx-framework\src\extended\proc\p18f6622.asm
                 POSTINC1   0x000fe6       data     extern E:\3.46\pic18-lt\cxx-framework\src\extended\proc\p18f6622.asm
                 POSTINC2   0x000fde       data     extern E:\3.46\pic18-lt\cxx-framework\src\extended\proc\p18f6622.asm
                      PR2   0x000fcb       data     extern E:\3.46\pic18-lt\cxx-framework\src\extended\proc\p18f6622.asm
                      PR4   0x000f77       data     extern E:\3.46\pic18-lt\cxx-framework\src\extended\proc\p18f6622.asm
                  PREINC0   0x000fec       data     extern E:\3.46\pic18-lt\cxx-framework\src\extended\proc\p18f6622.asm
                  PREINC1   0x000fe4       data     extern E:\3.46\pic18-lt\cxx-framework\src\extended\proc\p18f6622.asm
                  PREINC2   0x000fdc       data     extern E:\3.46\pic18-lt\cxx-framework\src\extended\proc\p18f6622.asm
                     PROD   0x000ff3       data     extern E:\3.46\pic18-lt\cxx-framework\src\extended\proc\p18f6622.asm
                    PRODH   0x000ff4       data     extern E:\3.46\pic18-lt\cxx-framework\src\extended\proc\p18f6622.asm
                    PRODL   0x000ff3       data     extern E:\3.46\pic18-lt\cxx-framework\src\extended\proc\p18f6622.asm
                   PSPCON   0x000fb0       data     extern E:\3.46\pic18-lt\cxx-framework\src\extended\proc\p18f6622.asm
               PSPCONbits   0x000fb0       data     extern E:\3.46\pic18-lt\cxx-framework\src\extended\proc\p18f6622.asm
                  PWM_Sum   0x000526       data     static Y:\Documents\Openventilator\SRC\CHARGE\CHARGE_Init.c
                  PointNb   0x000525       data     static Y:\Documents\Openventilator\SRC\CHARGE\CHARGE_Init.c
          PreviousBatFlag   0x00050a       data     static Y:\Documents\Openventilator\SRC\SECURITY\SEC_Alarms.c
    PreviousChargeRunning   0x00052e       data     static Y:\Documents\Openventilator\SRC\SECURITY\SEC_Battery_Unchargeable.c
PreviousMaintenanceControl   0x00052c       data     static Y:\Documents\Openventilator\SRC\SWITCH\SWITCH_Launch.c
PreviousMaintenanceControl   0x0001f6       data     static Y:\Documents\Openventilator\SRC\CHARGE\CHARGE_Launch.c
           PreviousResult   0x0004e9       data     static Y:\Documents\Openventilator\SRC\FAN\FAN_Loop_Controller.c
      Previous_PWM_Charge   0x000537       data     extern Y:\Documents\Openventilator\SRC\CHARGE\CHARGE_Data.h
          PtrReadBufferRx   0x00034c       data     extern Y:\Documents\Openventilator\SRC\DRIVERS_RS232\DRV_RS232_Data.h
         PtrWriteBufferRx   0x00034d       data     extern Y:\Documents\Openventilator\SRC\DRIVERS_RS232\DRV_RS232_Data.h
               Ptr_Ram_MR   0x0004f8       data     extern Y:\Documents\Openventilator\SRC\DRIVERS_EEPROM\DRV_EEPROM_BAT_Data.h
               Ptr_Ram_MW   0x0004fa       data     extern Y:\Documents\Openventilator\SRC\DRIVERS_EEPROM\DRV_EEPROM_BAT_Data.h
                     RCON   0x000fd0       data     extern E:\3.46\pic18-lt\cxx-framework\src\extended\proc\p18f6622.asm
                 RCONbits   0x000fd0       data     extern E:\3.46\pic18-lt\cxx-framework\src\extended\proc\p18f6622.asm
                    RCREG   0x000fae       data     extern E:\3.46\pic18-lt\cxx-framework\src\extended\proc\p18f6622.asm
                   RCREG1   0x000fae       data     extern E:\3.46\pic18-lt\cxx-framework\src\extended\proc\p18f6622.asm
                   RCREG2   0x000f6e       data     extern E:\3.46\pic18-lt\cxx-framework\src\extended\proc\p18f6622.asm
                    RCSTA   0x000fab       data     extern E:\3.46\pic18-lt\cxx-framework\src\extended\proc\p18f6622.asm
                   RCSTA1   0x000fab       data     extern E:\3.46\pic18-lt\cxx-framework\src\extended\proc\p18f6622.asm
               RCSTA1bits   0x000fab       data     extern E:\3.46\pic18-lt\cxx-framework\src\extended\proc\p18f6622.asm
                   RCSTA2   0x000f6b       data     extern E:\3.46\pic18-lt\cxx-framework\src\extended\proc\p18f6622.asm
               RCSTA2bits   0x000f6b       data     extern E:\3.46\pic18-lt\cxx-framework\src\extended\proc\p18f6622.asm
                RCSTAbits   0x000fab       data     extern E:\3.46\pic18-lt\cxx-framework\src\extended\proc\p18f6622.asm
             Ram_Read_Bat   0x000f00       data     extern Y:\Documents\Openventilator\SRC\DATABASE\DB_EEPROM_BAT.h
            Ram_Write_Bat   0x000f40       data     extern Y:\Documents\Openventilator\SRC\DATABASE\DB_EEPROM_BAT.h
              Rs232_State   0x000300       data     extern Y:\Documents\Openventilator\SRC\DRIVERS_RS232\DRV_RS232_Data.h
    SAMPLES_AGEING_NUMBER   0x000477       data     extern Y:\Documents\Openventilator\SRC\SYSTEM\SYS_Gauge_Data.h
           SAMPLE_BAT_FEM   0x00047d       data     extern Y:\Documents\Openventilator\SRC\SYSTEM\SYS_Gauge_Data.h
                    SPBRG   0x000faf       data     extern E:\3.46\pic18-lt\cxx-framework\src\extended\proc\p18f6622.asm
                   SPBRG1   0x000faf       data     extern E:\3.46\pic18-lt\cxx-framework\src\extended\proc\p18f6622.asm
                   SPBRG2   0x000f6f       data     extern E:\3.46\pic18-lt\cxx-framework\src\extended\proc\p18f6622.asm
                   SPBRGH   0x000f7f       data     extern E:\3.46\pic18-lt\cxx-framework\src\extended\proc\p18f6622.asm
                  SPBRGH1   0x000f7f       data     extern E:\3.46\pic18-lt\cxx-framework\src\extended\proc\p18f6622.asm
                  SPBRGH2   0x000f7d       data     extern E:\3.46\pic18-lt\cxx-framework\src\extended\proc\p18f6622.asm
                  SSP1ADD   0x000fc8       data     extern E:\3.46\pic18-lt\cxx-framework\src\extended\proc\p18f6622.asm
                  SSP1BUF   0x000fc9       data     extern E:\3.46\pic18-lt\cxx-framework\src\extended\proc\p18f6622.asm
                 SSP1CON1   0x000fc6       data     extern E:\3.46\pic18-lt\cxx-framework\src\extended\proc\p18f6622.asm
             SSP1CON1bits   0x000fc6       data     extern E:\3.46\pic18-lt\cxx-framework\src\extended\proc\p18f6622.asm
                 SSP1CON2   0x000fc5       data     extern E:\3.46\pic18-lt\cxx-framework\src\extended\proc\p18f6622.asm
             SSP1CON2bits   0x000fc5       data     extern E:\3.46\pic18-lt\cxx-framework\src\extended\proc\p18f6622.asm
                 SSP1STAT   0x000fc7       data     extern E:\3.46\pic18-lt\cxx-framework\src\extended\proc\p18f6622.asm
             SSP1STATbits   0x000fc7       data     extern E:\3.46\pic18-lt\cxx-framework\src\extended\proc\p18f6622.asm
                  SSP2ADD   0x000f65       data     extern E:\3.46\pic18-lt\cxx-framework\src\extended\proc\p18f6622.asm
                  SSP2BUF   0x000f66       data     extern E:\3.46\pic18-lt\cxx-framework\src\extended\proc\p18f6622.asm
                 SSP2CON1   0x000f63       data     extern E:\3.46\pic18-lt\cxx-framework\src\extended\proc\p18f6622.asm
             SSP2CON1bits   0x000f63       data     extern E:\3.46\pic18-lt\cxx-framework\src\extended\proc\p18f6622.asm
                 SSP2CON2   0x000f62       data     extern E:\3.46\pic18-lt\cxx-framework\src\extended\proc\p18f6622.asm
             SSP2CON2bits   0x000f62       data     extern E:\3.46\pic18-lt\cxx-framework\src\extended\proc\p18f6622.asm
                 SSP2STAT   0x000f64       data     extern E:\3.46\pic18-lt\cxx-framework\src\extended\proc\p18f6622.asm
             SSP2STATbits   0x000f64       data     extern E:\3.46\pic18-lt\cxx-framework\src\extended\proc\p18f6622.asm
                   SSPADD   0x000fc8       data     extern E:\3.46\pic18-lt\cxx-framework\src\extended\proc\p18f6622.asm
                   SSPBUF   0x000fc9       data     extern E:\3.46\pic18-lt\cxx-framework\src\extended\proc\p18f6622.asm
                  SSPCON1   0x000fc6       data     extern E:\3.46\pic18-lt\cxx-framework\src\extended\proc\p18f6622.asm
              SSPCON1bits   0x000fc6       data     extern E:\3.46\pic18-lt\cxx-framework\src\extended\proc\p18f6622.asm
                  SSPCON2   0x000fc5       data     extern E:\3.46\pic18-lt\cxx-framework\src\extended\proc\p18f6622.asm
              SSPCON2bits   0x000fc5       data     extern E:\3.46\pic18-lt\cxx-framework\src\extended\proc\p18f6622.asm
                  SSPSTAT   0x000fc7       data     extern E:\3.46\pic18-lt\cxx-framework\src\extended\proc\p18f6622.asm
              SSPSTATbits   0x000fc7       data     extern E:\3.46\pic18-lt\cxx-framework\src\extended\proc\p18f6622.asm
                   STATUS   0x000fd8       data     extern E:\3.46\pic18-lt\cxx-framework\src\extended\proc\p18f6622.asm
               STATUSbits   0x000fd8       data     extern E:\3.46\pic18-lt\cxx-framework\src\extended\proc\p18f6622.asm
                     STEP   0x00051b       data     extern Y:\Documents\Openventilator\SRC\DRIVERS_EEPROM\DRV_EEPROM_BAT_Data.h
                STEP_COPY   0x0004f5       data     extern Y:\Documents\Openventilator\SRC\DRIVERS_EEPROM\DRV_EEPROM_BAT_Data.h
                   STKPTR   0x000ffc       data     extern E:\3.46\pic18-lt\cxx-framework\src\extended\proc\p18f6622.asm
               STKPTRbits   0x000ffc       data     extern E:\3.46\pic18-lt\cxx-framework\src\extended\proc\p18f6622.asm
              SUM_BAT_FEM   0x000479       data     extern Y:\Documents\Openventilator\SRC\SYSTEM\SYS_Gauge_Data.h
            SampleAverage   0x0004c3       data     static Y:\Documents\Openventilator\SRC\SAM\SAM_Launch.c
           SampleFiltrage   0x0004bf       data     static Y:\Documents\Openventilator\SRC\SAM\SAM_Launch.c
      SampleFiltrageVACDC   0x0004c1       data     static Y:\Documents\Openventilator\SRC\SAM\SAM_Launch.c
              Sched_table   0x000260       data     extern Y:\Documents\Openventilator\SRC\SCHEDULER\SCHED_entry.c
    Speed_Digit_Fan_Array   0x0004d3       data     extern Y:\Documents\Openventilator\SRC\FAN\FAN_Data.h
                Speed_Fan   0x0004ed       data     extern Y:\Documents\Openventilator\SRC\FAN\FAN_Data.h
         Speed_Fan_Tr_Min   0x0004ef       data     extern Y:\Documents\Openventilator\SRC\FAN\FAN_Data.h
     SpiArrayTransmitData   0x000398       data     extern Y:\Documents\Openventilator\SRC\DRIVERS_SPI\DRV_SPI_ST10_Data.h
   SpiArrayTransmitDataId   0x0003d1       data     extern Y:\Documents\Openventilator\SRC\DRIVERS_SPI\DRV_SPI_ST10_Data.h
       SpiBufferOfReceipt   0x0003c1       data     extern Y:\Documents\Openventilator\SRC\DRIVERS_SPI\DRV_SPI_ST10_Data.h
         SpiEndOfTransmit   0x0003d2       data     extern Y:\Documents\Openventilator\SRC\DRIVERS_SPI\DRV_SPI_ST10_Data.h
           SpiNbBadFrames   0x000519       data     extern Y:\Documents\Openventilator\SRC\DRIVERS_SPI\DRV_SPI_ST10_Data.h
SpiNbBytesWithoutStartFrame   0x000517       data     extern Y:\Documents\Openventilator\SRC\DRIVERS_SPI\DRV_SPI_ST10_Data.h
       SpiPtrReadBufferRx   0x0003cf       data     extern Y:\Documents\Openventilator\SRC\DRIVERS_SPI\DRV_SPI_ST10_Data.h
      SpiPtrWriteBufferRx   0x0003d0       data     extern Y:\Documents\Openventilator\SRC\DRIVERS_SPI\DRV_SPI_ST10_Data.h
   StartDischargeCapacity   0x000528       data     static Y:\Documents\Openventilator\SRC\SYSTEM\SYS_Charge_Discharge_Compute.c
                    State   0x00051a       data     extern Y:\Documents\Openventilator\SRC\DRIVERS_EEPROM\DRV_EEPROM_BAT_Data.h
                    T0CON   0x000fd5       data     extern E:\3.46\pic18-lt\cxx-framework\src\extended\proc\p18f6622.asm
                T0CONbits   0x000fd5       data     extern E:\3.46\pic18-lt\cxx-framework\src\extended\proc\p18f6622.asm
                    T1CON   0x000fcd       data     extern E:\3.46\pic18-lt\cxx-framework\src\extended\proc\p18f6622.asm
                T1CONbits   0x000fcd       data     extern E:\3.46\pic18-lt\cxx-framework\src\extended\proc\p18f6622.asm
                    T2CON   0x000fca       data     extern E:\3.46\pic18-lt\cxx-framework\src\extended\proc\p18f6622.asm
                T2CONbits   0x000fca       data     extern E:\3.46\pic18-lt\cxx-framework\src\extended\proc\p18f6622.asm
                    T3CON   0x000fb1       data     extern E:\3.46\pic18-lt\cxx-framework\src\extended\proc\p18f6622.asm
                T3CONbits   0x000fb1       data     extern E:\3.46\pic18-lt\cxx-framework\src\extended\proc\p18f6622.asm
                    T4CON   0x000f76       data     extern E:\3.46\pic18-lt\cxx-framework\src\extended\proc\p18f6622.asm
                T4CONbits   0x000f76       data     extern E:\3.46\pic18-lt\cxx-framework\src\extended\proc\p18f6622.asm
                   TABLAT   0x000ff5       data     extern E:\3.46\pic18-lt\cxx-framework\src\extended\proc\p18f6622.asm
                   TBLPTR   0x000ff6       data     extern E:\3.46\pic18-lt\cxx-framework\src\extended\proc\p18f6622.asm
                  TBLPTRH   0x000ff7       data     extern E:\3.46\pic18-lt\cxx-framework\src\extended\proc\p18f6622.asm
                  TBLPTRL   0x000ff6       data     extern E:\3.46\pic18-lt\cxx-framework\src\extended\proc\p18f6622.asm
                  TBLPTRU   0x000ff8       data     extern E:\3.46\pic18-lt\cxx-framework\src\extended\proc\p18f6622.asm
 TIM_TableOfCntAndDecnt16   0x000060       data     extern Y:\Documents\Openventilator\SRC\TIMERS\Timer_Data.h
 TIM_TableOfCntAndDecnt32   0x0000d4       data     extern Y:\Documents\Openventilator\SRC\TIMERS\Timer_Data.h
                    TMR0H   0x000fd7       data     extern E:\3.46\pic18-lt\cxx-framework\src\extended\proc\p18f6622.asm
                    TMR0L   0x000fd6       data     extern E:\3.46\pic18-lt\cxx-framework\src\extended\proc\p18f6622.asm
                    TMR1H   0x000fcf       data     extern E:\3.46\pic18-lt\cxx-framework\src\extended\proc\p18f6622.asm
                    TMR1L   0x000fce       data     extern E:\3.46\pic18-lt\cxx-framework\src\extended\proc\p18f6622.asm
                     TMR2   0x000fcc       data     extern E:\3.46\pic18-lt\cxx-framework\src\extended\proc\p18f6622.asm
                    TMR3H   0x000fb3       data     extern E:\3.46\pic18-lt\cxx-framework\src\extended\proc\p18f6622.asm
                    TMR3L   0x000fb2       data     extern E:\3.46\pic18-lt\cxx-framework\src\extended\proc\p18f6622.asm
                     TMR4   0x000f78       data     extern E:\3.46\pic18-lt\cxx-framework\src\extended\proc\p18f6622.asm
                      TOS   0x000ffd       data     extern E:\3.46\pic18-lt\cxx-framework\src\extended\proc\p18f6622.asm
                     TOSH   0x000ffe       data     extern E:\3.46\pic18-lt\cxx-framework\src\extended\proc\p18f6622.asm
                     TOSL   0x000ffd       data     extern E:\3.46\pic18-lt\cxx-framework\src\extended\proc\p18f6622.asm
                     TOSU   0x000fff       data     extern E:\3.46\pic18-lt\cxx-framework\src\extended\proc\p18f6622.asm
                    TRISA   0x000f92       data     extern E:\3.46\pic18-lt\cxx-framework\src\extended\proc\p18f6622.asm
                TRISAbits   0x000f92       data     extern E:\3.46\pic18-lt\cxx-framework\src\extended\proc\p18f6622.asm
                    TRISB   0x000f93       data     extern E:\3.46\pic18-lt\cxx-framework\src\extended\proc\p18f6622.asm
                TRISBbits   0x000f93       data     extern E:\3.46\pic18-lt\cxx-framework\src\extended\proc\p18f6622.asm
                    TRISC   0x000f94       data     extern E:\3.46\pic18-lt\cxx-framework\src\extended\proc\p18f6622.asm
                TRISCbits   0x000f94       data     extern E:\3.46\pic18-lt\cxx-framework\src\extended\proc\p18f6622.asm
                    TRISD   0x000f95       data     extern E:\3.46\pic18-lt\cxx-framework\src\extended\proc\p18f6622.asm
                TRISDbits   0x000f95       data     extern E:\3.46\pic18-lt\cxx-framework\src\extended\proc\p18f6622.asm
                    TRISE   0x000f96       data     extern E:\3.46\pic18-lt\cxx-framework\src\extended\proc\p18f6622.asm
                TRISEbits   0x000f96       data     extern E:\3.46\pic18-lt\cxx-framework\src\extended\proc\p18f6622.asm
                    TRISF   0x000f97       data     extern E:\3.46\pic18-lt\cxx-framework\src\extended\proc\p18f6622.asm
                TRISFbits   0x000f97       data     extern E:\3.46\pic18-lt\cxx-framework\src\extended\proc\p18f6622.asm
                    TRISG   0x000f98       data     extern E:\3.46\pic18-lt\cxx-framework\src\extended\proc\p18f6622.asm
                TRISGbits   0x000f98       data     extern E:\3.46\pic18-lt\cxx-framework\src\extended\proc\p18f6622.asm
                    TXREG   0x000fad       data     extern E:\3.46\pic18-lt\cxx-framework\src\extended\proc\p18f6622.asm
                   TXREG1   0x000fad       data     extern E:\3.46\pic18-lt\cxx-framework\src\extended\proc\p18f6622.asm
                   TXREG2   0x000f6d       data     extern E:\3.46\pic18-lt\cxx-framework\src\extended\proc\p18f6622.asm
                    TXSTA   0x000fac       data     extern E:\3.46\pic18-lt\cxx-framework\src\extended\proc\p18f6622.asm
                   TXSTA1   0x000fac       data     extern E:\3.46\pic18-lt\cxx-framework\src\extended\proc\p18f6622.asm
               TXSTA1bits   0x000fac       data     extern E:\3.46\pic18-lt\cxx-framework\src\extended\proc\p18f6622.asm
                   TXSTA2   0x000f6c       data     extern E:\3.46\pic18-lt\cxx-framework\src\extended\proc\p18f6622.asm
               TXSTA2bits   0x000f6c       data     extern E:\3.46\pic18-lt\cxx-framework\src\extended\proc\p18f6622.asm
                TXSTAbits   0x000fac       data     extern E:\3.46\pic18-lt\cxx-framework\src\extended\proc\p18f6622.asm
     TYPICAL_BAT_CAPACITY   0x00046b       data     extern Y:\Documents\Openventilator\SRC\SYSTEM\SYS_Gauge_Data.h
              Tasks_Table   0x000200       data     extern Y:\Documents\Openventilator\SRC\SCHEDULER\SCHED_entry.c
   TempConvTable_Ambiante   0x000284       data     extern Y:\Documents\Openventilator\SRC\SAM\SAM_Temperature_Conversion.c
   TempConvTable_Batterry   0x0002b4       data     extern Y:\Documents\Openventilator\SRC\SAM\SAM_Temperature_Conversion.c
        TestSchedulerStep   0x000530       data     static Y:\Documents\Openventilator\SRC\MAIN\MAIN_activate_tasks.c
                TimerLock   0x000508       data     static Y:\Documents\Openventilator\SRC\SECURITY\SEC_Alarms.c
              TopTimer5ms   0x000539       data     extern Y:\Documents\Openventilator\SRC\MAIN\Main_Data.h
        VACDC_Can_Samples   0x000100       data     static Y:\Documents\Openventilator\SRC\SAM\SAM_Launch.h
         VBAT_Can_Samples   0x0001b4       data     static Y:\Documents\Openventilator\SRC\SAM\SAM_Launch.h
      VCHARGE_Can_Samples   0x0001dc       data     static Y:\Documents\Openventilator\SRC\SAM\SAM_Launch.h
          VDC_Can_Samples   0x0001a0       data     static Y:\Documents\Openventilator\SRC\SAM\SAM_Launch.h
            VOLTAGE_AT_T1   0x000475       data     extern Y:\Documents\Openventilator\SRC\SYSTEM\SYS_Gauge_Data.h
                   WDTCON   0x000fd1       data     extern E:\3.46\pic18-lt\cxx-framework\src\extended\proc\p18f6622.asm
               WDTCONbits   0x000fd1       data     extern E:\3.46\pic18-lt\cxx-framework\src\extended\proc\p18f6622.asm
                     WREG   0x000fe8       data     extern E:\3.46\pic18-lt\cxx-framework\src\extended\proc\p18f6622.asm
                __RETVAL0   0x0001fc       data     extern E:\3.46\pic18-lt\cxx-framework\src\extended\math\cmath18.asm
                __RETVAL1   0x0001fd       data     extern E:\3.46\pic18-lt\cxx-framework\src\extended\math\cmath18.asm
                __RETVAL2   0x0001fe       data     extern E:\3.46\pic18-lt\cxx-framework\src\extended\math\cmath18.asm
                __RETVAL3   0x0001ff       data     extern E:\3.46\pic18-lt\cxx-framework\src\extended\math\cmath18.asm
                  __tmp_0   0x000430       data     static Y:\Documents\Openventilator\SRC\CHARGE\CHARGE_Loop_Controller.c
                  __tmp_0   0x000430       data     static Y:\Documents\Openventilator\SRC\CHARGE\CHARGE_Launch.c
                  __tmp_0   0x000430       data     static Y:\Documents\Openventilator\SRC\SYSTEM\SYS_Launch.c
                  __tmp_0   0x000430       data     static Y:\Documents\Openventilator\SRC\SWITCH\SWITCH_State_Control.c
                  __tmp_0   0x000430       data     static Y:\Documents\Openventilator\SRC\DRIVERS_RS232\DRV_RS232_TransmitMonit.c
                  __tmp_0   0x000430       data     static Y:\Documents\Openventilator\SRC\DATABASE\DB_PowerSupply_Read.c
                  __tmp_0   0x000430       data     static Y:\Documents\Openventilator\SRC\SECURITY\SEC_Alarms.c
                  __tmp_0   0x000430       data     static Y:\Documents\Openventilator\SRC\SYSTEM\SYS_ImpedanceCompute.c
                  __tmp_0   0x000430       data     static Y:\Documents\Openventilator\SRC\SYSTEM\SYS_Bat_Ageing.c
                  __tmp_0   0x000430       data     static Y:\Documents\Openventilator\SRC\SYSTEM\SYS_Gas_Gauge_Minute.c
                  __tmp_0   0x000430       data     static Y:\Documents\Openventilator\SRC\SYSTEM\SYS_Gas_Gauge_Percent.c
                  __tmp_0   0x000430       data     static Y:\Documents\Openventilator\SRC\TIMERS\TIM_ReadValue16.c
                  __tmp_0   0x000430       data     static Y:\Documents\Openventilator\SRC\DRIVERS_RS232\DRV_RS232_ReadBuffer.c
                  __tmp_0   0x000430       data     static Y:\Documents\Openventilator\SRC\TIMERS\TIM_Launch.c
                  __tmp_0   0x000430       data     static Y:\Documents\Openventilator\SRC\DRIVERS_RS232\DRV_RS232_Launch.c
                  __tmp_0   0x000430       data     static Y:\Documents\Openventilator\SRC\DATABASE\DB_Config_Read.c
                  __tmp_0   0x000430       data     static Y:\Documents\Openventilator\SRC\DATABASE\DB_Measurement_Read.c
                  __tmp_0   0x000430       data     static Y:\Documents\Openventilator\SRC\DATABASE\DB_Control_Read.c
                  __tmp_0   0x000430       data     static Y:\Documents\Openventilator\SRC\SAM\SAM_Temperature_Conversion.c
                  __tmp_0   0x000430       data     static Y:\Documents\Openventilator\SRC\SAM\SAM_Voltage_Conversion.c
                  __tmp_0   0x000430       data     static Y:\Documents\Openventilator\SRC\SAM\SAM_Current_Conversion.c
                  __tmp_0   0x000430       data     static Y:\Documents\Openventilator\SRC\SAM\SAM_Launch.c
                  __tmp_0   0x000430       data     static Y:\Documents\Openventilator\SRC\SCHEDULER\SCHED_entry.c
                  __tmp_0   0x000430       data     static E:\3.46\pic18-lt\cxx-framework\src\extended\stdclib\vfprintf.c
                  __tmp_0   0x000430       data     static Y:\Documents\Openventilator\SRC\SYSTEM\SYS_Voltage_Colapse_Compensation.c
                  __tmp_0   0x000430       data     static Y:\Documents\Openventilator\SRC\SYSTEM\SYS_Voltage_Capacity_Conversion.c
                  __tmp_0   0x000430       data     static Y:\Documents\Openventilator\SRC\LOG\LOG_Print.c
                  __tmp_0   0x000430       data     static Y:\Documents\Openventilator\SRC\FAN\FAN_Acquisition.c
                  __tmp_0   0x000430       data     static Y:\Documents\Openventilator\SRC\FAN\FAN_Loop_Controller.c
                  __tmp_0   0x000430       data     static Y:\Documents\Openventilator\SRC\DRIVERS_EEPROM\DRV_EEPROM_BAT_DifferenceZoneReadWrite.c
                  __tmp_0   0x000430       data     static Y:\Documents\Openventilator\SRC\DRIVERS_EEPROM\DRV_EEPROM_BAT_WriteMemory.c
                  __tmp_0   0x000430       data     static Y:\Documents\Openventilator\SRC\DRIVERS_EEPROM\DRV_EEPROM_BAT_Launch.c
                  __tmp_0   0x000430       data     static Y:\Documents\Openventilator\SRC\CHARGE\CHARGE_Charge.c
                  __tmp_0   0x000430       data     static Y:\Documents\Openventilator\SRC\CHARGE\CHARGE_Init.c
                  __tmp_0   0x000430       data     static Y:\Documents\Openventilator\SRC\FAN\FAN_Sampling.c
                  __tmp_0   0x000430       data     static Y:\Documents\Openventilator\SRC\FAN\FAN_Driving_Launch.c
                  __tmp_0   0x000430       data     static Y:\Documents\Openventilator\SRC\DRIVERS_SPI\DRV_SPI_ST10_Transmit.c
                  __tmp_0   0x000430       data     static Y:\Documents\Openventilator\SRC\DRIVERS_SPI\DRV_SPI_ST10_ReadBuffer.c
                  __tmp_0   0x000430       data     static Y:\Documents\Openventilator\SRC\DRIVERS_SPI\DRV_SPI_ST10_Launch.c
                  __tmp_0   0x000430       data     static Y:\Documents\Openventilator\SRC\SYSTEM\SYS_Charge_Discharge_Compute.c
                  __tmp_0   0x000430       data     static Y:\Documents\Openventilator\SRC\SYSTEM\SYS_Led_Management.c
                  __tmp_0   0x000430       data     static Y:\Documents\Openventilator\SRC\SECURITY\SEC_UnknownBattery.c
                  __tmp_0   0x000430       data     static Y:\Documents\Openventilator\SRC\SECURITY\SEC_24V_Failure.c
                  __tmp_0   0x000430       data     static Y:\Documents\Openventilator\SRC\SECURITY\SEC_Abnormal_IBat.c
                  __tmp_0   0x000430       data     static Y:\Documents\Openventilator\SRC\SECURITY\SEC_Bat_Opened.c
                  __tmp_0   0x000430       data     static Y:\Documents\Openventilator\SRC\SECURITY\SEC_Charge_Discharge_Fail.c
                  __tmp_0   0x000430       data     static Y:\Documents\Openventilator\SRC\SECURITY\SEC_Charge_Fail.c
                  __tmp_0   0x000430       data     static Y:\Documents\Openventilator\SRC\SECURITY\SEC_CoolingFan_Fail.c
                  __tmp_0   0x000430       data     static Y:\Documents\Openventilator\SRC\SECURITY\SEC_Measure_VACDC_Fail.c
                  __tmp_0   0x000430       data     static Y:\Documents\Openventilator\SRC\SECURITY\SEC_Measures_Out_Of_Bounds.c
                  __tmp_0   0x000430       data     static Y:\Documents\Openventilator\SRC\SECURITY\SEC_No_Battery.c
                  __tmp_0   0x000430       data     static Y:\Documents\Openventilator\SRC\SECURITY\SEC_5V_Fail.c
                curr_byte   0x0004cc       data     static Y:\Documents\Openventilator\SRC\ALIM\STARTUP_Alim_Legendair_Phase_II.c
               curr_entry   0x0004ce       data     static Y:\Documents\Openventilator\SRC\ALIM\STARTUP_Alim_Legendair_Phase_II.c
                 data_ptr   0x0004d0       data     static Y:\Documents\Openventilator\SRC\ALIM\STARTUP_Alim_Legendair_Phase_II.c
  print_activated_modules   0x00050c       data     static Y:\Documents\Openventilator\SRC\LOG\LOG_Print.c
      print_current_level   0x000510       data     static Y:\Documents\Openventilator\SRC\LOG\LOG_Print.c
                     prom   0x0004c9       data     static Y:\Documents\Openventilator\SRC\ALIM\STARTUP_Alim_Legendair_Phase_II.c
        sched_step_number   0x000281       data     extern Y:\Documents\Openventilator\SRC\SCHEDULER\SCHED_entry.c
              tblptru_sav   0x000536       data     static E:\3.46\pic18-lt\cxx-framework\src\extended\stdclib\mcpyp2r.asm



                              Symbols - Sorted by Address
                     Name    Address   Location    Storage File                     
                ---------  ---------  ---------  --------- ---------                
                    VIntH   0x000008    program     static Y:\Documents\Openventilator\SRC\ALIM\bootload.asm
                    VIntL   0x000018    program     static Y:\Documents\Openventilator\SRC\ALIM\bootload.asm
                    Setup   0x00001c    program     static Y:\Documents\Openventilator\SRC\ALIM\bootload.asm
                 Autobaud   0x000046    program     static Y:\Documents\Openventilator\SRC\ALIM\bootload.asm
            ExecutionMode   0x000058    program     static Y:\Documents\Openventilator\SRC\ALIM\bootload.asm
              StartOfLine   0x000066    program     static Y:\Documents\Openventilator\SRC\ALIM\bootload.asm
               GetNextDat   0x000074    program     static Y:\Documents\Openventilator\SRC\ALIM\bootload.asm
                    NoSTX   0x00007a    program     static Y:\Documents\Openventilator\SRC\ALIM\bootload.asm
                    NoETX   0x000080    program     static Y:\Documents\Openventilator\SRC\ALIM\bootload.asm
                    NoDLE   0x000088    program     static Y:\Documents\Openventilator\SRC\ALIM\bootload.asm
                 CheckSum   0x000094    program     static Y:\Documents\Openventilator\SRC\ALIM\bootload.asm
             CheckCommand   0x0000b4    program     static Y:\Documents\Openventilator\SRC\ALIM\bootload.asm
              ReadVersion   0x0000d6    program     static Y:\Documents\Openventilator\SRC\ALIM\bootload.asm
              ReadProgMem   0x0000e2    program     static Y:\Documents\Openventilator\SRC\ALIM\bootload.asm
             WriteProgMem   0x0000f2    program     static Y:\Documents\Openventilator\SRC\ALIM\bootload.asm
                      Lp1   0x0000f8    program     static Y:\Documents\Openventilator\SRC\ALIM\bootload.asm
             EraseProgMem   0x000112    program     static Y:\Documents\Openventilator\SRC\ALIM\bootload.asm
                   ReadEE   0x000128    program     static Y:\Documents\Openventilator\SRC\ALIM\bootload.asm
                  WriteEE   0x00013e    program     static Y:\Documents\Openventilator\SRC\ALIM\bootload.asm
             _.org_2_014A   0x00014a    program     static Y:\Documents\Openventilator\SRC\ALIM\bootload.asm
              WriteConfig   0x000156    program     static Y:\Documents\Openventilator\SRC\ALIM\bootload.asm
                 ResetPic   0x00016a    program     static Y:\Documents\Openventilator\SRC\ALIM\bootload.asm
          SendAcknowledge   0x00016c    program     static Y:\Documents\Openventilator\SRC\ALIM\bootload.asm
              WritePacket   0x00016e    program     static Y:\Documents\Openventilator\SRC\ALIM\bootload.asm
                 SendNext   0x00017c    program     static Y:\Documents\Openventilator\SRC\ALIM\bootload.asm
                   WrData   0x000192    program     static Y:\Documents\Openventilator\SRC\ALIM\bootload.asm
                    WrDLE   0x0001a4    program     static Y:\Documents\Openventilator\SRC\ALIM\bootload.asm
                   WrNext   0x0001a8    program     static Y:\Documents\Openventilator\SRC\ALIM\bootload.asm
                  WrRS232   0x0001aa    program     static Y:\Documents\Openventilator\SRC\ALIM\bootload.asm
             _.org_2_01AE   0x0001ae    program     static Y:\Documents\Openventilator\SRC\ALIM\bootload.asm
                  RdRS232   0x0001b4    program     static Y:\Documents\Openventilator\SRC\ALIM\bootload.asm
             _.org_2_01BC   0x0001bc    program     static Y:\Documents\Openventilator\SRC\ALIM\bootload.asm
               StartWrite   0x0001c4    program     static Y:\Documents\Openventilator\SRC\ALIM\bootload.asm
              WaitForRise   0x0001d4    program     static Y:\Documents\Openventilator\SRC\ALIM\bootload.asm
                     WtSR   0x0001de    program     static Y:\Documents\Openventilator\SRC\ALIM\bootload.asm
              ReloadTimer   0x0001e8    program     static Y:\Documents\Openventilator\SRC\ALIM\bootload.asm
                  RVReset   0x000800    program     static Y:\Documents\Openventilator\SRC\ALIM\bootload.asm
                   _entry   0x000800    program     extern Y:\Documents\Openventilator\SRC\ALIM\STARTUP_Alim_Legendair_Phase_II.c
       ___return_lbl00000   0x000804    program     static                          
                   RVIntH   0x000808    program     static Y:\Documents\Openventilator\SRC\ALIM\bootload.asm
    HIGH_INTERRUPT_VECTOR   0x000808    program     extern Y:\Documents\Openventilator\SRC\INTERRUPTS\INTERRUPT_Init.c
       ___return_lbl00000   0x00080c    program     static                          
     LOW_INTERRUPT_VECTOR   0x000818    program     extern Y:\Documents\Openventilator\SRC\INTERRUPTS\INTERRUPT_Init.c
                   RVIntL   0x000818    program     static Y:\Documents\Openventilator\SRC\ALIM\bootload.asm
       ___return_lbl00001   0x00081c    program     static                          
           SYS_Bat_Ageing   0x000988    program     extern Y:\Documents\Openventilator\SRC\SYSTEM\SYS_Bat_Ageing.c
              __tmplbl_19   0x001a2a    program     static                          
              __tmplbl_18   0x001a2a    program     static                          
              __tmplbl_15   0x001a2a    program     static                          
               SAM_Launch   0x001a32    program     extern Y:\Documents\Openventilator\SRC\SAM\SAM_Launch.c
SYS_Voltage_Capacity_Conversion   0x002482    program     extern Y:\Documents\Openventilator\SRC\SYSTEM\SYS_Voltage_Capacity_Conversion.c
            s_put_n_chars   0x002eb2    program     static E:\3.46\pic18-lt\cxx-framework\src\extended\stdclib\vfprintf.c
                 vfprintf   0x002ee4    program     extern E:\3.46\pic18-lt\cxx-framework\src\extended\stdclib\vfprintf.c
                   __pa_0   0x003574    program     static E:\3.46\pic18-lt\cxx-framework\src\extended\stdclib\vfprintf.c
                   __pa_1   0x003582    program     static E:\3.46\pic18-lt\cxx-framework\src\extended\stdclib\vfprintf.c
                   __pa_2   0x003592    program     static E:\3.46\pic18-lt\cxx-framework\src\extended\stdclib\vfprintf.c
                   __pa_3   0x00359e    program     static E:\3.46\pic18-lt\cxx-framework\src\extended\stdclib\vfprintf.c
                   __pa_4   0x0035b2    program     static E:\3.46\pic18-lt\cxx-framework\src\extended\stdclib\vfprintf.c
                   __pa_5   0x0035c4    program     static E:\3.46\pic18-lt\cxx-framework\src\extended\stdclib\vfprintf.c
                   __pa_6   0x0035d4    program     static E:\3.46\pic18-lt\cxx-framework\src\extended\stdclib\vfprintf.c
                   __pa_7   0x0035e6    program     static E:\3.46\pic18-lt\cxx-framework\src\extended\stdclib\vfprintf.c
                   __pa_8   0x0035f2    program     static E:\3.46\pic18-lt\cxx-framework\src\extended\stdclib\vfprintf.c
                   __pa_9   0x003604    program     static E:\3.46\pic18-lt\cxx-framework\src\extended\stdclib\vfprintf.c
                  __pa_10   0x003610    program     static E:\3.46\pic18-lt\cxx-framework\src\extended\stdclib\vfprintf.c
                  __pa_11   0x003620    program     static E:\3.46\pic18-lt\cxx-framework\src\extended\stdclib\vfprintf.c
                  __pa_12   0x003630    program     static E:\3.46\pic18-lt\cxx-framework\src\extended\stdclib\vfprintf.c
                  __pa_13   0x00363e    program     static E:\3.46\pic18-lt\cxx-framework\src\extended\stdclib\vfprintf.c
                  __pa_14   0x00365c    program     static E:\3.46\pic18-lt\cxx-framework\src\extended\stdclib\vfprintf.c
                  __pa_15   0x003666    program     static E:\3.46\pic18-lt\cxx-framework\src\extended\stdclib\vfprintf.c
                  __pa_16   0x00366c    program     static E:\3.46\pic18-lt\cxx-framework\src\extended\stdclib\vfprintf.c
                  __pa_17   0x00367c    program     static E:\3.46\pic18-lt\cxx-framework\src\extended\stdclib\vfprintf.c
                  __pa_18   0x003688    program     static E:\3.46\pic18-lt\cxx-framework\src\extended\stdclib\vfprintf.c
                  __pa_19   0x003696    program     static E:\3.46\pic18-lt\cxx-framework\src\extended\stdclib\vfprintf.c
                  __pa_20   0x0036a0    program     static E:\3.46\pic18-lt\cxx-framework\src\extended\stdclib\vfprintf.c
                  __pa_21   0x0036aa    program     static E:\3.46\pic18-lt\cxx-framework\src\extended\stdclib\vfprintf.c
                  __pa_22   0x0036b4    program     static E:\3.46\pic18-lt\cxx-framework\src\extended\stdclib\vfprintf.c
                  __pa_23   0x0036c2    program     static E:\3.46\pic18-lt\cxx-framework\src\extended\stdclib\vfprintf.c
     DRV_RS232_ReadBuffer   0x0036c8    program     extern Y:\Documents\Openventilator\SRC\DRIVERS_RS232\DRV_RS232_ReadBuffer.c
           ___if_lbl00001   0x0036fe    program     static                          
        ___while_lbl00002   0x0036fe    program     static                          
               __tmplbl_1   0x003712    program     static                          
               __tmplbl_0   0x00371c    program     static                          
        ___while_lbl00003   0x003734    program     static                          
          ___for_lbl00007   0x003766    program     static                          
          ___for_lbl00005   0x003792    program     static                          
          ___for_lbl00006   0x0037a6    program     static                          
               __tmplbl_5   0x0037d0    program     static                          
               __tmplbl_4   0x0037f6    program     static                          
               __tmplbl_3   0x003818    program     static                          
               __tmplbl_2   0x00383c    program     static                          
      ___case_85_lbl00012   0x0038c6    program     static                          
      ___case_86_lbl00013   0x0038e2    program     static                          
      ___case_88_lbl00016   0x0038ea    program     static                          
         ___else_lbl00015   0x003936    program     static                          
           ___if_lbl00014   0x003946    program     static                          
      ___case_16_lbl00018   0x00395a    program     static                          
           ___if_lbl00017   0x00398e    program     static                          
      ___case_17_lbl00020   0x003990    program     static                          
           ___if_lbl00019   0x0039c4    program     static                          
      ___case_18_lbl00022   0x0039c6    program     static                          
           ___if_lbl00021   0x0039fa    program     static                          
      ___case_19_lbl00024   0x0039fc    program     static                          
           ___if_lbl00023   0x003a30    program     static                          
      ___case_20_lbl00026   0x003a32    program     static                          
           ___if_lbl00025   0x003a66    program     static                          
      ___case_21_lbl00028   0x003a68    program     static                          
           ___if_lbl00027   0x003a9c    program     static                          
      ___case_22_lbl00030   0x003a9e    program     static                          
           ___if_lbl00029   0x003ad2    program     static                          
      ___case_23_lbl00032   0x003ad4    program     static                          
           ___if_lbl00031   0x003b08    program     static                          
      ___case_24_lbl00034   0x003b0a    program     static                          
           ___if_lbl00033   0x003b3e    program     static                          
      ___case_32_lbl00036   0x003b40    program     static                          
           ___if_lbl00035   0x003b74    program     static                          
      ___case_34_lbl00038   0x003b76    program     static                          
           ___if_lbl00037   0x003ba4    program     static                          
      ___case_33_lbl00040   0x003ba6    program     static                          
           ___if_lbl00039   0x003bda    program     static                          
      ___case_35_lbl00042   0x003bdc    program     static                          
           ___if_lbl00041   0x003c12    program     static                          
      ___case_36_lbl00044   0x003c14    program     static                          
           ___if_lbl00043   0x003c4c    program     static                          
      ___case_39_lbl00047   0x003c4e    program     static                          
               __tmplbl_7   0x003c72    program     static                          
               __tmplbl_6   0x003c96    program     static                          
           ___if_lbl00046   0x003c98    program     static                          
      ___default_lbl00048   0x003c9a    program     static                          
   ___switchexit_lbl00011   0x003c9c    program     static                          
         ___else_lbl00050   0x003cb6    program     static                          
           ___if_lbl00051   0x003ccc    program     static                          
       ___return_lbl00000   0x003ccc    program     static                          
           ___if_lbl00049   0x003ccc    program     static                          
                 SETUPSTK   0x003cd4    program     static E:\3.46\pic18-lt\cxx-framework\src\extended\math\div16s.asm
                 __div16s   0x003cec    program     extern E:\3.46\pic18-lt\cxx-framework\src\extended\math\div16s.asm
                 __mod16s   0x003cf2    program     extern E:\3.46\pic18-lt\cxx-framework\src\extended\math\div16s.asm
                  SETSIGN   0x003cf4    program     static E:\3.46\pic18-lt\cxx-framework\src\extended\math\div16s.asm
                  DA1616S   0x003d06    program     static E:\3.46\pic18-lt\cxx-framework\src\extended\math\div16s.asm
                   D1616S   0x003d16    program     static E:\3.46\pic18-lt\cxx-framework\src\extended\math\div16s.asm
                 D1616SOK   0x003d20    program     static E:\3.46\pic18-lt\cxx-framework\src\extended\math\div16s.asm
                D1616SNEG   0x003d24    program     static E:\3.46\pic18-lt\cxx-framework\src\extended\math\div16s.asm
                D1616SPOS   0x003d34    program     static E:\3.46\pic18-lt\cxx-framework\src\extended\math\div16s.asm
              RETQUOTIENT   0x003d44    program     static E:\3.46\pic18-lt\cxx-framework\src\extended\math\div16s.asm
                  RESTORE   0x003d4c    program     static E:\3.46\pic18-lt\cxx-framework\src\extended\math\div16s.asm
                  D1616SX   0x003d5a    program     static E:\3.46\pic18-lt\cxx-framework\src\extended\math\div16s.asm
                 SETUPSTK   0x003d64    program     static E:\3.46\pic18-lt\cxx-framework\src\extended\math\div16u.asm
                 __div16u   0x003d7c    program     extern E:\3.46\pic18-lt\cxx-framework\src\extended\math\div16u.asm
                 __mod16u   0x003d82    program     extern E:\3.46\pic18-lt\cxx-framework\src\extended\math\div16u.asm
            _early16uexit   0x003d86    program     extern E:\3.46\pic18-lt\cxx-framework\src\extended\math\div16u.asm
                divmod16u   0x003d88    program     static E:\3.46\pic18-lt\cxx-framework\src\extended\math\div16u.asm
                     loop   0x003d92    program     static E:\3.46\pic18-lt\cxx-framework\src\extended\math\div16u.asm
                  endloop   0x003dae    program     static E:\3.46\pic18-lt\cxx-framework\src\extended\math\div16u.asm
              RETQUOTIENT   0x003dc6    program     static E:\3.46\pic18-lt\cxx-framework\src\extended\math\div16u.asm
                  RESTORE   0x003dce    program     static E:\3.46\pic18-lt\cxx-framework\src\extended\math\div16u.asm
                 SETUPSTK   0x003ddc    program     static E:\3.46\pic18-lt\cxx-framework\src\extended\math\div24s.asm
                 __div24s   0x003df4    program     extern E:\3.46\pic18-lt\cxx-framework\src\extended\math\div24s.asm
                 __mod24s   0x003dfa    program     extern E:\3.46\pic18-lt\cxx-framework\src\extended\math\div24s.asm
                  SETSIGN   0x003dfc    program     static E:\3.46\pic18-lt\cxx-framework\src\extended\math\div24s.asm
                  DA2424S   0x003e12    program     static E:\3.46\pic18-lt\cxx-framework\src\extended\math\div24s.asm
                   D2424S   0x003e26    program     static E:\3.46\pic18-lt\cxx-framework\src\extended\math\div24s.asm
                 D2424SOK   0x003e30    program     static E:\3.46\pic18-lt\cxx-framework\src\extended\math\div24s.asm
                D2424SNEG   0x003e34    program     static E:\3.46\pic18-lt\cxx-framework\src\extended\math\div24s.asm
                D2424SPOS   0x003e4a    program     static E:\3.46\pic18-lt\cxx-framework\src\extended\math\div24s.asm
              RETQUOTIENT   0x003e5e    program     static E:\3.46\pic18-lt\cxx-framework\src\extended\math\div24s.asm
                  RESTORE   0x003e6a    program     static E:\3.46\pic18-lt\cxx-framework\src\extended\math\div24s.asm
                  D2424SX   0x003e78    program     static E:\3.46\pic18-lt\cxx-framework\src\extended\math\div24s.asm
                 SETUPSTK   0x003e82    program     static E:\3.46\pic18-lt\cxx-framework\src\extended\math\div32s.asm
                 __div32s   0x003e9a    program     extern E:\3.46\pic18-lt\cxx-framework\src\extended\math\div32s.asm
                 __mod32s   0x003ea0    program     extern E:\3.46\pic18-lt\cxx-framework\src\extended\math\div32s.asm
                  SETSIGN   0x003ea2    program     static E:\3.46\pic18-lt\cxx-framework\src\extended\math\div32s.asm
                  DA3232S   0x003ebc    program     static E:\3.46\pic18-lt\cxx-framework\src\extended\math\div32s.asm
                   D3232S   0x003ed2    program     static E:\3.46\pic18-lt\cxx-framework\src\extended\math\div32s.asm
                 D3232SOK   0x003edc    program     static E:\3.46\pic18-lt\cxx-framework\src\extended\math\div32s.asm
                D3232SNEG   0x003ee0    program     static E:\3.46\pic18-lt\cxx-framework\src\extended\math\div32s.asm
                D3232SPOS   0x003efe    program     static E:\3.46\pic18-lt\cxx-framework\src\extended\math\div32s.asm
              RETQUOTIENT   0x003f16    program     static E:\3.46\pic18-lt\cxx-framework\src\extended\math\div32s.asm
                  RESTORE   0x003f26    program     static E:\3.46\pic18-lt\cxx-framework\src\extended\math\div32s.asm
                  D3232SX   0x003f34    program     static E:\3.46\pic18-lt\cxx-framework\src\extended\math\div32s.asm
                 SETUPSTK   0x003f3e    program     static E:\3.46\pic18-lt\cxx-framework\src\extended\math\div32u.asm
                 __div32u   0x003f56    program     extern E:\3.46\pic18-lt\cxx-framework\src\extended\math\div32u.asm
                 __mod32u   0x003f5c    program     extern E:\3.46\pic18-lt\cxx-framework\src\extended\math\div32u.asm
            _early32uexit   0x003f60    program     extern E:\3.46\pic18-lt\cxx-framework\src\extended\math\div32u.asm
                divmod32u   0x003f62    program     static E:\3.46\pic18-lt\cxx-framework\src\extended\math\div32u.asm
                     loop   0x003f70    program     static E:\3.46\pic18-lt\cxx-framework\src\extended\math\div32u.asm
                   _false   0x003fa4    program     static E:\3.46\pic18-lt\cxx-framework\src\extended\math\div32u.asm
              RETQUOTIENT   0x003fc4    program     static E:\3.46\pic18-lt\cxx-framework\src\extended\math\div32u.asm
                  RESTORE   0x003fd4    program     static E:\3.46\pic18-lt\cxx-framework\src\extended\math\div32u.asm
                 SETUPSTK   0x003fe2    program     static E:\3.46\pic18-lt\cxx-framework\src\extended\math\div08u.asm
                 __div08u   0x003ffa    program     extern E:\3.46\pic18-lt\cxx-framework\src\extended\math\div08u.asm
                 __mod08u   0x004000    program     extern E:\3.46\pic18-lt\cxx-framework\src\extended\math\div08u.asm
            _early08uexit   0x004004    program     extern E:\3.46\pic18-lt\cxx-framework\src\extended\math\div08u.asm
                divmod08u   0x004006    program     static E:\3.46\pic18-lt\cxx-framework\src\extended\math\div08u.asm
                     loop   0x00400e    program     static E:\3.46\pic18-lt\cxx-framework\src\extended\math\div08u.asm
                  endloop   0x00401c    program     static E:\3.46\pic18-lt\cxx-framework\src\extended\math\div08u.asm
                  RESTORE   0x004024    program     static E:\3.46\pic18-lt\cxx-framework\src\extended\math\div08u.asm
                  __mul16   0x00403e    program     extern E:\3.46\pic18-lt\cxx-framework\src\extended\math\mul16.asm
                  __mul24   0x0040a6    program     extern E:\3.46\pic18-lt\cxx-framework\src\extended\math\mul24.asm
                  __mul32   0x004166    program     extern E:\3.46\pic18-lt\cxx-framework\src\extended\math\mul32.asm
                 SETUPSTK   0x004208    program     static E:\3.46\pic18-lt\cxx-framework\src\extended\math\div24u.asm
                 __div24u   0x004220    program     extern E:\3.46\pic18-lt\cxx-framework\src\extended\math\div24u.asm
                 __mod24u   0x004226    program     extern E:\3.46\pic18-lt\cxx-framework\src\extended\math\div24u.asm
            _early24uexit   0x00422a    program     extern E:\3.46\pic18-lt\cxx-framework\src\extended\math\div24u.asm
                divmod24u   0x00422c    program     static E:\3.46\pic18-lt\cxx-framework\src\extended\math\div24u.asm
                     loop   0x004238    program     static E:\3.46\pic18-lt\cxx-framework\src\extended\math\div24u.asm
                   _false   0x004260    program     static E:\3.46\pic18-lt\cxx-framework\src\extended\math\div24u.asm
              RETQUOTIENT   0x00427c    program     static E:\3.46\pic18-lt\cxx-framework\src\extended\math\div24u.asm
                  RESTORE   0x004288    program     static E:\3.46\pic18-lt\cxx-framework\src\extended\math\div24u.asm
               SYS_Launch   0x004296    program     extern Y:\Documents\Openventilator\SRC\SYSTEM\SYS_Launch.c
DRV_EEPROM_BAT_WriteMemory   0x00479a    program     extern Y:\Documents\Openventilator\SRC\DRIVERS_EEPROM\DRV_EEPROM_BAT_WriteMemory.c
    SYS_Gas_Gauge_Percent   0x004c86    program     extern Y:\Documents\Openventilator\SRC\SYSTEM\SYS_Gas_Gauge_Percent.c
            CHARGE_Launch   0x0050e2    program     extern Y:\Documents\Openventilator\SRC\CHARGE\CHARGE_Launch.c
     SYS_ImpedanceCompute   0x00551c    program     extern Y:\Documents\Openventilator\SRC\SYSTEM\SYS_ImpedanceCompute.c
      FAN_Loop_Controller   0x0058c8    program     extern Y:\Documents\Openventilator\SRC\FAN\FAN_Loop_Controller.c
SAM_Temperature_Conversion   0x005c72    program     extern Y:\Documents\Openventilator\SRC\SAM\SAM_Temperature_Conversion.c
   SAM_Voltage_Conversion   0x006012    program     extern Y:\Documents\Openventilator\SRC\SAM\SAM_Voltage_Conversion.c
       FAN_Driving_Launch   0x00638e    program     extern Y:\Documents\Openventilator\SRC\FAN\FAN_Driving_Launch.c
     SWITCH_State_Control   0x00669e    program     extern Y:\Documents\Openventilator\SRC\SWITCH\SWITCH_State_Control.c
               SEC_Alarms   0x00699c    program     extern Y:\Documents\Openventilator\SRC\SECURITY\SEC_Alarms.c
  DRV_RS232_TransmitMonit   0x006c2e    program     extern Y:\Documents\Openventilator\SRC\DRIVERS_RS232\DRV_RS232_TransmitMonit.c
DRV_EEPROM_BAT_INIT_NEW_BATTERY   0x006ec0    program     extern Y:\Documents\Openventilator\SRC\DRIVERS_EEPROM\DRV_EEPROM_BAT_InitNewBattery.c
  DRV_SPI_ST10_ReadBuffer   0x007140    program     extern Y:\Documents\Openventilator\SRC\DRIVERS_SPI\DRV_SPI_ST10_ReadBuffer.c
   CHARGE_Loop_Controller   0x0073be    program     extern Y:\Documents\Openventilator\SRC\CHARGE\CHARGE_Loop_Controller.c
    DRV_SPI_ST10_Transmit   0x0075de    program     extern Y:\Documents\Openventilator\SRC\DRIVERS_SPI\DRV_SPI_ST10_Transmit.c
               TIM_Launch   0x0077f8    program     extern Y:\Documents\Openventilator\SRC\TIMERS\TIM_Launch.c
   INTERRUPT_HighPriority   0x007a0e    program     extern Y:\Documents\Openventilator\SRC\INTERRUPTS\INTERRUPT_HighPriority.c
            CHARGE_Charge   0x007c20    program     extern Y:\Documents\Openventilator\SRC\CHARGE\CHARGE_Charge.c
              CRC16_Table   0x007e2e    program     extern Y:\Documents\Openventilator\SRC\DRIVERS_EEPROM\DRV_EEPROM_BAT_Data.h
     SYS_Gas_Gauge_Minute   0x00802e    program     extern Y:\Documents\Openventilator\SRC\SYSTEM\SYS_Gas_Gauge_Minute.c
       SYS_Led_Management   0x008228    program     extern Y:\Documents\Openventilator\SRC\SYSTEM\SYS_Led_Management.c
          FAN_Acquisition   0x008414    program     extern Y:\Documents\Openventilator\SRC\FAN\FAN_Acquisition.c
              CHARGE_Init   0x0085de    program     extern Y:\Documents\Openventilator\SRC\CHARGE\CHARGE_Init.c
                INIT_Leds   0x00879e    program     extern Y:\Documents\Openventilator\SRC\INIT\INIT_Leds.c
          ___for_lbl00005   0x0087ba    program     static                          
        ___while_lbl00003   0x0087ce    program     static                          
        ___while_lbl00004   0x0087d2    program     static                          
          ___for_lbl00001   0x0087d2    program     static                          
          ___for_lbl00002   0x0087da    program     static                          
          ___for_lbl00012   0x0087de    program     static                          
        ___while_lbl00008   0x0087f0    program     static                          
        ___while_lbl00009   0x0087f4    program     static                          
        ___while_lbl00010   0x008804    program     static                          
        ___while_lbl00011   0x008808    program     static                          
          ___for_lbl00006   0x008810    program     static                          
          ___for_lbl00007   0x008818    program     static                          
         ___else_lbl00014   0x008846    program     static                          
           ___if_lbl00013   0x00884a    program     static                          
         ___else_lbl00016   0x008878    program     static                          
           ___if_lbl00015   0x00887c    program     static                          
               __tmplbl_1   0x008886    program     static                          
               __tmplbl_0   0x00888c    program     static                          
          ___for_lbl00025   0x008896    program     static                          
           ___if_lbl00020   0x0088ae    program     static                          
        ___while_lbl00021   0x0088b6    program     static                          
        ___while_lbl00022   0x0088ba    program     static                          
        ___while_lbl00023   0x0088c6    program     static                          
          ___for_lbl00018   0x0088ca    program     static                          
        ___while_lbl00024   0x0088ca    program     static                          
          ___for_lbl00019   0x0088d2    program     static                          
         ___else_lbl00035   0x0088da    program     static                          
               __tmplbl_3   0x0088e4    program     static                          
               __tmplbl_2   0x0088ee    program     static                          
          ___for_lbl00031   0x0088f8    program     static                          
        ___while_lbl00029   0x00890c    program     static                          
        ___while_lbl00030   0x008910    program     static                          
          ___for_lbl00027   0x008910    program     static                          
          ___for_lbl00028   0x008918    program     static                          
       ___return_lbl00000   0x008920    program     static                          
         ___else_lbl00033   0x008920    program     static                          
           ___if_lbl00034   0x008920    program     static                          
           ___if_lbl00032   0x008920    program     static                          
SEC_Charge_Discharge_Fail   0x008928    program     extern Y:\Documents\Openventilator\SRC\SECURITY\SEC_Charge_Discharge_Fail.c
      SEC_CoolingFan_Fail   0x008aac    program     extern Y:\Documents\Openventilator\SRC\SECURITY\SEC_CoolingFan_Fail.c
          SEC_Charge_Fail   0x008bfc    program     extern Y:\Documents\Openventilator\SRC\SECURITY\SEC_Charge_Fail.c
        SEC_Abnormal_IBat   0x008d4a    program     extern Y:\Documents\Openventilator\SRC\SECURITY\SEC_Abnormal_IBat.c
    DRV_EEPROM_BAT_Launch   0x008e92    program     extern Y:\Documents\Openventilator\SRC\DRIVERS_EEPROM\DRV_EEPROM_BAT_Launch.c
SYS_Charge_Discharge_Compute   0x008fd2    program     extern Y:\Documents\Openventilator\SRC\SYSTEM\SYS_Charge_Discharge_Compute.c
DRV_EEPROM_BAT_ReadMemory   0x0090fc    program     extern Y:\Documents\Openventilator\SRC\DRIVERS_EEPROM\DRV_EEPROM_BAT_ReadMemory.c
                LOG_Print   0x00921c    program     extern Y:\Documents\Openventilator\SRC\LOG\LOG_Print.c
           ___if_lbl00001   0x0092a4    program     static                          
           ___if_lbl00002   0x0092a4    program     static                          
       ___return_lbl00000   0x0092a6    program     static                          
           LOG_Print_Init   0x0092ae    program     extern Y:\Documents\Openventilator\SRC\LOG\LOG_Print.c
LOG_Print_Set_Activated_Modules   0x0092ca    program     extern Y:\Documents\Openventilator\SRC\LOG\LOG_Print.c
      LOG_Print_Set_level   0x0092ec    program     extern Y:\Documents\Openventilator\SRC\LOG\LOG_Print.c
               _user_putc   0x009306    program     extern Y:\Documents\Openventilator\SRC\LOG\LOG_Print.c
            init_hardware   0x009322    program     static Y:\Documents\Openventilator\SRC\LOG\LOG_Print.c
             SEC_24V_Fail   0x009334    program     extern Y:\Documents\Openventilator\SRC\SECURITY\SEC_24V_Failure.c
               DRV_Switch   0x009448    program     extern Y:\Documents\Openventilator\SRC\SWITCH\DRV_Switch.c
           SEC_Bat_Opened   0x00955a    program     extern Y:\Documents\Openventilator\SRC\SECURITY\SEC_Bat_Opened.c
          SEC_low_Battery   0x009662    program     extern Y:\Documents\Openventilator\SRC\SECURITY\SEC_low_Battery.c
  CAN_Channel_Acquisition   0x009760    program     extern Y:\Documents\Openventilator\SRC\CAN\CAN_Channel_Acquisition.c
SYS_Voltage_Colapse_Compensation   0x00985c    program     extern Y:\Documents\Openventilator\SRC\SYSTEM\SYS_Voltage_Colapse_Compensation.c
  SWITCH_Supply_Detection   0x009950    program     extern Y:\Documents\Openventilator\SRC\SWITCH\SWITCH_Supply_Detection.c
   SAM_Current_Conversion   0x009a40    program     extern Y:\Documents\Openventilator\SRC\SAM\SAM_Current_Conversion.c
         DRV_RS232_Launch   0x009b2a    program     extern Y:\Documents\Openventilator\SRC\DRIVERS_RS232\DRV_RS232_Launch.c
   SEC_Measure_VACDC_Fail   0x009c10    program     extern Y:\Documents\Openventilator\SRC\SECURITY\SEC_Measure_VACDC_Fail.c
   INIT_EEPROM_BAT_Driver   0x009cf0    program     extern Y:\Documents\Openventilator\SRC\INIT\INIT_EEPROM_BAT_Driver.c
        ___while_lbl00001   0x009d0c    program     static                          
        ___while_lbl00002   0x009d10    program     static                          
        ___while_lbl00003   0x009d1e    program     static                          
        ___while_lbl00004   0x009d22    program     static                          
        ___while_lbl00005   0x009d38    program     static                          
               __tmplbl_1   0x009d3e    program     static                          
               __tmplbl_0   0x009d44    program     static                          
        ___while_lbl00006   0x009d46    program     static                          
        ___while_lbl00008   0x009d58    program     static                          
               __tmplbl_3   0x009d5e    program     static                          
               __tmplbl_2   0x009d64    program     static                          
        ___while_lbl00009   0x009d66    program     static                          
        ___while_lbl00011   0x009d78    program     static                          
               __tmplbl_5   0x009d7e    program     static                          
               __tmplbl_4   0x009d84    program     static                          
        ___while_lbl00012   0x009d86    program     static                          
        ___while_lbl00014   0x009d98    program     static                          
               __tmplbl_7   0x009d9e    program     static                          
               __tmplbl_6   0x009da4    program     static                          
        ___while_lbl00015   0x009da6    program     static                          
        ___while_lbl00017   0x009db8    program     static                          
               __tmplbl_9   0x009dbe    program     static                          
               __tmplbl_8   0x009dc4    program     static                          
        ___while_lbl00018   0x009dc6    program     static                          
       ___return_lbl00000   0x009dcc    program     static                          
       SEC_End_Of_Battery   0x009dce    program     extern Y:\Documents\Openventilator\SRC\SECURITY\SEC_End_Of_Battery.c
              SEC_5V_Fail   0x009ea4    program     extern Y:\Documents\Openventilator\SRC\SECURITY\SEC_5V_Fail.c
            PUST_CalcCrc8   0x009f78    program     extern Y:\Documents\Openventilator\SRC\PUST\PUST_crc8.c
        ___while_lbl00002   0x009f9c    program     static                          
           ___if_lbl00001   0x009f9c    program     static                          
        ___while_lbl00004   0x009fc2    program     static                          
               __tmplbl_0   0x009fe2    program     static                          
        ___while_lbl00005   0x00a022    program     static                          
        ___while_lbl00003   0x00a02c    program     static                          
       ___return_lbl00000   0x00a034    program     static                          
              SCHED_entry   0x00a03c    program     extern Y:\Documents\Openventilator\SRC\SCHEDULER\SCHED_entry.c
                  ramtest   0x00a0f2    program     extern Y:\Documents\Openventilator\SRC\PUST\ramtest.asm
            write_AA_loop   0x00a102    program     static Y:\Documents\Openventilator\SRC\PUST\ramtest.asm
             read_AA_loop   0x00a11a    program     static Y:\Documents\Openventilator\SRC\PUST\ramtest.asm
            write_55_loop   0x00a134    program     static Y:\Documents\Openventilator\SRC\PUST\ramtest.asm
             read_55_loop   0x00a14c    program     static Y:\Documents\Openventilator\SRC\PUST\ramtest.asm
            read_55_error   0x00a160    program     static Y:\Documents\Openventilator\SRC\PUST\ramtest.asm
            read_AA_error   0x00a160    program     extern Y:\Documents\Openventilator\SRC\PUST\ramtest.asm
                  leds_on   0x00a164    program     static Y:\Documents\Openventilator\SRC\PUST\ramtest.asm
                 leds_off   0x00a16a    program     static Y:\Documents\Openventilator\SRC\PUST\ramtest.asm
                wait500ms   0x00a172    program     static Y:\Documents\Openventilator\SRC\PUST\ramtest.asm
                   waitT0   0x00a17e    program     static Y:\Documents\Openventilator\SRC\PUST\ramtest.asm
            __zero_memory   0x00a188    program     extern E:\3.46\pic18-lt\cxx-framework\src\extended\proc\p18f6622.asm
               zero_block   0x00a196    program     static E:\3.46\pic18-lt\cxx-framework\src\extended\proc\p18f6622.asm
                   loop_h   0x00a196    program     static E:\3.46\pic18-lt\cxx-framework\src\extended\proc\p18f6622.asm
                compare_l   0x00a19e    program     static E:\3.46\pic18-lt\cxx-framework\src\extended\proc\p18f6622.asm
                   loop_l   0x00a1a0    program     static E:\3.46\pic18-lt\cxx-framework\src\extended\proc\p18f6622.asm
            memcpypgm2ram   0x00a1a8    program     extern E:\3.46\pic18-lt\cxx-framework\src\extended\stdclib\mcpyp2r.asm
                    jLoop   0x00a1ce    program     static E:\3.46\pic18-lt\cxx-framework\src\extended\stdclib\mcpyp2r.asm
              _3jContinue   0x00a1da    program     static E:\3.46\pic18-lt\cxx-framework\src\extended\stdclib\mcpyp2r.asm
                   _4jEnd   0x00a1e4    program     static E:\3.46\pic18-lt\cxx-framework\src\extended\stdclib\mcpyp2r.asm
                     jEnd   0x00a1ec    program     static E:\3.46\pic18-lt\cxx-framework\src\extended\stdclib\mcpyp2r.asm
                   strlen   0x00a1ee    program     extern E:\3.46\pic18-lt\cxx-framework\src\extended\stdclib\strlen.asm
                    jLoop   0x00a1fe    program     static E:\3.46\pic18-lt\cxx-framework\src\extended\stdclib\strlen.asm
                     jEnd   0x00a208    program     static E:\3.46\pic18-lt\cxx-framework\src\extended\stdclib\strlen.asm
                strlenpgm   0x00a20a    program     extern E:\3.46\pic18-lt\cxx-framework\src\extended\stdclib\slenpgm.asm
                    jLoop   0x00a228    program     static E:\3.46\pic18-lt\cxx-framework\src\extended\stdclib\slenpgm.asm
                   _2jEnd   0x00a23e    program     static E:\3.46\pic18-lt\cxx-framework\src\extended\stdclib\slenpgm.asm
                     jEnd   0x00a240    program     static E:\3.46\pic18-lt\cxx-framework\src\extended\stdclib\slenpgm.asm
             FAN_Sampling   0x00a254    program     extern Y:\Documents\Openventilator\SRC\FAN\FAN_Sampling.c
               INIT_Timer   0x00a2fe    program     extern Y:\Documents\Openventilator\SRC\INIT\INIT_Timer.c
          ___for_lbl00003   0x00a30e    program     static                          
          ___for_lbl00001   0x00a34e    program     static                          
          ___for_lbl00002   0x00a352    program     static                          
          ___for_lbl00006   0x00a354    program     static                          
          ___for_lbl00004   0x00a398    program     static                          
          ___for_lbl00005   0x00a39c    program     static                          
       ___return_lbl00000   0x00a39e    program     static                          
 SEC_Battery_Unchargeable   0x00a3a6    program     extern Y:\Documents\Openventilator\SRC\SECURITY\SEC_Battery_Unchargeable.c
            INIT_DataBase   0x00a44a    program     extern Y:\Documents\Openventilator\SRC\INIT\INIT_DataBase.c
          ___for_lbl00003   0x00a45a    program     static                          
          ___for_lbl00001   0x00a476    program     static                          
          ___for_lbl00002   0x00a47a    program     static                          
          ___for_lbl00006   0x00a47c    program     static                          
          ___for_lbl00004   0x00a498    program     static                          
          ___for_lbl00005   0x00a49c    program     static                          
          ___for_lbl00009   0x00a49e    program     static                          
          ___for_lbl00007   0x00a4ba    program     static                          
          ___for_lbl00008   0x00a4be    program     static                          
          ___for_lbl00012   0x00a4c0    program     static                          
          ___for_lbl00010   0x00a4dc    program     static                          
          ___for_lbl00011   0x00a4e0    program     static                          
       ___return_lbl00000   0x00a4e2    program     static                          
                _do_cinit   0x00a4ea    program     extern Y:\Documents\Openventilator\SRC\ALIM\STARTUP_Alim_Legendair_Phase_II.c
                     test   0x00a504    program     static                          
                copy_loop   0x00a55c    program     static                          
            copy_one_byte   0x00a562    program     static                          
             done_copying   0x00a570    program     static                          
                     done   0x00a586    program     static                          
       ___return_lbl00002   0x00a586    program     static                          
           SEC_No_Battery   0x00a588    program     extern Y:\Documents\Openventilator\SRC\SECURITY\SEC_No_Battery.c
       SEC_UnknownBattery   0x00a626    program     extern Y:\Documents\Openventilator\SRC\SECURITY\SEC_UnknownBattery.c
               saturation   0x00a6be    program     extern Y:\Documents\Openventilator\SRC\ALIM\Saturation.c
            SWITCH_Launch   0x00a754    program     extern Y:\Documents\Openventilator\SRC\SWITCH\SWITCH_Launch.c
SEC_Ambient_Temp_Too_High   0x00a7de    program     extern Y:\Documents\Openventilator\SRC\SECURITY\SEC_Ambient_Temp_Too_High.c
                 INIT_CPU   0x00a866    program     extern Y:\Documents\Openventilator\SRC\INIT\INIT_CPU.c
       ___return_lbl00000   0x00a8ec    program     static                          
SEC_Measures_Out_Of_Bounds   0x00a8ee    program     extern Y:\Documents\Openventilator\SRC\SECURITY\SEC_Measures_Out_Of_Bounds.c
         PUST_Check_Flash   0x00a970    program     static Y:\Documents\Openventilator\SRC\PUST\PUST.c
              PUST_Checks   0x00a9b4    program     extern Y:\Documents\Openventilator\SRC\PUST\PUST.c
PUST_InfiniteLoopFlashLeds   0x00a9ec    program     static Y:\Documents\Openventilator\SRC\PUST\PUST.c
 SEC_Charge_Time_Too_Long   0x00a9f0    program     extern Y:\Documents\Openventilator\SRC\SECURITY\SEC_Charge_Time_Too_Long.c
              SEC_3V_Fail   0x00aa6e    program     extern Y:\Documents\Openventilator\SRC\SECURITY\SEC_3V_Fail.c
     TIM_StartDecounter32   0x00aae8    program     extern Y:\Documents\Openventilator\SRC\TIMERS\TIM_StartDecounter32.c
     SEC_Measure_VDC_Fail   0x00ab60    program     extern Y:\Documents\Openventilator\SRC\SECURITY\SEC_Measure_VDC_Fail.c
             SEC_CommFail   0x00abd8    program     extern Y:\Documents\Openventilator\SRC\SECURITY\SEC_CommFail.c
    cCapacityBasedVoltage   0x00ac4e    program     extern Y:\Documents\Openventilator\SRC\SYSTEM\SYS_Gauge_Data.h
                     putc   0x00acbe    program     extern E:\3.46\pic18-lt\cxx-framework\src\extended\stdclib\putc.c
  SEC_Temp_Sensor_Failure   0x00ad24    program     extern Y:\Documents\Openventilator\SRC\SECURITY\SEC_Temp_Sensor_Failure.c
     TIM_StartDecounter16   0x00ad8a    program     extern Y:\Documents\Openventilator\SRC\TIMERS\TIM_StartDecounter16.c
DRV_EEPROM_BAT_DifferenceZoneReadWrite   0x00adee    program     extern Y:\Documents\Openventilator\SRC\DRIVERS_EEPROM\DRV_EEPROM_BAT_DifferenceZoneReadWrite.c
   DRV_SPI_ST10_Interrupt   0x00ae50    program     extern Y:\Documents\Openventilator\SRC\DRIVERS_SPI\DRV_SPI_ST10_Interrupt.c
          TIM_ReadValue16   0x00ae9c    program     extern Y:\Documents\Openventilator\SRC\TIMERS\TIM_ReadValue16.c
          TIM_ReadValue32   0x00aee6    program     extern Y:\Documents\Openventilator\SRC\TIMERS\TIM_ReadValue32.c
      DRV_SPI_ST10_Launch   0x00af2e    program     extern Y:\Documents\Openventilator\SRC\DRIVERS_SPI\DRV_SPI_ST10_Launch.c
     DB_PowerSupply_Write   0x00af6e    program     extern Y:\Documents\Openventilator\SRC\DATABASE\DB_PowerSupply_Write.c
     DB_Measurement_Write   0x00afac    program     extern Y:\Documents\Openventilator\SRC\DATABASE\DB_Measurement_Write.c
         DB_Control_Write   0x00afea    program     extern Y:\Documents\Openventilator\SRC\DATABASE\DB_Control_Write.c
          DB_Config_Write   0x00b028    program     extern Y:\Documents\Openventilator\SRC\DATABASE\DB_Config_Write.c
      DB_PowerSupply_Read   0x00b066    program     extern Y:\Documents\Openventilator\SRC\DATABASE\DB_PowerSupply_Read.c
      DB_Measurement_Read   0x00b0a2    program     extern Y:\Documents\Openventilator\SRC\DATABASE\DB_Measurement_Read.c
          DB_Control_Read   0x00b0de    program     extern Y:\Documents\Openventilator\SRC\DATABASE\DB_Control_Read.c
           DB_Config_Read   0x00b11a    program     extern Y:\Documents\Openventilator\SRC\DATABASE\DB_Config_Read.c
        INIT_RS232_Driver   0x00b156    program     extern Y:\Documents\Openventilator\SRC\INIT\INIT_RS232_Driver.c
       ___return_lbl00000   0x00b18e    program     static                          
      DB_EEPROM_BAT_Write   0x00b190    program     extern Y:\Documents\Openventilator\SRC\DATABASE\DB_EEPROM_BAT_Write.c
       SAM_PWM_Conversion   0x00b1c6    program     extern Y:\Documents\Openventilator\SRC\SAM\SAM_PWM_Conversion.c
                     main   0x00b1fa    program     extern Y:\Documents\Openventilator\SRC\MAIN\MAIN_Carte_Alim.c
     INIT_SPI_ST10_Driver   0x00b22e    program     extern Y:\Documents\Openventilator\SRC\INIT\INIT_SPI_ST10_Driver.c
       ___return_lbl00000   0x00b25a    program     static                          
       DB_EEPROM_BAT_Read   0x00b25c    program     extern Y:\Documents\Openventilator\SRC\DATABASE\DB_EEPROM_BAT_Read.c
      MAIN_activate_tasks   0x00b288    program     extern Y:\Documents\Openventilator\SRC\MAIN\MAIN_activate_tasks.c
DRV_RS232_InterruptReceive   0x00b2b2    program     extern Y:\Documents\Openventilator\SRC\DRIVERS_RS232\DRV_RS232_InterruptReceive.c
DRV_RS232_InterruptTransmit   0x00b2dc    program     extern Y:\Documents\Openventilator\SRC\DRIVERS_RS232\DRV_RS232_InterruptTransmit.c
                  isdigit   0x00b302    program     extern E:\3.46\pic18-lt\cxx-framework\src\extended\stdclib\isdigit.asm
                   jMatch   0x00b322    program     static E:\3.46\pic18-lt\cxx-framework\src\extended\stdclib\isdigit.asm
                 jNoMatch   0x00b324    program     static E:\3.46\pic18-lt\cxx-framework\src\extended\stdclib\isdigit.asm
        CHARGE_StopCharge   0x00b326    program     extern Y:\Documents\Openventilator\SRC\CHARGE\CHARGE_StopCharge.c
              _usart_putc   0x00b344    program     extern E:\3.46\pic18-lt\cxx-framework\src\pmc_common\USART\_usartpc.asm
                     loop   0x00b354    program     static E:\3.46\pic18-lt\cxx-framework\src\pmc_common\USART\_usartpc.asm
                 _startup   0x00b360    program     extern Y:\Documents\Openventilator\SRC\ALIM\STARTUP_Alim_Legendair_Phase_II.c
                     loop   0x00b372    program     static                          
       ___return_lbl00001   0x00b378    program     static                          
              INIT_Sample   0x00b37a    program     extern Y:\Documents\Openventilator\SRC\INIT\INIT_Sample.c
       ___return_lbl00000   0x00b38e    program     static                          
             SCHED_Launch   0x00b390    program     extern Y:\Documents\Openventilator\SRC\SCHEDULER\SCHED_Launch.c
    INTERRUPT_LowPriority   0x00b3a2    program     extern Y:\Documents\Openventilator\SRC\INTERRUPTS\INTERRUPT_LowPriority.c
                 s_digits   0x00b3b4    program     static E:\3.46\pic18-lt\cxx-framework\src\extended\stdclib\vfprintf.c
 DRV_EEPROM_BAT_Interrupt   0x00b3c6    program     extern Y:\Documents\Openventilator\SRC\DRIVERS_EEPROM\DRV_EEPROM_BAT_Interrupt.c
        INIT_Interrupt_T0   0x00b3d2    program     extern Y:\Documents\Openventilator\SRC\INIT\INIT_Interrupt_T0.c
       ___return_lbl00000   0x00b3d6    program     static                          
          Watchdog_Launch   0x00b3d8    program     extern Y:\Documents\Openventilator\SRC\WATCHDOG\Watch_Dog_Launch.c
       ___return_lbl00000   0x00b3da    program     static                          
            configuration   0x300000    program     extern Y:\Documents\Openventilator\SRC\INIT\INIT_CPU.c
           DB_powerSupply   0x000000       data     extern Y:\Documents\Openventilator\SRC\DATABASE\DB_PowerSupply.h
 TIM_TableOfCntAndDecnt16   0x000060       data     extern Y:\Documents\Openventilator\SRC\TIMERS\Timer_Data.h
 TIM_TableOfCntAndDecnt32   0x0000d4       data     extern Y:\Documents\Openventilator\SRC\TIMERS\Timer_Data.h
                      Idx   0x0000fe       data     extern Y:\Documents\Openventilator\SRC\DRIVERS_SPI\DRV_SPI_ST10_ReadBuffer.c
        VACDC_Can_Samples   0x000100       data     static Y:\Documents\Openventilator\SRC\SAM\SAM_Launch.h
          VDC_Can_Samples   0x0001a0       data     static Y:\Documents\Openventilator\SRC\SAM\SAM_Launch.h
         VBAT_Can_Samples   0x0001b4       data     static Y:\Documents\Openventilator\SRC\SAM\SAM_Launch.h
         IBAT_Can_Samples   0x0001c8       data     static Y:\Documents\Openventilator\SRC\SAM\SAM_Launch.h
      VCHARGE_Can_Samples   0x0001dc       data     static Y:\Documents\Openventilator\SRC\SAM\SAM_Launch.h
Init_Chargeur_Autorisation   0x0001f0       data     extern Y:\Documents\Openventilator\SRC\CHARGE\CHARGE_Data.h
       CumulChargeCurrent   0x0001f2       data     extern Y:\Documents\Openventilator\SRC\CHARGE\CHARGE_Data.h
PreviousMaintenanceControl   0x0001f6       data     static Y:\Documents\Openventilator\SRC\CHARGE\CHARGE_Launch.c
          FirstInitCharge   0x0001f8       data     static Y:\Documents\Openventilator\SRC\CHARGE\CHARGE_Launch.c
     ChargeInitialization   0x0001fa       data     static Y:\Documents\Openventilator\SRC\CHARGE\CHARGE_Launch.c
                __RETVAL0   0x0001fc       data     extern E:\3.46\pic18-lt\cxx-framework\src\extended\math\cmath18.asm
                __RETVAL1   0x0001fd       data     extern E:\3.46\pic18-lt\cxx-framework\src\extended\math\cmath18.asm
                __RETVAL2   0x0001fe       data     extern E:\3.46\pic18-lt\cxx-framework\src\extended\math\cmath18.asm
                __RETVAL3   0x0001ff       data     extern E:\3.46\pic18-lt\cxx-framework\src\extended\math\cmath18.asm
              Tasks_Table   0x000200       data     extern Y:\Documents\Openventilator\SRC\SCHEDULER\SCHED_entry.c
              Sched_table   0x000260       data     extern Y:\Documents\Openventilator\SRC\SCHEDULER\SCHED_entry.c
          Number_of_tasks   0x000280       data     extern Y:\Documents\Openventilator\SRC\SCHEDULER\SCHED_entry.c
        sched_step_number   0x000281       data     extern Y:\Documents\Openventilator\SRC\SCHEDULER\SCHED_entry.c
         CountActivateJob   0x000282       data     extern Y:\Documents\Openventilator\SRC\SCHEDULER\SCHED_entry.c
    CountActivateTaskStep   0x000283       data     extern Y:\Documents\Openventilator\SRC\SCHEDULER\SCHED_entry.c
   TempConvTable_Ambiante   0x000284       data     extern Y:\Documents\Openventilator\SRC\SAM\SAM_Temperature_Conversion.c
   TempConvTable_Batterry   0x0002b4       data     extern Y:\Documents\Openventilator\SRC\SAM\SAM_Temperature_Conversion.c
               DB_Control   0x0002e4       data     extern Y:\Documents\Openventilator\SRC\DATABASE\DB_Control.h
              Rs232_State   0x000300       data     extern Y:\Documents\Openventilator\SRC\DRIVERS_RS232\DRV_RS232_Data.h
              ArrayTxData   0x000301       data     extern Y:\Documents\Openventilator\SRC\DRIVERS_RS232\DRV_RS232_Data.h
          BufferOfReceipt   0x000337       data     extern Y:\Documents\Openventilator\SRC\DRIVERS_RS232\DRV_RS232_Data.h
          PtrReadBufferRx   0x00034c       data     extern Y:\Documents\Openventilator\SRC\DRIVERS_RS232\DRV_RS232_Data.h
         PtrWriteBufferRx   0x00034d       data     extern Y:\Documents\Openventilator\SRC\DRIVERS_RS232\DRV_RS232_Data.h
            ArrayTxDataId   0x00034e       data     extern Y:\Documents\Openventilator\SRC\DRIVERS_RS232\DRV_RS232_Data.h
            EndOfTransmit   0x00034f       data     extern Y:\Documents\Openventilator\SRC\DRIVERS_RS232\DRV_RS232_Data.h
CapacityBasedVoltageComputed   0x000350       data     extern Y:\Documents\Openventilator\SRC\SYSTEM\SYS_Gauge_Data.h
            AgeingCompute   0x000384       data     extern Y:\Documents\Openventilator\SRC\SYSTEM\SYS_Gauge_Data.h
                 FirstRun   0x000396       data     static Y:\Documents\Openventilator\SRC\SYSTEM\SYS_Launch.c
              FirtsVentil   0x000397       data     static Y:\Documents\Openventilator\SRC\SYSTEM\SYS_Launch.c
     SpiArrayTransmitData   0x000398       data     extern Y:\Documents\Openventilator\SRC\DRIVERS_SPI\DRV_SPI_ST10_Data.h
       SpiBufferOfReceipt   0x0003c1       data     extern Y:\Documents\Openventilator\SRC\DRIVERS_SPI\DRV_SPI_ST10_Data.h
